:020000040000FA
:10000000B0180020551D000073480000B51D000009
:10001000B51D0000B51D0000B51D0000B51D000098
:100020000000000000000000000000003D1B000078
:10003000B51D000000000000E51A0000ED470000BB
:10004000151D0000151D0000151D0000151D0000E8
:10005000151D0000151D0000151D0000151D0000D8
:10006000151D0000151D0000151D0000151D0000C8
:10007000151D0000151D0000151D0000151D0000B8
:10008000151D0000151D0000151D0000151D0000A8
:10009000151D0000151D0000151D0000151D000098
:1000A000151D0000151D0000151D0000151D000088
:1000B000151D0000151D0000151D0000151D000078
:1000C000151D0000151D0000151D0000151D000068
:1000D000151D0000151D0000151D0000151D000058
:1000E000151D0000151D0000151D0000151D000048
:1000F000151D0000151D0000151D0000151D000038
:10010000151D0000151D0000151D0000151D000027
:10011000151D0000151D0000151D0000151D000017
:10012000151D0000151D0000151D0000151D000007
:10013000151D0000151D0000151D0000151D0000F7
:10014000151D0000151D0000151D0000151D0000E7
:10015000151D00000000000000000000000000006D
:10016000000000000000000000000000000000008F
:10017000000000000000000000000000000000007F
:10018000000000000000000000000000000000006F
:10019000000000000000000000000000000000005F
:1001A000000000000000000000000000000000004F
:1001B000000000000000000000000000000000003F
:1001C000000000000000000000000000000000002F
:1001D000000000000000000000000000000000001F
:1001E000000000000000000000000000000000000F
:1001F00000000000000000000000000000000000FF
:10020000DEE61E284CBBCE8F023500003C0000000D
:10021000008000000100000000000000000000005D
:10022000FFFF02910000000000000000000000003D
:1002300000000000000000000000000053B94AB9AF
:10024000002908BF00281CBF4FF0FF314FF0FF30DE
:1002500000F080B9ADF1080C6DE904CE00F006F8AD
:10026000DDF804E0DDE9022304B070472DE9F04F2A
:10027000099E0D4604460F46002B47D18A429446FC
:100280005FD9B2FA82F343B1C3F120019F4002FA71
:1002900003FC9C4020FA01F10F434FEA1C451FFA72
:1002A0008CFE220CB7FBF5F105FB117701FB0EF07C
:1002B00042EA0742904208D91CEB020201F1FF37E3
:1002C00002D2904200F234813946121AA4B2B2FB33
:1002D000F5F005FB102200FB0EFE44EA0244A645A1
:1002E00008D91CEB040400F1FF3202D2A64500F24B
:1002F0001981104640EA0140A4EB0E0400211EB112
:10030000DC400023C6E90043BDE8F08F8B4208D9EA
:10031000002E00F0FB800021C6E900050846BDE87C
:10032000F08FB3FA83F100294BD1AB42C0F0F180DA
:10033000824240F2EE800846002EE5D0C6E9004732
:10034000E2E702B9FFDEB2FA82F3002B40F09D80B3
:100350008D1A4FEA124E97B20121B5FBFEF20EFB49
:100360001250250C45EA004507FB02F0A8420FD9C0
:100370001CEB050502F1FF382CBF4FF001094FF0CF
:100380000009A84203D9B9F1000F00F0CE8042461F
:100390002D1AA4B2B5FBFEF00EFB105500FB07F7BB
:1003A00044EA0544A74208D91CEB040400F1FF35D8
:1003B00002D2A74200F2B3802846E41B40EA024082
:1003C0009DE7C1F120078B4005FA01F422FA07FCF2
:1003D000FD408A404CEA030C20FA07F34FEA1C491F
:1003E0001C431FFA8CFE00FA01F3200CB5FBF9F850
:1003F00009FB185540EA054508FB0EF0A8420FD945
:100400001CEB050508F1FF3A2CBF4FF0010B4FF034
:10041000000BA84203D9BBF1000F00F08C80D0463E
:100420002D1AA4B2B5FBF9F009FB105500FB0EFE26
:1004300044EA0545AE4507D91CEB050500F1FF343C
:1004400001D2AE457ED8204640EA0840A5EB0E0515
:10045000A0FB029845454C46C64602D306D14B4503
:1004600004D20138B9EB020468EB0C0E002E6FD0F9
:100470001A1B65EB0E0522FA01F305FA07F7CD40CA
:1004800000211F43C6E900753EE702FA03FCC3F1F1
:10049000200001FA03F24FEA1C4EC14024FA00F595
:1004A0001FFA8CF79C401543B1FBFEF02A0C0EFBA3
:1004B000101142EA014200FB07F191420ED91CEBF8
:1004C000020200F1FF382CBF4FF001094FF0000984
:1004D000914202D9B9F1000F31D04046521AADB263
:1004E000B2FBFEF10EFB112245EA024501FB07F2C9
:1004F000AA4207D91CEB050501F1FF3801D2AA4237
:1005000023D84146AD1A41EA004126E7314630463C
:10051000FAE6841A65EB030301201F460CE76444E6
:1005200002384AE764440238E4E6023A65442FE7B9
:1005300002396244C9E6A8F10208654470E702384E
:100540006244CBE7023865447EE702396544D9E767
:100550003146D9E6704700BF2DE9E04F2746A04657
:10056000A146A246A346A446A2B02DEC000A84F3FD
:10057000008825462646A4473DEC000A22B0BDE887
:10058000E08F00000B6801330B60014B1B681847BC
:1005900000000020014B1860704700BF00000020E1
:1005A00007B50B46002102460191034801A900F05E
:1005B000E5F803B05DF804FB850500002DE9F84F70
:1005C000B0F81890044619F0080893460DD0012998
:1005D0000CBF49F0100949F02009A0F818908BF3DE
:1005E0001188BFF36F8FBDE8F88F09F00709022962
:1005F00007D1204603F06EFE0028F0D00128238B9F
:100600004ED16769218B002F15DA256821F007018B
:10061000C4E9008841F0010121830026218B01F00B
:10062000070ACA4502D0A368002B5AD10DB9002E83
:1006300071D0002356E001F007035A1F012A1ED88B
:1006400021F00701062B256889B2C4E900880AD188
:100650003DB12A46638B126801339BB2002AFAD15E
:10066000638341F002012046218303F033FE0646F6
:100670000028D3D0238B43F020032383CDE7042B22
:100680000CD121F0070189B22046218303F022FE1C
:1006900005460028C1D041F0200121830025BCE798
:1006A000032809D1226923F00703166843F00603E3
:1006B000002523832F46B1E7042806D1226923F0C1
:1006C0000703566843F00403F2E7052806D12269C0
:1006D00023F00703966843F00503E9E700252E465B
:1006E000E8E7012341F0080121838BF31188BFF370
:1006F0006F8FFBB985BB16B120461F49B0474FF03D
:100700002003EFF3118B83F31188BFF36F8F238BDB
:1007100023F008032383238BDA0625D5012123F058
:1007200010032383B4F8189009F0070900297FF417
:100730005EAF54E7A1680029DCD0D1F800903B46B9
:1007400052462046D1F804B0D847B9F1000FD1D0B5
:100750004946D9F80090F2E729463B4652462046E2
:100760002D6803F0D3FDC5E713F020011EBF23F071
:10077000200302212383D5E7394300002DE9F04F00
:100780008B4692461C46002591B002909AF80000D4
:1007900008B928465FE325280AF1010707D0594622
:1007A000029B98470028C0F25683013512E21822B6
:1007B00000210AA804F0CAF89AF80130252B78D055
:1007C00000229446964616461046394617F8013BD5
:1007D0002B2B00F09D8000F29480202B00F09A805B
:1007E000232B00F09A8028B19DF8300040F00400DF
:1007F0008DF830002EB19DF8300040F008008DF8E3
:100800003000BEF1000F05D09DF8300040F0100020
:100810008DF83000BCF1000F05D09DF8300040F09D
:1008200020008DF830002AB19DF8302042F04002BF
:100830008DF830209DF8302002F04400442803D188
:100840006FF386128DF830209DF830202A2B42F06D
:1008500080028DF830207BD19DF831204B1C42F076
:1008600001028DF831201A782E2A0CBF01210021B7
:100870009DF8312061F341028DF8312074D15A780E
:100880002A2A6AD000210A260133184610F8012BC3
:10089000A2F13007092F40F28E809DF830200E9192
:1008A000C2F3400040EAD17161F341028DF830207B
:1008B0005AE00AF102078DF833309DF83130D9073C
:1008C00040F1498154F8049BB9F1000F07DA9DF813
:1008D0003020C9F1000942F004028DF830205A0797
:1008E00040F1428154F8048BB8F1000F80F241814D
:1008F0009DF831306FF341038DF831304FF0FF3800
:1009000037E12D2B0CD0302B7FF46DAF01225CE74B
:1009100001265AE74FF0010E57E74FF0010C54E75C
:10092000012052E733460CFB0202303A1E4616F80D
:10093000010BA0F13007092FF4D9994293D09DF80B
:1009400030100D92D20F62F341018DF830108AE71A
:100950000B4600224FF00A0CE8E79DF831200233E5
:1009600042F004028DF831201F4617F8012B6C2A43
:1009700041D025D8682A2BD06A2A46D04C2A4CD0A0
:100980001F4617F8012B9DF83130782A8DF8332057
:1009900000F2D980572A4DD8412A03D0453A022A7D
:1009A00000F2D18004229DF8323062F302038DF808
:1009B000323001239EE006FB01210346303964E713
:1009C000742A26D07A2ADBD106229DF831300DE038
:1009D0005A78682A9DF8312006D1012161F3C602B8
:1009E0008DF831209F1CCCE71346022262F3C60328
:1009F0008DF83130C5E75A786C2A9DF8312001D145
:100A00000421EBE713460322F0E705229DF831307D
:100A1000ECE707229DF83130E8E7BDF8303023F4E9
:100A2000F04323F0020343F4804343F00203ADF8A4
:100A30003030A6E7A2F15801202900F2848001A0FD
:100A400050F821F0090B0000470B0000470B000095
:100A5000470B0000470B0000470B0000470B00004E
:100A6000470B0000470B0000A5090000470B0000E2
:100A7000090B0000C90A0000A5090000A509000033
:100A8000A5090000470B0000C90A0000470B000041
:100A9000470B0000470B0000470B0000110B000044
:100AA000090B00002D0B0000470B0000470B000056
:100AB0002D0B0000470B0000090B0000470B000046
:100AC000470B0000090B000001209DF8321003F0D5
:100AD000780360F30201402B8DF8321002BF9DF8BD
:100AE000301041F001018DF83010632A31D1003B04
:100AF00018BF01239DF83020C2F340010B4363F37C
:100B000041028DF83020D8E602209DF83210DEE751
:100B100003219DF8322003F07803A3F1400061F334
:100B2000020243428DF832204341E3E703219DF85E
:100B3000322013F0780F61F3020214BF0123002367
:100B40008DF83220D6E79DF8303043F001038DF860
:100B500030300023CEE79DF93020002AACBF4FF0A3
:100B6000FF39DDF83490BAE69B077FF5C7AEDDF8B4
:100B700038800023CDE90D339DF832309DF83110D7
:100B800003F00703012BC1F3C30138D1CB1E042BA3
:100B900022D8DFE803F003090921210054F8043BBF
:100BA000DA17CDE90A3206E0073424F00704F4E846
:100BB0000223CDE90A239DF8303013F0030656D006
:100BC0003B4652465946029803F059FD0028C0F2B0
:100BD00042810544BA46D9E554F8043B01294FEA5D
:100BE000E372CDE90A3205D19DF828300A9300233B
:100BF0000B93E0E70229DED1BDF92830D0E7022BC4
:100C000023D1CB1E042B13D8DFE803F0030A0A120A
:100C1000120000232268201D0A920B930446CAE7A3
:100C2000E01D20F00700F0E80223CDE90A23F5E7F4
:100C300054F8043B01290A934FF000030B93D3D0DF
:100C40000229B8D1BDF82830D0E7042B09D1E31D23
:100C500023F0070303F10804D3E90023CDE90A23B5
:100C6000A9E7032B04BF54F8043B0A93A3E79DF8BC
:100C700033007828AED8622822D825283FF48FADDB
:100C80005828A7D1DDE90A010DF1260300930CAA2B
:100C900004AB03F0AEFC8246B8F1000F0DF1260064
:100CA0000CDB9DF83020A0EB0A036FF38612984509
:100CB0008DF8302002D9A8EB03030D9380463DE068
:100CC0006338152886D801A252F820F04D0D000097
:100CD000B10D0000D50B0000D50B0000D50B0000B6
:100CE000D50B0000B10D0000D50B0000D50B0000A6
:100CF000D50B0000D50B00000B0E0000D90D000035
:100D0000DD0D0000D50B0000D50B0000250D000007
:100D1000D50B0000D90D0000D50B0000D50B00004D
:100D2000D90D0000B8F1000FDDF828A00ADB41461C
:100D3000504603F0BAFD00260AEB0008BAF1000F96
:100D40000CD147E7504603F0A9FDF4E700260A9BC3
:100D50000DF1100A8DF810300DF11108A8EB0A03FF
:100D600006B101339DF83220D00668D50233520611
:100D70000D9948BF0E9A0B4448BF9B18B9F1000F5C
:100D800076DD9DF83020A9EB0309C2F380030393BD
:100D900053076DD4500661D546B159463046029B83
:100DA0009847002857DB039B01351E46302356E049
:100DB0001E070FD413F0100618BF2026DDE90A2302
:100DC000002BBFF65FAF524263EB43032D26CDE904
:100DD0000A2357E72B26F1E7002653E70A9840B38A
:100DE0000DF126030093002104AB0CAA03F001FCD3
:100DF000BDF83230824603F0EF0343F4F04343F092
:100E000010030026ADF8323046E70A9B07293FF66B
:100E1000E1AEDFE801F00C04060C08080C0C1D70B4
:100E2000D8E61D80D6E6EA17C3E90052D2E61D6077
:100E3000D0E6DFF8C8A006460AF105088EE71107DC
:100E400048BF013393E7184603935946029B9847DE
:100E50000028039B04DA11B0BDE8F08F20234D4435
:100E60004A46002AA5EB090109F1FF39EBDC0D46E2
:100E700036B159463046029B98470028EBDB0135D6
:100E80009DF83230D90601D41A0706D559463020CC
:100E9000029B98470028DEDB01359DF83230DB06E7
:100EA00007D559469DF83300029B98470028D2DBAE
:100EB00001350D9E2E44731B002B16DC4346524613
:100EC0005946029803F0DBFB0028C4DB0544A94423
:100ED000A9EB0503002B7FF77DAE59462020029B2E
:100EE00098470028B7DB0135F2E759463020029BCE
:100EF00098470028AFDB0135DDE700BF285400002C
:100F000008B54FF47F03D3F83021072A19D1D3F85D
:100F10003431023B032B14D80B4AD35C8BB14521EF
:100F20000A4803F0CAF94521094803F0C6F94521EA
:100F3000084803F0C2F9404080F311884FF00400E4
:100F400002DF002008BD00BFBA5400002E5400008C
:100F5000605400008C540000054B03EB8000D0F877
:100F6000003223F0E04343F04053C0F800327047B2
:100F70000025845010B54FF02003EFF3118483F364
:100F80001188BFF36F8F01220B490C4B0020C3F86F
:100F90000025C1F8D026FFF7DFFF1046FFF7DCFF82
:100FA000C1F80427C1F80429C1F8002B84F3118883
:100FB000BFF36F8F002010BD0040005000100050A4
:100FC00048B1054B1A68054BB2FBF3F2044B504392
:100FD00043F00103184770473C00002040420F00D7
:100FE00020510000044608B54FF02002EFF31183B2
:100FF00082F31188BFF36F8F03F0FAFB204601F0F4
:101000002FF9034803F059F900F018FEFCE700BF80
:10101000C454000010B5074801F074FF064C074B9C
:101020001860204601F0CEFB2046FFF7B3FA0020FF
:1010300010BD00BFED540000411000004802002028
:101040000A2838B50446074D04D1286883680D2165
:101050005B68984728688368E1B25B6898472046D8
:1010600038BD00BF48020020084B70B5C31A0D46BA
:1010700007499B10044659434022064803F034FBBD
:101080002B4601462046BDE8704018475C02002010
:10109000B76DDBB6A8000020402373B50B4C00935E
:1010A000041B0B460D460A49A41061430646094A33
:1010B000094803F046FB011E05DA30462B4602B014
:1010C000BDE87040184702B070BD00BF5C02002050
:1010D000B76DDBB6B1470000A80000202DE9F8434A
:1010E000002201210646052000F056FD052000F0F3
:1010F00035FD114801F044FE104B984219D103F020
:10110000A8FC00244FF01C080C27DFF83490F56889
:10111000494608FB045003F02CF9002807DB0123A3
:1011200007FB04551C44042CAB67F0D10020BDE83C
:10113000F8836FF00400FAE7791100000000AD0BAE
:101140006C51000001460C2300224B43084870B547
:10115000C4187833D4E91C561844226703F0B1FA56
:101160002DB132462B46BDE870400248184770BD8D
:101170005C020020A8000020052811D8DFE800F05C
:10118000030E10100C0A074B986F10F0070007D1E0
:10119000FFF7D8BF0220FBE70320F9E70120F7E7BC
:1011A000704700BF5C02002008B54FF02003EFF34A
:1011B000118183F31188BFF36F8F124A136843F0D4
:1011C000020013F0010310600CD04FF05022D2F84F
:1011D0000C34D2F80C2413F0010303D00A4803F0B6
:1011E00070FA012381F31188BFF36F8F23B1BDE83B
:1011F00008400020FFF7A6BF0120BDE8084003F02B
:1012000038BC00BFFC020020D40200201FB5002221
:101210000123CDE902236B46084ACDF800D0CDF872
:1012200004D003F0BEFA002805DB4FF4804200230F
:10123000684602F08DFC05B05DF804FBE74700004E
:10124000074BD3E8EF2F22F00201C3E8E01F00288C
:10125000F7D1D30702D4012003F05ABC704700BF76
:10126000FC0200202DE9F041012207463749D1E870
:10127000EF3FC1E8E02F0028F9D133B934493548B0
:101280004B60CB608A6003F087F87B1E012B2FD860
:10129000012F07D14FF05023D3F81C3403F0030380
:1012A000022B25D003F06AFD044618B92A4B1B789F
:1012B000002B44D14FF02003EFF3118683F3118804
:1012C000BFF36F8F01244FF05025DFF89080D5F8E1
:1012D0001834D5F81824D2030CD503F00303022BDD
:1012E00001D0012F06D124B386F31188BFF36F8F8D
:1012F000BDE8F081C4B1304600F0AEFCD5F8183539
:10130000DBB2012BE3D1D5F80421002ADFD0002283
:10131000C5F80421D5F804210222C5F81825202299
:10132000C8F88021AB60D2E70021212002F0D0FB79
:10133000E4E74FF050230222C3F80423D8E74FF02C
:10134000502302220646C3F80823BCE7000300200E
:101350004C02002078020020AD08002000E100E0EF
:10136000044A1368C81A20F07F400344136002F057
:10137000A9BD00BF100300202DE9F0474FF48037CE
:101380004FF00009860000F1500406F15026A40039
:1013900006F58036A4B204F15024D6F84035DFF8C3
:1013A0006C8021F07F4504F580348740D8F804A58F
:1013B000A3EB0A0323F07F432AF07F42012BC6F8F8
:1013C000402502D1132003F0DFFC0AF10202AB1A20
:1013D00023F07F43B3F5000F88BF1546C4F8009093
:1013E000236825F07F43C8F84473C6F84035D8F821
:1013F00004359A4506D0EB1A023B23F07F43B3F540
:10140000000F01D8BDE8F0872B46CFE70050015010
:10141000F8B500252F46104C2668104B05B1F8BDD5
:10142000D3F80423D203FAD5D3F84021002AF6D00A
:10143000C3F84051D3F840214FF48032C3F8482319
:101440000125D3F8401526B1002062682760B04717
:10145000E2E72660E3E700BF0403002000500150EC
:1014600038B500254FF480334FF400120C4C0121A5
:10147000C4F80855C4F804330A4B1520C3F880217A
:101480002A4600F089FB152000F068FB0123064A7C
:10149000A360022023601360FFF7E4FE284638BDF6
:1014A0000050015000E100E00C030020134AB0F1AD
:1014B000FF3F14BF03461346013B002B1CDD934244
:1014C000A8BF13460E4AD2F804050E4A1168401A06
:1014D00010F4000F18BF002320F07F4201320A48A9
:1014E00013440A4A106000205060044A934294BF9B
:1014F000C9188918FFF740BF0023E3E7FFFF7F000B
:10150000005001501003002061130000040300206C
:101510004FF02002EFF3118382F31188BFF36F8F36
:10152000064AD2F80405064A1268801A20F07F4065
:1015300083F31188BFF36F8F704700BF00500150D5
:1015400010030020F7B500281D4614BF4FF40053C8
:101550004FF480438A42144633D90A461A4F68B37F
:1015600002F5E07647F82650561CB44224D15C437D
:1015700016484B43009402F0A0FE154B15F0100FD7
:101580001449154808BF194602F097FE7221134806
:1015900002F093FE7721114802F08FFE78210F4868
:1015A00002F08BFE6C210D4802F087FE0C4803B060
:1015B000BDE8F04002F081BE3246D0E702F5C076C9
:1015C000D0E703B0F0BD00BF00300050425500002E
:1015D000365500002D550000C15600005C55000036
:1015E0001460000008B543B2002B0CDB012200F0B0
:1015F0001F018A405B091049203341F82320BFF3C3
:101600004F8FBFF36F8F830003F1A04303F5405367
:101610002F28D3F8002806D0002A07DA02F00302A8
:10162000023A012A02D8054AC3F80028012103F032
:10163000E9F8002008BD00BF00E100E000010080E3
:101640001FB54FF400444FF400411D4802F035FE31
:1016500021681C4802F031FE61681B4802F02DFE33
:1016600010220021684603F071F923686846009350
:10167000029401F02DF8012001F05AF8002001F049
:1016800043F8002001F068F80121002001F082F801
:1016900001F076F864680D4802F00FFE0820FFF7AD
:1016A000A1FF24F00104BFF34F8FBFF36F8F6408D5
:1016B00064002046214622462346FEF74DFF00BF28
:1016C0005F550000765500008B550000A9550000BD
:1016D0002DE9F8433C4802F0F0FD002140F21713D9
:1016E00008460222FFF72EFF40F207134022022194
:1016F0000020FFF727FF354802F0DFFD344B354A65
:10170000C3F38531C3F30D03C3F58043C3F3431320
:10171000C2F80015C2F80435D2F80015D2F8042535
:101720002D48520102F0C9FD284802F0C6FD03F021
:1017300060F8014610B1294802F0BFFD0024284896
:1017400002F0BBFD40F21713042200210120FFF735
:10175000F9FE204D40F20713402204210120FFF73B
:10176000F1FE1A4802F0A9FDC5F880441D4802F0B8
:10177000A4FD1D4FC5F8C044DFF87080C5F8C8440B
:10178000DFF86C901B4D6E792146002E14BF3B464E
:10179000434648462A6802F090FD66B9164801346F
:1017A00002F08BFD2D2C05F10805ECD10748BDE8B2
:1017B000F84302F082BD2879FFF714FF08B10F4803
:1017C000EDE70F48EBE700BFDF55000014600000B5
:1017D000E07F000000300050035600004956000032
:1017E000795600009B560000D45500003A55000081
:1017F000B756000078510000C4560000CB560000D8
:10180000D356000070B50C461546064650B96FF029
:101810001500BDE87040714672467346F4468EF37B
:10182000008C7447002AF2D003F033F80128EED080
:101830000C4B9C420BD92A1903F61D239A4209D856
:101840002A462146304603F056F80020E1E7064BD1
:101850009C4203D9054B2A199A42F1D94FF0FF3027
:10186000D7E700BF0302FF002F01FF003801FF0090
:101870002DE9F04F81460D4685B081B303F009F89C
:1018800001282CD1284603F004F8012827D04FF076
:101890000008DFF85CB0DFF85CA001AF5BF8046B18
:1018A0009AE807004E4487E807000C223946304684
:1018B00003F010F8044600B9A6B908F10108B8F120
:1018C000050FEBD16FF00D04204605B0BDE8F04FD9
:1018D000714672467346F4468EF3008C74476FF07F
:1018E0001504F1E73C223146284603F004F8EBE703
:1018F000E0520000F0500000014802F0B7BB00BF0A
:10190000F452000010B5044618B90D4B0D485B6841
:101910009847616808290DD031F004030AD011F00E
:10192000020108D02146084801F08CFC0023236006
:101930000023636010BD1422206803F007F8F7E766
:10194000480000208D5800001403002008B540B363
:101950004368042B0BD0082B16D003B300684FF05C
:10196000FF324FF0FF3301F097FC58B115E0012230
:101970000368D3E8EF1F002903D1C3E8E02F002854
:10198000F7D10AD1002008BD0368074A1B7803F588
:10199000807352F82330002BF4D00448F3E7044856
:1019A000F1E76FF4E040EEE700000350E98FFFFF3E
:1019B000EA8FFFFF08B508B34368042B07D0082B54
:1019C00013D0F3B1006801F0D9FC00200CE0002234
:1019D0000368D3E8EF1F012903D1C3E8E02F0028F3
:1019E000F7D1094808BF104608BD036800201B78DE
:1019F000064A03F5807342F82300F5E76FF4E040F0
:101A0000F2E70348F0E700BFE98FFFFF0000035053
:101A1000EA8FFFFF10B5044618B9164B16485B68ED
:101A200098476368042B23D0082B21D0CBB92368B7
:101A3000BBB94FF0FF324FF0FF3321460F4801F0A2
:101A4000D1FB08B923681BB90A4B0D485B6898475E
:101A500014220021206802F079FF636843F002033A
:101A60006360206803F0DEF8636843F0010363609D
:101A700010BD00BF480000208D5800001403002056
:101A8000B358000008B5064940231422054803F066
:101A9000A6F8BDE808400449044802F039BB00BF7D
:101AA00030030020140300200C530000FC520000FF
:101AB000094A0A49936809689867D96708494B68D1
:101AC00043F080534B60002383F31188BFF36F8F83
:101AD0009368D86F704700BF5008002084530000FF
:101AE00000ED00E013498A684FF038001044EFF32E
:101AF000098C80E8F01F202080F31188BFF36F8FDE
:101B00000D4F4FF000668A6A8A603E60906F002336
:101B1000936780F3118802F1380090E8F01F8CF38E
:101B2000098802F1000004B502F09BFEBDE8044004
:101B3000704700005008002004ED00E01EF0040F84
:101B40000CBFEFF30880EFF30980816911F8021CE4
:101B50000229FFD001B502F088FE01BD43B2002B7F
:101B600008DB012200F01F0002FA00F0024A5B09C4
:101B700042F82300704700BF00E100E0054B420936
:101B800053F82220012300F01F0003FA00F0104058
:101B9000704700BF00E100E043B2002B01F10101FA
:101BA000ACBF03F16043064B4FEA4111C9B2ABBF72
:101BB00003F5614300F00F0083F8001319547047D8
:101BC00014ED00E042F8203C009B0B4942F81C3C1D
:101BD000019B21F0010142F8183C029B42F8081CCD
:101BE00042F8143C4FF0807342F8043C0023203A42
:101BF00082658367704700BF2B440000044608B528
:101C00000E46154600F0A2FB084B9C60A36E83F3C2
:101C10000B88284686F30988002163B681F3118872
:101C2000BFF36F8F0022002302F0FFFB500800205B
:101C3000014910220A60704710ED00E072B6404082
:101C400080F31188BFF36F8FBFF34F8F30BF62B641
:101C5000BFF36F8F704700BF72B6494081F31188A0
:101C600020BF80F3118862B6704700BF37B50546C4
:101C70000C46C9B18B6810480093D1E90023452177
:101C800002F01BFB636945210093D4E903230B4851
:101C900002F013FB4521E269094802F00EFB4521E1
:101CA000A269084802F009FB2146284603B0BDE8B6
:101CB000304001F04DB900BFE05800001459000059
:101CC000485900005C59000030BFFFF7FDBF00BF5E
:101CD0000E4A08B50E4B22F07F029A60BFF34F8F79
:101CE000BFF36F8FD3F8882022F47002C3F88820E6
:101CF000EFF3148323F0040383F3148801F0A6F9AF
:101D000001F0FAFF00F0F4FA01F0C4F9000000005D
:101D100000ED00E001B572B60B4A506A00281EBF04
:101D20000021516202F059FF62B6EFF30580A0F185
:101D300010004FEAC0000549014409C99847BDE8B1
:101D4000014003490847000050080020904E000061
:101D500045220000002080F31488BFF36F8F00201D
:101D600080F30A8880F30B8802F0A0FC00200E4963
:101D70000860BFF34F8F0D4880F3088800F094FA95
:101D8000202080F311880A484FF40061401880F346
:101D90000988EFF314800221084380F31488BFF30D
:101DA0006F8FFFF795FF000094ED00E0B018002062
:101DB000F0190020EFF30880EFF3098101B57246B6
:101DC00000F066F901BD00BF10B5244C2448452140
:101DD00002F073FAD4F8E820D4F8E430580603D5BA
:101DE0004521204802F069FAD4F8E430D9070BD530
:101DF00045211D4802F061FA184AD2F8E43043F058
:101E0000FF03C2F8E43010BDD4F8E4309A0702D5DD
:101E100045211648EEE7D4F8E4305B0702D54521AA
:101E20001348E7E7D4F8E430180702D545211148F4
:101E3000E0E7D4F8E430D90602D545210E48D9E7C9
:101E4000D4F8E4309A0602D545210C48D2E7D4F8FC
:101E5000E4301B06D0D545210948CBE700ED00E072
:101E60008F590000AD590000C2590000DD59000033
:101E7000005A0000205A0000425A00005C5A00003C
:101E80007B5A000038B5214C4521214802F015FA53
:101E9000A36A9D0103D545211E4802F00EFAA36AEC
:101EA000DC0103D545211C4802F007FA174DAC6A46
:101EB00014F4801404D04521184802F0FEF90224DD
:101EC000AB6A180303D54521154802F0F6F90F4D0A
:101ED000AB6A590303D54521124802F0EEF9AB6A0B
:101EE0009A0303D54521104802F0E7F9074DAB6A84
:101EF000DB0303D545210D4802F0DFF9AB6A20462C
:101F00006FEA03436FEA1343AB6238BD00ED00E0B4
:101F1000935A0000B05A0000C85A0000E75A000067
:101F2000165B0000395B0000635B0000825B000011
:101F300070B5234C06460D462248452102F0BDF9F6
:101F4000A36AD90403D545211F4802F0B6F9A36A54
:101F50001A0503D545211D4802F0AFF9184CA36AB4
:101F60009B0510D51A48452102F0A7F9A26BA36A78
:101F7000180408D54521174802F09FF91EB1A36A3D
:101F800023F40043A3620E4CA36A590503D54521EF
:101F9000114802F092F9A36ADA050BD545210F48E2
:101FA00002F08BF90020064A936A43F47F43936260
:101FB000287070BDA36A9B04F4D545210848EFE75B
:101FC00000ED00E0B25B0000CD5B0000E35B0000D1
:101FD000FB5B0000195C0000335C0000535C0000F8
:101FE000705C000070B5224C06460D462148452124
:101FF00002F063F9A36AD80603D545211E4802F012
:102000005CF9A36A190703D545211C4802F055F96C
:10201000174CA36A9A0710D54521194802F04DF9CB
:10202000626BA36A1B0608D54521164802F045F9E4
:102030001EB1A36A23F08003A3620D4CA36AD807E4
:1020400003D54521104802F038F9A36A990603D553
:1020500045210E4802F031F90020054B9A6AD2065C
:1020600058BF9A6A9A6A42F0FF029A62287070BD5D
:1020700000ED00E0A45C0000BF5C0000E35B00003A
:10208000F75C0000145D00002F5D0000705C000034
:102090002DE9F0415B4B0D465C6800268AB0C4F325
:1020A000080786F31188BFF36F8F02F07F43B3F107
:1020B0007F4F2FD112F001032BD012F0400302F01A
:1020C000080840F09880520754BF05461E462A680B
:1020D0004D4B58BF01261344012B98BF2A6C452154
:1020E0004A4802F0EAF8B8F1000F0FD0EFF3898503
:1020F0004FF00008FB1E8DF80780092B69D8DFE838
:1021000003F00B595D38616868686865EFF388858E
:10211000EEE71E463546EBE73A4F45213C4802F0D4
:10212000CCF8FC6A8DF8078014F0020404D0452135
:10213000384802F0C2F847E0FB6A5B0021D5452130
:10214000354802F0BAF897F8283033B101200DF184
:102150000701FFF747FF044613E097F829302BB13A
:1021600001200DF10701FFF7E3FEF4E77B8D9BB241
:1021700013B1FFF787FEEEE7D7F8E4300BB1FFF7B6
:1021800023FE9DF8073093B92022294602A802F0C9
:10219000B2FB099B56B3C3F3080222B96FEA53237B
:1021A0006FEA43230993204602A9FFF75FFD0AB0B7
:1021B000BDE8F08100200DF10701CAE700200DF114
:1021C0000701D0E7FFF700FE0024DAE745211348B6
:1021D000AFE7134914F4F87F124A134808BF0A46C0
:1021E000A7F11003452102F068F8EDE723F4FF732F
:1021F00023F00103D6E7B8F1000F7FF479AF05466D
:10220000012675E700ED00E0A6ED0501815D000007
:10221000A55D0000C15D0000E75D00000B5E0000F1
:10222000535D0000685D0000465E0000044B5A6983
:1022300042F010025A615A6942F480625A61704752
:1022400000ED00E0044B9968986A884203D0034986
:102250004FF080520A6070475008002004ED00E003
:10226000BFF34F8F0549064BCA6802F4E06213437F
:10227000CB60BFF34F8F00BFFDE700BF00ED00E074
:102280000400FA05002318460649D1F89020C2F34D
:102290000722934200D17047C1F89830C1F8A000DE
:1022A0000133F6E700ED00E010B572B6002484F3C8
:1022B0001388FFF7E7FF23464FF0FF300B4A03F187
:1022C00020010133102B42F82100F8D100234FF0F8
:1022D000FF3003F160010133102B42F82100F8D1E7
:1022E00062B6BFF34F8FBFF36F8F10BD00E100E008
:1022F000002320210348C2180133452B82F8001324
:10230000F9D1704700E100E008B50E4B9B688342AD
:1023100007D1EFF3058393B10B4A536843F0805321
:10232000536001F02BFA4FF02003EFF3118083F399
:102330001188BFF36F8FBDE8084002F07ABC01F04E
:10234000BBFC00BF5008002000ED00E01FB5094CA9
:10235000094A23460121094800F054F90023039358
:10236000074B0121E41A01A80193029400F054F9EB
:1023700004B010BD008000200000002020530000A9
:102380004001002010B50B680C7A23F01F0204F006
:102390001F031A43CB68640923F01F03054943EA6E
:1023A000440343F00103C1F89800C1F89C20C1F830
:1023B000A03010BD00ED00E030B54B680C6885B072
:1023C0000A894D890094013B24F01F04234402F044
:1023D0001F0242EA451223F01F03072804468DF826
:1023E0000820039309D902464521064801F065FFFC
:1023F0006FF01504204605B030BD6946FFF7C2FFF7
:10240000F8E700BF625E00002DE9F04F89461446F0
:1024100006464FF00008594D85B0C84527DAD6F872
:1024200004A0BAF1000F45D0BAF11F0F18D91AF065
:102430001F0F15D1D6F800B01BF01F0F10D1584652
:1024400002F01EFA07460AEB0B00013802F018FAF8
:10245000874210D06FF015073A464521484802E000
:1024600042464521474801F028FF6FF015042046F9
:1024700005B0BDE8F08F17F1160FEDD0631EBB421B
:10248000EADBC5F89870D5F89C10C5F89870D5F8B7
:10249000A03021F01F0143F01F0BD6E900321A448F
:1024A000994202F1FF3A1DD1D34507D13146F8B226
:1024B000FFF782FF08F101080C36AEE73146C5F898
:1024C0009870D5F89C3022F01F0203F01F031A43C6
:1024D000C5F89C20E0B2FFF76FFF10F1160FC4D0D3
:1024E000441CE7E7013BD345E0B223F01F03C5F8E6
:1024F000987008D1D5F8A020314602F01F0213438E
:10250000C5F8A030E7E7D5F8A01001F01F010B4394
:10251000C5F8A0303146FFF74FFF10F1160FA4D0D9
:10252000C5F89870D5F89C209DF808300BF1FF3B5A
:1025300062F304038DF80830D5F8A0309DF8082028
:102540005B0863F34712D6E900310B44009323F094
:102550001F0301305B44A3EB0A03C0B223F01F0347
:1025600007288DF80820039303D902464521064821
:1025700079E76946FFF706FFB2E700BF00ED00E02C
:10258000B55E00008D5E0000625E00000522044B17
:10259000C3F89420BFF34F8FBFF36F8F704700BF16
:1025A00000ED00E0BFF35F8F0022024BC3F89420E0
:1025B000704700BF00ED00E038B50E4D2C68082CC8
:1025C00015D80020FFF7EEFF0B4B0C4AC3F8C020D4
:1025D000844205D10A4B00201C70FFF7D7FF38BD9D
:1025E000696801EB0011FFF7CDFE0130F0E74FF015
:1025F000FF30F4E72C53000000ED00E0AAFF440098
:10260000AC08002010B5034C2278FFF7FDFE2070C7
:1026100010BD00BFAC0800202DE9F74F294D8A46B8
:1026200006464FF00008AB46274FD0451BDAD6F8D8
:102630000490B9F1000F3FD031680846019102F0D3
:102640001FF90199044609EB0100013802F018F95D
:1026500084424FF014021D4B08D06FF0150302FBAB
:1026600008F84BF8083003B0BDE8F08F14F1160FEE
:102670002C60F8D01978A142F5DD02FB08B0C7F84C
:102680009840C7F89840D7F89C4000F10801007BBB
:1026900064F304000871D7F8A0000C79400860F3D7
:1026A00047140C71D7F89C1021F01F016960D7F80E
:1026B000A01021F01F01296108F1010814350C3622
:1026C000B3E700BF3008002000ED00E0AC080020B8
:1026D00082680C4B9A60036883F38888436883F3AD
:1026E0008988027B02F00101EFF3948323F0030356
:1026F000920748BF43F0020309B143F0010383F39B
:102700009488704700ED02E0084AD36848B123F48A
:1027100000531B041B0C43F0BF6343F40033D3602E
:1027200070479BB243F40053F5E700BF00ED00E0B3
:10273000084AD36840B19BB243F4804343F0BF637F
:1027400043F40033D360704723F480431B041B0C15
:10275000F4E700BF00ED00E0084AD36840B19BB247
:1027600043F0080343F0BF6343F40033D360704782
:1027700023F008031B041B0CF4E700BF00ED00E08E
:10278000034AD2F88C3043F44063C2F88C3070476F
:1027900000ED00E00A4BD3F8D02020B142F0010256
:1027A000C3F8D020704722F00102C3F8D020D3F83C
:1027B000D02011B142F00202F2E722F00202EFE76C
:1027C00000ED00E0014B1860704700BF24000020BE
:1027D000036803F01F020260034A04485B09012BEF
:1027E00008BF1046704700BF002884500025845061
:1027F000F0B54B79012B2BD0032B26D110278B79E9
:10280000032B22D1CD7925B1012D1ED143681B792F
:10281000DBB10A79012A1DD0022A1FD0AAB91446B9
:102820000B684668B3F5164F36686ED033D8B3F5EB
:10283000165F6DD01CD8B3F5966F6BD010D8B3F57A
:10284000967F6AD0B3F5167F6AD06FF022005BE006
:102850000027D4E74FF480740E22E1E70024FBE761
:10286000B3F5166F5FD0B3F5965FEED1384B3EE00F
:10287000B3F5E14F5AD007D8B3F5615F58D0B3F53F
:10288000964FE2D1334B32E047F6122C6345DCD150
:102890004FF400032BE0B3F5613F4BD013D8B3F5F1
:1028A000963F4AD009D84DF6C02C634547D0B3F5C2
:1028B000614FCAD14FF46B0319E0B3F5E13FC4D1C6
:1028C0004FF0EB7313E0B3F5612F3BD009D8DFF87D
:1028D00088C0634539D0B3F5E12FB6D14FF0E86336
:1028E00005E0DFF878C06345AFD14FF08053C6F8FC
:1028F0002435C3682C433A432243043303C9C6F842
:102900006C2583E803000020F0BD4FF41D03EEE7C3
:10291000134BECE74FF49E23E9E74FF4A033E6E7CF
:102920004FF41C33E3E74FF41D23E0E70D4BDEE7E4
:102930000D4BDCE74FF06C73D9E70C4BD7E74FF446
:102940006503D4E74FF07063D1E74FF08063CEE7C3
:1029500000B0130000A04E0090D0030040420F00D2
:102960000050270000C0750000F03A0000903A01C6
:102970002DE9F04106468846C76802F0FFF9B8B96C
:10298000284B1B7883F001037268156893B14FF0F0
:102990002003EFF3118483F31188BFF36F8F706806
:1029A00002F01CF838BB84F31188BFF36F8FEEE799
:1029B0000123E9E76424706802F010F870B901207F
:1029C00002F045F8013CF6D10021212001F080F809
:1029D000F0E784F31188BFF36F8FF5E74FF0200322
:1029E000EFF3118483F31188BFF36F8F706801F0E8
:1029F000F5FF0028EDD00123002207F8108FC5F85D
:102A00004475C5F84835C5F82021D5F82011C5F81A
:102A10005821D5F85821AB6084F31188BFF36F8F2C
:102A2000BDE8F081AD0800202DE9F34705460022FE
:102A300001210820FFF7B0F80820FFF78FF80021E8
:102A400014276B68EE681C684FF00108C4F8001585
:102A500001A835600197FFF7BBFE019B4FF003090A
:102A600008FA03F3836001A80197FFF7B1FE4FF066
:102A7000160A019B803340F8239001A8CDF804A0EA
:102A8000FFF7A6FE019B803340F82310C4F80C75B5
:102A90001527C4F814A501A80197FFF799FE019B1B
:102AA000803340F82310132101A80191FFF790FE15
:102AB000019B08FA03F3836001A80191FFF788FEE8
:102AC000019B803340F82390C4F80815E968C4F8E6
:102AD000107528460431FFF78BFE074678B96B68FE
:102AE0009B79E3B106F1120000F0B2F91C4B984259
:102AF00009D045211B4801F0E0FB6FF00407384680
:102B000002B0BDE8F087B37C43F00042C4F8A021D6
:102B1000C4F88C20144A08FA03F3C2F804350823D9
:102B2000C4F800350023C4F81031D4F8103106F190
:102B30001103C4F834350123C4F8383523606B68B9
:102B40009B791BB94FF48073C4F80433002310360B
:102B5000C4F84465C4F848350123A360E360CEE7B8
:102B60000000AD0BEC5E00000070015003484521F1
:102B700008B501F0A2FB0020FFF772FB205F000008
:102B80002DE9F0430025214C214E54F8048CDFF848
:102B9000849085B0A84503D8002005B0BDE8F08337
:102BA000636A96E807001F6801AB83E807000C2200
:102BB0001946384601F08EFE90B98FB1636A2169DB
:102BC0001B681A6991420BD19A69A169914207D891
:102BD000E169914204D962695B6932EA03030AD070
:102BE000276A67B10C4801F068FB404080F3118808
:102BF0004FF0040002DFE36801351C44CAE7484691
:102C000001F05BFB636A1F60F5E700BF3C02000058
:102C1000FC5000006B5F0000425F00004FF47F0338
:102C2000D3F83021072A07D1D3F83431023B032BE4
:102C300002D8024AD05C704700207047A95F0000AC
:102C40004FF05023D3F85825034B02F00302D34032
:102C5000024A1360704700BF0020A1073C0000201B
:102C6000404A08B5D2F8D03043F00203C2F8D03061
:102C7000FFF7D4FF58B13C4BD3F8202A3AB90D21C5
:102C8000C3F8201A0121C3F81C19C3F81C2900221B
:102C9000D30003F57F03D3F80013013107D0D3F835
:102CA00000130132D3F80433202A0B60F0D1FFF770
:102CB000B5FF00284DD1FFF7B1FF40B12B4B2C4A97
:102CC000C3F830254FF050230122C3F858254FF4A4
:102CD0007F03D3F83031072B02BF0022254BC3F806
:102CE0004C25FFF79BFF50B14FF05023D3F8002441
:102CF000D10742BF0022C3F81421C3F818214FF4B2
:102D00007F03D3F83031072B09D14FF05023D3F88C
:102D10000024D20744BF6FF00102C3F80024FFF77C
:102D20007DFF18B16522104BC3F80C270D4AD2F86D
:102D30008C3043F44063C2F88C300F4A0F4B11685B
:102D4000C3F84415D269C3F84C25BDE80840FFF725
:102D500077BF2922044BC3F80C270322C3F83C2772
:102D6000A9E700BF00ED00E00040005000900350D4
:102D70004400EFBE002003500080FF0000600050C0
:102D8000044B1A7922B9012218601A71024870475F
:102D900002487047440800200000AD0B0C00AD0B4A
:102DA0004FF05023D3F8002110B552B10020C3F8E2
:102DB0000001D3F800210122C3F80823234B1B682C
:102DC00098474FF05023D3F804218AB10022C3F86A
:102DD0000421D3F80421D3F81824D3F8181402F0EE
:102DE0000302012A4FF0020128D1C3F818159A6096
:102DF0004FF05023D3F8202162B10022C3F82021E4
:102E0000D3F820214FF48072C3F808230F4B04201D
:102E10001B6898474FF05023D3F82421AAB1BDE88E
:102E200010400022C3F82421D3F824214FF400726B
:102E3000C3F80823054B05201B681847C3F808137F
:102E4000024B01201B689847D2E710BD44080020C0
:102E500070B50A4C2168CE430ED00023DAB226FAB0
:102E600002F5ED0703F10103F8D5012393400B436D
:102E700002700348236070BD0248FCE74C08002044
:102E80000000AD0B0200AD0BF8B5104B104F53F81E
:102E90002050013053F82060AE4200D8F8BDD5E98B
:102EA00000342046984770B16CB10123E41B094AF5
:102EB0002411610952F8210004F01F0403FA04F4FC
:102EC000044342F821400835E6E700BF7053000094
:102ED000A8000020E8000020084BC01A0011084B91
:102EE000420953F82220012300F01F0003FA00F0EA
:102EF00010420CBF18460020704700BFA8000020F9
:102F0000E800002070B505460F4C104EB44204D1C5
:102F10000D4CB4420AD1002414E02046FFF7DCFF38
:102F200010B12368AB420DD01034EFE72046FFF715
:102F3000D3FF08B91034ECE72846216801F0BEFC45
:102F40000028F7D1204670BDA8000020E80000202E
:102F5000F7B505460E464FF02003EFF3118783F3D4
:102F60001188BFF36F8F00F0CDFD0022042D98BFB4
:102F7000184B044694BF53F82530174B0092452157
:102F80002A46164801F099F93EB1F369C3F30803E4
:102F90001BB14521124801F090F934B1204601F0EF
:102FA000F7FE034608B1027802B90E4B22464521CE
:102FB0000D4801F082F931462846FFF7D7FD87F327
:102FC0001188BFF36F8F204603B0BDE8F040FFF7D4
:102FD0009BB900BF88530000AD5F0000C35F0000D5
:102FE000F05F0000BB5F000016600000F8B505460A
:102FF0000027154E4FF02002EFF3118382F3118862
:10300000BFF36F8F286988B12F6183F31188BFF3F5
:103010006F8F00F0B3FB4FF02003EFF3118083F3C9
:103020001188BFF36F8F01F004FEE3E701F0C8FEE3
:10303000012104460228D8BF084601F0D1FE74627F
:10304000FEF7FCFDD6E700BF500800200248034A07
:103050000021121A01F07ABC40010020B0080020C3
:10306000012208B5094B02201A70FFF70DFF00F08E
:1030700037FE0320FFF708FF00F0C2FD01F0F6F86D
:10308000034A137B23F00103137308BDAD0800202E
:10309000C00100202DE98048374BA7B003F5006937
:1030A00089F3088883F30A880024E023334D4FF026
:1030B000010B85F82230EC772C766C76AC76EC76CA
:1030C0006B6A2F4E43F4E0236B626B6ADFF8B4A0A7
:1030D00043F400236B62AC63FFF7A8F8FEF7A8FD8A
:1030E0004FF0FF33AB62EB6240F20113264DADF8B7
:1030F000243006ABAB602046CDE92044FFF7C4FE88
:103100000120FFF7C1FE00F04FFC204BAE624FF4F0
:1031100080521F49059330465346CDE9034BCDE914
:103120000144009400F03CFD737B804623F00403CF
:103130003046737301F0A5FD0F23164F4FF4A072B4
:10314000CDE902431449154B3846CDE904B4CDE925
:10315000005400F025FD7B7B524623F004037B7373
:1031600005F11C0341463046C5E90733EF602C7674
:10317000C5F80490FEF742FDF019002000ED00E0D4
:10318000C001002061300000500800207D60000078
:10319000B008002040010020B0180020ED2F0000F2
:1031A00070B50E4B0E4CA34201D3002070BDD3E985
:1031B000030141EA000212F003020BD19D685A613B
:1031C000AA4201D11C33EEE75E6901320E605961FB
:1031D0000144F5E76FF01500E8E700BFEC000020C0
:1031E000EC00002037B50C464FF02005EFF31181BD
:1031F00085F31188BFF36F8F45695DB125602B683A
:103200004361836901338361002081F31188BFF337
:103210006F8F11E052EA030C03D16FF00B002560B1
:10322000F3E7CDE900230246044800F069FB18B932
:10323000034B9B685B69236003B030BDAE08002080
:1032400050080020F8B504460D464FF02003EFF378
:10325000118683F31188BFF36F8F47696FB901F04F
:1032600068FD50B12A68C767426101F00AFD314626
:10327000BDE8F840074800F003B92B6862691A609E
:103280002B686361A369013BA36186F31188BFF3D7
:103290006F8FF8BDAE0800202DE9F34104461746B4
:1032A0001E464FF02003EFF3118883F31188BFF31C
:1032B0006F8FC3682F4A6BB180689168884219D0BC
:1032C00057EA060318D188F31188BFF36F8F6FF0A8
:1032D0000F000CE0916891F90E100133E3609368E0
:1032E0002161A36088F31188BFF36F8F002002B0C3
:1032F000BDE8F0812169F0E790F90E3091F90E10E8
:103300009942A8BF194621EAE1718B422BDD01F0F9
:1033100081FC054622464146CDE90076164800F07C
:10332000EFFA0028E3D04FF02003EFF3118683F388
:103330001188BFF36F8F23682169A34207D033B18F
:1033400093F90E309942A8BF194621EAE171A068AD
:1033500001F060FC00B945B13146074800F090F833
:103360006FF00A00C3E70025D4E786F31188BFF3A6
:103370006F8FF5E750080020AE08002038B583684D
:103380000446002B32D01C4A9268934231D1DA7B3A
:10339000013ADA73C368012B05D0013BC36000F02A
:1033A000D3F8002038BD4FF02003EFF3118583F3ED
:1033B0001188BFF36F8F0169806801F02BFC2046F4
:1033C00001F0B7FCA06058B190F90E2022610022F4
:1033D000C26701F056FC2946084800F051F8DEE7C4
:1033E000E06085F31188BFF36F8FD8E76FF01500A9
:1033F000D8E74FF0FF30D5E750080020AE08002096
:1034000010B5084C23685BB1FEF782F803462068CC
:10341000054A03440021BDE81040536101F0E0BCBF
:1034200010BD00BF8C08002050080020F8B50446ED
:103430000D464FF02003EFF3118783F31188BFF39C
:103440006F8F00214FF4004640F2E730094B4FF4F4
:103450007A7259610023E4FB0601FCF7EFFE064B8C
:103460001860064B1D60FFF7CBFF87F31188BFF391
:103470006F8FF8BD500800208C08002088080020BD
:1034800049B9EFF3058030B9054B9A6A9B689A42B7
:1034900001D0FEF70DBB81F31188BFF36F8F70472A
:1034A000500800204FF02003EFF3118183F31188BF
:1034B000BFF36F8F044B9A68D37B013BD37381F3C7
:1034C0001188BFF36F8F704750080020094B03F13C
:1034D0002C02824205D19B688B4202D14B7BDB06DA
:1034E00006D1D1E9003213605A600023C1E90033EC
:1034F000704700BF5008002038B5124D01462B69B7
:10350000AA680BB1EC680CE005F12C0001F0B3FBEC
:103510000446537B980644BF43F008035373002CC2
:10352000F0D049B9537BDB0606D1A36923B9D3890F
:103530007F2B01D9AA6238BD944201D0FFF760FF0A
:10354000AC62F8E75008002010B54FF02003EFF30D
:10355000118483F31188BFF36F8F084B00209A68A2
:10356000D37B0133D373FFF7C7FF84F31188BFF315
:103570006F8FBDE8104001F068BB00BF500800200D
:10358000F0B490F90D30417B002B28DBCB0626D11F
:10359000836923BB134A02F12C05D2E90B34AB42F9
:1035A00017D0B3B190F90E6093F90E70B7420BDDEE
:1035B0005A68C0E900321060586061F07F014173C1
:1035C000F0BC0020FFF798BFA34202D01B68002B7D
:1035D000EAD1C0E90054136B18601063EDE7F0BC4A
:1035E000704700BF5008002010B54FF02002EFF3E5
:1035F000118482F31188BFF36F8F427B510704D48B
:1036000084F31188BFF36F8F10BD22F00402427360
:10361000FFF7B6FF2146BDE810400148FFF730BF75
:10362000AE08002070B590F90D300146002B02DA8B
:103630001648FFF74BFF164A02F12C04D2E90B3073
:10364000A3421CD0DBB191F90E5093F90E60AE424B
:1036500010DD5868C1E90030016059604B7B90680B
:1036600063F07F034B73431A58425841BDE87040E2
:10367000FFF742BF834202D01B68002BE5D1C1E9AE
:103680000040136B19601163E8E700BF7C0800205D
:1036900050080020014638B54FF02003EFF31184A5
:1036A00083F31188BFF36F8F154B164A986815681E
:1036B000A84206D1FFF7A4FE84F31188BFF36F8FF1
:1036C00038BD00251560104A1268BAB1C2897F2A38
:1036D00014D8427BD20611D10C4A90F90E501268D0
:1036E00095420BDB0A4A904208D05A698A4202DCB2
:1036F000FFF798FFDEE7521A5A61DDE70022FBE789
:1037000050080020840800208C0800208808002031
:103710004001002070B50446183001F03BFB4FF02B
:103720002003EFF3118683F31188BFF36F8F94F9B1
:103730000D30002B07DA21460E48FFF7C7FE637BEA
:1037400003F07F0363730C4D637BA86843F01003A1
:103750006373031B58425841FFF7CEFE86F311886E
:10376000BFF36F8FAB68A34203D1BDE8704001F097
:103770006CBA70BD7C080020500800202DE9F04193
:1037800004464FF02003EFF3118283F31188BFF357
:103790006F8F437B13F0280F05D082F31188BFF39E
:1037A0006F8FBDE8F08143F02003437382F31188EB
:1037B000BFF36F8F183001F0EDFA4FF02003EFF3F5
:1037C000118683F31188BFF36F8F637BD80616D100
:1037D000A269A2B9190607D521462648FFF776FE49
:1037E000637B03F07F036373234B9868021B504293
:1037F0005041FFF781FE002704F130081DE09B07D0
:10380000F9D52146A068FFF761FE637B23F0020330
:1038100063730023A360EEE705F1180001F0BAFA24
:10382000A8682946FFF752FE6B7B284623F0020367
:103830006B73AF60EF67FFF7A3FE256B454501D0C3
:10384000002DE9D10C4B9A680C4B9A4202D1012011
:10385000FFF752FE637B43F008036373236E86F326
:103860001188BFF36F8F002B9BD02046BDE8F0413D
:10387000184700BF7C0800205008002040010020AD
:1038800008B590F90D300146002B06DA0748FFF71E
:103890001DFE4B7B03F07F034B73054B9868431A67
:1038A00058425841BDE80840FFF726BE7C0800207A
:1038B000500800202DE9F041064615461C464FF001
:1038C0002003EFF3118783F31188BFF36F8F01F0AB
:1038D00008FA87F31188BFF36F8FB4F1FF3F08BF79
:1038E000B5F1FF3F08D02A46234606F118000349E8
:1038F000BDE8F04100F066BABDE8F081A34C0000DD
:1039000010B50C46064B11469868064B1860DDE969
:103910000223FFF7CFFF2046BDE81040FEF7C8B8EE
:103920005008002084080020F8B504464FF020031A
:10393000EFF3118783F31188BFF36F8F437B4DB291
:10394000DB062BD183694BBB164E214606F12C00BA
:10395000FFF7BCFDF36AA573834218D0BBB1326B8D
:1039600093F90E10A9420DDD5A68C4E900321460C3
:103970005C600120FFF7C0FD012087F31188BFF3D1
:103980006F8FF8BD934202D01B68002BE8D1336BD8
:1039900020606360336B1C603463EAE70020A5732A
:1039A000EBE700BF500800200021044B084603F15C
:1039B0002C02C3E90B22FFF739BD00BF50080020DD
:1039C000F8B5234C234BA2689A4228D04FF020032D
:1039D000EFF3118583F31188BFF36F8F04F12C008F
:1039E000A168FFF773FDE26AA368824228D03AB368
:1039F000216B93F90E6092F90E70B7421BDD51688E
:103A0000C3E900210B6053605A7B012062F07F0202
:103A10005A73FFF771FD85F31188BFF36F8F4FF075
:103A20002003EFF3118083F31188BFF36F8FBDE89C
:103A3000F840FEF73DB88A4202D01268002ADAD177
:103A4000226B18605A60226B13602363DCE700BFAF
:103A5000500800204001002050EA01032DE9F04108
:103A600005460E4604D1FFF7ABFF0020BDE8F0810C
:103A700001F0D0F904464FF02003EFF3118883F3EF
:103A80001188BFF36F8F0F4F0F4BB8681860FFF7A7
:103A9000F7FEB8680D492A463346183000F092F90F
:103AA000BA684046537B43F010035373FEF700F8A7
:103AB00001F0B0F96219101A63EB0303002BB8BFD1
:103AC0000020D3E75008002084080020A34C000009
:103AD000B1F1FF3F08BFB0F1FF3F08B506D1084B79
:103AE0009868FFF717FE4FF0FF3008BDFFF7B4FFEF
:103AF0004FF47A7380FB0303C00B40EA4340F4E7C2
:103B000050080020014B9868704700BF5008002003
:103B100038B504464FF02003EFF3118583F3118885
:103B2000BFF36F8F01F005F948B10022C26701F0C1
:103B3000A8F82946BDE838400448FFF7A1BCD4E9FD
:103B400002329A4218BF0133A360F2E7AE080020A8
:103B500013B54FF02004EFF3118184F31188BFF304
:103B60006F8F846844B1013C846081F31188BFF396
:103B70006F8F002002B010BD52EA030406D181F31A
:103B80001188BFF36F8F6FF00F00F3E7CDE90023CB
:103B900002460248FFF7B4FEECE700BFAE08002083
:103BA0002DE9FF4100F13005C0E90C550E9D04469A
:103BB0000573042545730D9DD61D857300250C9A4C
:103BC00026F00706C0E90655C0E91A16C573056751
:103BD00002920B9A01EB060801920A9A0092424661
:103BE000FDF7F0FF054BC4E917559B6803B15B6F08
:103BF0004046636704B0BDE8F08100BF5008002074
:103C00002DE9F043294C2A4D87B02646AE4204F1F7
:103C100030040FD3FFF746FC4FF4004640F2E7377D
:103C2000224CDFF89090AC4220D307B0BDE8F043BF
:103C3000FFF78ABC54F8043C54E90C01059354F88E
:103C4000103C049354F8143C039354F8183C02932A
:103C500054F81C3C019354F8203C009354E90A2387
:103C6000FFF79EFF54F8303CDE65CEE7636A5A1CCE
:103C70000DD00021384623EAE373C3FB060151EA65
:103C8000C333D4F8008004D14046FFF7ADFC303494
:103C9000C9E74FF47A720023FCF7D0FA02460B46CC
:103CA00008F11800494600F08DF8F0E7EC0000201C
:103CB000EC000020A34C000008B54FF02003EFF308
:103CC000118483F31188BFF36F8F044B98681861D8
:103CD000FFF720FD2046FDF7EBFE00BF5008002057
:103CE000024A0349034800F0E8BA00BF3555000016
:103CF000856000009260000008B50648064A074942
:103D0000121A00F0F8FDBDE80840054A05490648CA
:103D100000F0F1BD000000203C010020C060000068
:103D200000000000C060000000000020034B1B6882
:103D30000BB9FDF7EDBB0020704700BF90080020D5
:103D4000114B10B51C689C4208BF0024FFF7EEFF22
:103D500003466CB1D4E90402C01A62EBE373012894
:103D600073F100020DDBB0F1004F73F1000301DBD2
:103D70006FF00040054B5B6913B19842A8BF18462D
:103D800010BD0020F6E700BF4000002050080020D2
:103D900030B5036868B10A4A5268904209D043B10D
:103DA000D3E90421D0E90445121941EB0501C3E927
:103DB0000421426813605A600023C0E9003330BD1B
:103DC00040000020B3F1FF3F08BFB2F1FF3F2DE9F3
:103DD000F8430446884663D06FF001074FF0FF397F
:103DE000551C43F100067B1B69EB0603002B0DDB22
:103DF000FFF79CFF304BD3E90023BF1A69EB0303A5
:103E00007D1B63EB06062D1A66EBE076C4F808808E
:103E10004FF02003EFF3118783F31188BFF36F8F07
:103E2000FFF784FF012D76F10003BCBF01250026BA
:103E3000224A2D18136846EBE0769342C4E90456F3
:103E400002D0D2F804C033B953682260636053686B
:103E50001C60546011E0D3E90406D4E904158142E2
:103E600075EB060E1EDA411A66EB0505C3E904156B
:103E70005968C4E900310C605C60136893420BD050
:103E80009C4209D1FFF75CFF18B10D4B5B6983427F
:103E900002D00021FDF70AFB87F31188BFF36F8F73
:103EA000BDE8F883091A65EB06056345C4E9041506
:103EB000CAD01B68C7E700BF4002002040000020B6
:103EC000500800202DE9F8430546FFF7E3FB4FF0CB
:103ED0002003EFF3118483F31188BFF36F8F244E17
:103EE000DFF890803560244DD8F8000032684045F6
:103EF0004FEAE277D5E9001E0BD050B1D0E9043C7F
:103F00009A4277EB0C0916DA9B1A6CEB070CC0E9A6
:103F1000043C52184EEB0707C5E900270025356021
:103F2000FFF70EFF2946FDF7C1FA84F31188BFF3AE
:103F30006F8FBDE8F88359184EEBE377D31A3360DF
:103F400000220023C0E90423C5E90017FFF720FF82
:103F500084F31188BFF36F8F836898474FF0200375
:103F6000EFF3118483F31188BFF36F8FBCE700BFB9
:103F700090080020400000204002002010B54FF0C3
:103F80002003EFF3118483F31188BFF36F8FFDF7E4
:103F9000BFFA054AD2E90031C01841F1000184F3AB
:103FA0001188BFF36F8F10BD4002002038B5064C5A
:103FB000064DAC4201D3002038BD2046D4E90112A1
:103FC00000F02CFF1434F4E7EC000020EC0000209B
:103FD00010B50A4C23681BB101230020236010BDDB
:103FE00000F0B2F80028F7D00138072803D8044BB6
:103FF00053F8200010BD034810BD00BF94080020F6
:104000009C530000FE8FFFFFBFF34F8F0549064B07
:10401000CA6802F4E0621343CB60BFF34F8F00BF66
:10402000FDE700BF00ED00E00400FA054FF0FE33AD
:10403000002130B4084A094C094D23602B601360FD
:10404000E360EB60D360A361064A074CAB61636831
:10405000C2F8001530BC18470854845000548450EE
:10406000045484500040845048000020024BD0E9A2
:104070000012C3E9001270474800002048B14368AD
:104080002BB1BFF35F8F00230360184670470248CF
:1040900070476FF4E0407047EA8FFFFF10B50446A9
:1040A00028B1636813B100232360636010BD024B25
:1040B00002485B689847F4E748000020BC530000C2
:1040C00010B5044630B100226368226043F001035A
:1040D000636010BD0148FFF7A9FFF4E7E453000057
:1040E00080B1436863B10122D0E8EF3FC0E8E12F1F
:1040F0000029F9D1012BF7D0BFF35F8F0020704763
:10410000024870476FF4E040704700BFEA8FFFFF3E
:1041100070B40B4B0668C268D0E90154C3E902428F
:10412000C3E90065D1E903020E68064BD1E90154E9
:10413000C3E90065C3E902401A6170BC704700BF63
:10414000580000206800002008B500F00FF828B9DA
:1041500000F00EF830B9044A106008BD00F036F8DF
:10416000032008BD042008BD0C5A8450002070476D
:1041700010B5114800F048F800B110BD0F4800F02C
:1041800043F80028F9D10E4C204600F03DF80028F5
:10419000F3D10C4B0C481C6000F036F801460028A7
:1041A000EBD100F02DF8044608B1204610BD00F018
:1041B0003FF82046FAE700BFA0000020940000204E
:1041C0009C000020A40000209800002008B50848AA
:1041D00000F024F8074800F021F8074800F01EF826
:1041E000064800F01BF8BDE8084000F00BB800BF1F
:1041F000A0000020940000209C00002098000020D7
:1042000000207047704700BF08B5034B02681B6869
:1042100010689847002008BD5800002008B5034BDF
:1042200002685B6810689847002008BD58000020AD
:1042300070B5094C094D2069AB68984718B1084B17
:1042400008485B6898470021074AEB6811602069BD
:10425000BDE87040184700BF6800002058000020EB
:104260004800002008540000A808002008B5FDF709
:104270002FFABDE80840FDF7E3B9034658B142689C
:1042800002F00302012A03D0032A04D1026812B10A
:104290000020986070476FF0150070474268034631
:1042A00002F00302032A4FF00002816014BF10469F
:1042B00000685A607047002070470FB407B504A922
:1042C00051F8040B0191FCF76BF903B05DF804EBB6
:1042D00004B07047038B13F0070305D10368002B6C
:1042E0000CBF002003207047022B05D1438B002B0D
:1042F00014BF002004207047012B05D10368002B58
:104300000CBF002005207047002070472DE9F041C8
:104310000D4607461946281D90461E46FFF7BEFF6C
:10432000044638B13346424629463846A446BDE8DD
:10433000F0416047BDE8F08110B44FF02004EFF386
:10434000118284F31188BFF36F8F416110BC01218A
:10435000FCF734B910B50C4640B139B1081DFFF770
:104360008CFF28B9A36833F0030301D06FF0150068
:1043700010BD38B50C46054658B151B10B6843B174
:104380004B6833B11C22002100F0E0FA00202C61C0
:1043900038BD6FF01500FBE770B504460E46FFF719
:1043A000D9FF051E31DB4FF02003EFF3118183F3BA
:1043B0001188BFF36F8F4FF6FF75638B208BAB4275
:1043C00000F007022ED0022A0ED101336383154676
:1043D000012381F31188BFF36F8FB3B100233146FE
:1043E0002046FFF793FF10E0830701D0062A0ED185
:1043F00000233360636893B9C4E90066154662B967
:104400000A4620460221FCF7D9F8284670BD052A45
:104410000CBF6FF022056FF004050023D9E71E6082
:104420006660EBE76FF00A05F7E7044608B5084653
:1044300011461A46A047FFF765FBFDF765FF836845
:1044400000EBC101B3F5004F2CBF51F8220031F849
:104450001200704700EBC1018068B0F5004F2CBF1F
:1044600041F8223021F812307047012208B5FFF7D9
:10447000E6FFD04008BD836800EBC101B3F5004FF3
:1044800008D34B681AB143F001034B60704723F027
:104490000103FAE74B881AB143F001034B807047E0
:1044A00023F00103FAE753000122FFF7D3BFB0F571
:1044B000004F2CBF0820042001310830A1EBD000B0
:1044C000B0FA80F0C0F11F0070472DE9F0410D46B1
:1044D00086680446FFF7C9FFB6F5004F014601D3D1
:1044E000012833D03046FFF7E2FF04EB8002166963
:1044F0009EB9012303FA00F0E36829460343E36011
:10450000204615612B460222FFF7A4FF032229460D
:104510002046BDE8F041FFF79DBF0222314620460C
:10452000FFF78DFF0746034629462046FFF792FF17
:104530000322334629462046FFF78CFF39462B4697
:104540002046FFF787FF02223146E1E7BDE8F08110
:10455000B2F5802FF8B52CBF082404240023141BC7
:104560000022CE1D26F007060660C6E900230023C0
:104570000C4424F00704A41BE40821462046B46040
:10458000F360FFF794FF8500411C18461B35ED08CA
:1045900006F110028B4228DB2A4630460021FFF745
:1045A00082FF671B304601220021FFF764FF3A4675
:1045B0002946FFF778FF2B46002229463046FFF7B1
:1045C00049FF21463046FFF76EFF3B462146304605
:1045D0000022FFF73FFF214630460122FFF74BFF45
:1045E0002946BDE8F840FFF770BF42F8040B0133DD
:1045F000D0E72DE9F84F9A46D37880466F2B0F46C7
:104600001546A3F1410B29D024D8582B14BF0A26F4
:104610001026DDF828903246002340463946FBF745
:104620000DFE092AD4B21ED83034B045E4B277F179
:10463000000309F8014D01D3D14511D82B789B0611
:1046400005D5082E15D1AB7843F00803AB7048466A
:10465000BDE8F88F03F0F703702BD7E70826D8E7FB
:1046600080460F46D7E7BBF1190F94BF3734573454
:10467000DBE7102EEBD1AB7843F01003E6E72DE932
:10468000F0410746884615461E461446B442A4EB40
:10469000050002D33EB923782BB1414614F8010B33
:1046A000B8470028F2DABDE8F0817047FEF7D8BAC3
:1046B0000C22C368C9B201FB0233986F00F00700F7
:1046C00070474FF02003EFF3118283F31188BFF39B
:1046D0006F8F036803F0C00343F00203036082F3AB
:1046E0001188BFF36F8F7047034670B5C068C9B2B9
:1046F0004FF02004EFF3118684F31188BFF36F8F1E
:104700000C2505FB0104A46F14F0C00401D0A242E3
:1047100011D1012205FB01008267002086F3118878
:10472000BFF36F8F30B90C225B6802FB01314B681D
:104730009847002070BD4FF0FF30EFE78022FFF771
:10474000D3BFF8B5069F0546C468C9B24FF0200034
:10475000EFF3118C80F31188BFF36F8F0C2606FBEB
:104760000146B06F00F0070EBEF1010F10D1B76720
:1047700000268CF31188BFF36F8F3EB90C204143A4
:104780000C44C4E91C236B685B5898473046F8BD5D
:1047900000F0C000874214BF4FF0FF366FF04406B0
:1047A000E7E713B580240094FFF7CBFF02B010BDFC
:1047B00010B41C24C068CBB203FB0400002110BC61
:1047C0001047032000F055B9022000F052B9002034
:1047D00000F04FB9032000F09BB9022000F098B917
:1047E000002000F095B91046FFF792B97047704766
:1047F0007047002070470020FCF7F4BB0021012027
:10480000FDF734BA024643B20846C1B9002B27DB94
:1048100001205B099B0003F1604303F56143D3F87A
:10482000801202F01F02904021EA0001C3F88012BA
:10483000D3F88002D04000F00100C0B27047002BD6
:104840000DDB01215B099B0003F1604303F561432C
:10485000D3F8800202F01F0291400143E6E70020F6
:104860007047836E83F30B88704701460068FDF73D
:10487000FDB908B5FDF728FABDE80840FDF7E2BC30
:1048800040E800F313F4803FD8B208BF6FF0150082
:10489000704740E800F0C0F38050704703460020A6
:1048A0001A5C02B970470130FAE7034600201A5C2F
:1048B0000AB1884200D170470130F8E7431E013940
:1048C00013F8012F11F8010F824201D1002AF7D10C
:1048D000101A7047034610B55AB10139841813F8FD
:1048E000010B11F8012FA34201D09042F7D0801A9A
:1048F00010BD1046FCE7F0B581EA0004A5070346A9
:104900000BD0013B0A4491421BD1F0BD002AFCD0E0
:1049100011F8014B013A03F8014B9C07F6D122F044
:1049200003041D1F96080F19B94205D16FF0030546
:10493000234405FB0622E4E751F804CB45F804CFF5
:10494000F2E711F8014B03F8014FDCE770B50446BC
:10495000C9B2A30711D141EA012343EA034522F07A
:104960000303960823449C420DD16FF0030404FB1B
:1049700006221A44934209D170BD002AFCD004F8E3
:10498000011B013AE5E744F8045BECE703F8011B7F
:10499000F0E74FF0FF3070470B46C268D2E90101E3
:1049A00083E803000020704743681B68D3F8800445
:1049B000C3F8800470474368C2681B68D3F81001CD
:1049C00048B10020527C0A70C3F81001D3F81021BE
:1049D00001221A6070474FF0FF30704702680346AB
:1049E000D2F8580138B99B7933B9D2F82001003890
:1049F00018BF012070470120704743681B68D3F837
:104A00000423D20518D5D3F82021AAB14FF02001F4
:104A1000EFF3118281F31188BFF36F8FD3F8201168
:104A200031B10021C3F82011D3F820110121D96040
:104A300082F31188BFF36F8F704708B5FCF75CFFF6
:104A4000FDF720F8BDE80840FFF7C2BA004700F0C4
:104A50009BB908B50520FDF791F810B90520FDF7C1
:104A60007DF84FF050230122C3F81425C3F88025A8
:104A700008BD03284BD8DFE800F002232F3D4FF09C
:104A80005022D2F81834D2F81814C90312D503F002
:104A90000303022B0ED1C2F818354FF05023002229
:104AA000C3F80421D3F804210222C3F8042301220D
:104AB0009A6070474FF050230122C3F81825ECE7A5
:104AC0004FF050230022C3F80021D3F80021012227
:104AD000C3F804231A6070474FF050230022C3F834
:104AE0002421D3F824214FF40072C3F804230122B7
:104AF0001A6270474FF050230022C3F82021D3F8E8
:104B000020214FF48072C3F8042301229A61704778
:104B100070B5044603283DD8DFE800F002213D4B84
:104B20004FF050230222C3F808230022C3F80421C7
:104B3000D3F804210122DA6042F210754FF05026BA
:104B4000022C44D0032C45D024BBD6F81834DB0308
:104B500020D50120FFF77BFF013DF1D11AE04FF096
:104B600050240123002242F21075C4F80833C4F81F
:104B70000021D4F800216360D4F80C34D4F80C245C
:104B800003F00103D20305D523B10120FFF75FFF36
:104B9000013DF1D170BD4FF050234FF40072C3F8C6
:104BA00008230022C3F82421D3F8242101225A62C9
:104BB000C2E74FF050234FF48072C3F8082300225D
:104BC000C3F82021D3F820210122DA61B4E7D6F816
:104BD0005C34BCE7D6F85434B9E7FFF708BE30B50B
:104BE0000024846141EA020414F00304C0E90232A3
:104BF00001610CD14461A34203D1C0E9000000204F
:104C000030BD456901340D6041611144F3E76FF037
:104C10001500F5E790F90E308B4201D0FEF784BE07
:104C20000020704703460020C3E90033C3E90200B7
:104C30007047034620B9EFF305820AB9FCF738BF85
:104C400083F31188BFF36F8F70474FF02003EFF3AA
:104C5000118083F31188BFF36F8FFFF7EABF01461E
:104C600008B58068FEF732FC4B7B23F002034B73E0
:104C700000238B6008BD03460068834208BF002004
:104C8000704710B54FF02003EFF3118483F31188C0
:104C9000BFF36F8FFEF774FC84F31188BFF36F8F3F
:104CA00010BD70B504464FF02003EFF3118683F377
:104CB0001188BFF36F8F50F8103CA0F1180513B1A5
:104CC0002846FFF7CCFF14F80B3C284623F01403CA
:104CD00004F80B3CFEF754FC86F31188BFF36F8F8A
:104CE00070BD38B504460D46FEF7CAFD637B43F040
:104CF000020363737DB12B68A5609D4212D08BB116
:104D000094F90E2093F90E10914205DD5A68C4E91A
:104D1000003214605C6038BD69688B4202D01B6849
:104D2000002BEFD16B68256063606B681C606C6062
:104D3000F1E738B54FF02003EFF3118283F31188C8
:104D4000BFF36F8FFFF797FF044682F31188BFF31D
:104D50006F8F88B14FF02003EFF3118583F3118833
:104D6000BFF36F8FFFF77BFF85F31188BFF36F8F62
:104D700004F1180000F00EF8204638BDEFF305806E
:104D8000003818BF0120704708B1FCF719B9704707
:104D90000020704710B54FF02002EFF3118482F32A
:104DA0001188BFF36F8F03683BB1FEF7F1FF00205E
:104DB00084F31188BFF36F8F10BD6FF01500F7E714
:104DC00010B54FF02003EFF3118483F31188BFF384
:104DD0006F8FFEF7B5FF84F31188BFF36F8F10BD9F
:104DE00070B504460D464FF02003EFF3118683F3B0
:104DF0001188BFF36F8FFEF7A3FF012805DDA042E6
:104E000003DD29462046FCF751FB86F31188BFF3EA
:104E10006F8F70BD08B5FFF7B1F808BD10B400F191
:104E20000C04C0E9034410BCFFF792BB7047FFFFBE
:104E30003CB4FF7F01000000750F0000000000007F
:104E4000A131000000000000AD3F000000000000A4
:104E5000B925000000000000DD100000A8000020BF
:104E6000292A0000B80000201510000000000000F2
:104E700061140000C80000203B4A0000D800002058
:104E8000010F000000000000812B00000000000066
:104E900000000000FD47000000000000FD4700008A
:104EA00000000000FD47000000000000FD4700007A
:104EB00000000000FD470000A12D00004D4A000049
:104EC00000000000FD47000000000000FD4700005A
:104ED000B8000020FB49000000000000FD47000072
:104EE00000000000FD47000000000000FD4700003A
:104EF00000000000FD47000000000000FD4700002A
:104F000000000000FD47000000000000FD47000019
:104F100000000000FD47000000000000FD47000009
:104F200000000000FD47000000000000FD470000F9
:104F300000000000FD470000000000001114000008
:104F400000000000FD47000000000000FD470000D9
:104F500000000000FD47000000000000FD470000C9
:104F600000000000FD47000000000000FD470000B9
:104F700000000000FD47000000000000FD470000A9
:104F800000000000FD47000000000000FD47000099
:104F900000000000FD47000000000000FD47000089
:104FA00000000000FD47000000000000FD47000079
:104FB00000000000FD47000000000000FD47000069
:104FC00000000000FD47000000000000FD47000059
:104FD00000000000FD47000000000000FD47000049
:104FE00000000000FD47000000000000FD47000039
:104FF00000000000FD47000000000000FD47000029
:1050000000000000FD47000000000000FD47000018
:1050100000000000FD47000000000000FD47000008
:1050200000000000FD47000000000000FD470000F8
:1050300000000000FD47000000000000FD470000E8
:1050400000000000FD47000000000000FD470000D8
:1050500000000000FD47000000000000FD470000C8
:1050600000000000FD47000000000000FD470000B8
:1050700000000000FD47000000000000FD470000A8
:1050800000000000FD47000000000000FD47000098
:1050900000000000FD47000000000000FD47000088
:1050A00000000000FD47000000000000FD47000078
:1050B00000000000FD47000015550000030000003F
:1050C000365F0000030000005E5E00000300000089
:1050D0008260000003000000BE54000003000000D6
:1050E000B654000003000000105F00000100000043
:1050F000DEE61E284CBBCE8F02350000DEE61E2801
:10510000EAAC45B802350000DEE61E284CBBCE8F67
:105110000235000000000000000000000000000058
:105120000338FDD8704700000D1200003D47000015
:10513000A347000000000000B1460000A9110000D4
:1051400041120000F4540000CF470000E147000086
:10515000FA540000C9470000DB470000005500007A
:10516000C3470000D54700000A5500009910000011
:105170006910000000000000D85600004201000045
:10518000DF56000005010000E95600001401000090
:10519000F256000015010000FB5600002D01000032
:1051A00004570000390100000D57000009010000FC
:1051B000185700000B000000235700000B010000EF
:1051C0002D5700000C010000375700000F010000B0
:1051D00042570000100100004D570000110100006F
:1051E000585700000E010000625700002101000026
:1051F0006B570000220100007457000023010000DB
:105200007D57000024010000865700002A0100009D
:105210008E57000081010000965700000001000039
:105220009E5700001C010000A75700001D01000050
:10523000B057000017010000BA5700000401000039
:10524000C957000000000000D2570000060000000F
:10525000DD5700000A010000E757000018010000B8
:10526000F057000019010000F95700001A01000072
:10527000025800001A0100000D580000260100002D
:1052800016580000280100001F5800002B010000E4
:10529000FB5600002D0100002858000030010000DE
:1052A00032580000330100003C5800003401000077
:1052B00046580000360100004F580000370100003A
:1052C000605800004201000067580000040100001F
:1052D0007758000005010000815800002F010000F0
:1052E00000000000000200000004000000080000B0
:1052F0000010000000000000F7470000151A000031
:10530000051900004D190000B51900001C0000200F
:105310000400002014000020000000000C00002009
:105320000000002000000000060001000200000054
:105330003453000000000000DD5E000006000000A5
:10534000E0FF0F0000000020E55E000021000000EB
:10535000E07F0020B749000071290000A949000042
:10536000F12700009949000000800050060001006C
:10537000384E0000704E0000784E0000904E000045
:10538000904E0000F5FFFFFF336000004160000019
:10539000556000006460000070600000FF8FFFFF38
:1053A000FF8FFFFFFE8FFFFFFE8FFFFFFD8FFFFFD1
:1053B000FC8FFFFFFC8FFFFFFB8FFFFF6D75746598
:1053C000785F667265652063616C6C6564207769DF
:1053D0007468204E554C4C20706172616D65746527
:1053E0007200000043616E277420696E6974696100
:1053F0006C697A65206D757465782C2077617320EF
:105400004E554C4C0D0A0000436F756C64206E6F56
:1054100074206C6F636B20706F7765722073617698
:1054200065206D7574657800286E696C29002563A8
:105430003A205468697320646576696365206973EE
:10544000206166666563746564206279206E5246E9
:105450003533204572726174756D2031392C0A0024
:1054600025633A2062757420776F726B61726F7575
:105470006E64732068617665206E6F742062656566
:105480006E20656E61626C65642E0A0025633A20A9
:1054900053656520434F4E4649475F4E524635336C
:1054A00034305F4350554150505F4552524154553E
:1054B0004D31392E0A00736F630001000000706FD8
:1054C000776572004661696C656420746F2072654F
:1054D000626F6F743A207370696E6E696E672065D3
:1054E0006E646C6573736C792E2E2E0A00554152D2
:1054F000545F30006866636C6B006C66636C6B00B5
:105500006866636C6B3139326D006866636C6B6121
:105510007564696F00636C6F636B5F636F6E747249
:105520006F6C007379735F636C6F636B00536563BB
:105530007572650909004E6F6E2D5365637572654E
:10554000090025303275202530327520307825301D
:1055500035782030782530357820090025630053D0
:10556000504D3A204E5320696D616765206174206B
:10557000307825780A0053504D3A204E53204D5331
:105580005020617420307825780A0053504D3A201D
:105590004E5320726573657420766563746F722054
:1055A000617420307825780A0053504D3A2070728B
:1055B000657061726520746F206A756D7020746FFC
:1055C000204E6F6E2D53656375726520696D61673E
:1055D000652E0A004E6F6E2D536563757265004629
:1055E0006C61736820726567696F6E730909446F37
:1055F0006D61696E09095065726D697373696F6ECB
:10560000730A004E6F6E2D7365637572652063615A
:105610006C6C61626C6520726567696F6E2030200A
:10562000706C6163656420696E20666C61736820CC
:10563000726567696F6E20256420776974682073CE
:10564000697A652025642E0A00436F756C64206EAC
:105650006F7420696E697469616C697A652073651D
:10566000637572652073657276696365732028655A
:105670007272202564292E0A005352414D20726512
:1056800067696F6E0909446F6D61696E090950653C
:10569000726D697373696F6E730A00506572697019
:1056A000686572616C0909446F6D61696E0909531F
:1056B00074617475730A002530327520252D3231DE
:1056C0007325730009534B49500A00094552524F44
:1056D000520A00094F4B0A004E52465F5030004EAE
:1056E00052465F434C4F434B004E52465F52544329
:1056F00030004E52465F52544331004E52465F4E88
:10570000464354004E52465F4E564D43004E52465D
:105710005F554152544531004E52465F55415254F7
:105720004532004E52465F5457494D32004E524664
:105730005F5350494D33004E52465F54494D4552D8
:1057400030004E52465F54494D455231004E52464C
:105750005F54494D455232004E52465F53414144D9
:1057600043004E52465F50574D30004E52465F50F8
:10577000574D31004E52465F50574D32004E524603
:105780005F50574D33004E52465F495043004E52D2
:10579000465F564D43004E52465F465055004E52AE
:1057A000465F45475531004E52465F4547553200EA
:1057B0004E52465F4450504943004E52465F524558
:1057C00047554C41544F5253004E52465F44434E4E
:1057D00046004E52465F4354524C4150004E524692
:1057E0005F5350494D34004E52465F574454300089
:1057F0004E52465F57445431004E52465F434F4D20
:1058000050004E52465F4C50434F4D50004E524652
:105810005F50444D30004E52465F49325330004E87
:1058200052465F51535049004E52465F4D555445C4
:1058300058004E52465F5144454330004E52465F39
:105840005144454331004E52465F55534244004E49
:1058500052465F555342524547554C41544F5200B2
:105860004E52465F5031004E52465F4F5343494CB3
:105870004C41544F5253004E52465F52455345548B
:10588000004E52465F4750494F544531006D757484
:1058900065785F696E69742063616C6C65642077FC
:1058A000697468204E554C4C20706172616D65744E
:1058B000657200436F756C64206E6F7420616C6C50
:1058C0006F63617465206D75746578206265666FBD
:1058D000726520696E697469616C697A696E6700C6
:1058E00025633A2072302F61313A202030782530FC
:1058F0003878202072312F61323A202030782530DC
:105900003878202072322F61333A202030782530C9
:1059100038780A0025633A2072332F61343A202008
:10592000307825303878207231322F69703A202053
:10593000307825303878207231342F6C723A20203C
:105940003078253038780A0025633A202078707343
:10595000723A20203078253038780A0025633A20C2
:105960004661756C74696E6720696E7374727563D5
:1059700074696F6E2061646472657373202872317C
:10598000352F7063293A203078253038780A002581
:10599000633A202A2A2A2A2A205345435552452071
:1059A0004641554C54202A2A2A2A2A0A0025633ABD
:1059B000202020416464726573733A203078257822
:1059C0000A0025633A202020496E76616C696420C4
:1059D000656E74727920706F696E740A0025633A7F
:1059E000202020496E76616C696420696E74656759
:1059F00072697479207369676E61747572650A00E3
:105A000025633A202020496E76616C6964206578B0
:105A100063657074696F6E2072657475726E0A00CA
:105A200025633A2020204174747269627574696F2D
:105A30006E20756E69742076696F6C6174696F6E23
:105A40000A0025633A202020496E76616C69642043
:105A50007472616E736974696F6E0A0025633A200F
:105A600020204C617A7920737461746520707265AE
:105A7000736572766174696F6E0A0025633A20203F
:105A8000204C617A79207374617465206572726F3D
:105A9000720A0025633A202A2A2A2A2A20555341CD
:105AA0004745204641554C54202A2A2A2A2A0A00D2
:105AB00025633A2020204469766973696F6E2062FD
:105AC00079207A65726F0A0025633A202020556E8E
:105AD000616C69676E6564206D656D6F72792061B8
