:108000003825012009DE00001DBD010039DE000019
:1080100039DE000039DE000039DE000039DE000004
:10802000000000000000000000000000D1DB0000A4
:1080300039DE00000000000075DB00000DC6000006
:10804000C9DD0000C9DD0000C9DD0000C9DD000098
:10805000C9DD0000C9DD0000C9DD0000C9DD000088
:10806000C9DD0000C9DD0000C9DD0000C9DD000078
:10807000C9DD0000C9DD0000C9DD0000C9DD000068
:10808000C9DD0000C9DD0000C9DD0000C9DD000058
:10809000C9DD0000C9DD0000C9DD0000C9DD000048
:1080A000C9DD0000C9DD0000C9DD0000C9DD000038
:1080B000C9DD0000C9DD0000C9DD0000C9DD000028
:1080C000C9DD0000C9DD0000C9DD0000C9DD000018
:1080D000C9DD0000C9DD0000C9DD0000C9DD000008
:1080E000C9DD0000C9DD0000C9DD0000C9DD0000F8
:1080F000C9DD0000C9DD0000C9DD0000C9DD0000E8
:10810000C9DD0000C9DD0000C9DD0000C9DD0000D7
:10811000C9DD0000C9DD0000C9DD0000C9DD0000C7
:10812000C9DD0000C9DD0000C9DD0000C9DD0000B7
:10813000C9DD0000C9DD0000C9DD0000C9DD0000A7
:10814000C9DD0000C9DD0000C9DD0000C9DD000097
:10815000C9DD000000000000000000000000000079
:10816000000000000000000000000000000000000F
:1081700000000000000000000000000000000000FF
:1081800000000000000000000000000000000000EF
:1081900000000000000000000000000000000000DF
:1081A00000000000000000000000000000000000CF
:1081B00000000000000000000000000000000000BF
:1081C00000000000000000000000000000000000AF
:1081D000000000000000000000000000000000009F
:1081E000000000000000000000000000000000008F
:1081F000000000000000000000000000000000007F
:10820000DEE61E284CBBCE8F023500003C0000008D
:1082100008B10100010000000080000000800000A3
:10822000FFFF0291000000000000000000000000BD
:0C82300000000000000000000000000042
:04823C00FFFFFFFF42
:1082400081F0004102E000BF83F0004330B54FEA07
:1082500041044FEA430594EA050F08BF90EA020F74
:108260001FBF54EA000C55EA020C7FEA645C7FEA07
:10827000655C00F0E2804FEA5454D4EB5555B8BF2A
:108280006D420CDD2C4480EA020281EA030382EA9B
:10829000000083EA010180EA020281EA0303362D2D
:1082A00088BF30BD11F0004F4FEA01314FF4801C00
:1082B0004CEA113102D0404261EB410113F0004F12
:1082C0004FEA03334CEA133302D0524263EB4303C9
:1082D00094EA050F00F0A780A4F10104D5F1200E67
:1082E0000DDB02FA0EFC22FA05F2801841F10001C2
:1082F00003FA0EF2801843FA05F359410EE0A5F196
:1083000020050EF1200E012A03FA0EFC28BF4CF0C6
:10831000020C43FA05F3C01851EBE37101F000457C
:1083200007D54FF0000EDCF1000C7EEB00006EEB89
:108330000101B1F5801F1BD3B1F5001F0CD3490813
:108340005FEA30004FEA3C0C04F101044FEA44526A
:1083500012F5800F80F09A80BCF1004F08BF5FEAF1
:10836000500C50F1000041EB045141EA050130BDD1
:108370005FEA4C0C404141EB0101013C28BFB1F5E3
:10838000801FE9D291F0000F04BF01460020B1FA2E
:1083900081F308BF2033A3F10B03B3F120020CDA01
:1083A0000C3208DD02F1140CC2F10C0201FA0CF0DF
:1083B00021FA02F10CE002F11402D8BFC2F1200C44
:1083C00001FA02F120FA0CFCDCBF41EA0C019040FA
:1083D000E41AA2BF01EB0451294330BD6FEA040443
:1083E0001F3C1CDA0C340EDC04F11404C4F120022E
:1083F00020FA04F001FA02F340EA030021FA04F340
:1084000045EA030130BDC4F10C04C4F1200220FA96
:1084100002F001FA04F340EA0300294630BD21FAD4
:1084200004F0294630BD94F0000F83F4801306BF9A
:1084300081F480110134013D4EE77FEA645C18BF8E
:108440007FEA655C29D094EA050F08BF90EA020F25
:1084500005D054EA000C04BF1946104630BD91EA1D
:10846000030F1EBF0021002030BD5FEA545C05D120
:108470004000494128BF41F0004130BD14F580045F
:108480003CBF01F5801130BD01F0004545F0FE41D3
:1084900041F470014FF0000030BD7FEA645C1ABF08
:1084A000194610467FEA655C1CBF0B46024650EA3F
:1084B000013406BF52EA033591EA030F41F400216B
:1084C00030BD00BF90F0000F04BF0021704730B5F1
:1084D0004FF4806404F132044FF000054FF00001C6
:1084E00050E700BF90F0000F04BF0021704730B587
:1084F0004FF4806404F1320410F0004548BF40425C
:108500004FF000013EE700BF42004FEAE2014FEAB0
:1085100031014FEA02701FBF12F07F4393F07F4F8B
:1085200081F06051704732F07F4208BF704793F08E
:108530007F4F04BF41F40021704730B54FF46074A1
:1085400001F0004521F000411CE700BF50EA0102A4
:1085500008BF704730B54FF000050AE050EA01024D
:1085600008BF704730B511F0004502D5404261EBBD
:1085700041014FF4806404F132045FEA915C3FF4FE
:10858000D8AE4FF003025FEADC0C18BF03325FEA9B
:10859000DC0C18BF033202EBDC02C2F1200300FA4C
:1085A00003FC20FA02F001FA03FE40EA0E0021FA71
:1085B00002F11444BDE600BF70B54FF0FF0C4CF45F
:1085C000E06C1CEA11541DBF1CEA135594EA0C0F11
:1085D00095EA0C0F00F0DEF82C4481EA030621EA4C
:1085E0004C5123EA4C5350EA013518BF52EA033587
:1085F00041F4801143F4801338D0A0FB02CE4FF039
:108600000005E1FB02E506F00042E0FB03E54FF068
:108610000006E1FB03569CF0000F18BF4EF0010E60
:10862000A4F1FF04B6F5007F64F5407404D25FEA5C
:108630004E0E6D4146EB060642EAC62141EA55510F
:108640004FEAC52040EA5E504FEACE2EB4F1FD0C51
:1086500088BFBCF5E06F1ED8BEF1004F08BF5FEACF
:10866000500E50F1000041EB045170BD06F0004681
:1086700046EA010140EA020081EA0301B4EB5C042E
:10868000C2BFD4EB0C0541EA045170BD41F4801126
:108690004FF0000E013C00F3AB8014F1360FDEBF4B
:1086A000002001F0004170BDC4F10004203C35DA27
:1086B0000C341BDC04F11404C4F1200500FA05F3AA
:1086C00020FA04F001FA05F240EA020001F000424B
:1086D00021F0004110EBD37021FA04F642EB0601C1
:1086E0005EEA430E08BF20EAD37070BDC4F10C04EB
:1086F000C4F1200500FA04F320FA05F001FA04F2AF
:1087000040EA020001F0004110EBD37041F100019A
:108710005EEA430E08BF20EAD37070BDC4F12005A5
:1087200000FA05F24EEA020E20FA04F301FA05F20D
:1087300043EA020321FA04F001F0004121FA04F2B5
:1087400020EA020000EBD3705EEA430E08BF20EA85
:10875000D37070BD94F0000F0FD101F000464000BF
:1087600041EB010111F4801F08BF013CF7D041EA41
:10877000060195F0000F18BF704703F00046520045
:1087800043EB030313F4801F08BF013DF7D043EA16
:108790000603704794EA0C0F0CEA135518BF95EACC
:1087A0000C0F0CD050EA410618BF52EA4306D1D153
:1087B00081EA030101F000414FF0000070BD50EA72
:1087C000410606BF1046194652EA430619D094EAFC
:1087D0000C0F02D150EA013613D195EA0C0F05D1E6
:1087E00052EA03361CBF104619460AD181EA03013A
:1087F00001F0004141F0FE4141F470014FF00000F2
:1088000070BD41F0FE4141F4780170BD70B54FF08C
:10881000FF0C4CF4E06C1CEA11541DBF1CEA13550C
:1088200094EA0C0F95EA0C0F00F0A7F8A4EB0504EE
:1088300081EA030E52EA03354FEA013100F08880E5
:108840004FEA03334FF0805545EA131343EA1263AE
:108850004FEA022245EA111545EA10654FEA002663
:108860000EF000419D4208BF964244F1FD0404F51C
:10887000407402D25B084FEA3202B61A65EB030578
:108880005B084FEA32024FF480104FF4002CB6EB35
:10889000020E75EB030E22BFB61A754640EA0C00B5
:1088A0005B084FEA3202B6EB020E75EB030E22BFF5
:1088B000B61A754640EA5C005B084FEA3202B6EB36
:1088C000020E75EB030E22BFB61A754640EA9C00F5
:1088D0005B084FEA3202B6EB020E75EB030E22BFC5
:1088E000B61A754640EADC0055EA060E18D04FEA83
:1088F000051545EA16754FEA06164FEAC30343EA23
:1089000052734FEAC2025FEA1C1CC0D111F4801FEF
:108910000BD141EA00014FF000004FF0004CB6E7E8
:1089200011F4801F04BF01430020B4F1FD0C88BF87
:10893000BCF5E06F3FF6AFAEB5EB030C04BFB6EB92
:10894000020C5FEA500C50F1000041EB045170BD85
:108950000EF0004E4EEA113114EB5C04C2BFD4EBB2
:108960000C0541EA045170BD41F480114FF0000E36
:10897000013C90E645EA060E8DE60CEA135594EAB2
:108980000C0F08BF95EA0C0F3FF43BAF94EA0C0FB5
:108990000AD150EA01347FF434AF95EA0C0F7FF42A
:1089A00025AF104619462CE795EA0C0F06D152EA7E
:1089B00003353FF4FDAE1046194622E750EA410662
:1089C00018BF52EA43067FF4C5AE50EA41047FF473
:1089D0000DAF52EA43057FF4EBAE12E74FF0FF3CD8
:1089E00006E000BF4FF0010C02E000BF4FF0010CA9
:1089F0004DF804CD4FEA410C7FEA6C5C4FEA430C22
:108A000018BF7FEA6C5C1BD001B050EA410C0CBF70
:108A100052EA430C91EA030F02BF90EA020F0020D2
:108A2000704710F1000F91EA030F58BF994208BF39
:108A300090422CBFD8176FEAE37040F001007047F6
:108A40004FEA410C7FEA6C5C02D150EA013C07D14D
:108A50004FEA430C7FEA6C5CD6D152EA033CD3D098
:108A60005DF8040B704700BF8446104662468C4692
:108A70001946634600E000BF01B5FFF7B7FF0028C5
:108A800048BF10F1000F01BD4DF808EDFFF7F4FFEE
:108A90000CBF012000205DF808FB00BF4DF808ED79
:108AA000FFF7EAFF34BF012000205DF808FB00BF9C
:108AB0004DF808EDFFF7E0FF94BF012000205DF8BE
:108AC00008FB00BF4DF808EDFFF7CEFF94BF012073
:108AD00000205DF808FB00BF4DF808EDFFF7C4FF6C
:108AE00034BF012000205DF808FB00BF4A0011D20E
:108AF00012F5001211D20DD56FF47873B3EB6252F8
:108B00000ED44FEAC12343F0004343EA505323FA03
:108B100002F070474FF00000704750EA013002D178
:108B20004FF0FF3070474FF00000704753B94AB91B
:108B3000002908BF00281CBF4FF0FF314FF0FF3065
:108B400000F080B9ADF1080C6DE904CE00F006F834
:108B5000DDF804E0DDE9022304B070472DE9F04FB1
:108B6000099E0D4604460F46002B47D18A42944683
:108B70005FD9B2FA82F343B1C3F120019F4002FAF8
:108B800003FC9C4020FA01F10F434FEA1C451FFAF9
:108B90008CFE220CB7FBF5F105FB117701FB0EF003
:108BA00042EA0742904208D91CEB020201F1FF376A
:108BB00002D2904200F234813946121AA4B2B2FBBA
:108BC000F5F005FB102200FB0EFE44EA0244A64528
:108BD00008D91CEB040400F1FF3202D2A64500F2D2
:108BE0001981104640EA0140A4EB0E0400211EB199
:108BF000DC400023C6E90043BDE8F08F8B4208D972
:108C0000002E00F0FB800021C6E900050846BDE803
:108C1000F08FB3FA83F100294BD1AB42C0F0F18061
:108C2000824240F2EE800846002EE5D0C6E90047B9
:108C3000E2E702B9FFDEB2FA82F3002B40F09D803A
:108C40008D1A4FEA124E97B20121B5FBFEF20EFBD0
:108C50001250250C45EA004507FB02F0A8420FD947
:108C60001CEB050502F1FF382CBF4FF001094FF056
:108C70000009A84203D9B9F1000F00F0CE804246A6
:108C80002D1AA4B2B5FBFEF00EFB105500FB07F742
:108C900044EA0544A74208D91CEB040400F1FF355F
:108CA00002D2A74200F2B3802846E41B40EA024009
:108CB0009DE7C1F120078B4005FA01F422FA07FC79
:108CC000FD408A404CEA030C20FA07F34FEA1C49A6
:108CD0001C431FFA8CFE00FA01F3200CB5FBF9F8D7
:108CE00009FB185540EA054508FB0EF0A8420FD9CC
:108CF0001CEB050508F1FF3A2CBF4FF0010B4FF0BC
:108D0000000BA84203D9BBF1000F00F08C80D046C5
:108D10002D1AA4B2B5FBF9F009FB105500FB0EFEAD
:108D200044EA0545AE4507D91CEB050500F1FF34C3
:108D300001D2AE457ED8204640EA0840A5EB0E059C
:108D4000A0FB029845454C46C64602D306D14B458A
:108D500004D20138B9EB020468EB0C0E002E6FD080
:108D60001A1B65EB0E0522FA01F305FA07F7CD4051
:108D700000211F43C6E900753EE702FA03FCC3F178
:108D8000200001FA03F24FEA1C4EC14024FA00F51C
:108D90001FFA8CF79C401543B1FBFEF02A0C0EFB2A
:108DA000101142EA014200FB07F191420ED91CEB7F
:108DB000020200F1FF382CBF4FF001094FF000090B
:108DC000914202D9B9F1000F31D04046521AADB2EA
:108DD000B2FBFEF10EFB112245EA024501FB07F250
:108DE000AA4207D91CEB050501F1FF3801D2AA42BE
:108DF00023D84146AD1A41EA004126E731463046C4
:108E0000FAE6841A65EB030301201F460CE764446D
:108E100002384AE764440238E4E6023A65442FE740
:108E200002396244C9E6A8F10208654470E70238D5
:108E30006244CBE7023865447EE702396544D9E7EE
:108E40003146D9E6704700BF2DE9F3470446008953
:108E50006389984203D1002002B0BDE8F0872588DD
:108E60006288AD1AADB2002DF5D0D4E90612C01A51
:108E7000CDE90012FFF736FB0022354BFFF79CFBD4
:108E800006460F46DFF8CCA0DFF8CC909AF80080B9
:108E9000B9F8000008F101085FFA88F88AF8008044
:108EA000FFF720FB32463B46FFF7D0F9FFF71EFEE7
:108EB000B8F11E0F81B2A9F8001008D14FF00008D8
:108EC00026488AF8008011F0DDFDA9F80080002214
:108ED000002330463946FFF7E1FD50B12089638910
:108EE00000F57F40FF30C01A8012FFF7FBFA0646FC
:108EF0000F46228863889A42ADD03C206843FFF732
:108F0000F1FA32463B46FFF781FC0FA3D3E9002379
:108F100006460F46DDE90001FFF74EFB02460B4611
:108F200030463946FFF748FB00220D4BFFF744FB64
:108F300000220C4BFFF76AFC02460B46C4E90A23E9
:108F4000FFF7D4FD80B287E74AD8124DFB210940D4
:108F50000000503F63E30020D6E20020BEF701008E
:108F600000004E4000408F40012B2DE9F0410746A4
:108F7000884614461E4625D115784B4B28461D7051
:108F8000FFF7B0FA2B0603D50022484BFFF75EF936
:108F900043A3D3E90023FFF70FFB454BC3E90001CF
:108FA0003A46B8F81010434811F06CFD0023424FC8
:108FB0005D1CDBB2B3426CDAE15C384611F062FD55
:108FC0002B46F5E7132BEBD1537C3C4AA17C137065
:108FD0003B4A022B11700ED0032B2ED0012BDFD178
:108FE000384A631E04F1100113F8010F994202F888
:108FF000010BF9D1D4E7344B1D780135EDB2012DC9
:109000001D700AD12F4A631E04F1100113F8010FDD
:109010008B4202F8010BF9D1C2E7022DC0D12B4AD5
:10902000631E04F1100113F8010F8B4202F8010BCB
:10903000F9D10022244B1A70B2E7234B1D78013579
:10904000EDB2012D1D700AD11E4A631E04F11001FC
:1090500013F8010F8B4202F8010BF9D1A0E7022DA2
:109060000AD11A4A631E04F1100113F8010F8B4252
:1090700002F8010BF9D193E7032D91D1144A631E35
:1090800004F1100113F8010F8B4202F8010BF9D122
:10909000CFE7104811F0F6FC3046BDE8F08100BF84
:1090A00052B81E85EB51044078E500200000E03FF7
:1090B000F0860020D1F70100FDF701007AE50020DD
:1090C00079E5002064E3002097E3002075E30020A9
:1090D00086E30020E827020000B5074891B011F0B0
:1090E000D1FC684600F06EFB01226846114600F094
:1090F0000FFE11B05DF804FB40F10100014B187840
:10910000704700BF1EE30020014811F0BBBC00BF48
:1091100053F101002DE9F743044612F0D5F8074654
:10912000584811F0AFFC2046574903F07BFD054637
:1091300028B9564803B0BDE8F04311F0A3BC01467E
:10914000534A204612F00FF908B95248F2E74FF09F
:109150001809514EDFF8448132788388013A09FBBF
:1091600002822946138120464D4A12F0FCF808B9C4
:109170004C48DFE733784C4A013B09FB03F308EB2B
:10918000030148F8032001238B81838838464B81F3
:109190000BF080FF10F0FF012AD0444811F072FC60
:1091A000204612F0F2F810F0FF0102D0404811F012
:1091B00069FC012534783F4B022C1D701CD0032C18
:1091C00045D0AC420ED1204614F0C6FA10238DF8DB
:1091D0000430394B2246186801A901F025F93748B7
:1091E00011F050FC012014F0B7FA03B0BDE8F08391
:1091F000334811F047FCD3E7324811F043FC2846CE
:1092000014F0AAFA304B1B78052B14D12F4B1A7887
:109210003AB12F4A12781AB100221A70182301E0CD
:109220001A7016238DF80430234B0122186801A907
:1092300001F0FAF8D6E7062BD4D1244B1A7822B1E4
:10924000234A1278002AE7D11A701423EAE71F4B49
:109250001A78AAB11E4A12788AB100221A7018230D
:109260008DF80430144B0122186801A901F0DCF8D4
:10927000184811F007FC012014F06EFAB2E71A70DA
:109280001723EDE77BF10100B8F001009EF101002A
:10929000BCF00100CEF1010022E300209C990020E7
:1092A000C0F0010003F20100119300005CF2010024
:1092B00085F201001FE3002098990020B4F201001C
:1092C00077F20100C9F2010018E3002021E3002039
:1092D00024E30020E5F2010013B50446094811F02B
:1092E000D1FB0122084B01A91A700A238DF8043022
:1092F000064B186801F098F86421204608F078FCC5
:1093000002B010BD00F301001DE300209899002079
:109310002DE9F3411E460323144604228DF8003044
:109320008DF80530414B88461B78414D072B414F46
:109330008DF8042019D1404A4049137823B90B789D
:109340009BB13F4B1B7883B10023072013702B7018
:109350000B7001F0E5F93B4B1A783B4B53F82200B8
:1093600001F0B0F908B901233B70384A137813B102
:10937000002313702B703B78002B54D02A78344F85
:10938000022A3B8802D0B3F5967F10D10132013317
:1093900003202A703B8001F0C3FA5CBB2D4811F01A
:1093A00071FB2046A8F8084002B0BDE8F081032018
:1093B00001F0DEFAB8B1032001F0EEFA00233B80A1
:1093C0002B78032001332B7001F0F4F90422224B97
:1093D0008DF8060083F82300204B0DEB020118687E
:1093E00001F022F8D9E72B7801332B703B88013349
:1093F0003B80D2E7022E10D16178174B184883F8D2
:1094000020108DF8011011F03DFB144B32466946D7
:10941000186801F009F80120C6E7324621461148D4
:1094200011F030FBF7E72B70F5E700BF18E30020E1
:1094300016E3002024E300204284002023E30020E0
:1094400020E3002025E30020149A00201BE30020E5
:10945000D4E2002014F30100B8860020989900207F
:1094600024F3010046F30100CB0710B507D5041E15
:1094700018BF0124204604F06BF9014B1C7010BD8D
:109480001EE3002073B51C46984B1546187800283B
:1094900000F02681964E33785BBB964C964B227833
:1094A0001B789A4202D1012333702AE001F032FA8C
:1094B00038B3924D2A780E2A17D844F28103D3404C
:1094C000DB0712D58E4B187801F02AF922788D4BE4
:1094D00053F8220001F0F6F8064621788A4811F088
:1094E000D1FA16B92378013323702B7801332B700E
:1094F00007E001F065FA38B97E4A30701378013B15
:109500001370012002B070BD002CFAD07F4B1B7885
:1095100023B100237E4A13707E4A13707E4A13786B
:1095200053B17E4B1B783BB100231370784A137004
:10953000784A13707A4A137000F0E6FF40B9794B0D
:109540001A782AB11870784B0121186808F050FB7E
:10955000764C2946204600F0D1FE00F08FFF002215
:109560000023FFF791FA10B9714B1A782AB300F073
:1095700085FF00220023FFF787FA28BB237C012BFD
:1095800062D16B4B1B7853B16848FFF75DFC694AA9
:1095900008BB13780133DBB2022B13701DD85C4D6E
:1095A000654E2B78012B02D03378322B2DD100233E
:1095B0000120337001F0B4F997E701221A7000F02E
:1095C0005DFFC4E90601D9E7594B1A78002AD5D0C6
:1095D00000221A70D2E70023137064210123B0FB2C
:1095E000F1F1514D8DF800302B6889B28DF80110E2
:1095F0008DF80200002BD2D0504811F043FA03221C
:109600006946286800F010FFC9E7012001F0B0F9B1
:10961000B0B1012001F0C0F9012001F0CBF8042223
:10962000012384F821008DF804208DF805303E4B8D
:109630008DF806000DEB0201186800F0F5FE60E7FA
:1096400033780133337050E7022B7FF45AAF374839
:1096500000F076FE3A4A0146E8B913780133DBB2EE
:10966000022B13700AD902232F4D8DF800300B0AFC
:109670008DF802302B688DF8011093B9254D02202A
:109680002B78304E032B02D03378642B12D101F0AB
:1096900047F90023D6E70023B0F5FA7F1370EDD227
:1096A000E1E7294811F0EEF903226946286800F045
:1096B000BBFEE3E701F05CF960B1022001F06CF958
:1096C000022001F077F80422022384F822008DF8AA
:1096D0000420AAE72B7801332B7033780133E3E6BB
:1096E0000B4B18700B4B18700BE700BF1FE30020EB
:1096F00024E3002025E3002022E300205DE3002096
:1097000018E30020149A002068F301001CE30020F5
:109710005BE300205EE3002023E3002020E3002041
:1097200016E300204084002098990020B88600208D
:1097300017E300205CE300205FE300207CF30100DE
:1097400061E3002060E3002087F30100F0B50378B7
:109750008BB004460E46174607AD032B20D8DFE832
:1097600003F002191B1D1149284612F05BFB6378B8
:1097700039460493A37830460393E3780C4A029366
:1097800023790595019363790093A37911F087F903
:109790000BB0F0BD0749E7E70749E5E70749E3E70D
:1097A0000A212846064A11F07AF9E0E798F3010009
:1097B000C1F301009FF30100A6F30100B0F3010023
:1097C000BAF3010010B504461422002112F0AFFBD9
:1097D0000E4B0F4A23600F4B92E8030063600E4B61
:1097E0002422A3600D4BE36004F1140383E803001B
:1097F000002104F11C0012F09AFB0022084B2046C5
:10980000C3E90022C3E902221A6110BD3D9E000097
:1098100050E70100B9A0000015A9010019A9010035
:10982000149A0020074A084B12781B7822B1002BAB
:1098300014BF032001207047002B14BF022000201A
:10984000704700BF5AE3002019E3002010B5064816
:109850000DF090F910F0FF0403D02146034811F0F9
:1098600011F9204610BD00BF69940000E4F3010027
:10987000012307B50C49009302220C4B0C4807F05A
:10988000C9F910F0FF0105D00A4803B05DF804EBF8
:1098900011F0F8B8084811F0F5F8084803B05DF881
:1098A00004EB11F0EFB800BF68E8010078E80100B0
:1098B000E8E7010003F4010029F401004BF4010082
:1098C00010B50446FFF7AEFF831EDBB2012B30D884
:1098D0000DF0EAF810F0FF0104D01648BDE8104082
:1098E00011F0D0B8FFF7B2FF014608B11248F5E712
:1098F00006F0F6FE10F0FF0101D01048EEE7104828
:1099000011F0C0F8204607F049FD11F096FB04F174
:10991000140003F013FF10F0FF0101D00948DDE748
:1099200000F070FD01460028F8D1BDE81040FFF7B7
:109930009FBF10BD77F4010092F40100AFF4010065
:10994000CFF40100E6F40100012008B503F036FD74
:1099500010F0FF0102D0054811F094F80122044BE9
:1099600004481A70BDE8084011F08CB803F50100F6
:1099700059E3002025F5010030B589B000F0BEFDA7
:10998000354D03AB1422002128700446184612F00E
:10999000CEFA01228DF80C200492304A304905920B
:1099A0000022029101920090002C50D02D4B19788A
:1099B00041B11A7007F030FB684603F0CDFC2A482D
:1099C00003F0FAFA03F07AFB2B78013B062B32D82E
:1099D000DFE803F0040F11131D262F002349032095
:1099E00003F0FAFAC0B230B3214811F04BF809B0D5
:1099F00030BD2049F3E72049F1E7204B1B78012BCC
:109A000001D81F49EBE7022B15D11E49E7E71B4B95
:109A10001B780BB91C49E2E7012B0CD11B49DEE78F
:109A2000164B1B780BB91A49D9E7012B03D11949F9
:109A3000D5E71949D3E70021042003F06BFBC0B23E
:109A400010B1164811F01EF8FFF77EFFCFE714495A
:109A500007F07EFACBE700BF18E30020600030007B
:109A600068F00100418400205881002070F001005E
:109A700032F5010074F0010078F0010022E30020CB
:109A80007CF0010080F0010084F0010088F001000A
:109A90008CF0010090F0010094F0010052F50100FB
:109AA00023A901002DE9F743614E04463378614D47
:109AB000002B4CD14FF0180801212B785E4F013B51
:109AC00008FB03F3FA1891815C4A5D49FA5003F0F0
:109AD000A9F8814670B95B4810F0D4FF204611F018
:109AE00054FC10F0FF0137D0574803B0BDE8F043F5
:109AF00010F0C8BF0146554A204611F034FC08B9A1
:109B00005348E9E72B788288013B08FB03734946F9
:109B10001A8120464F4A11F026FC0028F0D02B78FD
:109B20008288013B08FB037320465A8111F0CCFB6D
:109B30002978013908FB01710BF0ACFA10F0FF0134
:109B400002D0454810F09EFF204611F01EFC2D78F3
:109B5000012D04D0022D4AD003B0BDE8F0833F4B65
:109B60001C78012C22D13E4B1D78012D10D13D488F
:109B700010F088FF2846357013F0EEFD0E232A46BC
:109B80008DF80430384B01A9186800F04DFCE3E76C
:109B9000022DE1D1334810F075FF2046347013F0E8
:109BA000DBFD0F2322468DF80430EBE7022C1BD19E
:109BB0002B4B1B78032B01D0052B0ED12B4810F01B
:109BC00061FF11238DF80430274B0122186801A989
:109BD00000F02AFCFFF7D0FEBEE7062BBCD12348DD
:109BE00010F050FF1223EDE7032CE7D0B4E71B4B36
:109BF0001B78022B15D11A4B1B78032BACD11C48B8
:109C000010F040FF13238DF80430174B0122186821
:109C100001A900F009FC012013F09EFD012333701F
:109C20009AE7032B98D1124810F02CFF1523C9E7AF
:109C30001FE3002022E300209C990020859400006F
:109C4000ACF001006FF5010097F50100B0F00100E4
:109C5000C2F50100B4F00100EFF501001AE30020A5
:109C600018E30020B4F20100989900200DF60100DD
:109C7000C9F2010010B504461E4810F003FFFFF7BB
:109C8000D1FD012807D0032832D1FFF775FEBDE8CA
:109C90001040FFF759BE002006F022FD10F0FF0132
:109CA00004D01548BDE8104010F0ECBE134810F089
:109CB000E9FE0CF0F9FE10F0FF0101D01048F1E7C9
:109CC000FFF7C4FD014608B10E48EBE704F11400AC
:109CD00003F034FD10F0FF0101D00B48E2E711F072
:109CE000ACF90A4810F0CEFE204607F057FBCCE74F
:109CF00010BD00BF28F60100AFF4010036F60100E8
:109D000077F4010092F40100E6F4010047F6010047
:109D100010B4094C03462270084C217039B11AB1B5
:109D2000184610BCFFF7CCBD10BCFFF7A3BF002A3C
:109D3000F6D110BC704700BF19E300205AE30020A1
:109D400008B5034810F09EFEBDE80840FFF7FCBDD3
:109D500058F6010010B5044603F0B0F9022C19D0F2
:109D6000032C19D0012C08D10C49032003F034F93D
:109D7000C0B210B10A4810F085FE0021042003F0A3
:109D8000C9F9C0B210B1074810F07CFEBDE8104020
:109D9000FFF7DABD0449E8E70449E6E798F0010077
:109DA00032F5010052F501009CF00100A0F0010025
:109DB00010B50C4C0C48217810F064FE20780B4C48
:109DC00001380B4900230B4A54F8200002F056FFDB
:109DD00010F0FF0104D0BDE81040074810F052BE5B
:109DE00010BD00BF22E300206BF60100149A002092
:109DF000A4F001004C81002079F6010010B50A4B57
:109E00000A4C18780A49013800230A4A54F82000FD
:109E100002F034FF10F0FF0104D0BDE81040064806
:109E200010F030BE10BD00BF22E30020149A0020C5
:109E3000A8F001004081002079F6010070B590B0D3
:109E40000C4601A9054607F0A9FDC0B220B139486A
:109E500010F018FE10B070BD9DF80530002B43D1F6
:109E6000284612F0EDFA1E2208A9FFF76FFC3CB15C
:109E70002246314808A910F005FEFFF765FDE9E725
:109E80002E4808A910F0FEFD2D4B1E4653F8042B5A
:109E9000E2B9284612F09BFA46F82400284607F05B
:109EA000EBFB284A13780133DBB21370264A117892
:109EB00009B100211170254A1278013A062AC9D841
:109EC000DFE802F00A0A0A080D0D0F000134052C24
:109ED000DCD1E3E7022B04D8FFF76AFFBAE7012BD6
:109EE000FAD0FFF78BFFB5E7012BB3D124B12146A0
:109EF000174810F0C7FDADE7164A17481370174A08
:109F0000137010F0BFFD284612F061FA144B186070
:109F1000284607F0B1FB204613F01EFCFFF782FC39
:109F2000032897D1074B1B78002B93D1FFF724FD13
:109F300090E700BFA4F60100CAF60100E8F60100B0
:109F4000149A002022E300201CE3002018E30020E4
:109F5000F7F601004084002013F7010020E3002001
:109F60009899002070B58EB0054600F097FA434BE3
:109F70000446434E1870002847D001210228317052
:109F800033D0032837D0884203D101463D4800F042
:109F90008BFA2B681E22186806A9FFF7D7FB2B68DF
:109FA0001222186801A9FFF7D1FB3378002B42D0A9
:109FB000002611F002FA344B324901A81E7010F04D
:109FC000B2FC30B3314C23781BB3314810F05AFD4A
:109FD000304B28681A78304B304903EB82036A68AB
:109FE0002670006807F006FD25E0264800F05CFAC0
:109FF00021462B48CBE7234800F056FA0221284897
:10A0000000F052FA21462748C1E7FFF7B5FC34704B
:10A01000BFE7234901A810F086FC28B1224C237821
:10A0200013B11A4B1E7846B11E4901A810F07BFCF3
:10A0300080B9FFF789FC0EB070BD154810F022FD05
:10A04000144B28681A78144B184903EB82032670C6
:10A050006A68C6E7164C2378002BEAD00C4810F04B
:10A0600011FD0023237011F0A8F90A4B28681A7813
:10A07000094B104903EB82036A68B2E71AE3002038
:10A0800062E3002026E3002059E300203D84002005
:10A090002FF7010022E30020149A0020FCE70100C2
:10A0A00037E3002048E300203E8400200CE8010054
:10A0B0003F8400201CE801002DE9F04196B00D46D8
:10A0C00007A9804607F06AFC10F0FF0605D0774824
:10A0D00010F0D8FC16B0BDE8F0819DF81D40012CB1
:10A0E00010D1734B30461C70724B1E7000F0CCF9CF
:10A0F0002946714810F0C6FC304613F030FBFFF7DC
:10A10000B7FBE7E7002CE5D16C4F40463C7012F0FE
:10A1100097F91E220EA9FFF719FB69480EA92A46D6
:10A1200010F0B0FC67490EA810F0FDFBE0B101256E
:10A13000654B28461D703C7013F011FB634B1A7879
:10A14000634B072A75D1634A1570634A15701A78F4
:10A15000002A6CD10D238DF80430604B2A46186814
:10A1600001A900F061F903245D490EA810F0DBFBA2
:10A17000E0B1012400255B4B20461C703D7013F0BC
:10A18000EEFA524B1B78033BA342514B75D8564A0B
:10A1900014701A78002A6ED10C238DF804304F4BBE
:10A1A0002246186801A900F03FF902244F490EA881
:10A1B00010F0B9FBC8B101240025464B20461C70A5
:10A1C000454B3D701C704A4B1C7013F0C8FA404B55
:10A1D0001A78002A64D10D238DF804303F4B2246B3
:10A1E000186801A900F020F903240026414FDFF888
:10A1F00008813B78F5B2013B9D4253DC58F82500BD
:10A2000012F01EF902A91222FFF7A0FA02A90EA865
:10A2100010F089FB48B158F8250007F02DFA00230B
:10A2200048F825303B78013B3B700136E1E71C7074
:10A2300099E702F0FB042C49022C1A780D700CD11E
:10A240004AB90C238DF80430244B2A46186801A91A
:10A2500000F0EAF888E71E7086E752B90B238DF804
:10A2600004301E4B2A46186801A900F0DDF82C4680
:10A270007AE71E70FBE71D7097E7164A1470164ABE
:10A2800014701A7852B90D238DF80430134B2246FE
:10A29000186801A900F0C8F8032487E71D70FBE7E0
:10A2A0001D70A1E72046FFF755FD13E7A4F6010056
:10A2B00023E3002020E3002045F701001FE30020F6
:10A2C00070F7010026E300203D84002018E3002001
:10A2D0001DE300201BE3002021E3002098990020CB
:10A2E00037E300203E8400201CE3002048E30020E8
:10A2F0003F84002022E30020149A00200B78012BD9
:10A30000037404D0022B0DD00C4810F0BBBB0388A3
:10A31000438003894381B1F801300380B1F80530EF
:10A32000038170478388C3808389C381B1F801307A
:10A330008380B1F803308381704700BFB0F701001C
:10A340002DE9F8438589C38904469D422FD0B0F892
:10A350000480B0F80690C84529D0ED1A2846FEF7CB
:10A36000C1F80022134BFEF727F90022002306460E
:10A370000F46FEF793FB30B105F57F40FF30FEF747
:10A38000B1F806460F463C20A8EB090800FB08F090
:10A39000FEF7A8F832463B46FEF738FA02460B466F
:10A3A000C4E90C23FEF7A2FB80B2BDE8F8830020CD
:10A3B000FBE700BF0000503F012910B50C4604D058
:10A3C000022908D071B90A4800E00A4810F05AFB87
:10A3D000094B1C7005E0094810F054FB0122064BA4
:10A3E0001A7010BD0648BDE8104010F04BBB00BF0E
:10A3F00037F8010002F801007BE5002014F80100A5
:10A400004AF8010008B5F0220021054811F08FFD3F
:10A41000F0220021034811F08AFD002008BD00BF92
:10A4200098E3002088E40020002310B586B0039351
:10A4300005930D4BADF80C2000930C4B01220493B7
:10A440000B4B0446CDE9013119460AF0FBF848B13F
:10A450006946204609F014FF10B1064810F012FBBF
:10A4600006B010BD0448F9E72EF901004DA901001E
:10A47000CCE8010078F801009CF80100014BD3E919
:10A4800000017047F086002008B5FEF71BF8024B6C
:10A49000C3E9000108BD00BFF0860020014B187819
:10A4A000704700BF7AE5002002290DD0032915D09E
:10A4B00001291CD10E4A431E103012F8011B03F86B
:10A4C000011F8342F9D170470A4A431E103012F827
:10A4D000011B03F8011F8342F9D17047064A431E4E
:10A4E000103012F8011B03F8011F8342F9D17047A5
:10A4F00064E3002075E3002086E30020014B187818
:10A50000704700BF79E50020014B1878704700BF05
:10A510007BE5002008B5074810F0B4FA0022064B8E
:10A520001A70064A1378013B13700122044B1A700B
:10A5300008BD00BF3FF901004484002081E50020F0
:10A540004384002008B5054810F09CFA044A1378AB
:10A55000013B13700122034B1A7008BD74F901000E
:10A5600081E500204384002070B503788AB004465A
:10A570000E4607AD032B20D8DFE803F002191B1DA0
:10A580001149284611F04EFC63781E210493A378EC
:10A5900030460393E3780D4A02932379059501939E
:10A5A00063790093A37910F07AFA0AB070BD084974
:10A5B000E7E70849E5E70849E3E70A212846074AAB
:10A5C00010F06DFAE0E700BF98F30100C1F301005D
:10A5D0009FF30100A6F30100B0F30100BAF30100FC
:10A5E00030B5154601220D4B89B01A700C4610F09B
:10A5F000E6FE11F025FF6946FFF7B6FF35B12A46A2
:10A600006946074810F03EFA09B030BD2246694657
:10A61000044810F037FA044B1C70F5E783E500207E
:10A620009CF90100B9F901007CE5002030B5154620
:10A6300001220D4B89B05A700C4610F0C0FE11F08B
:10A64000FFFE6946FFF790FF35B12A466946074885
:10A6500010F018FA09B030BD22466946044810F0DF
:10A6600011FA044B5C70F5E783E500209CF90100CA
:10A67000B9F901007CE5002030B5154601220D4BEB
:10A6800089B09A700C4610F09AFE11F0D9FE694616
:10A69000FFF76AFF35B12A466946074810F0F2F91C
:10A6A00009B030BD22466946044810F0EBF9044B6E
:10A6B0009C70F5E783E500209CF90100B9F90100E1
:10A6C0007CE50020002337B5104A114D13702A781D
:10A6D00001A901322A7041F60F02ADF806200D4A99
:10A6E0008DF8043002F0CAFA10F0FF040AD02146B7
:10A6F000094810F0C7F92B78084A013B2B701378F2
:10A70000013B1370204603B030BD00BF43840020DE
:10A7100080E50020B0810020D2F9010081E5002011
:10A7200038B5002304461A4A1A491B4D137053705A
:10A7300093701A4A0B704B708B7029781370184BFA
:10A7400001311870C9B21748013C297010F09AF90C
:10A75000062C1CD8DFE804F00711040C13181600AF
:10A760002B78012B09D11048BDE8384002F0F2BE29
:10A770002B78012BF7D0022B04D10C48F4E72B786F
:10A78000012BF0D00A48EFE72B78012BF4E738BD16
:10A790007CE5002083E5002081E500204384002043
:10A7A00082E500200BFA0100F88600208087002057
:10A7B000088800200228074B05D0032805D001286F
:10A7C00005D11878704758787047987870470020FE
:10A7D000D87070477CE5002010B50B49044602F0A4
:10A7E000CDFE10F0FF0102D0084810F04BF92046D2
:10A7F00010F0CBFD10F0FF0102D0054810F042F937
:10A800000122044B1A7010BDF88600202DFA0100B9
:10A810006CFA01004384002010B50B49044602F095
:10A82000ADFE10F0FF0102D0084810F02BF92046D1
:10A8300010F0ABFD10F0FF0102D0054810F022F936
:10A840000122044B1A7010BD80870020A2FA01007B
:10A850006CFA01004384002010B50B49044602F055
:10A860008DFE10F0FF0102D0084810F00BF92046D1
:10A8700010F08BFD10F0FF0102D0054810F002F936
:10A880000122044B1A7010BD08880020E3FA010071
:10A890006CFA01004384002010B50446194810F0FA
:10A8A000F1F80122184B1A70184B1B78013B062B4C
:10A8B00026D8DFE803F00813040D18211C00144B00
:10A8C0001B78012B0AD12046BDE81040FFF784BF5A
:10A8D0000F4B1B78012BF6D0022B08D12046BDE888
:10A8E0001040FFF799BF0A4B1B78012BEBD0204695
:10A8F000BDE81040FFF7B0BF054B1B78012BECE71C
:10A9000010BD00BF7BF101004484002082E50020DF
:10A9100081E50020014B1878704700BF4384002078
:10A9200002280AD003280ED0012812D10022094B98
:10A9300009490A481A7002F0ABBE0022054B0849CB
:10A9400008485A70F7E70022024B074907489A70F7
:10A95000F1E7704783E50020E1A50000F8860020BC
:10A960002DA600008087002079A60000088800201E
:10A97000022806D0032807D0012808D1054B1878F3
:10A980007047044B58787047024B98787047002006
:10A99000704700BF83E50020022807D0032809D0B4
:10A9A00001280AD10022054B1A7070470022034B80
:10A9B0005A7070470022014B9A70704783E500205F
:10A9C000014B1878704700BF44840020436870B57D
:10A9D00003F00303022B04460E46816010D0032BC4
:10A9E00004D0012B0FD10025284601E00568002086
:10A9F0000023636010B131460FF0FEFE284670BDA3
:10AA000000250068F4E745220449054810F03AF8AB
:10AA10004521024810F0DCFA0025E8E727FB010099
:10AA20004AFB01000B6801330B60014B1B681847A0
:10AA3000BC810020014B1860704700BFBC81002022
:10AA400007B50B46002102460191034801A900F019
:10AA5000E9FB03B05DF804FB25AA000030B5002532
:10AA600085B0CDE90101044601A90548039500F030
:10AA7000D9FBDDE902309842B8BF255405B030BD9E
:10AA80005FAA01002DE9F74FB0F81CA004461AF0A8
:10AA9000080F93461CD001290CBF4AF0100A4AF057
:10AAA000200AA0F81CA004F114000FF00DF840B922
:10AAB00092499348A7220FF0E5FFA7218F4810F095
:10AAC00087FA8BF31188BFF36F8F03B0BDE8F08F67
:10AAD0008C4FDFF82C820AF0070A022906D12046A3
:10AAE0000FF0EAFF0028DED0012863D1D4F81890D7
:10AAF000A38BB9F1000F19DA0026256823F00703AC
:10AB0000C4E9006643F00103A383A38B03F00702AB
:10AB10005245009203D0A268002A40F0F58015B992
:10AB2000002E00F02F814FF0000AEFE003F0070243
:10AB3000511F012920D8002123F00703062A256888
:10AB40009BB2C4E900110AD13DB12946E28B0968E4
:10AB5000013292B20029FAD1E28343F00203204687
:10AB6000A3830FF0A9FF06460028CED0A38B43F0A5
:10AB70002003A3830026C8E7042A0DD123F007038E
:10AB80009AB22046A2830FF097FF054680B142F0AB
:10AB900020020025A283EDE740F219123946404613
:10ABA0000FF070FF40F21911384610F011FA00252D
:10ABB0002E46AAE7032831D1BAF1000F0AD0394650
:10ABC00040464FF4AA720FF05DFF4FF4AA71384669
:10ABD00010F0FEF9236853B93946404640F2551249
:10ABE0000FF050FF40F25511384610F0F1F923698B
:10ABF0001E6856B9394640464FF4AC720FF042FF1A
:10AC00004FF4AC71384610F0E3F9A38B23F007033F
:10AC100043F006030025A383A94676E704282ED136
:10AC2000BAF1020F0AD03946404640F25B120FF0EB
:10AC300029FF40F25B11384610F0CAF9E38B53B19B
:10AC4000394640464FF4AE720FF01CFF4FF4AE7120
:10AC5000384610F0BDF923695E6856B9394640465A
:10AC600040F25F120FF00EFF40F25F11384610F015
:10AC7000AFF9A38B23F0070343F00403CAE70528C9
:10AC80002ED1BAF1010F0AD0394640464FF4B172C5
:10AC90000FF0F8FE4FF4B171384610F099F92368BF
:10ACA00053B93946404640F263120FF0EBFE40F2D2
:10ACB0006311384610F08CF923699E6856B93946FD
:10ACC00040464FF4B3720FF0DDFE4FF4B3713846D7
:10ACD00010F07EF9A38B23F0070343F0050399E7F7
:10ACE000002540F26912394640460FF0CBFE40F293
:10ACF0006911384610F06CF92E468DE784FB01008F
:10AD00004AFB010062FB01004FF0010A43F0080317
:10AD1000A38304F11403184601930EF0D5FE40B945
:10AD200040463149A7220FF0ADFEA7212E4810F072
:10AD30004FF98BF31188BFF36F8FBAF1000F30D149
:10AD4000002D40D116B120462849B0474FF02003CE
:10AD5000EFF3118B83F31188BFF36F8F01980EF01F
:10AD6000A5FE40B9404620497C220FF08BFE7C2195
:10AD70001D4810F02DF901980EF0B4FEA38B23F0BE
:10AD80000803A383A38BDA0625D5012123F0100342
:10AD9000A383B4F81CA00AF0070A00297FF49DAE33
:10ADA00081E6A1680029CBD0D1F800A04B4620460F
:10ADB000D1F804B0009AD847BAF1000FC0D051467C
:10ADC000DAF800A0F2E729464B462046009A2D68A3
:10ADD0000FF08EFEB4E713F020011EBF23F0200316
:10ADE0000221A383D5E700BF84FB0100F1AD000081
:10ADF000F8B504460D4600F114064FF02003EFF3BA
:10AE0000118783F31188BFF36F8F30460EF04EFE2B
:10AE100040B90A490A487C220FF034FE7C210748D9
:10AE200010F0D6F830460EF05DFE3A462046A56199
:10AE30000121BDE8F840FFF725BE00BF84FB0100FB
:10AE40004AFB01002DE9F04704460F460FF066FE6D
:10AE5000051E54DB04F114094FF02003EFF3118AAF
:10AE600083F31188BFF36F8F48460EF01FFE40B981
:10AE7000334934487C220FF005FE7C21304810F025
:10AE8000A7F848460EF02EFE4FF6FF71E38BA28B1B
:10AE90008B4202F007064AD0022E1FD135464FF0F2
:10AEA00001080133E38348460EF00EFE40B9244901
:10AEB0002448A7220FF0E6FDA721214810F088F8CA
:10AEC0008AF31188BFF36F8FB8F1000F17D00023FA
:10AED0003246394620460FF00BFE10E0930701D0B2
:10AEE000062E0FD100233B606368EBB9C4E90077FD
:10AEF0003546F6B9524602212046FFF7C3FD2846E3
:10AF0000BDE8F087052E17D0012E0AD00E490D4856
:10AF100040F2C5120FF0B6FD40F2C5110A4810F01C
:10AF200057F86FF0040504E01F606760E0E76FF01A
:10AF30000A054FF00008B6E76FF02205F9E700BFF9
:10AF400084FB01004AFB010062FB01002DE9F04196
:10AF50000546144EDFF850804FF0FF324FF0FF33BC
:10AF600028460DF04BFB04460028F5D0476847B94A
:10AF7000314640461C220FF085FD1C21304610F062
:10AF800027F804F10803D3E8EF2F22F00101C3E80A
:10AF9000E01F0028F7D1D30701D52046B8470EF0AF
:10AFA00057FAD9E7AAFB01004AFB010070B5002956
:10AFB00039D005680122AB682846B3F5004F2CBF95
:10AFC000082404240C1B641BE40821460FF0D2FD66
:10AFD000C30708D4144915489A220FF053FD9A214B
:10AFE00011480FF0F5FF214628460FF0D9FD26182D
:10AFF0003146002228460FF0BDFD361AB44208D073
:10B0000009490A48A2220FF03DFDA22106480FF08F
:10B01000DFFF2146284600220FF0C8FD2146BDE88B
:10B0200070400FF005BF70BDCDFB01004AFB010071
:10B030002DE9F84301F1FF3919EA010F80460F4667
:10B040001446056808D031493148FC220FF01AFD3A
:10B05000FC212E480FF0BCFFA868B0F5004F2CBFB4
:10B06000082304239F4205D821464046BDE8F84303
:10B070000FF020BF1CB900263046BDE8F883B0EBC6
:10B08000D40FF8D93919C91A0FF0ACFD014628467A
:10B090000FF003FE80460028EDD0AB687F42B3F589
:10B0A000004F2CBF0823042303EBC0062E444E445C
:10B0B0003E403444F31A07345B1B24F00704641B3E
:10B0C000B0EBD30F4FEAD3074FEAE40408D20146AE
:10B0D0003A4628460FF024FE414628460FF065FE0A
:10B0E000394628460FF05CFD3844844208D2394680
:10B0F000284622460FF014FE214628460FF055FE42
:10B100000122394628460FF051FDB5E7CDFB01007D
:10B110004AFB0100B2F5802FF8B507460C461646EB
:10B120000ED2042A0AD83D493D484FF4B6720FF0BA
:10B13000A9FC4FF4B67139480FF04AFF042200E031
:10B140000822B61AE51D344425F0070524F007044B
:10B15000641B172C4FEAD4060AD83049304840F215
:10B1600075120FF08FFC40F275112C480FF030FF74
:10B17000002300223D60C5E900230023314630460C
:10B18000AE60EB600FF037FD01218400471C3046B4
:10B190000FF028FD1B34E4082044B0420AD31F49B5
:10B1A0001F4840F281120FF06DFC40F281111B48E4
:10B1B0000FF00EFF0023194605F11002BB4228DBF9
:10B1C0002246284600210FF009FD371B28460122A0
:10B1D00000210FF0EBFC3A4621460FF0FFFC23461E
:10B1E0000022214628460FF0D0FC314628460FF0B9
:10B1F000F5FC3B463146284600220FF0C6FC31469E
:10B20000284601220FF0D2FC2146BDE8F8400FF09D
:10B21000CCBD42F8041B0133D0E700BFCDFB0100D9
:10B220004AFB01002DE9F04F8B4692461C46002553
:10B2300091B002909AF8000008B928465FE32528EB
:10B240000AF1010707D05946029B98470028C0F22F
:10B250005683013512E2182200210AA810F067FE79
:10B260009AF80130252B78D000229446964616464F
:10B270001046394617F8013B2B2B00F09D8000F259
:10B280009480202B00F09A80232B00F09A8028B124
:10B290009DF8300040F004008DF830002EB19DF88C
:10B2A000300040F008008DF83000BEF1000F05D0EE
:10B2B0009DF8300040F010008DF83000BCF1000F18
:10B2C00005D09DF8300040F020008DF830002AB104
:10B2D0009DF8302042F040028DF830209DF830205B
:10B2E00002F04400442803D16FF386128DF8302019
:10B2F0009DF830202A2B42F080028DF830207BD13F
:10B300009DF831204B1C42F001028DF831201A7853
:10B310002E2A0CBF012100219DF8312061F341024A
:10B320008DF8312074D15A782A2A6AD000210A2651
:10B330000133184610F8012BA2F13007092F40F213
:10B340008E809DF830200E91C2F3400040EAD1710A
:10B3500061F341028DF830205AE00AF102078DF8BE
:10B3600033309DF83130D90740F1498154F8049BBE
:10B37000B9F1000F07DA9DF83020C9F1000942F059
:10B3800004028DF830205A0740F1428154F8048BB2
:10B39000B8F1000F80F241819DF831306FF3410325
:10B3A0008DF831304FF0FF3837E12D2B0CD0302B9A
:10B3B0007FF46DAF01225CE701265AE74FF0010EE2
:10B3C00057E74FF0010C54E7012052E733460CFBDE
:10B3D0000202303A1E4616F8010BA0F13007092F81
:10B3E000F4D9994293D09DF830100D92D20F62F3A8
:10B3F00041018DF830108AE70B4600224FF00A0C0D
:10B40000E8E79DF83120023342F004028DF8312044
:10B410001F4617F8012B6C2A41D025D8682A2BD05B
:10B420006A2A46D04C2A4CD01F4617F8012B9DF8AB
:10B430003130782A8DF8332000F2D980572A4DD840
:10B44000412A03D0453A022A00F2D18004229DF815
:10B45000323062F302038DF8323001239EE006FBA6
:10B4600001210346303964E7742A26D07A2ADBD1D9
:10B4700006229DF831300DE05A78682A9DF8312077
:10B4800006D1012161F3C6028DF831209F1CCCE763
:10B490001346022262F3C6038DF83130C5E75A78AD
:10B4A0006C2A9DF8312001D10421EBE713460322D9
:10B4B000F0E705229DF83130ECE707229DF83130A6
:10B4C000E8E7BDF8303023F4F04323F0020343F4FF
:10B4D000804343F00203ADF83030A6E7A2F15801F3
:10B4E000202900F2848001A050F821F0B1B50000BD
:10B4F000EFB50000EFB50000EFB50000EFB50000BC
:10B50000EFB50000EFB50000EFB50000EFB50000AB
:10B510004DB40000EFB50000B1B5000071B50000FA
:10B520004DB400004DB400004DB40000EFB5000074
:10B5300071B50000EFB50000EFB50000EFB50000F9
:10B54000EFB50000B9B50000B1B50000D5B50000F9
:10B55000EFB50000EFB50000D5B50000EFB5000075
:10B56000B1B50000EFB50000EFB50000B1B50000C7
:10B5700001209DF8321003F0780360F30201402BA4
:10B580008DF8321002BF9DF8301041F001018DF8A6
:10B590003010632A31D1003B18BF01239DF83020C1
:10B5A000C2F340010B4363F341028DF83020D8E62B
:10B5B00002209DF83210DEE703219DF8322003F0CF
:10B5C0007803A3F1400061F3020243428DF8322078
:10B5D0004341E3E703219DF8322013F0780F61F334
:10B5E000020214BF012300238DF83220D6E79DF814
:10B5F000303043F001038DF830300023CEE79DF961
:10B600003020002AACBF4FF0FF39DDF83490BAE6A5
:10B610009B077FF5C7AEDDF838800023CDE90D33F9
:10B620009DF832309DF8311003F00703012BC1F370
:10B63000C30138D1CB1E042B22D8DFE803F0030965
:10B640000921210054F8043BDA17CDE90A3206E05B
:10B65000073424F00704F4E80223CDE90A239DF817
:10B66000303013F0030656D03B46524659460298F6
:10B670000FF098FC0028C0F242810544BA46D9E593
:10B6800054F8043B01294FEAE372CDE90A3205D1AF
:10B690009DF828300A9300230B93E0E70229DED1BE
:10B6A000BDF92830D0E7022B23D1CB1E042B13D8B1
:10B6B000DFE803F0030A0A12120000232268201DAB
:10B6C0000A920B930446CAE7E01D20F00700F0E859
:10B6D0000223CDE90A23F5E754F8043B01290A9334
:10B6E0004FF000030B93D3D00229B8D1BDF8283016
:10B6F000D0E7042B09D1E31D23F0070303F108046D
:10B70000D3E90023CDE90A23A9E7032B04BF54F8AA
:10B71000043B0A93A3E79DF833007828AED862284B
:10B7200022D825283FF48FAD5828A7D1DDE90A019A
:10B730000DF1260300930CAA04AB0FF0EDFB82463B
:10B74000B8F1000F0DF126000CDB9DF83020A0EBC6
:10B750000A036FF3861298458DF8302002D9A8EBC2
:10B7600003030D9380463DE06338152886D801A277
:10B7700052F820F0F5B7000059B800007DB600007F
:10B780007DB600007DB600007DB6000059B800000F
:10B790007DB600007DB600007DB600007DB60000DD
:10B7A000B3B8000081B8000085B800007DB6000085
:10B7B0007DB60000CDB700007DB6000081B8000066
:10B7C0007DB600007DB6000081B80000B8F1000F22
:10B7D000DDF828A00ADB4146504610F046FB002663
:10B7E0000AEB0008BAF1000F0CD147E7504610F001
:10B7F00035FBF4E700260A9B0DF1100A8DF8103096
:10B800000DF11108A8EB0A0306B101339DF83220AF
:10B81000D00668D5023352060D9948BF0E9A0B44E4
:10B8200048BF9B18B9F1000F76DD9DF83020A9EBD9
:10B830000309C2F38003039353076DD4500661D507
:10B8400046B159463046029B9847002857DB039B78
:10B8500001351E46302356E01E070FD413F01006A4
:10B8600018BF2026DDE90A23002BBFF65FAF524246
:10B8700063EB43032D26CDE90A2357E72B26F1E797
:10B88000002653E70A9840B30DF1260300930021E8
:10B8900004AB0CAA0FF040FBBDF83230824603F037
:10B8A000EF0343F4F04343F010030026ADF83230C9
:10B8B00046E70A9B07293FF6E1AEDFE801F00C04FA
:10B8C000060C08080C0C1D70D8E61D80D6E6EA1799
:10B8D000C3E90052D2E61D60D0E6DFF8C8A00646F4
:10B8E0000AF105088EE7110748BF013393E71846B0
:10B8F00003935946029B98470028039B04DA11B032
:10B90000BDE8F08F20234D444A46002AA5EB0901EB
:10B9100009F1FF39EBDC0D4636B159463046029B42
:10B9200098470028EBDB01359DF83230D90601D469
:10B930001A0706D559463020029B98470028DEDBBF
:10B9400001359DF83230DB0607D559469DF83300A6
:10B95000029B98470028D2DB01350D9E2E44731BB5
:10B96000002B16DC43465246594602980FF01AFB4C
:10B970000028C4DB0544A944A9EB0503002B7FF78D
:10B980007DAE59462020029B98470028B7DB013541
:10B99000F2E759463020029B98470028AFDB01357B
:10B9A000DDE700BFEEFB010048B1054B1A68054B0F
:10B9B000B2FBF3F2044B504343F0010318477047C6
:10B9C000F483002040420F00E0E70100014B1970B2
:10B9D000704700BF000007200020014B187070471F
:10B9E00000000720014B186812F041B9389A002076
:10B9F0000A4B13B51868002382680093146819462F
:10BA00001A46A047024630B14521054802B0BDE8BC
:10BA100010400FF037B802B010BD00BF289A0020C8
:10BA2000F8FB01000749D1E8EF3F43F00102C1E80C
:10BA3000E02F0028F7D1DB0703D40348083912F0C0
:10BA4000D7BA7047349A002090880020F0B5474B51
:10BA500085B002AC06460D4693E803004FF4006241
:10BA600084E803004FF0FF33414942480EF06EF87E
:10BA70004149424812F02EFB0022414B41492046E9
:10BA8000C3E901121A600BF037FD044638B14521B5
:10BA900002463D480EF0F6FF204605B0F0BD3B489B
:10BAA0000BF00AFD044618B1024645213848F1E77B
:10BAB0003849394801AA11F05AFE044618B1024625
:10BAC00045213648E6E7019B9A682AB9306045214E
:10BAD00033480EF0D7FFDFE70C333360002BF6D08E
:10BAE00030480CF021F8304F386030480CF01CF82A
:10BAF0003A6832B945212E480EF0C4FF6FF01204A7
:10BB0000CAE710B945212B48F6E7836822465B68EF
:10BB1000294998470FF082FA284F386030B94521FB
:10BB200027480EF0AFFF6FF00B04B5E70FF076FA81
:10BB3000786010B945212348F3E73268224B102181
:10BB40005A61224A3F685A60042236689A601A6233
:10BB50000222DE621E4EAA621E4A9984DE6198614C
:10BB600099811F60AC612A62EB6295E758E701009A
:10BB700060EA0020908800201BFC0100B0880020B3
:10BB80002C9A0020E5B9000026FC0100F08100207D
:10BB90004EFC01007EFC010088FC010090FC0100CD
:10BBA000B2FC0100E3FC0100289A0020E9FC01003E
:10BBB000EFFC010017FD010025BA0000389A0020B3
:10BBC0003FFD01006DFD0100C081002000FC072049
:10BBD00000F8072008E901002DE9FF410D461B4E42
:10BBE000074631682846904610F048F968B1284663
:10BBF000F16C10F043F938B12A464521144804B0DD
:10BC0000BDE8F0410EF03EBF01204C244443114BEF
:10BC100004F108000293344463682A46CDE90083A6
:10BC200039464FF0FF3330440BF032FD034638B154
:10BC30002A464521084804B0BDE8F0410EF022BF75
:10BC4000012384F8483004B0BDE8F081409A002018
:10BC5000A9FD010037B00100D8FD010037B5134D33
:10BC600013492846FFF7F2FE044638B14521024643
:10BC700010480EF007FF204603B030BD0E4C4FF4C5
:10BC80007C4220460D4912F07CF900942B680C4A46
:10BC900007490C480BF028FE044618B1024645211E
:10BCA0000948E6E70122094B1A70E4E7D89A002018
:10BCB000408900200EFE01006C9B0020000407203C
:10BCC000D9BB0000DC9A00203BFE010086E5002085
:10BCD00038B50D4B02461B7893B90C4C206848B11F
:10BCE000E36C33B10A4845210EF0CCFE6FF00B0037
:10BCF00038BD01204C234343E518E2506960F7E763
:10BD00006FF04300F4E700BF86E50020409A002072
:10BD10005AFE01004C22034B02FB003393F848000B
:10BD2000704700BF409A002037B54C240B460121D4
:10BD30004443CDE90021054D28190834D0E90B1200
:10BD400028190BF093FC03B030BD00BF409A0020CF
:10BD5000104B2DE9F0411C6805460E461746ACB164
:10BD60004FF0FF324FF0FF330B480CF0FFF96368E0
:10BD70003246D3F8088029463B462046C047044651
:10BD800005480CF0BFFA2046BDE8F0816FF00104D1
:10BD9000F9E700BF809B002050850020002330B5CC
:10BDA00085B00546CDE9023301904FF0FF334FF0E7
:10BDB000FF320B480CF0DAF90A4B1C6834B16368A7
:10BDC00020461B6801A998472468F7E7284600F039
:10BDD0003BF8044602480CF095FA204605B030BD09
:10BDE00050850020789B00201FB5CDE9010103920A
:10BDF0004FF0FF334FF0FF3209480CF0B7F9094B11
:10BE00001C6834B1636820461B6801A99847246800
:10BE1000F7E703480CF076FA002004B010BD00BF2D
:10BE200050850020789B00200022024BC3E90022AD
:10BE3000704700BF789B00200022024BC3E900221C
:10BE4000FFF7F2BF849B00202DE9F0410646002554
:10BE50001F4C204FDFF88080BC4208D941461F4864
:10BE6000F4220EF00FFEF42140460FF0B1F8BC4270
:10BE700007D31B4B1C680CB1143CA4B92846BDE881
:10BE8000F0811EB9E3684BB91434E5E7002231466E
:10BE900020680FF0D9F80028F4D1F5E79847002D75
:10BEA00008BF0546F0E736B9E36863B914F1140F2B
:10BEB000E4D06469DFE70022314620680FF0C4F85F
:10BEC0000028F1D1F2E79847002D08BF0546EDE7BD
:10BED00000E6010064E6010093FE01004AFB010058
:10BEE000849B002010B5064C23783BB9FFF7A4FFD4
:10BEF0000FF0E3F808B90123237010BD0020FCE720
:10BF000087E5002010B5044C2046FEF793FD20463F
:10BF100002F0D2FB002010BD1DBF00002DE9F3414F
:10BF200004460325DFF85880164E8DF807004FF0C1
:10BF3000FF334FF0FF3240460CF018F901220DF1AB
:10BF40000701002001F056FC074640460CF0DAF9E4
:10BF50002FB101233370204602B0BDE8F081337861
:10BF6000002BF8D0013D08D012F0AAF80028DED14D
:10BF7000002142200DF078FBD9E73570EBE700BFD8
:10BF80002885002088E5002037B540230C460A4963
:10BF90000093411A491105462346084A08480FF004
:10BFA000A1F8011E05DA2846234603B0BDE830405B
:10BFB000184703B030BD00BF9C9B002057B1010063
:10BFC0004884002038B5CCB2032C054608D909496D
:10BFD00009487E220EF056FD7E2106480EF0F8FF3D
:10BFE0000C23E96804FB0314D4F8880000F0070070
:10BFF00038BD00BFCBFE01004AFB0100F8B5CCB252
:10C00000032C05461746C6680AD91949194840F253
:10C0100053120EF037FD40F2531115480EF0D8FFC1
:10C020004FF02003EFF3118183F31188BFF36F8F7B
:10C030000C2202FB0463D3F8883013F0C00301D054
:10C040009F4212D10123002002FB0466C6F888300B
:10C0500081F31188BFF36F8F30B90C23696803FB3C
:10C060000414636898470020F8BD4FF0FF30EFE7F5
:10C07000CBFE01004AFB010070B50D46064904469F
:10C08000411A491140220548FFF7B8FF2B460146E7
:10C090002046BDE8704018479C9B00204884002043
:10C0A0002DE9F843002201210646052001F0BEFDDE
:10C0B000052001F09DFD11480AF0AEFE104B98429C
:10C0C00019D10AF0C9FE00244FF00C080127DFF84F
:10C0D0003490F568494605EB44100EF02EFD00281B
:10C0E00007DB08FB04550134042CC5F88870F0D137
:10C0F0000020BDE8F8836FF00400FAE741C10000BA
:10C100000000AD0B70E9010001460C2300224B43F7
:10C11000094870B5C4188833D4E920561844C4F8C7
:10C1200080200EF0CCFF2DB132462B46BDE870408A
:10C130000248184770BD00BF9C9B00204884002027
:10C1400008B5052821D8DFE800F0031120130F0DF2
:10C15000134BD3F8880010F007001FD1BDE808404A
:10C16000FFF7D2BF0220F9E70320F7E70120F5E748
:10C170000C4940F266220C480EF084FC40F2662125
:10C18000BDE8084007480EF023BF064940F26A2286
:10C1900005480EF077FC40F26A21F1E708BD00BFC8
:10C1A0009C9B0020CBFE01004AFB010008B54FF02C
:10C1B0002003EFF3118183F31188BFF36F8F114ACE
:10C1C000136843F0020013F0010310600BD00E4A15
:10C1D000D2F80C34D2F80C2413F0010303D00B482E
:10C1E0000EF06DFF012381F31188BFF36F8F23B130
:10C1F000BDE808400020FFF787BF0120BDE80840E8
:10C200000AF04EBE4C9C002000500040249C0020B0
:10C210007FB500220123CDE9022304ABCDE904332D
:10C22000094A6B46CDF800D0CDF804D00EF08CFF53
:10C23000002805DB4FF48042002368460DF086FAA3
:10C2400007B05DF804FB00BF8DB10100074BD3E8D8
:10C25000EF2F22F00201C3E8E01F0028F7D1D30737
:10C2600002D401200AF086BE704700BF4C9C00201B
:10C270002DE9F041012206464249D1E8EF3FC1E8ED
:10C28000E02F0028F9D19BB93F4940484B60CB6073
:10C290008A60FEF7D7FD00280ADA3D493D4840F2A2
:10C2A00026220EF0EFFB40F2262139480EF090FED8
:10C2B00086B3731E012B52D8012E06D1364BD3F80C
:10C2C0001C3403F00303022B24D011F0F9FE0446C2
:10C2D00018B9324B1B78002B4ED14FF02003EFF3EF
:10C2E000118783F31188BFF36F8F01242A4DDFF884
:10C2F000B080D5F81834D5F81824D2030CD503F043
:10C300000303022B01D0012E06D124B387F3118839
:10C31000BFF36F8FBDE8F081C4B1384601F0F6FC81
:10C32000D5F81835DBB2012BE3D1D5F80421002A6A
:10C33000DFD00022C5F80421D5F804210222C5F877
:10C3400018252022C8F88021AB60D2E700212120E7
:10C350000DF08AF9E4E70223C5F80433DAE70C4963
:10C360000C484FF40E720EF08DFBBDE8F0414FF417
:10C370000E7107480EF02CBE0222074B0746C3F889
:10C380000823B3E7509C00208C9B0020BC9B00201E
:10C39000CBFE01004AFB0100005000405EEA002095
:10C3A00000E100E010B500F005F9041E06DA2246AF
:10C3B000452107480EF066FB204610BD054803F0F6
:10C3C00029FF041EF8DA224645210348F2E700BFA0
:10C3D0003DFF01007CE9010069FF010010B5027D0D
:10C3E0000446022A0CD0042A09D0B2B145210C48D7
:10C3F0000EF048FB204609F0CFFA002010BD0522C0
:10C40000114604F1080011F083F8204600F0EEF820
:10C41000021EEFDA45210348EAE70122F0E700BFF8
:10C4200098FF0100ADFF01002DE9F341804606466B
:10C4300018F8010B0D46042801F1FF3309D0052837
:10C4400074D0022840F09980032B4AD845214F48E8
:10C4500003E0012B06D845214D4802B0BDE8F0416C
:10C460000EF010BB73783E2B17D1F778022F16D041
:10C47000A7F10D035F425F410222414601A80FF080
:10C480002BFD9DF80530033D9D420AD045214148D2
:10C490000EF0F8FA02B0BDE8F0810027ECE70127C2
:10C4A000EAE70022002339469DF8040002F0DCFA96
:10C4B000044620B9002FEDD145213748E8E700F1C7
:10C4C0000807022201A9384611F045F82A46F11C56
:10C4D000384611F040F8204602B0BDE8F04103F0C4
:10C4E0006FBE00220023032002F06CFA0446D0B194
:10C4F000042241460DEB02000FF0EEFC042204F191
:10C50000080738460DEB020111F025F8BDF806309A
:10C51000053D9D422ED0452120480EF0B3FA20461D
:10C5200009F03AFAB6E745211D4896E7032B02D8F1
:10C5300045211C4891E70022002302F043FA0446FB
:10C54000A8B1042241460DEB02000FF0C5FC042205
:10C5500004F1080738460DEB020110F0FCFFBDF8AE
:10C560000630053D9D4205D045210F48D5E74521C0
:10C570000E4872E72A46711DAAE7024645210C487B
:10C5800002B0BDE8F0410EF07DBA00BF3A000200F3
:10C59000CAFF0100F0FF0100190002007D00020047
:10C5A0005E000200A4000200E7000200C8000200D2
:10C5B0000E01020008B508490848FFF789FB021E72
:10C5C00005DA074845210EF05DFA064808BD064B1E
:10C5D00000201A60FAE700BFA9B101003B01020088
:10C5E000460102002AF8FFFF549C0020024B82897A
:10C5F00081681868FFF798BB549C002008B5024B6F
:10C600001868FFF787FB08BD549C002010B5064C46
:10C610000648214617220EF035FA2046BDE81040A4
:10C6200017210EF0D5BC00BF830102004AFB0100B8
:10C63000044A1368C81A20F07F40034413600DF0C9
:10C6400029BD00BF649C00202DE9F0474FF48037DE
:10C650004FF00009860000F1500406F18046A40066
:10C6600006F5A836A4B204F18044D6F84035DFF8C8
:10C670006C8021F07F4504F5A8348740D8F804A5E4
:10C68000A3EB0A0323F07F432AF07F42012BC6F875
:10C69000402502D1132011F019FD0AF10202AB1A54
:10C6A00023F07F43B3F5000F88BF1546C4F8009010
:10C6B000236825F07F43C8F84473C6F84035D8F89E
:10C6C00004359A4506D0EB1A023B23F07F43B3F5BD
:10C6D000000F01D8BDE8F0872B46CFE7005001409E
:10C6E000F8B500252F46104C2668104B05B1F8BD53
:10C6F000D3F80423D203FAD5D3F84021002AF6D088
:10C70000C3F84051D3F840214FF48032C3F8482396
:10C710000125D3F8401526B1002062682760B04794
:10C72000E2E72660E3E700BF589C0020005001408C
:10C7300038B500254FF480334FF400120C4C012122
:10C74000C4F80855C4F804330A4B1520C3F88021F7
:10C750002A4601F06BFA152001F04AFA0123064A35
:10C76000A360022023601360FFF782FD284638BDD6
:10C770000050014000E100E0609C0020134AB0F14D
:10C78000FF3F14BF03461346013B002B1CDD9342C1
:10C79000A8BF13460E4AD2F804050E4A1168401A83
:10C7A00010F4000F18BF002320F07F4201320A4826
:10C7B00013440A4A106000205060044A934294BF18
:10C7C000C9188918FFF740BF0023E3E7FFFF7F0088
:10C7D00000500140649C002031C60000589C00209D
:10C7E00038B54FF02003EFF3118583F31188BFF3C1
:10C7F0006F8F15480DF05AF940B9144914487C223E
:10C800000EF040F97C2111480EF0E2FB0E480DF0CD
:10C8100069F9104B0C48D3F804450F4B1B68E41A18
:10C8200024F07F440DF050F940B908490848A72288
:10C830000EF028F9A72105480EF0CAFB85F31188F0
:10C84000BFF36F8F204638BD689C002084FB010039
:10C850004AFB010000500140649C002038B5C51C13
:10C8600025F00305742D08D91749184850220EF0F9
:10C8700009F9502114480EF0ABFB154CD4F83C31AB
:10C8800023B1D4F844312B44742B19D978210420D6
:10C890000DF0FCFF78B10023D4F8402103605AB9B1
:10C8A000C4E94F00C4F84431D4F844311A1D1D4482
:10C8B0001044C4F8445138BD1060C4F84001F1E799
:10C8C000D4F84001F0E700BFF00102004AFB01008C
:10C8D0006C9C0020084800F59C73D3E8EF2F42F0D1
:10C8E0000202C3E8E12F0029F7D1D0F848311B68D4
:10C8F0000BB14168184770476C9C002070B50B4C19
:10C90000054620460EF076FC6FF0010104F59C70A0
:10C910000EF087FCD4F848319B682BB12946626839
:10C920002068BDE87040184770BD00BF6C9C0020B7
:10C930002DE9F8431F4C0746D4F834310E46222B1C
:10C9400007D945211C480EF09DF800252846BDE872
:10C95000F88303681B78022B0DD8184A12F803904D
:10C9600006EB0900FFF77AFF054658B94521144840
:10C970000EF088F8EAE7452112480EF083F84FF0F0
:10C980000009EDE7D4F8343130445A1C0333DB009E
:10C9900003F10408C4F83421A0441C443B8A4A46ED
:10C9A0002381BB7C3968A37260600FF095FA45461D
:10C9B000CCE700BF6C9C00201B020200E6030200D3
:10C9C000580202003C02020070B5044630B945210D
:10C9D0000C480EF057F82546284670BD0378022B08
:10C9E0000AD8094AD65C3046FFF738FF324621465E
:10C9F00005460FF071FAEFE7452104480EF042F8C2
:10CA00000026F0E77A020200E60302003C02020080
:10CA10002DE9F341794E0D463368834208D07848BA
:10CA200045210EF02FF86FF00D00FFF767FF31E0A2
:10CA3000137C032B00F0AE800DD8022B26D140F2E0
:10CA4000B312704970480EF01DF840F2B3116D48F2
:10CA50000EF0BEFA1EE0052BF1D1002940F08180D6
:10CA6000D6F83431012B79D9338C06F10801013322
:10CA700033820323337607F04FFE044650B102465B
:10CA8000452162480DF0FEFF2046CEE721B9304631
:10CA90000EF0D2FB00244AE0D1F80C802846082191
:10CAA000FFF746FF00244FF42053074669462868E5
:10CAB0008DF80040ADF802300FF083FAA8B142F6CD
:10CAC0000103286801A98DF80440ADF806300FF085
:10CAD00078FA50B14B494C4840F217120DF0D2FF92
:10CAE00040F2171147480EF073FA37B9484845210C
:10CAF0000DF0C8FF6FF00B0097E738460EF0B0FB63
:10CB00000546082241460FF0E7F92868FFF75CFF69
:10CB10000446286030B945213E480DF0B3FF6FF060
:10CB20000B0058E0BB88AA88934204D10124204618
:10CB300002B0BDE8F0810521002431760133364989
:10CB40003068F282B460338207F0E6FD02460028C6
:10CB5000A0D0452131480DF095FFE0E7FFF7BAFE80
:10CB600098E7002442F60303286801A98DF80440E1
:10CB7000ADF806300FF025FA50B908212846FFF726
:10CB8000D7FE04460028D1D145212A8A2448E2E76D
:10CB90002146F3E70029E1D000238DF8043042F666
:10CBA0000303286801A9ADF806300FF00AFA50B166
:10CBB000144915484FF4C0720DF064FF4FF4C07172
:10CBC00010480EF005FA298A0C480EF0F5FA0446D2
:10CBD00020B96FF00200FFF791FEA8E7EC680EF0B5
:10CBE0005FFB0546214608220FF076F92868FFF71B
:10CBF000EBFE04462860002898D190E76C9C00204A
:10CC000093020200F00102004AFB01004703020008
:10CC1000BA020200E8020200749C00201B0302001A
:10CC2000770302002DE9F84306460F460024DFF89B
:10CC30004480DFF84490214630460EF049FB04461C
:10CC4000A0B10EF02DFB054650B94146484640F2D2
:10CC5000FB120DF017FF40F2FB1140460EF0B8F941
:10CC6000384629680FF0ADF90028E4D12046BDE828
:10CC7000F88300BFF00102004AFB010070B50546D1
:10CC8000084619B1097811F0FD0F39D1002A37D0C3
:10CC90001E4C04F59C76D6E8EF1F41F0010CC6E867
:10CCA000EECFBEF1000FF6D111F001012BD1C4E996
:10CCB0000053C4E94F11C4F84821C4F83411C4F832
:10CCC000441108B1FFF780FE114BA060E36001231F
:10CCD00023824FF6FF73E382002328460D49237613
:10CCE00007F01AFD044648B1024645210A480DF0F6
:10CCF000C9FE6FF0010109480EF093FA204670BD9D
:10CD00006FF01504FAE76FF04404F7E76C9C00201D
:10CD100011CA0000749C0020BA030200A49D0020E8
:10CD200070B5064C86B001AD0FCC0FC52668044C1B
:10CD300001AD0FCD0FC4266006B070BD60E70100E5
:10CD4000009E00204FF0C872024B0349C3E917123E
:10CD5000704700BFB89D0020180028002DE9F04F53
:10CD6000294C8BB094F83930064600910392002B81
:10CD70003CD000273D464B7894F840B094F838A05A
:10CD8000019357450ED386F84050BBF1000F2BD0CE
:10CD9000AA452BD1737801337370012386F83430A0
:10CDA000B37023E04FF00009009B039A5B68029385
:10CDB000164B13F80280019B994505D3BBF1000F78
:10CDC000E1D101371834DCE7029B424603EB09014D
:10CDD00005A80FF024F90028F0D0A16805A80FF0ED
:10CDE000F0F830B1C144E6E7002DD3D10BB0BDE877
:10CDF000F08FA16806EB850201359163EDB2BBF1BE
:10CE0000000FDED1BFE700BFB89D0020F503020090
:10CE10002DE9F04703780546192B0C4612D8012B53
:10CE200012D9023B172B0FD8DFE803F079797F7F07
:10CE3000818131110E0E0E0E0E0E0E0E0E0E0E0E06
:10CE40000E0E0E56FF2B74D00120BDE8F0874D4F1B
:10CE50007B78002BF8D0002697F800A090F801808E
:10CE60005645F1D207EB46194246484669680FF02D
:10CE700011F850B96378C4F8189001336370012336
:10CE800084F81C802375A370DEE70136E8E73D4E89
:10CE9000F378002BD8D0B37890F8018003EB4313DC
:10CEA000F718BE42D0D096F82230434512D806F18A
:10CEB00002094246484669680EF0ECFF50B96378B3
:10CEC000C4F8249001336370012384F8288084F827
:10CED0002030D8E72136E4E72A4890F83D30002B8F
:10CEE000B2D0002390F83C606F78B342ACD2022FEE
:10CEF00013D16A6800EB43011288898F52BA92B24B
:10CF000091420AD11E3300EB4303A36463780133DB
:10CF10006370012384F84430B5E70133E5E700226C
:10CF200029462046FFF71AFF8EE70122F8E7022282
:10CF3000F6E7DFF8508098F83F30002B84D0474662
:10CF4000002617F83E9F4E45BFF47EAF97F820208D
:10CF50006B78934213D3384669680EF0ACFF70B912
:10CF600006EB46162765464496F85E3084F8543042
:10CF7000637801336370012384F84C3083E7013612
:10CF80002137E0E7B89D0020F8B505460E46174664
:10CF9000084B1C680CB1043C04B9F8BD23681B683D
:10CFA0001BB13A46314628469847231DF5D06468A0
:10CFB000F0E700BF1C9E002050B100234360054BEA
:10CFC000021D596811B9C3E9002270470A605A600E
:10CFD000704700BF1C9E0020F8B504460D4600298E
:10CFE00063D04FF0FF324FF0FF3331480BF0BEF803
:10CFF000032C06D002D9043C012C53D86FF00B0649
:10D0000027E02C4F97F83840012CF7D800239C429A
:10D0100017D82B78012B21D0022B2CD0002B41D1FB
:10D02000254B04EB4404286803EBC402111D506037
:10D0300043F8341097F838300026013387F8383039
:10D0400007E02946B8680EF0BCFF01230646002819
:10D05000DDD117480BF056F93046F8BD164A04EBFF
:10D06000440402EBC403043395E8030083E803009F
:10D0700042F83430DEE7104A04EB4404E60002EBE9
:10D08000C4040434A44605F1100E234628686968D8
:10D09000083503C375451C46F7D12B78237042F839
:10D0A00006C0C7E76FF01506D3E76FF01506D3E7A4
:10D0B0003C850020B89D0020C09D002010B50C4C80
:10D0C0004FF0FF324FF0FF3320460BF04FF80022B5
:10D0D000084B1A709A701A7183F8382083F83C2034
:10D0E00083F83E202046BDE810400BF00BB900BF8E
:10D0F0003C850020B89D00200022054B5A70DA7054
:10D100005A7183F8392083F83D2083F83F20704717
:10D11000B89D002008B5830625D0FFF7EDFF10F07D
:10D12000020F18BF0122114B18BF5A71C20744BF2A
:10D1300001225A70C20644BF0122DA70420744BF7E
:10D14000012283F83920020744BF012283F83D20E1
:10D15000820648BF01224FF0000048BF83F83F20FD
:10D1600083F8401008BD6FF01500FBE7B89D002064
:10D1700070B50E4686B005460EF01FF9184B02AC8E
:10D180000FCB84E80F00214601AB3046154A04F06E
:10D1900031FC154B08351C6868B10CB1043C0CB966
:10D1A00006B070BD23689B680BB128469847221DC6
:10D1B000F6D06468F1E71CB9019804F05DFAEFE776
:10D1C000019E043C002CF7D02368DB6813B1314684
:10D1D00028469847231DEFD06468002CF1D1EBE777
:10D1E00074E70100149E00201C9E00202DE9F04FE2
:10D1F000544C97B0582206460D46684600210EF062
:10D2000096FE94F8403062798DF8033000238DF853
:10D21000003012B101238DF80030637823B19DF8FE
:10D22000003001338DF80030E37823B19DF80030F1
:10D2300001338DF8003094F8393023B19DF8003077
:10D2400001338DF8003094F83D3023B19DF8003063
:10D2500001338DF8003094F83F3023B19DF8003051
:10D2600001338DF80030337A03F001038DF8043078
:10D27000EAB14FF00008D6F800A094F80490324FBD
:10D28000C84514D23946072250460EF014FEBB465C
:10D29000073700283AD19DF80130CDF830B001337E
:10D2A0008DF8013001238DF82C308DF8023028469E
:10D2B00010F045F907466A4628462449B5F8048027
:10D2C00002F094FC224BA868CDE903359DF80330A9
:10D2D00010FA87F72F60A5F8048002963568C3B16D
:10D2E0009DF801209DF800309A4216D19DF8042047
:10D2F00005A902A8FFF748FE94F844301BB129465F
:10D300006846FFF735FF17B0BDE8F08F08F1010858
:10D31000B6E79DF80230002BE8D10E4B1C68002CBC
:10D32000F1D09DF80450043C002CECD023685B68DD
:10D3300013B1294602A89847231DE4D06468002C45
:10D34000F1D1E0E7B89D0020BC9D002011CE000087
:10D35000149E00201C9E002070B50646144C1548F3
:10D3600003F070FE4422002120460EF0E0FDBEB125
:10D370003379356884F844305DB10FCD48340FC43B
:10D380002B682360B2683AB10B4B1068516803C335
:10D3900070BDFFF7C5FCF5E7BDE87040FFF7D2BCF4
:10D3A000FFF7BEFCFFF7CEFC84F84460F0E700BF57
:10D3B000B89D002048820020149E002008B101285A
:10D3C00006D1054B002183F84800044803F0C0BD96
:10D3D0006FF01500704700BFB89D0020009E002030
:10D3E000F8B5176E0D461446A2F11C0637B9452153
:10D3F00014480DF047FB00202066F8BD51B10A46E5
:10D40000114845210DF03EFB2A46FF213046236E90
:10D410009847F0E71BB1BDF81820012A05D06FF03E
:10D420002302FF213046B847E5E71978642904D97B
:10D43000452106480DF026FBE6E72A4684F86810E9
:10D44000F0E700BFF80302001604020030040200F7
:10D45000014650F8300C08B528B9BDE80840452110
:10D460000B480DF00FBB0B4B30310B6001234B60B1
:10D470000B8C0B8100234B8107F0F8FC024628B18E
:10D48000BDE80840452104480DF0FCBA08BD00BFC6
:10D490004C0402009DD400006704020038B5144615
:10D4A000926922B9452126480DF0ECFA05E059B3FE
:10D4B0000A46244845210DF0E5FA04F11403D3E8A7
:10D4C000AF3F9B071ED5A4F130051034D4E8AF3F21
:10D4D000002B31DDD4E8AF0FC11740F2E733C903A9
:10D4E00041EA5041C003C0184FF47A724FF0000374
:10D4F00041F10001FBF71AFB02460B461248294690
:10D500000CF04AFB002038BD1BB1BDF810100129FA
:10D5100002D045210D48C7E71978642902D9452171
:10D520000B48C1E794F824308B42C6D084F824100D
:10D53000A4F160009047C0E700200146CDE700BF9E
:10D54000A104020016040200E0980020C7040200B3
:10D550003004020010B58822002104460EF0E7FCDA
:10D56000FF23302284F884300021A0180EF0DFFC65
:10D57000014B636310BD00BF51D400002DE9FF4192
:10D580000C4606460DF0A2FE0DF06AFE0023006870
:10D590008DF80C3041F60F0303A9ADF80E300EF0F4
:10D5A00010FD054628B16FF02205284604B0BDE8FD
:10D5B000F08104F130000CF05FFBFF2384F884302D
:10D5C00042F619233046C4E91E552560C4F8805040
:10D5D00084F8865001A98DF80450ADF80630FFF7A5
:10D5E00021FB074630B9452124480DF04BFA6FF076
:10D5F0001505DAE70DF054FE804650B92049214860
:10D600004FF485720DF03EFA4FF485711C480DF011
:10D61000DFFC98F806304FF0000884F8853042F6B9
:10D6200019233946304602AA8DF80880ADF80A3031
:10D630000DF099FE10B945211348D6E78388394685
:10D64000A4F8803042F60213304603AA8DF80C800D
:10D65000ADF80E300DF087FE40B949210B480DF0B2
:10D6600011FA30460DF030FE20609EE7012384F869
:10D6700086308388A4F88230F3E700BFE804020014
:10D68000140502004AFB01004B0502007D05020063
:10D6900038B50446A0B199B1006888B1E56F95B975
:10D6A0000A4BE167E36101232362B4F88030E5842B
:10D6B000A38404F11C0107F0D9FB00B1E56738BD74
:10D6C0006FF01500FBE76FF00F00F8E7E1D3000003
:10D6D0004B1E59425941014B197070478AE5002091
:10D6E00010B51C46034B1B680BB1107898472046B9
:10D6F00010BD00BF249E00202DE9FF411F460D4BA9
:10D70000054658680C46164680B1D1F80C80804713
:10D71000094B324618700123CDE90183BDF828304A
:10D720002146009328463B460FF067FD04B0BDE854
:10D73000F08100BF249E002089E5002020B1034B2A
:10D7400002681A6042685A6000207047249E0020D8
:10D7500000B50E4B89B01B788DF807009BB10021F6
:10D76000182202A80EF0E3FB094B002003930DF1F1
:10D7700007030493012302A9ADF8143006F080FDDD
:10D7800009B05DF804FB6FF00C00F9E78AE50020B2
:10D79000B8E90100032310B5104C114AC4E9043361
:10D7A000104BA261E3614FF4806322660E4A23624C
:10D7B0006266002310220D49E01DA3626362E362EA
:10D7C0002367E3666367A2660EF02CFB20460849D8
:10D7D0000EF028FB2023A37110BD00BF2C9E00205B
:10D7E000390602009BE500208BE50020420602007E
:10D7F0004606020070B5182400FB0445144B16467B
:10D800001D4404FB0033DC6A012C0ED0022C18D01E
:10D81000E4B928460DF0D5FD864204D832462846A4
:10D820000DF0D8FD3446204670BD28460DF0C9FDE8
:10D830008642344628BF0446284622460DF0CAFDDB
:10D84000F1E72846BDE870400DF0E0BD0024EAE7AE
:10D850002C9E00200449431E0F3013F8012F8A5CD0
:10D8600083421A70F9D170474D060200F0B50746A1
:10D87000264E8DB001AD0C460FCE0FC50FCE0FC595
:10D8800096E8070085E807003846002F39D0002CBD
:10D8900039D0381F0246214610344B780D781B04CE
:10D8A00043EA0563CD7804312B4311F8025C8C42C6
:10D8B00043EA052342F8043FEFD10421144C8A07C0
:10D8C000036916D1C3F30742A55C1A0EA25C42EAB3
:10D8D0000562C3F30725655DDBB2E35C42EA0542FE
:10D8E00042EA03220CAD21F003032B4453F82C3CF5
:10D8F000534050F8042F013153402C290361DED1ED
:10D9000001200DB0F0BD2046FBE700BF84E7010019
:10D910004D0602002DE9F04F002703689DB00293E9
:10D920004368DFF8B8A103938368DDE902460493F6
:10D93000C3680593036906934369DDE905E207932C
:10D9400083690893C369DDE907CB98460993049B73
:10D950000093CD590CAB2DBADD515AF8043B043776
:10D9600005EB03094FEAF22585EAB21585EA7265EF
:10D970004D442BEA020302EA0C0983EA09032B4413
:10D98000009DDDF80090434475404FEA743888EA02
:10D99000B408254006EA090985EA090588EAB45869
:10D9A000A844402F03EB0E054344DDF800E0D846C1
:10D9B00040F085804FF0100A49490A9151460AF11A
:10D9C000010A0DF1700E0AF00F070EEB870757F8EA
:10D9D000407C01F00F094FEAB748019788EAF71831
:10D9E00001F10E0707F00F070EEB870757F8407C91
:10D9F00009314FEAF74E8EEA774ECDF82CE001F070
:10DA00000F010DF1700E0EEB89090EEB810151F83B
:10DA1000401C59F840ECBAF1400F7144DDF804E0C5
:10DA200088EADE08DDF82CE041448EEA972E0A9F52
:10DA3000714457F804EB49F8401C4FEAF52905EA10
:10DA400002080A9789EAB5192CEA050787EA080748
:10DA500089EA75694F447744394459444FEA73372A
:10DA600084EA060B0BEA030B87EAB30704EA060E07
:10DA7000DDF800808BEA0E0E87EAB35777448844BE
:10DA8000E3463944009621D1029F0F440399076071
:10DA90001944049B416023448360059B3344C36065
:10DAA000069B43440361079B2B444361089B13443B
:10DAB0008361099B6344C3611DB0BDE8F08FE346F9
:10DAC0000096944626462A461C4642E79446264639
:10DAD0002A461C4645460B4670E700BF08EA01008F
