:10800000F83A012031DE000081BD010061DE000090
:1080100061DE000061DE000061DE000061DE000064
:10802000000000000000000000000000F9DB00007C
:1080300061DE0000000000009DDB0000DDC40000E8
:10804000F1DD0000F1DD0000F1DD0000F1DD0000F8
:10805000F1DD0000F1DD0000F1DD0000F1DD0000E8
:10806000F1DD0000F1DD0000F1DD0000F1DD0000D8
:10807000F1DD0000F1DD0000F1DD0000F1DD0000C8
:10808000F1DD0000F1DD0000F1DD0000F1DD0000B8
:10809000F1DD0000F1DD0000F1DD0000F1DD0000A8
:1080A000F1DD0000F1DD0000F1DD0000F1DD000098
:1080B000F1DD0000F1DD0000F1DD0000F1DD000088
:1080C000F1DD0000F1DD0000F1DD0000F1DD000078
:1080D000F1DD0000F1DD0000F1DD0000F1DD000068
:1080E000F1DD0000F1DD0000F1DD0000F1DD000058
:1080F000F1DD0000F1DD0000F1DD0000F1DD000048
:10810000F1DD0000F1DD0000F1DD0000F1DD000037
:10811000F1DD0000F1DD0000F1DD0000F1DD000027
:10812000F1DD0000F1DD0000F1DD0000F1DD000017
:10813000F1DD0000F1DD0000F1DD0000F1DD000007
:10814000F1DD0000F1DD0000F1DD0000F1DD0000F7
:10815000F1DD000000000000000000000000000051
:10816000000000000000000000000000000000000F
:1081700000000000000000000000000000000000FF
:1081800000000000000000000000000000000000EF
:1081900000000000000000000000000000000000DF
:1081A00000000000000000000000000000000000CF
:1081B00000000000000000000000000000000000BF
:1081C00000000000000000000000000000000000AF
:1081D000000000000000000000000000000000009F
:1081E000000000000000000000000000000000008F
:1081F000000000000000000000000000000000007F
:10820000DEE61E284CBBCE8F023500003C0000008D
:10821000E4B70100010000000080000000800000C1
:10822000FFFF0291000000000000000000000000BD
:0C82300000000000000000000000000042
:04823C00FFFFFFFF42
:1082400081F0004102E000BF83F0004330B54FEA07
:1082500041044FEA430594EA050F08BF90EA020F74
:108260001FBF54EA000C55EA020C7FEA645C7FEA07
:10827000655C00F0E2804FEA5454D4EB5555B8BF2A
:108280006D420CDD2C4480EA020281EA030382EA9B
:10829000000083EA010180EA020281EA0303362D2D
:1082A00088BF30BD11F0004F4FEA01314FF4801C00
:1082B0004CEA113102D0404261EB410113F0004F12
:1082C0004FEA03334CEA133302D0524263EB4303C9
:1082D00094EA050F00F0A780A4F10104D5F1200E67
:1082E0000DDB02FA0EFC22FA05F2801841F10001C2
:1082F00003FA0EF2801843FA05F359410EE0A5F196
:1083000020050EF1200E012A03FA0EFC28BF4CF0C6
:10831000020C43FA05F3C01851EBE37101F000457C
:1083200007D54FF0000EDCF1000C7EEB00006EEB89
:108330000101B1F5801F1BD3B1F5001F0CD3490813
:108340005FEA30004FEA3C0C04F101044FEA44526A
:1083500012F5800F80F09A80BCF1004F08BF5FEAF1
:10836000500C50F1000041EB045141EA050130BDD1
:108370005FEA4C0C404141EB0101013C28BFB1F5E3
:10838000801FE9D291F0000F04BF01460020B1FA2E
:1083900081F308BF2033A3F10B03B3F120020CDA01
:1083A0000C3208DD02F1140CC2F10C0201FA0CF0DF
:1083B00021FA02F10CE002F11402D8BFC2F1200C44
:1083C00001FA02F120FA0CFCDCBF41EA0C019040FA
:1083D000E41AA2BF01EB0451294330BD6FEA040443
:1083E0001F3C1CDA0C340EDC04F11404C4F120022E
:1083F00020FA04F001FA02F340EA030021FA04F340
:1084000045EA030130BDC4F10C04C4F1200220FA96
:1084100002F001FA04F340EA0300294630BD21FAD4
:1084200004F0294630BD94F0000F83F4801306BF9A
:1084300081F480110134013D4EE77FEA645C18BF8E
:108440007FEA655C29D094EA050F08BF90EA020F25
:1084500005D054EA000C04BF1946104630BD91EA1D
:10846000030F1EBF0021002030BD5FEA545C05D120
:108470004000494128BF41F0004130BD14F580045F
:108480003CBF01F5801130BD01F0004545F0FE41D3
:1084900041F470014FF0000030BD7FEA645C1ABF08
:1084A000194610467FEA655C1CBF0B46024650EA3F
:1084B000013406BF52EA033591EA030F41F400216B
:1084C00030BD00BF90F0000F04BF0021704730B5F1
:1084D0004FF4806404F132044FF000054FF00001C6
:1084E00050E700BF90F0000F04BF0021704730B587
:1084F0004FF4806404F1320410F0004548BF40425C
:108500004FF000013EE700BF42004FEAE2014FEAB0
:1085100031014FEA02701FBF12F07F4393F07F4F8B
:1085200081F06051704732F07F4208BF704793F08E
:108530007F4F04BF41F40021704730B54FF46074A1
:1085400001F0004521F000411CE700BF50EA0102A4
:1085500008BF704730B54FF000050AE050EA01024D
:1085600008BF704730B511F0004502D5404261EBBD
:1085700041014FF4806404F132045FEA915C3FF4FE
:10858000D8AE4FF003025FEADC0C18BF03325FEA9B
:10859000DC0C18BF033202EBDC02C2F1200300FA4C
:1085A00003FC20FA02F001FA03FE40EA0E0021FA71
:1085B00002F11444BDE600BF70B54FF0FF0C4CF45F
:1085C000E06C1CEA11541DBF1CEA135594EA0C0F11
:1085D00095EA0C0F00F0DEF82C4481EA030621EA4C
:1085E0004C5123EA4C5350EA013518BF52EA033587
:1085F00041F4801143F4801338D0A0FB02CE4FF039
:108600000005E1FB02E506F00042E0FB03E54FF068
:108610000006E1FB03569CF0000F18BF4EF0010E60
:10862000A4F1FF04B6F5007F64F5407404D25FEA5C
:108630004E0E6D4146EB060642EAC62141EA55510F
:108640004FEAC52040EA5E504FEACE2EB4F1FD0C51
:1086500088BFBCF5E06F1ED8BEF1004F08BF5FEACF
:10866000500E50F1000041EB045170BD06F0004681
:1086700046EA010140EA020081EA0301B4EB5C042E
:10868000C2BFD4EB0C0541EA045170BD41F4801126
:108690004FF0000E013C00F3AB8014F1360FDEBF4B
:1086A000002001F0004170BDC4F10004203C35DA27
:1086B0000C341BDC04F11404C4F1200500FA05F3AA
:1086C00020FA04F001FA05F240EA020001F000424B
:1086D00021F0004110EBD37021FA04F642EB0601C1
:1086E0005EEA430E08BF20EAD37070BDC4F10C04EB
:1086F000C4F1200500FA04F320FA05F001FA04F2AF
:1087000040EA020001F0004110EBD37041F100019A
:108710005EEA430E08BF20EAD37070BDC4F12005A5
:1087200000FA05F24EEA020E20FA04F301FA05F20D
:1087300043EA020321FA04F001F0004121FA04F2B5
:1087400020EA020000EBD3705EEA430E08BF20EA85
:10875000D37070BD94F0000F0FD101F000464000BF
:1087600041EB010111F4801F08BF013CF7D041EA41
:10877000060195F0000F18BF704703F00046520045
:1087800043EB030313F4801F08BF013DF7D043EA16
:108790000603704794EA0C0F0CEA135518BF95EACC
:1087A0000C0F0CD050EA410618BF52EA4306D1D153
:1087B00081EA030101F000414FF0000070BD50EA72
:1087C000410606BF1046194652EA430619D094EAFC
:1087D0000C0F02D150EA013613D195EA0C0F05D1E6
:1087E00052EA03361CBF104619460AD181EA03013A
:1087F00001F0004141F0FE4141F470014FF00000F2
:1088000070BD41F0FE4141F4780170BD70B54FF08C
:10881000FF0C4CF4E06C1CEA11541DBF1CEA13550C
:1088200094EA0C0F95EA0C0F00F0A7F8A4EB0504EE
:1088300081EA030E52EA03354FEA013100F08880E5
:108840004FEA03334FF0805545EA131343EA1263AE
:108850004FEA022245EA111545EA10654FEA002663
:108860000EF000419D4208BF964244F1FD0404F51C
:10887000407402D25B084FEA3202B61A65EB030578
:108880005B084FEA32024FF480104FF4002CB6EB35
:10889000020E75EB030E22BFB61A754640EA0C00B5
:1088A0005B084FEA3202B6EB020E75EB030E22BFF5
:1088B000B61A754640EA5C005B084FEA3202B6EB36
:1088C000020E75EB030E22BFB61A754640EA9C00F5
:1088D0005B084FEA3202B6EB020E75EB030E22BFC5
:1088E000B61A754640EADC0055EA060E18D04FEA83
:1088F000051545EA16754FEA06164FEAC30343EA23
:1089000052734FEAC2025FEA1C1CC0D111F4801FEF
:108910000BD141EA00014FF000004FF0004CB6E7E8
:1089200011F4801F04BF01430020B4F1FD0C88BF87
:10893000BCF5E06F3FF6AFAEB5EB030C04BFB6EB92
:10894000020C5FEA500C50F1000041EB045170BD85
:108950000EF0004E4EEA113114EB5C04C2BFD4EBB2
:108960000C0541EA045170BD41F480114FF0000E36
:10897000013C90E645EA060E8DE60CEA135594EAB2
:108980000C0F08BF95EA0C0F3FF43BAF94EA0C0FB5
:108990000AD150EA01347FF434AF95EA0C0F7FF42A
:1089A00025AF104619462CE795EA0C0F06D152EA7E
:1089B00003353FF4FDAE1046194622E750EA410662
:1089C00018BF52EA43067FF4C5AE50EA41047FF473
:1089D0000DAF52EA43057FF4EBAE12E74FF0FF3CD8
:1089E00006E000BF4FF0010C02E000BF4FF0010CA9
:1089F0004DF804CD4FEA410C7FEA6C5C4FEA430C22
:108A000018BF7FEA6C5C1BD001B050EA410C0CBF70
:108A100052EA430C91EA030F02BF90EA020F0020D2
:108A2000704710F1000F91EA030F58BF994208BF39
:108A300090422CBFD8176FEAE37040F001007047F6
:108A40004FEA410C7FEA6C5C02D150EA013C07D14D
:108A50004FEA430C7FEA6C5CD6D152EA033CD3D098
:108A60005DF8040B704700BF8446104662468C4692
:108A70001946634600E000BF01B5FFF7B7FF0028C5
:108A800048BF10F1000F01BD4DF808EDFFF7F4FFEE
:108A90000CBF012000205DF808FB00BF4DF808ED79
:108AA000FFF7EAFF34BF012000205DF808FB00BF9C
:108AB0004DF808EDFFF7E0FF94BF012000205DF8BE
:108AC00008FB00BF4DF808EDFFF7CEFF94BF012073
:108AD00000205DF808FB00BF4DF808EDFFF7C4FF6C
:108AE00034BF012000205DF808FB00BF4A0011D20E
:108AF00012F5001211D20DD56FF47873B3EB6252F8
:108B00000ED44FEAC12343F0004343EA505323FA03
:108B100002F070474FF00000704750EA013002D178
:108B20004FF0FF3070474FF00000704753B94AB91B
:108B3000002908BF00281CBF4FF0FF314FF0FF3065
:108B400000F080B9ADF1080C6DE904CE00F006F834
:108B5000DDF804E0DDE9022304B070472DE9F04FB1
:108B6000099E0D4604460F46002B47D18A42944683
:108B70005FD9B2FA82F343B1C3F120019F4002FAF8
:108B800003FC9C4020FA01F10F434FEA1C451FFAF9
:108B90008CFE220CB7FBF5F105FB117701FB0EF003
:108BA00042EA0742904208D91CEB020201F1FF376A
:108BB00002D2904200F234813946121AA4B2B2FBBA
:108BC000F5F005FB102200FB0EFE44EA0244A64528
:108BD00008D91CEB040400F1FF3202D2A64500F2D2
:108BE0001981104640EA0140A4EB0E0400211EB199
:108BF000DC400023C6E90043BDE8F08F8B4208D972
:108C0000002E00F0FB800021C6E900050846BDE803
:108C1000F08FB3FA83F100294BD1AB42C0F0F18061
:108C2000824240F2EE800846002EE5D0C6E90047B9
:108C3000E2E702B9FFDEB2FA82F3002B40F09D803A
:108C40008D1A4FEA124E97B20121B5FBFEF20EFBD0
:108C50001250250C45EA004507FB02F0A8420FD947
:108C60001CEB050502F1FF382CBF4FF001094FF056
:108C70000009A84203D9B9F1000F00F0CE804246A6
:108C80002D1AA4B2B5FBFEF00EFB105500FB07F742
:108C900044EA0544A74208D91CEB040400F1FF355F
:108CA00002D2A74200F2B3802846E41B40EA024009
:108CB0009DE7C1F120078B4005FA01F422FA07FC79
:108CC000FD408A404CEA030C20FA07F34FEA1C49A6
:108CD0001C431FFA8CFE00FA01F3200CB5FBF9F8D7
:108CE00009FB185540EA054508FB0EF0A8420FD9CC
:108CF0001CEB050508F1FF3A2CBF4FF0010B4FF0BC
:108D0000000BA84203D9BBF1000F00F08C80D046C5
:108D10002D1AA4B2B5FBF9F009FB105500FB0EFEAD
:108D200044EA0545AE4507D91CEB050500F1FF34C3
:108D300001D2AE457ED8204640EA0840A5EB0E059C
:108D4000A0FB029845454C46C64602D306D14B458A
:108D500004D20138B9EB020468EB0C0E002E6FD080
:108D60001A1B65EB0E0522FA01F305FA07F7CD4051
:108D700000211F43C6E900753EE702FA03FCC3F178
:108D8000200001FA03F24FEA1C4EC14024FA00F51C
:108D90001FFA8CF79C401543B1FBFEF02A0C0EFB2A
:108DA000101142EA014200FB07F191420ED91CEB7F
:108DB000020200F1FF382CBF4FF001094FF000090B
:108DC000914202D9B9F1000F31D04046521AADB2EA
:108DD000B2FBFEF10EFB112245EA024501FB07F250
:108DE000AA4207D91CEB050501F1FF3801D2AA42BE
:108DF00023D84146AD1A41EA004126E731463046C4
:108E0000FAE6841A65EB030301201F460CE764446D
:108E100002384AE764440238E4E6023A65442FE740
:108E200002396244C9E6A8F10208654470E70238D5
:108E30006244CBE7023865447EE702396544D9E7EE
:108E40003146D9E6704700BF2DE9F0470546008955
:108E50006B8998424FD0B5F800A0B5F80290AAEB04
:108E60000904A4B2F4B1A0EB03084046FFF73AFBB3
:108E70000022254BFFF7A0FB0022002306460F46E9
:108E8000FFF70CFE38B108F57F40FF308012FFF786
:108E900029FB06460F46CA4507D1D5E90A01FFF767
:108EA00025FE84B22046BDE8F0873C20D5E906893E
:108EB0006043FFF717FB32463B46FFF7A7FC10A3C2
:108EC000D3E9002306460F4640464946FFF774FBA8
:108ED00002460B4630463946FFF76EFB00220B4B2D
:108EE000FFF76AFB00220A4BFFF790FC02460B4695
:108EF000C5E90A23D3E70024D4E700BFAFF300801D
:108F00005E865A2E763609400000503F00004E40E3
:108F100000408F4000000000012B2DE9F041074682
:108F2000884614461E4625D115784B4B28461D70A1
:108F3000FFF7D8FA2B0603D50022484BFFF786F936
:108F400043A3D3E90023FFF737FB454BC3E90001F7
:108F50003A46B8F81010434811F0ACFD0023424FD8
:108F60005D1CDBB2B3426CDAE15C384611F0A2FD65
:108F70002B46F5E7132BEBD1537C3C4AA17C1370B5
:108F80003B4A022B11700ED0032B2ED0012BDFD1C8
:108F9000384A631E04F1100113F8010F994202F8D8
:108FA000010BF9D1D4E7344B1D780135EDB2012D19
:108FB0001D700AD12F4A631E04F1100113F8010F2E
:108FC0008B4202F8010BF9D1C2E7022DC0D12B4A26
:108FD000631E04F1100113F8010F8B4202F8010B1C
:108FE000F9D10022244B1A70B2E7234B1D780135CA
:108FF000EDB2012D1D700AD11E4A631E04F110014D
:1090000013F8010F8B4202F8010BF9D1A0E7022DF2
:109010000AD11A4A631E04F1100113F8010F8B42A2
:1090200002F8010BF9D193E7032D91D1144A631E85
:1090300004F1100113F8010F8B4202F8010BF9D172
:10904000CFE7104811F036FD3046BDE8F08100BF93
:1090500052B81E85EB510440D6F400200000E03FDA
:10906000108800205EFB01008AFB0100D8F400207C
:10907000D7F40020C2F20020F5F20020D3F2002045
:10908000E4F20020A32D020000B5074891B011F0D2
:1090900011FD684600F004FB01226846114600F00D
:1090A00087FD11B05DF804FB4CF40100014B18780A
:1090B000704700BF82F20020014811F0FBBC00BFE6
:1090C0005FF401002DE9F743044612F02FF907463B
:1090D000434811F0EFFC2046424903F00BFD0546E2
:1090E00028B9414803B0BDE8F04311F0E3BC0146A4
:1090F0003E4A204612F069F908B93D48F2E74FF0C0
:1091000018093C4EDFF8F08032788388013A09FB79
:109110000282294613812046384A12F056F908B9CE
:109120003748DFE73378374A013B09FB03F308EBA5
:10913000030148F8032001238B81838838464B8143
:109140000BF0C0FF10F0FF0121D02F4811F0B2FC4E
:10915000204612F04CF910F0FF0102D02B4811F01C
:10916000A9FC012432782A4B022A1C7013D0032A4E
:109170002BD0A2421FD118238DF80430254B01A912
:10918000186801F037F8244811F094FC13E02348E4
:1091900011F090FCDCE7224811F08CFC214B1B788D
:1091A000052B0ED111238DF804301A4B2246186876
:1091B00001A901F01FF8012014F0EDFB03B0BDE898
:1091C000F083062BF7D11223EDE714238DF804303A
:1091D000104B2246186801A901F00CF81248D3E799
:1091E00087F40100A4F30100AAF40100A8F3010030
:1091F000DAF4010085F20020FCA50020ACF30100A8
:109200000FF501005D92000068F5010091F5010085
:1092100083F20020F8A50020C0F5010083F50100CD
:10922000D5F501007FF20020F1F5010013B50446E9
:10923000084811F03FFC0A238DF80430064B012248
:10924000186801A900F0D6FFFB21204608F0E4FCD5
:1092500002B010BD0CF60100F8A500202DE9F7437F
:109260001E46032314460422454D8DF800308DF828
:1092700005302B788846434F8DF80420002B3ED0D4
:1092800001F0B2FA00283AD000232B703E4BDFF8F1
:10929000FC90187801F05CF999F800303C4A013BE9
:1092A00052F8230001F026F93A4D20B33A4811F064
:1092B00001FC2A7899F800309A4220D101233B70B2
:1092C000364D374F2A883B88022A02D0B3F5967F65
:1092D0001AD10132013303202A803B8001F08AFA3F
:1092E000002C34D12F4811F0E5FB2046A8F80840A7
:1092F00003B0BDE8F0832B7801332B70D9E73B78BE
:10930000002BDDD10120F3E7032001F09DFAB8B175
:10931000032001F0AFFA00233B802B8803200133A8
:109320002B8001F053F904221F4B8DF8060083F8BF
:1093300023001E4B0DEB0201186800F05BFFCFE726
:109340002B8801332B803B8801333B80C8E7022EFA
:109350000FD16178144B164883F820108DF8011056
:1093600011F0A8FB114B32466946186800F042FF25
:10937000C8E7324621460F4811F09CFBC2E700BF08
:109380006985002086F200207FF2002085F200200F
:109390005CA6002087F2002020F601008AF1002060
:1093A00088F1002041F60100D8870020F8A50020B0
:1093B00051F6010073F60100CB0710B507D5041E66
:1093C00018BF0124204604F0D7F9014B1C7010BDD2
:1093D00082F2002073B51146804A1278002A00F00C
:1093E000FA807F4A1078002831D17E4C7E4D21785A
:1093F0002B78994204D101231370012002B070BD73
:1094000001F0F2F90028F8D02B78012BF5D8774D30
:109410002A780E2A17D844F28103D340DB0712D5ED
:10942000734B187801F094F82278724B53F82200AD
:1094300001F060F8064621786F4811F03BFB16B941
:109440002378013323702B7801332B70D5E7002B61
:10945000D3D06A4D284600F047FE00F0F5FE00220A
:109460000023FFF711FB18B9654B1A78002A37D093
:1094700000F0EAFE00220023FFF706FB002836D1A9
:109480002C7C012C65D15E4B1B78C3B15B48FFF788
:10949000DBFCA0B16421B0FBF1F18DF80040594C28
:1094A00089B223688DF801108DF802003BB156484F
:1094B00011F000FB03226946206800F09BFE534C2C
:1094C000534E2378052B02D03378322B16D100234C
:1094D0000120337001F08EF92378013323708CE77B
:1094E00001221A7000F0B0FEC5E90601C8E7444B3E
:1094F0001A78002AC4D000221A70C1E7012001F0B6
:10950000A3F910B3012001F0B5F9012001F05EF8D4
:109510000422012385F821008DF804208DF8053000
:10952000384B304C0DEB02018DF80600186800F046
:1095300061FE2178374811F0BDFA2378022B7FF4C1
:109540005CAF0122344B1A7057E733780133337024
:10955000C2E7022C7FF451AF284800F0E7FD431E1C
:109560009BB2B3F5F97F014611D88DF80040254C28
:10957000030A8DF8023023688DF801003BB12748BB
:1095800011F098FA03226946206800F033FE244C5B
:1095900002202378234E052B02D03378642B03D18D
:1095A00001F028F90023D2E701F04EF960B1022062
:1095B00001F060F9022001F009F80422022385F885
:1095C00022008DF80420A9E7237801332370337833
:1095D0000133337011E7054BB5E700BF83F200207C
:1095E00086F2002087F2002085F20020BDF20020E4
:1095F0007FF200205CA6002095F60100D8870020AD
:109600007EF20020F8A50020A9F60100BCF200209F
:10961000BFF20020B4F6010084F20020C2F601007F
:10962000BEF20020C0F20020F0B503788BB00446F3
:109630000E46174607AD032B20D8DFE803F00219CA
:109640001B1D1149284612F01FFC6378394604930C
:10965000A37830460393E3780C4A02932379059567
:10966000019363790093A37911F031FA0BB0F0BD47
:109670000749E7E70749E5E70749E3E70A212846FD
:10968000064A11F024FAE0E7D3F60100FCF60100E7
:10969000DAF60100E1F60100EBF60100F5F6010053
:1096A00010B504461422002112F073FC0D4B0E4A33
:1096B00023600E4B92E8030063600D4B2422A360ED
:1096C0000C4BE36004F1140383E80300002104F170
:1096D0001C0012F05EFC0022074B2046C3E900226A
:1096E0009A6010BDDD9C0000A0E901002D9F0000E4
:1096F00045A9010049A901005CA60020074A084BC2
:1097000012781B7822B1002B14BF03200120704770
:10971000002B14BF02200020704700BFBBF20020C6
:1097200080F2002010B506480DF03CFA10F0FF045E
:1097300003D02146034811F0BDF9204610BD00BFFB
:10974000B99300001FF70100012307B50C490093EE
:1097500002220C4B0C4807F071FA10F0FF0105D003
:109760000A4803B05DF804EB11F0A4B9084811F001
:10977000A1F9084803B05DF804EB11F09BB900BFF4
:10978000B8EA0100C8EA010038EA01003EF701002A
:1097900064F7010086F7010010B50446FFF7AEFF3D
:1097A000831EDBB2012B30D80DF096F910F0FF01CB
:1097B00004D01648BDE8104011F07CB9FFF7B2FFA5
:1097C000014608B11248F5E706F09EFF10F0FF01D0
:1097D00001D01048EEE7104811F06CF9204607F070
:1097E000F1FD11F05CFC04F1140003F0BBFF10F07C
:1097F000FF0101D00948DDE700F0EAFC014600283E
:10980000F8D1BDE81040FFF79FBF10BDA1F70100E0
:10981000BCF70100D9F70100F9F7010010F80100C9
:10982000012008B503F03CFD10F0FF0102D0044810
:1098300011F040F9BDE80840024811F03BB900BF03
:109840002DF801004FF8010030B589B000F032FD6D
:10985000354D03AB1422002128700446184612F03F
:1098600098FB01228DF80C200492304A3049059271
:109870000022029101920090002C50D02D4B1978BB
:1098800041B11A7007F0DCFB684603F0D7FC2A48A8
:1098900003F0FCFA03F084FB2B78013B062B32D853
:1098A000DFE803F0040F11131D262F0023490320C6
:1098B00003F0FCFAC0B230B3214811F0FBF809B054
:1098C00030BD2049F3E72049F1E7204B1B78012BFD
:1098D00001D81F49EBE7022B15D11E49E7E71B4BC7
:1098E0001B780BB91C49E2E7012B0CD11B49DEE7C1
:1098F000164B1B780BB91A49D9E7012B03D119492B
:10990000D5E71949D3E70021042003F075FBC0B265
:1099100010B1164811F0CEF8FFF782FFCFE71449D7
:1099200007F02AFBCBE700BF7FF200206000300089
:1099300054F3010068850020588100205CF3010089
:109940005CF8010060F3010064F3010085F200207F
:1099500068F301006CF3010070F3010074F301007F
:1099600078F301007CF3010080F301007CF8010032
:1099700053A901002DE9F743554F04463B78554D57
:10998000002B4CD14FF0180801212B78524E013B8F
:1099900008FB03F3F2189181504A5149F25003F049
:1099A000A9F8814670B94F4811F084F8204611F0AB
:1099B0001EFD10F0FF0137D04B4803B0BDE8F04367
:1099C00011F078B80146494A204611F0FEFC08B96A
:1099D0004748E9E72B788288013B08FB0363494647
:1099E0001A812046434A11F0F0FC0028F0D02B7871
:1099F0008288013B08FB036320465A8111F096FCE4
:109A00002978013908FB01610BF05CFB10F0FF01C4
:109A100002D0394811F04EF8204611F0E8FC2D78BC
:109A2000012D04D0022D35D003B0BDE8F083334BB7
:109A30001C78012C1CD1324B1D78012D0DD13148E1
:109A400011F038F80E232A463D708DF804302E4B65
:109A500001A9186800F0CEFBE6E7022DE4D1294801
:109A600011F028F80F2322463C708DF80430EEE701
:109A7000023C012CD8D8254811F01CF810238DF891
:109A80000430214B0122186801A900F0B3FBFFF755
:109A9000DBFEC9E7194B1B78022B11D11C4811F0D2
:109AA00009F811238DF80430174B0122186801A919
:109AB00000F0A0FB012013F06EFF01233B70B3E721
:109AC000032BB1D1124810F0F5FF1323D7E700BFE5
:109AD00083F2002085F20020FCA50020D593000031
:109AE00098F3010099F80100C1F801009CF301000E
:109AF000ECF80100A0F3010019F9010081F2002047
:109B00007FF20020C0F50100F8A5002037F9010020
:109B1000D5F5010010B504461E4810F0CBFFFFF745
:109B2000EDFD01280AD0032832D1204607F04AFC77
:109B3000FFF78AFEBDE81040FFF772BE002006F076
:109B4000E3FD10F0FF0104D01348BDE8104010F011
:109B5000B1BF124810F0AEFF0CF0BEFF10F0FF01D5
:109B600001D00F48F1E7FFF7DDFD014608B10D48D0
:109B7000EBE704F1140003F0F5FD10F0FF0101D054
:109B80000948E2E711F08BFA084810F093FFCCE7A0
:109B900010BD00BF52F90100D9F7010060F90100C2
:109BA000A1F70100BCF7010010F8010071F90100F4
:109BB00010B4094C03462270084C217039B11AB117
:109BC000184610BCFFF7E8BD10BCFFF7A3BF002A82
:109BD000F6D110BC704700BF80F20020BBF200201D
:109BE00008B5034810F066FFBDE80840FFF718BE4F
:109BF00082F9010010B5044603F0D2F9022C19D005
:109C0000032C19D0012C08D10C49032003F04EF984
:109C1000C0B210B10A4810F04DFF0021042003F03B
:109C2000EBF9C0B210B1074810F044FFBDE8104096
:109C3000FFF7F6BD0449E8E70449E6E784F30100CD
:109C40005CF801007CF8010088F301008CF301004E
:109C500010B50C4C0C48217810F02CFF20780B4CE0
:109C600001380B4900230B4A54F8200002F06EFF24
:109C700010F0FF0104D0BDE81040074810F01ABFF3
:109C800010BD00BF85F2002095F901005CA6002000
:109C900090F301004C810020A3F9010010B50A4B9C
:109CA0000A4C18780A49013800230A4A54F820005F
:109CB00002F04CFF10F0FF0104D0BDE81040064850
:109CC00010F0F8BE10BD00BF85F200205CA6002099
:109CD00094F3010040810020A3F9010070B590B019
:109CE0000C4601A9054607F06DFEC0B220B134480C
:109CF00010F0E0FE10B070BD9DF80530002B3ED195
:109D0000284612F0CFFB1E2208A9FFF78DFC3CB1BC
:109D100022462C4808A910F0CDFEFFF781FDE9E7A7
:109D2000294808A910F0C6FE284B1E4653F8042BFC
:109D3000BAB9284612F07DFB46F82400284607F001
:109D4000AFFC234A13780133DBB21370214A127837
:109D5000013A062ACED8DFE802F00A0A0A080D0DF9
:109D60000F000134042CE1D1E8E7022B04D8FFF7FF
:109D70006FFFBFE7012BFAD0FFF790FFBAE7012B87
:109D8000B8D124B12146144810F094FEB2E713482C
:109D900010F090FE284612F04CFB114B186028463C
:109DA00007F07EFC204613F0F6FDFFF7A7FC032822
:109DB000A0D1074B1B78002B9CD1FFF745FD99E7FD
:109DC000CEF90100F4F9010012FA01005CA60020AE
:109DD00085F200207FF2002021FA01003DFA010007
:109DE000F8A5002070B58EB0054600F033FA414B5F
:109DF0000446414E1870002845D0012102283170D8
:109E000031D0032835D0884203D101463B4800F0C9
:109E100027FA2B681E22186806A9FFF705FC2B6895
:109E20001222186801A9FFF7FFFB3378002B3DD001
:109E300011F0F5FA314901A810F08DFD38B3304C1E
:109E4000237823B32F4810F035FE002323702E4BC8
:109E500028681A782D4B2E4903EB82036A68006844
:109E600007F0DCFD22E0254800F0FAF921462948F8
:109E7000CDE7224800F0F4F90221264800F0F0F97D
:109E800021462548C3E7FFF7DFFC3470C1E72149CD
:109E900001A810F060FD10B1204C237843B91E4991
:109EA00001A810F058FD88B9FFF7BAFC0EB070BDDC
:109EB000144810F0FFFD00232370134B28681A7814
:109EC000124B174903EB82036A68C8E7154C2378E5
:109ED000002BE9D00B4810F0EDFD0023237011F0AA
:109EE0009EFA094B28681A78084B0F4903EB820346
:109EF0006A68B4E781F20020C1F2002088F20020F5
:109F00006585002059FA010085F200205CA600203A
:109F10004CEA010099F20020AAF200206685002098
:109F20005CEA0100678500206CEA01002DE9F04140
:109F300096B00E4607A9074607F044FD10F0FF054E
:109F400005D05B4810F0B6FD16B0BDE8F0819DF875
:109F50001D40012C09D13146564810F0ABFD284672
:109F600013F01CFDFFF7F0FBEEE7002CECD1524D97
:109F700038462C7012F096FA1E220EA9FFF754FBF9
:109F800032464E4E4E480EA910F094FD33784BB930
:109F90000D238DF804304B4B0122186801A900F005
:109FA00029F92C7048490EA810F0D5FCA8B101245D
:109FB000464B20461C7000232B7013F0EFFC444BE3
:109FC0001B78072B3F4B5BD10C2218688DF80420BF
:109FD00001A9224600F00EF903243E490EA810F014
:109FE000BAFCA8B101243C4B20461C7000232B7006
:109FF00013F0D4FC364B1B78033BA342314B48D8BB
:10A000000B2218688DF8042001A9224600F0F2F80E
:10A0100032490EA810F09FFC88B1002301242B7058
:10A020002F4B20461C7013F0B9FC0C238DF8043024
:10A03000244B2246186801A900F0DCF8032400270D
:10A04000DFF8A0803378FDB2013B9D422BDC58F84D
:10A05000250012F027FA02A91222FFF7E5FA02A959
:10A060000EA810F078FC48B158F8250007F018FB4E
:10A07000002348F825303378013B33700137E1E79E
:10A080000B2218688DF8042001A9224600F0B2F8CE
:10A09000A3E70C2218688DF8042001A9224600F0DD
:10A0A000A9F80324B4E72046FFF7A4FD4CE700BF5E
:10A0B000CEF901006FFA010083F2002085F2002042
:10A0C0009AFA0100F8A5002088F20020658500209A
:10A0D0007FF2002099F2002066850020AAF200207D
:10A0E000678500205CA600200B78012B037404D048
:10A0F000022B0DD00C4810F0DDBC0388438003898F
:10A100004381B1F801300380B1F805300381704715
:10A110008388C3808389C381B1F801308380B1F81B
:10A1200003308381704700BFDAFA01002DE9F8435C
:10A130008589C38904469D422FD0B0F80480B0F8C9
:10A140000690C84529D0ED1A2846FEF7CBF9002223
:10A15000134BFEF731FA0022002306460F46FEF7A6
:10A160009DFC30B105F57F40FF30FEF7BBF9064698
:10A170000F463C20A8EB090800FB08F0FEF7B2F9F7
:10A1800032463B46FEF742FB02460B46C4E90C232F
:10A19000FEF7ACFC80B2BDE8F8830020FBE700BF0F
:10A1A0000000503F012904D0022905D031B90448EC
:10A1B00000E0044810F07EBC0348FBE70348F9E7E1
:10A1C0001DFB0100E8FA0100FAFA010030FB010072
:10A1D00008B5F0220021054811F0DBFEF022002135
:10A1E000034811F0D6FE002008BD00BFF6F20020A3
:10A1F000E6F30020002310B586B0039305930D4BC2
:10A20000ADF80C2000930C4B012204930B4B044639
:10A21000CDE9013119460AF02DFA48B169462046C8
:10A220000AF046F810B1064810F044FC06B010BD24
:10A230000448F9E745FC01007DA901001CEB010081
:10A240008FFB0100B3FB0100014BD3E90001704714
:10A2500010880020014B1878704700BFD8F4002008
:10A2600002290DD0032915D001291CD10E4A431E05
:10A27000103012F8011B03F8011F8342F9D1704717
:10A280000A4A431E103012F8011B03F8011F8342D3
:10A29000F9D17047064A431E103012F8011B03F82B
:10A2A000011F8342F9D17047C2F20020D3F200208F
:10A2B000E4F20020014B1878704700BFD7F400206B
:10A2C000014810F0F7BB00BF56FC0100014810F038
:10A2D000F1BB00BF8BFC010070B503788AB0044667
:10A2E0000E4607AD032B20D8DFE803F002191B1D33
:10A2F0001149284611F0C8FD63781E210493A37804
:10A3000030460393E3780D4A029323790595019330
:10A3100063790093A37910F0DAFB0AB070BD0849A5
:10A32000E7E70849E5E70849E3E70A212846074A3D
:10A3300010F0CDFBE0E700BFD3F60100FCF6010012
:10A34000DAF60100E1F60100EBF60100F5F6010096
:10A3500010B50C4688B011F064F812F0A3F8694605
:10A36000FFF7BAFFFF2C07D16946064810F0A2FBA1
:10A37000054B1C7008B010BD22466946034810F01A
:10A3800099FBF5E7B3FC0100DBF40020D6FC0100EB
:10A3900010B50C4688B011F044F812F083F8694605
:10A3A000FFF79AFFFF2C07D16946064810F082FBA1
:10A3B000054B1C7008B010BD22466946034810F0DA
:10A3C00079FBF5E7B3FC0100D9F40020D6FC0100CD
:10A3D00010B50C4688B011F024F812F063F8694605
:10A3E000FFF77AFFFF2C07D16946064810F062FBA1
:10A3F000054B1C7008B010BD22466946034810F09A
:10A4000059FBF5E7B3FC0100DAF40020D6FC0100AB
:10A4100030B5154601220D4B89B00C461A7011F06B
:10A4200000F812F03FF86946FFF756FF35B12A46AB
:10A430006946074810F03EFB09B030BD2246694628
:10A44000044810F037FB044B1C70F5E7E1F40020E2
:10A45000F7FC010014FD0100DBF4002030B51546C7
:10A4600001220D4B89B00C461A7010F0DAFF12F081
:10A4700019F86946FFF730FF35B12A4669460748A3
:10A4800010F018FB09B030BD22466946044810F0B0
:10A4900011FB044B1C70F5E7DFF40020F7FC010012
:10A4A00014FD0100D9F4002030B5154601220D4BF2
:10A4B00089B00C461A7010F0B4FF11F0F3FF694632
:10A4C000FFF70AFF35B12A466946074810F0F2FA4D
:10A4D00009B030BD22466946044810F0EBFA044B3F
:10A4E0001C70F5E7E0F40020F7FC010014FD01000A
:10A4F000DAF40020002337B5104A114D13702A7882
:10A5000001A901322A7041F60F02ADF806200D4A6A
:10A510008DF8043002F01AFB10F0FF040AD0214637
:10A52000094810F0C7FA2B78084A013B2B701378C2
:10A53000013B1370204603B030BD00BF6A85002088
:10A54000DCF40020E48100202DFD0100DDF400207A
:10A55000002238B50446164D164B29781A70164B52
:10A5600001311870C9B21548013C297010F0A2FAE7
:10A57000062C1CD8DFE804F00711040C1318160091
:10A580002B78012B09D10E48BDE8384002F07EBF80
:10A590002B78012BF7D0022B04D10A48F4E72B7853
:10A5A000012BF0D00848EFE72B78012BF4E738BDFA
:10A5B000DDF400206A850020DEF4002066FD010045
:10A5C0002889002018880020A0880020022806D0B2
:10A5D000032806D0012806D1044B18787047044B95
:10A5E000FBE7044BF9E70020704700BFDBF40020D5
:10A5F000D9F40020DAF4002010B51849044602F01E
:10A6000059FF10F0FF0102D0154810F053FA13481B
:10A6100090F88630ABB1134902F0D6FF10F0FF017D
:10A6200002D0114810F046FA204610F0E0FE10F07B
:10A63000FF0102D00D4810F03DFA01220C4B1A70B8
:10A6400010BD42F21071074A03F018F8C0B200289A
:10A65000EAD0084810F02EFAE6E700BF288900206B
:10A6600088FD010051A30000C7FD01004DFE01005F
:10A670006A85002010FE010010B51849044602F05A
:10A6800019FF10F0FF0102D0154810F013FA13481B
:10A6900090F88630ABB1134902F096FF10F0FF013D
:10A6A00002D0114810F006FA204610F0A0FE10F07B
:10A6B000FF0102D00D4810F0FDF901220C4B1A7079
:10A6C00010BD42F21071074A02F0D8FFC0B2002854
:10A6D000EAD0084810F0EEF9E6E700BF188800203D
:10A6E00083FE010091A30000C4FE01004DFE0100A5
:10A6F0006A8500200FFF010010B51849044602F0DA
:10A70000D9FE10F0FF0102D0154810F0D3F913481C
:10A7100090F88630ABB1134902F056FF10F0FF01FC
:10A7200002D0114810F0C6F9204610F060FE10F07B
:10A73000FF0102D00D4810F0BDF901220C4B1A7038
:10A7400010BD42F21071074A02F098FFC0B2002813
:10A75000EAD0084810F0AEF9E6E700BFA088002074
:10A760004EFF0100D1A3000092FF01004DFE010049
:10A770006A850020E0FF010010B50446174810F07C
:10A7800099F9174B1B78013B062B26D8DFE803F01D
:10A790000813040D18211C00124B1B78012B0AD141
:10A7A0002046BDE81040FFF727BF0E4B1B78012B5A
:10A7B000F6D0022B08D12046BDE81040FFF75CBF61
:10A7C000084B1B78012BEBD02046BDE81040FFF76B
:10A7D00093BF044B1B78012BECE710BD87F40100FD
:10A7E000DEF40020DDF40020014B1878704700BF34
:10A7F0006A85002000230B4A022813700A4A13704E
:10A800000A4A137007D0032808D0012809D1084943
:10A81000084802F013BF08490848FAE70849094800
:10A82000F7E77047E1F40020DFF40020E0F40020B7
:10A8300011A40000288900205DA4000018880020D1
:10A84000A9A40000A0880020022806D0032806D072
:10A85000012806D1044B18787047044BFBE7044BE2
:10A86000F9E70020704700BFE1F40020DFF400208A
:10A87000E0F40020022807D0032807D0012802D1E5
:10A88000034B00221A707047024BFAE7024BF8E7BD
:10A89000E1F40020DFF40020E0F40020436870B50C
:10A8A00003F00303022B04460E46816010D0032BF5
:10A8B00004D0012B0FD10025284601E005680020B7
:10A8C0000023636010B131460FF0AEFF284670BD23
:10A8D00000250068F4E745220449054810F0EAF82D
:10A8E0004521024810F08CFB0025E8E72200020019
:10A8F000450002000B6801330B60014B1B681847D1
:10A90000F0810020014B1860704700BFF0810020EB
:10A9100007B50B46002102460191034801A900F04A
:10A92000E9FB03B05DF804FBF5A8000030B5002595
:10A9300085B0CDE90101044601A90548039500F061
:10A94000D9FBDDE902309842B8BF255405B030BDCF
:10A950008FAA01002DE9F74FB0F81CA004461AF0A9
:10A96000080F93461CD001290CBF4AF0100A4AF088
:10A97000200AA0F81CA004F114000FF0BDF840B9A3
:10A9800092499348A72210F095F8A7218F4810F01C
:10A9900037FB8BF31188BFF36F8F03B0BDE8F08FE7
:10A9A0008C4FDFF82C820AF0070A022906D12046D4
:10A9B00010F09AF80028DED0012863D1D4F818905E
:10A9C000A38BB9F1000F19DA0026256823F00703DD
:10A9D000C4E9006643F00103A383A38B03F00702DD
:10A9E0005245009203D0A268002A40F0F58015B9C4
:10A9F000002E00F02F814FF0000AEFE003F0070275
:10AA0000511F012920D8002123F00703062A2568B9
:10AA10009BB2C4E900110AD13DB12946E28B096815
:10AA2000013292B20029FAD1E28343F002032046B8
:10AA3000A38310F059F806460028CED0A38B43F02C
:10AA40002003A3830026C8E7042A0DD123F00703BF
:10AA50009AB22046A28310F047F8054680B142F032
:10AA600020020025A283EDE740F219123946404644
:10AA700010F020F840F21911384610F0C1FA002504
:10AA80002E46AAE7032831D1BAF1000F0AD0394681
:10AA900040464FF4AA7210F00DF84FF4AA713846F0
:10AAA00010F0AEFA236853B93946404640F25512C9
:10AAB00010F000F840F25511384610F0A1FA236961
:10AAC0001E6856B9394640464FF4AC720FF0F2FF9B
:10AAD0004FF4AC71384610F093FAA38B23F00703C0
:10AAE00043F006030025A383A94676E704282ED168
:10AAF000BAF1020F0AD03946404640F25B120FF01D
:10AB0000D9FF40F25B11384610F07AFAE38B53B16B
:10AB1000394640464FF4AE720FF0CCFF4FF4AE71A1
:10AB2000384610F06DFA23695E6856B939464046DA
:10AB300040F25F120FF0BEFF40F25F11384610F096
:10AB40005FFAA38B23F0070343F00403CAE7052849
:10AB50002ED1BAF1010F0AD0394640464FF4B172F6
:10AB60000FF0A8FF4FF4B171384610F049FA23688E
:10AB700053B93946404640F263120FF09BFF40F252
:10AB80006311384610F03CFA23699E6856B939467D
:10AB900040464FF4B3720FF08DFF4FF4B371384657
:10ABA00010F02EFAA38B23F0070343F0050399E777
:10ABB000002540F26912394640460FF07BFF40F213
:10ABC0006911384610F01CFA2E468DE77F0002000E
:10ABD000450002005D0002004FF0010A43F0080347
:10ABE000A38304F11403184601930EF085FF40B9C6
:10ABF00040463149A7220FF05DFFA7212E4810F0F3
:10AC0000FFF98BF31188BFF36F8FBAF1000F30D1CA
:10AC1000002D40D116B120462849B0474FF02003FF
:10AC2000EFF3118B83F31188BFF36F8F01980EF050
:10AC300055FF40B9404620497C220FF03BFF7C2164
:10AC40001D4810F0DDF901980EF064FFA38B23F08E
:10AC50000803A383A38BDA0625D5012123F0100373
:10AC6000A383B4F81CA00AF0070A00297FF49DAE64
:10AC700081E6A1680029CBD0D1F800A04B46204640
:10AC8000D1F804B0009AD847BAF1000FC0D05146AD
:10AC9000DAF800A0F2E729464B462046009A2D68D4
:10ACA0000FF03EFFB4E713F020011EBF23F0200396
:10ACB0000221A383D5E700BF7F000200C1AC0000E2
:10ACC000F8B504460D4600F114064FF02003EFF3EB
:10ACD000118783F31188BFF36F8F30460EF0FEFEAD
:10ACE00040B90A490A487C220FF0E4FE7C2107485B
:10ACF00010F086F930460EF00DFF3A462046A56169
:10AD00000121BDE8F840FFF725BE00BF7F0002002B
:10AD1000450002002DE9F04704460F460FF016FFEC
:10AD2000051E54DB04F114094FF02003EFF3118AE0
:10AD300083F31188BFF36F8F48460EF0CFFE40B902
:10AD4000334934487C220FF0B5FE7C21304810F0A6
:10AD500057F948460EF0DEFE4FF6FF71E38BA28BEB
:10AD60008B4202F007064AD0022E1FD135464FF023
:10AD700001080133E38348460EF0BEFE40B9244982
:10AD80002448A7220FF096FEA721214810F038F999
:10AD90008AF31188BFF36F8FB8F1000F17D000232B
:10ADA0003246394620460FF0BBFE10E0930701D033
:10ADB000062E0FD100233B606368EBB9C4E900772E
:10ADC0003546F6B9524602212046FFF7C3FD284614
:10ADD000BDE8F087052E17D0012E0AD00E490D4888
:10ADE00040F2C5120FF066FE40F2C5110A4810F09D
:10ADF00007F96FF0040504E01F606760E0E76FF09B
:10AE00000A054FF00008B6E76FF02205F9E700BF2A
:10AE10007F000200450002005D0002002DE9F041C4
:10AE20000546144EDFF850804FF0FF324FF0FF33ED
:10AE300028460DF0FBFB04460028F5D0476847B9CB
:10AE4000314640461C220FF035FE1C21304610F0E2
:10AE5000D7F804F10803D3E8EF2F22F00101C3E88B
:10AE6000E01F0028F7D1D30701D52046B8470EF0E0
:10AE700007FBD9E7A50002004500020070B50029D4
:10AE800039D005680122AB682846B3F5004F2CBFC6
:10AE9000082404240C1B641BE40821460FF082FEE6
:10AEA000C30708D4144915489A220FF003FE9A21CB
:10AEB000114810F0A5F8214628460FF089FE261803
:10AEC0003146002228460FF06DFE361AB44208D0F3
:10AED00009490A48A2220FF0EDFDA221064810F010
:10AEE0008FF82146284600220FF078FE2146BDE863
:10AEF00070400FF0B5BF70BDC800020045000200F1
:10AF00002DE9F84301F1FF3919EA010F80460F4698
:10AF10001446056808D031493148FC220FF0CAFDBB
:10AF2000FC212E4810F06CF8A868B0F5004F2CBF3B
:10AF3000082304239F4205D821464046BDE8F84334
:10AF40000FF0D0BF1CB900263046BDE8F883B0EB47
:10AF5000D40FF8D93919C91A0FF05CFE01462846FA
:10AF60000FF0B3FE80460028EDD0AB687F42B3F50A
:10AF7000004F2CBF0823042303EBC0062E444E448D
:10AF80003E403444F31A07345B1B24F00704641B6F
:10AF9000B0EBD30F4FEAD3074FEAE40408D20146DF
:10AFA0003A4628460FF0D4FE414628460FF015FFDA
:10AFB000394628460FF00CFE3844844208D2394600
:10AFC000284622460FF0C4FE214628460FF005FF12
:10AFD0000122394628460FF001FEB5E7C8000200FD
:10AFE00045000200B2F5802FF8B507460C4616461C
:10AFF0000ED2042A0AD83D493D484FF4B6720FF0EC
:10B0000059FD4FF4B67139480FF0FAFF042200E001
:10B010000822B61AE51D344425F0070524F007047C
:10B02000641B172C4FEAD4060AD83049304840F246
:10B0300075120FF03FFD40F275112C480FF0E0FF44
:10B04000002300223D60C5E900230023314630463D
:10B05000AE60EB600FF0E7FD01218400471C304635
:10B060000FF0D8FD1B34E4082044B0420AD31F4936
:10B070001F4840F281120FF01DFD40F281111B4864
:10B080000FF0BEFF0023194605F11002BB4228DB7A
:10B090002246284600210FF0B9FD371B2846012221
:10B0A00000210FF09BFD3A4621460FF0AFFD2346ED
:10B0B0000022214628460FF080FD314628460FF039
:10B0C000A5FD3B463146284600220FF076FD31466D
:10B0D000284601220FF082FD2146BDE8F8400FF01E
:10B0E0007CBE42F8041B0133D0E700BFC800020059
:10B0F000450002002DE9F04F8B4692461C46002584
:10B1000091B002909AF8000008B928465FE325281C
:10B110000AF1010707D05946029B98470028C0F260
:10B120005683013512E2182200210AA810F031FFDF
:10B130009AF80130252B78D0002294469646164680
:10B140001046394617F8013B2B2B00F09D8000F28A
:10B150009480202B00F09A80232B00F09A8028B155
:10B160009DF8300040F004008DF830002EB19DF8BD
:10B17000300040F008008DF83000BEF1000F05D01F
:10B180009DF8300040F010008DF83000BCF1000F49
:10B1900005D09DF8300040F020008DF830002AB135
:10B1A0009DF8302042F040028DF830209DF830208C
:10B1B00002F04400442803D16FF386128DF830204A
:10B1C0009DF830202A2B42F080028DF830207BD170
:10B1D0009DF831204B1C42F001028DF831201A7885
:10B1E0002E2A0CBF012100219DF8312061F341027C
:10B1F0008DF8312074D15A782A2A6AD000210A2683
:10B200000133184610F8012BA2F13007092F40F244
:10B210008E809DF830200E91C2F3400040EAD1713B
:10B2200061F341028DF830205AE00AF102078DF8EF
:10B2300033309DF83130D90740F1498154F8049BEF
:10B24000B9F1000F07DA9DF83020C9F1000942F08A
:10B2500004028DF830205A0740F1428154F8048BE3
:10B26000B8F1000F80F241819DF831306FF3410356
:10B270008DF831304FF0FF3837E12D2B0CD0302BCB
:10B280007FF46DAF01225CE701265AE74FF0010E13
:10B2900057E74FF0010C54E7012052E733460CFB0F
:10B2A0000202303A1E4616F8010BA0F13007092FB2
:10B2B000F4D9994293D09DF830100D92D20F62F3D9
:10B2C00041018DF830108AE70B4600224FF00A0C3E
:10B2D000E8E79DF83120023342F004028DF8312076
:10B2E0001F4617F8012B6C2A41D025D8682A2BD08D
:10B2F0006A2A46D04C2A4CD01F4617F8012B9DF8DD
:10B300003130782A8DF8332000F2D980572A4DD871
:10B31000412A03D0453A022A00F2D18004229DF846
:10B32000323062F302038DF8323001239EE006FBD7
:10B3300001210346303964E7742A26D07A2ADBD10A
:10B3400006229DF831300DE05A78682A9DF83120A8
:10B3500006D1012161F3C6028DF831209F1CCCE794
:10B360001346022262F3C6038DF83130C5E75A78DE
:10B370006C2A9DF8312001D10421EBE7134603220A
:10B38000F0E705229DF83130ECE707229DF83130D7
:10B39000E8E7BDF8303023F4F04323F0020343F430
:10B3A000804343F00203ADF83030A6E7A2F1580124
:10B3B000202900F2848001A050F821F081B400001F
:10B3C000BFB40000BFB40000BFB40000BFB40000B1
:10B3D000BFB40000BFB40000BFB40000BFB40000A1
:10B3E0001DB30000BFB4000081B4000041B40000F0
:10B3F0001DB300001DB300001DB30000BFB400006A
:10B4000041B40000BFB40000BFB40000BFB40000EE
:10B41000BFB4000089B4000081B40000A5B40000EE
:10B42000BFB40000BFB40000A5B40000BFB400006A
:10B4300081B40000BFB40000BFB4000081B40000BC
:10B4400001209DF8321003F0780360F30201402BD5
:10B450008DF8321002BF9DF8301041F001018DF8D7
:10B460003010632A31D1003B18BF01239DF83020F2
:10B47000C2F340010B4363F341028DF83020D8E65C
:10B4800002209DF83210DEE703219DF8322003F000
:10B490007803A3F1400061F3020243428DF83220A9
:10B4A0004341E3E703219DF8322013F0780F61F365
:10B4B000020214BF012300238DF83220D6E79DF845
:10B4C000303043F001038DF830300023CEE79DF992
:10B4D0003020002AACBF4FF0FF39DDF83490BAE6D7
:10B4E0009B077FF5C7AEDDF838800023CDE90D332B
:10B4F0009DF832309DF8311003F00703012BC1F3A2
:10B50000C30138D1CB1E042B22D8DFE803F0030996
:10B510000921210054F8043BDA17CDE90A3206E08C
:10B52000073424F00704F4E80223CDE90A239DF848
:10B53000303013F0030656D03B4652465946029827
:10B540000FF048FD0028C0F242810544BA46D9E513
:10B5500054F8043B01294FEAE372CDE90A3205D1E0
:10B560009DF828300A9300230B93E0E70229DED1EF
:10B57000BDF92830D0E7022B23D1CB1E042B13D8E2
:10B58000DFE803F0030A0A12120000232268201DDC
:10B590000A920B930446CAE7E01D20F00700F0E88A
:10B5A0000223CDE90A23F5E754F8043B01290A9365
:10B5B0004FF000030B93D3D00229B8D1BDF8283047
:10B5C000D0E7042B09D1E31D23F0070303F108049E
:10B5D000D3E90023CDE90A23A9E7032B04BF54F8DC
:10B5E000043B0A93A3E79DF833007828AED862287D
:10B5F00022D825283FF48FAD5828A7D1DDE90A01CC
:10B600000DF1260300930CAA04AB0FF09DFC8246BB
:10B61000B8F1000F0DF126000CDB9DF83020A0EBF7
:10B620000A036FF3861298458DF8302002D9A8EBF3
:10B6300003030D9380463DE06338152886D801A2A8
:10B6400052F820F0C5B6000029B700004DB5000043
:10B650004DB500004DB500004DB5000029B7000004
:10B660004DB500004DB500004DB500004DB50000D2
:10B6700083B7000051B7000055B700004DB500007A
:10B680004DB500009DB600004DB5000051B700005B
:10B690004DB500004DB5000051B70000B8F1000FE6
:10B6A000DDF828A00ADB4146504610F010FC0026C9
:10B6B0000AEB0008BAF1000F0CD147E7504610F032
:10B6C000FFFBF4E700260A9B0DF1100A8DF81030FD
:10B6D0000DF11108A8EB0A0306B101339DF83220E1
:10B6E000D00668D5023352060D9948BF0E9A0B4416
:10B6F00048BF9B18B9F1000F76DD9DF83020A9EB0B
:10B700000309C2F38003039353076DD4500661D538
:10B7100046B159463046029B9847002857DB039BA9
:10B7200001351E46302356E01E070FD413F01006D5
:10B7300018BF2026DDE90A23002BBFF65FAF524277
:10B7400063EB43032D26CDE90A2357E72B26F1E7C8
:10B75000002653E70A9840B30DF126030093002119
:10B7600004AB0CAA0FF0F0FBBDF83230824603F0B8
:10B77000EF0343F4F04343F010030026ADF83230FA
:10B7800046E70A9B07293FF6E1AEDFE801F00C042B
:10B79000060C08080C0C1D70D8E61D80D6E6EA17CA
:10B7A000C3E90052D2E61D60D0E6DFF8C8A0064625
:10B7B0000AF105088EE7110748BF013393E71846E1
:10B7C00003935946029B98470028039B04DA11B063
:10B7D000BDE8F08F20234D444A46002AA5EB09011D
:10B7E00009F1FF39EBDC0D4636B159463046029B74
:10B7F00098470028EBDB01359DF83230D90601D49B
:10B800001A0706D559463020029B98470028DEDBF0
:10B8100001359DF83230DB0607D559469DF83300D7
:10B82000029B98470028D2DB01350D9E2E44731BE6
:10B83000002B16DC43465246594602980FF0CAFBCD
:10B840000028C4DB0544A944A9EB0503002B7FF7BE
:10B850007DAE59462020029B98470028B7DB013572
:10B86000F2E759463020029B98470028AFDB0135AC
:10B87000DDE700BFE900020048B1054B1A68054B3F
:10B88000B2FBF3F2044B504343F0010318477047F7
:10B890001C85002040420F0030EA0100014B197066
:10B8A000704700BF000007200020014B1870704750
:10B8B00000000720014B186812F0F8BA7CA600209F
:10B8C0000A4B13B518680023826800931468194660
:10B8D0001A46A047024630B14521054802B0BDE8EE
:10B8E00010400FF0E7B802B010BD00BF6CA60020FA
:10B8F0001B0102000749D1E8EF3F43F00102C1E814
:10B90000E02F0028F7D1DB0703D40348083912F0F1
:10B910008EBC704778A60020B0890020F0B5474B58
:10B9200085B002AC06460D4693E803004FF4006272
:10B9300084E803004FF0FF33414942480EF01EF9FE
:10B940004149424812F0E5FC0022414B4149204662
:10B95000C3E901121A600BF0E7FD044638B1452136
:10B9600002463D480FF0A6F8204605B0F0BD3B4822
:10B970000BF0BAFD044618B1024645213848F1E7FC
:10B980003849394801AA12F011F8044618B10246A4
:10B9900045213648E6E7019B9A682AB9306045217F
:10B9A00033480FF087F8DFE70C333360002BF6D015
:10B9B00030480CF0D1F8304F386030480CF0CCF8FB
:10B9C0003A6832B945212E480FF074F86FF012042E
:10B9D000CAE710B945212B48F6E7836822465B6821
:10B9E000294998470FF04CFB284F386030B9452162
:10B9F00027480FF05FF86FF00B04B5E70FF040FB3E
:10BA0000786010B945212348F3E73268224B1021B2
:10BA10005A61224A3F685A60042236689A601A6264
:10BA20000222DE621E4EAA621E4A9984DE6198617D
:10BA300099811F60AC612A62EB6295E7A8E9010079
:10BA4000E0F90020B08900203E010200D0890020EA
:10BA500070A60020B5B80000490102003482002021
:10BA600071010200A1010200AB010200B30102005A
:10BA7000D5010200060202006CA600200C020200A2
:10BA8000120202003A020200F5B800007CA6002073
:10BA900062020200900202000482002000FC0720E3
:10BAA00000F80720BCEB01002DE9FF410D461B4EBD
:10BAB000074631682846904610F012FA68B12846C9
:10BAC000F16C10F00DFA38B12A464521144804B043
:10BAD000BDE8F0410EF0EEBF01204C244443114B71
:10BAE00004F108000293344463682A46CDE90083D8
:10BAF00039464FF0FF3330440BF0E2FD034638B1D6
:10BB00002A464521084804B0BDE8F0410EF0D2BFF6
:10BB1000012384F8483004B0BDE8F08184A60020F9
:10BB2000CC0202009BB00100FB02020037B5134DAE
:10BB300013492846FFF7F2FE044638B14521024674
:10BB400010480EF0B7FF204603B030BD0E4C4FF446
:10BB50007C4220460D4912F033FB00942B680C4ABE
:10BB600007490C480BF0D8FE044618B1024645219F
:10BB70000948E6E70122094B1A70E4E71CA70020F8
:10BB8000608A002031030200B0A7002000040720D3
:10BB9000A9BA000020A700205E030200E2F4002002
:10BBA00038B50D4B02461B7893B90C4C206848B150
:10BBB000E36C33B10A4845210EF07CFF6FF00B00B7
:10BBC00038BD01204C234343E518E2506960F7E794
:10BBD0006FF04300F4E700BFE2F4002084A60020E9
:10BBE0007D0302004C22034B02FB003393F8480014
:10BBF000704700BF84A6002037B54C240B460121B6
:10BC00004443CDE90021054D28190834D0E90B1231
:10BC100028190BF043FD03B030BD00BF84A60020FF
:10BC2000104B2DE9F0411C6805460E461746ACB195
:10BC30004FF0FF324FF0FF330B480CF0AFFA636860
:10BC40003246D3F8088029463B462046C047044682
:10BC500005480CF06FFB2046BDE8F0816FF0010451
:10BC6000F9E700BFC4A7002074860020002330B588
:10BC700085B00546CDE9023301904FF0FF334FF018
:10BC8000FF320B480CF08AFA0A4B1C6834B1636827
:10BC900020461B6801A998472468F7E7284600F06A
:10BCA0003BF8044602480CF045FB204605B030BD89
:10BCB00074860020BCA700201FB5CDE901010392C6
:10BCC0004FF0FF334FF0FF3209480CF067FA094B91
:10BCD0001C6834B1636820461B6801A99847246832
:10BCE000F7E703480CF026FB002004B010BD00BFAE
:10BCF00074860020BCA700200022024BC3E900226A
:10BD0000704700BFBCA700200022024BC3E90022FD
:10BD1000FFF7F2BFC8A700202DE9F0410646002535
:10BD20001F4C204FDFF88080BC4208D941461F4895
:10BD3000F4220EF0BFFEF42140460FF061F9BC4240
:10BD400007D31B4B1C680CB1143CA4B92846BDE8B2
:10BD5000F0811EB9E3684BB91434E5E7002231469F
:10BD600020680FF0A3F90028F4D1F5E79847002DDB
:10BD700008BF0546F0E736B9E36863B914F1140F5C
:10BD8000E4D06469DFE70022314620680FF08EF9C5
:10BD90000028F1D1F2E79847002D08BF0546EDE7EE
:10BDA00048E80100ACE80100B603020045000200CB
:10BDB000C8A7002010B5064C23783BB9FFF7A4FFB5
:10BDC0000FF0ADF908B90123237010BD0020FCE786
:10BDD000E3F4002010B5044C2046FEF793FD204606
:10BDE00002F07EFC002010BDEDBD00002DE9F34106
:10BDF00004460325DFF85880164E8DF807004FF0F3
:10BE0000FF334FF0FF3240460CF0C8F901220DF12C
:10BE10000701002001F002FD074640460CF08AFAB7
:10BE20002FB101233370204602B0BDE8F081337892
:10BE3000002BF8D0013D08D012F061FA0028DED1C5
:10BE4000002142200DF028FCD9E73570EBE700BF58
:10BE50004C860020E4F4002037B540230C460A4904
:10BE60000093411A491105462346084A08480FF035
:10BE70006BF9011E05DA2846234603B0BDE83040C1
:10BE8000184703B030BD00BFE0A70020BBB10100E0
:10BE90006C85002038B5CCB2032C054608D9094979
:10BEA00009487E220EF006FE7E2106480FF0A8F813
:10BEB0000C23E96804FB0314D4F8880000F00700A1
:10BEC00038BD00BFEE03020045000200F8B5CCB259
:10BED000032C05461746C6680AD91949194840F285
:10BEE00053120EF0E7FD40F2531115480FF088F899
:10BEF0004FF02003EFF3118183F31188BFF36F8FAD
:10BF00000C2202FB0463D3F8883013F0C00301D085
:10BF10009F4212D10123002002FB0466C6F888303C
:10BF200081F31188BFF36F8F30B90C23696803FB6D
:10BF30000414636898470020F8BD4FF0FF30EFE726
:10BF4000EE0302004500020070B50D4606490446A6
:10BF5000411A491140220548FFF7B8FF2B46014618
:10BF60002046BDE870401847E0A700206C850020FF
:10BF70002DE9F843002201210646052001F06AFE62
:10BF8000052001F049FE11480AF05EFF104B98426F
:10BF900019D10AF079FF00244FF00C080127DFF8CF
:10BFA0003490F568494605EB44100EF0DEFD00289C
:10BFB00007DB08FB04550134042CC5F88870F0D168
:10BFC0000020BDE8F8836FF00400FAE711C000001C
:10BFD0000000AD0B24EC010001460C2300224B4372
:10BFE000094870B5C4188833D4E920561844C4F8F9
:10BFF00080200FF096F82DB132462B46BDE87040F8
:10C000000248184770BD00BFE0A700206C850020E3
:10C0100008B5052821D8DFE800F0031120130F0D23
:10C02000134BD3F8880010F007001FD1BDE808407B
:10C03000FFF7D2BF0220F9E70320F7E70120F5E779
:10C040000C4940F266220C480EF034FD40F26621A5
:10C05000BDE8084007480EF0D3BF064940F26A2207
:10C0600005480EF027FD40F26A21F1E708BD00BF48
:10C07000E0A70020EE0302004500020008B54FF0E3
:10C080002003EFF3118183F31188BFF36F8F114AFF
:10C09000136843F0020013F0010310600BD00E4A46
:10C0A000D2F80C34D2F80C2413F0010303D00B485F
:10C0B0000FF037F8012381F31188BFF36F8F23B19D
:10C0C000BDE808400020FFF787BF0120BDE8084019
:10C0D0000AF0FEBE90A800200050004068A8002092
:10C0E0007FB500220123CDE9022304ABCDE904335F
:10C0F000094A6B46CDF800D0CDF804D00FF056F8C1
:10C10000002805DB4FF48042002368460DF036FB23
:10C1100007B05DF804FB00BFF1B10100074BD3E8A5
:10C12000EF2F22F00201C3E8E01F0028F7D1D30768
:10C1300002D401200AF036BF704700BF90A800204B
:10C140002DE9F041012206464249D1E8EF3FC1E81E
:10C15000E02F0028F9D19BB93F4940484B60CB60A4
:10C160008A60FEF7D7FD00280ADA3D493D4840F2D3
:10C1700026220EF09FFC40F2262139480EF040FFA7
:10C1800086B3731E012B52D8012E06D1364BD3F83D
:10C190001C3403F00303022B24D012F0B0F8044641
:10C1A00018B9324B1B78002B4ED14FF02003EFF320
:10C1B000118783F31188BFF36F8F01242A4DDFF8B5
:10C1C000B080D5F81834D5F81824D2030CD503F074
:10C1D0000303022B01D0012E06D124B387F311886B
:10C1E000BFF36F8FBDE8F081C4B1384601F0A2FD06
:10C1F000D5F81835DBB2012BE3D1D5F80421002A9C
:10C20000DFD00022C5F80421D5F804210222C5F8A8
:10C2100018252022C8F88021AB60D2E70021212018
:10C220000DF03AFAE4E70223C5F80433DAE70C49E3
:10C230000C484FF40E720EF03DFCBDE8F0414FF497
:10C240000E7107480EF0DCBE0222074B0746C3F80A
:10C250000823B3E794A80020D0A7002000A800205E
:10C26000EE0302004500020000500040DAF9002011
:10C2700000E100E010B500F005F9041E06DA2246E0
:10C28000452107480EF016FC204610BD054803F076
:10C29000D5FF041EF8DA224645210348F2E700BF25
:10C2A0006004020030EC01008C04020010B5027D35
:10C2B0000446022A0CD0042A09D0B2B145210C4808
:10C2C0000EF0F8FB204609F07FFB002010BD052290
:10C2D000114604F1080011F04CF9204600F0EEF888
:10C2E000021EEFDA45210348EAE70122F0E700BF2A
:10C2F000BB040200D00402002DE9F341804606464B
:10C3000018F8010B0D46042801F1FF3309D0052868
:10C3100074D0022840F09980032B4AD845214F4819
:10C3200003E0012B06D845214D4802B0BDE8F0419D
:10C330000EF0C0BB73783E2B17D1F778022F16D0C2
:10C34000A7F10D035F425F410222414601A80FF0B1
:10C35000F5FD9DF80530033D9D420AD04521414839
:10C360000EF0A8FB02B0BDE8F0810027ECE7012742
:10C37000EAE70022002339469DF8040002F088FB1A
:10C38000044620B9002FEDD145213748E8E700F1F8
:10C390000807022201A9384611F00EF92A46F11CBD
:10C3A000384611F009F9204602B0BDE8F04103F02B
:10C3B0001BBF00220023032002F018FB0446D0B16B
:10C3C000042241460DEB02000FF0B8FD042204F1F7
:10C3D000080738460DEB020111F0EEF8BDF8063003
:10C3E000053D9D422ED0452120480EF063FB20469E
:10C3F00009F0EAFAB6E745211D4896E7032B02D873
:10C4000045211C4891E70022002302F0EFFA044680
:10C41000A8B1042241460DEB02000FF08FFD04226B
:10C4200004F1080738460DEB020111F0C5F8BDF81C
:10C430000630053D9D4205D045210F48D5E74521F1
:10C440000E4872E72A46711DAAE7024645210C48AC
:10C4500002B0BDE8F0410EF02DBB00BF5D0502004B
:10C46000ED040200130502003C050200A0050200D5
:10C4700081050200C70502000A060200EB05020062
:10C480003106020008B508490848FFF789FB021E7B
:10C4900005DA074845210EF00DFB064808BD064B9E
:10C4A00000201A60FAE700BF0DB201005E0602002C
:10C4B000690602002AF8FFFF98A80020024B828933
:10C4C00081681868FFF798BB98A8002008B5024B50
:10C4D0001868FFF787FB08BD98A8002010B5064C28
:10C4E0000648214617220EF0E5FA2046BDE8104026
:10C4F00017210EF085BD00BFA60602004500020010
:10C50000044A1368C81A20F07F40034413600DF0FA
:10C51000D9BD00BFA8A800202DE9F0474FF480370F
:10C520004FF00009860000F1500406F18046A40097
:10C5300006F5A836A4B204F18044D6F84035DFF8F9
:10C540006C8021F07F4504F5A8348740D8F804A515
:10C55000A3EB0A0323F07F432AF07F42012BC6F8A6
:10C56000402502D1132011F0D0FE0AF10202AB1ACD
:10C5700023F07F43B3F5000F88BF1546C4F8009041
:10C58000236825F07F43C8F84473C6F84035D8F8CF
:10C5900004359A4506D0EB1A023B23F07F43B3F5EE
:10C5A000000F01D8BDE8F0872B46CFE700500140CF
:10C5B000F8B500252F46104C2668104B05B1F8BD84
:10C5C000D3F80423D203FAD5D3F84021002AF6D0B9
:10C5D000C3F84051D3F840214FF48032C3F84823C8
:10C5E0000125D3F8401526B1002062682760B047C6
:10C5F000E2E72660E3E700BF9CA80020005001406E
:10C6000038B500254FF480334FF400120C4C012153
:10C61000C4F80855C4F804330A4B1520C3F8802128
:10C620002A4601F017FB152001F0F6FA0123064A0D
:10C63000A360022023601360FFF782FD284638BD07
:10C640000050014000E100E0A4A80020134AB0F12E
:10C65000FF3F14BF03461346013B002B1CDD9342F2
:10C66000A8BF13460E4AD2F804050E4A1168401AB4
:10C6700010F4000F18BF002320F07F4201320A4857
:10C6800013440A4A106000205060044A934294BF49
:10C69000C9188918FFF740BF0023E3E7FFFF7F00B9
:10C6A00000500140A8A8002001C500009CA800205F
:10C6B00038B54FF02003EFF3118583F31188BFF3F2
:10C6C0006F8F15480DF00AFA40B9144914487C22BE
:10C6D0000EF0F0F97C2111480EF092FC0E480DF09E
:10C6E00019FA104B0C48D3F804450F4B1B68E41A99
:10C6F00024F07F440DF000FA40B908490848A72209
:10C700000EF0D8F9A72105480EF07AFC85F31188C0
:10C71000BFF36F8F204638BDACA800207F00020019
:10C720004500020000500140A8A8002038B5C51CF3
:10C7300025F00305742D08D91749184850220EF02A
:10C74000B9F9502114480EF05BFC154CD4F83C317B
:10C7500023B1D4F844312B44742B19D97821042007
:10C760000EF0ACF878B10023D4F8402103605AB938
:10C77000C4E94F00C4F84431D4F844311A1D1D44B3
:10C780001044C4F8445138BD1060C4F84001F1E7CA
:10C79000D4F84001F0E700BF130702004500020093
:10C7A000B0A80020084800F59C73D3E8EF2F42F0B2
:10C7B0000202C3E8E12F0029F7D1D0F848311B6805
:10C7C0000BB1416818477047B0A8002070B50B4CFA
:10C7D000054620460EF040FD6FF0010104F59C7007
:10C7E0000EF051FDD4F848319B682BB129466268A0
:10C7F0002068BDE87040184770BD00BFB0A8002099
:10C800002DE9F8431F4C0746D4F834310E46222B4D
:10C8100007D945211C480EF04DF900252846BDE8F2
:10C82000F88303681B78022B0DD8184A12F803907E
:10C8300006EB0900FFF77AFF054658B94521144871
:10C840000EF038F9EAE7452112480EF033F94FF0BF
:10C850000009EDE7D4F8343130445A1C0333DB00CF
:10C8600003F10408C4F83421A0441C443B8A4A461E
:10C870002381BB7C3968A37260600FF05FFB454683
:10C88000CCE700BFB0A800203E0702000909020063
:10C890007B0702005F07020070B5044630B94521EE
:10C8A0000C480EF007F92546284670BD0378022B88
:10C8B0000AD8094AD65C3046FFF738FF324621468F
:10C8C00005460FF03BFBEFE7452104480EF0F2F878
:10C8D0000026F0E79D070200090902005F07020039
:10C8E0002DE9F341794E0D463368834208D07848EC
:10C8F00045210EF0DFF86FF00D00FFF767FF31E024
:10C90000137C032B00F0AE800DD8022B26D140F211
:10C91000B312704970480EF0CDF840F2B3116D4873
:10C920000EF06EFB1EE0052BF1D1002940F0818056
:10C93000D6F83431012B79D9338C06F10801013353
:10C9400033820323337607F0FFFE044650B10246DC
:10C95000452162480EF0AEF82046CEE721B93046B8
:10C960000EF09CFC00244AE0D1F80C8028460821F7
:10C97000FFF746FF00244FF4205307466946286816
:10C980008DF80040ADF802300FF04DFBA8B142F633
:10C990000103286801A98DF80440ADF806300FF0B6
:10C9A00042FB50B14B494C4840F217120EF082F84E
:10C9B00040F2171147480EF023FB37B9484845218C
:10C9C0000EF078F86FF00B0097E738460EF07AFC1F
:10C9D0000546082241460FF0B1FA2868FFF75CFFD0
:10C9E0000446286030B945213E480EF063F86FF0E8
:10C9F0000B0058E0BB88AA88934204D1012420464A
:10CA000002B0BDE8F08105210024317601333649BA
:10CA10003068F282B460338207F096FE0246002846
:10CA2000A0D0452131480EF045F8E0E7FFF7BAFE07
:10CA300098E7002442F60303286801A98DF8044012
:10CA4000ADF806300FF0EFFA50B908212846FFF78D
:10CA5000D7FE04460028D1D145212A8A2448E2E79E
:10CA60002146F3E70029E1D000238DF8043042F697
:10CA70000303286801A9ADF806300FF0D4FA50B1CD
:10CA8000144915484FF4C0720EF014F84FF4C071F9
:10CA900010480EF0B5FA298A0C480EF0BFFB044688
:10CAA00020B96FF00200FFF791FEA8E7EC680EF0E6
:10CAB00029FC0546214608220FF040FA2868FFF7B6
:10CAC000EBFE04462860002898D190E7B0A800202B
:10CAD000B607020013070200450002006A080200C0
:10CAE000DD0702000B080200B8A800203E08020083
:10CAF0009A0802002DE9F84306460F460024DFF8A5
:10CB00004480DFF84490214630460EF013FC044682
:10CB1000A0B10EF0F7FB054650B94146484640F239
:10CB2000FB120DF0C7FF40F2FB1140460EF068FA11
:10CB3000384629680FF077FA0028E4D12046BDE88E
:10CB4000F88300BF130702004500020070B50546D8
:10CB5000084619B1097811F0FD0F39D1002A37D0F4
:10CB60001E4C04F59C76D6E8EF1F41F0010CC6E898
:10CB7000EECFBEF1000FF6D111F001012BD1C4E9C7
:10CB80000053C4E94F11C4F84821C4F83411C4F863
:10CB9000441108B1FFF780FE114BA060E360012350
:10CBA00023824FF6FF73E382002328460D49237644
:10CBB00007F0CAFD044648B1024645210A480DF077
:10CBC00079FF6FF0010109480EF05DFB204670BD52
:10CBD0006FF01504FAE76FF04404F7E7B0A80020FF
:10CBE000E1C80000B8A80020DD080200E8A9002084
:10CBF00070B5064C86B001AD0FCC0FC52668044C4D
:10CC000001AD0FCD0FC4266006B070BDB0E90100C4
:10CC10005CAA00204FF0C872024B0349C3E91D1201
:10CC2000704700BFFCA90020180028002DE9F04F34
:10CC3000294C8BB094F85130064600910392002B9A
:10CC40003CD000273D464B7894F858B094F850A05B
:10CC5000019357450ED386F84450BBF1000F2BD0FB
:10CC6000AA452BD1737801337370012386F83430D1
:10CC7000B37023E04FF00009009B039A5B680293B6
:10CC8000164B13F80280019B994505D3BBF1000FA9
:10CC9000E1D101371834DCE7029B424603EB09017E
:10CCA00005A80FF0EEF90028F0D0A16805A80FF054
:10CCB000BAF930B1C144E6E7002DD3D10BB0BDE8DD
:10CCC000F08FA16806EB850201359163EDB2BBF1EF
:10CCD000000FDED1BFE700BFFCA900201809020049
:10CCE0002DE9F04703780546192B0C4612D8012B85
:10CCF00012D9023B172B0FD8DFE803F07A7A808035
:10CD0000828231110E0E0E0E0E0E0E0E0E0E0E0E35
:10CD10000E0E0E56FF2B75D00120BDE8F0874E4F4A
:10CD20007B78002BF8D0002697F800A090F80180BF
:10CD30005645F1D207EB46194246484669680FF05E
:10CD4000DBF850B96378C4F818900133637001239D
:10CD500084F81C802375A370DEE70136E8E73E4EB9
:10CD6000F378002BD8D0B37890F8018003EB43130D
:10CD7000F718BE42D0D096F82230434512D806F1BB
:10CD800002094246484669680FF0B6F850B9637820
:10CD9000C4F8249001336370012384F8288084F858
:10CDA0002030D8E72136E4E72B4890F85530002BA7
:10CDB000B2D0002390F854606F78B342ACD2022F07
:10CDC00014D16A6800EB43011288B1F8541052BACA
:10CDD00092B291420AD12A3300EB4303E3646378B1
:10CDE00001336370012384F84830B4E70133E4E78A
:10CDF000002229462046FFF719FF8DE70122F8E7B8
:10CE00000222F6E7DFF8508098F85730002B83D0E5
:10CE10004746002617F8569F4E45BFF47DAF97F85A
:10CE200020206B78934213D3384669680FF075F869
:10CE300070B906EB46166765464496F8763084F876
:10CE40005830637801336370012384F8503082E7EF
:10CE500001362137E0E700BFFCA90020F8B5054600
:10CE60000E461746084B1C680CB1043C04B9F8BDCB
:10CE700023681B681BB13A46314628469847231D54
:10CE8000F5D06468F0E700BF78AA002050B1002315
:10CE90004360054B021D596811B9C3E90022704770
:10CEA0000A605A60704700BF78AA00202DE9F84355
:10CEB00004460D4600296AD04FF0FF324FF0FF3391
:10CEC00034480BF06BF9032C06D002D9043C012C3A
:10CED0005AD86FF00B0620E02F4F97F85040022CE5
:10CEE000F7D8B9464FF00008A0451CD32B78012B8A
:10CEF00026D0022B31D0002B46D1284B04EB440422
:10CF0000286803EBC402111D506043F8341000265A
:10CF100097F85030013387F850301E480BF00AFA6A
:10CF20003046BDE8F883D9F8080029460FF07BF8B1
:10CF300009F1180906460028EFD008F10108D3E7E7
:10CF4000164A04EB440402EBC403043395E80300DF
:10CF500083E8030042F83430D9E7104A04EB440474
:10CF6000E60002EBC4040434A44605F1100E234687
:10CF700028686968083503C375451C46F7D12B78C6
:10CF8000237042F806C0C2E76FF01506C5E76FF0E0
:10CF90001506C5E760860020FCA9002004AA002031
:10CFA00010B50C4C4FF0FF324FF0FF3320460BF022
:10CFB000F5F80022084B1A709A701A7183F8502005
:10CFC00083F8542083F856202046BDE810400BF02B
:10CFD000B1B900BF60860020FCA900200022054BEB
:10CFE0005A70DA705A7183F8512083F8552083F80B
:10CFF00057207047FCA9002008B5830625D0FFF70D
:10D00000EDFF10F0020F18BF0122114B18BF5A712B
:10D01000C20744BF01225A70C20644BF0122DA701F
:10D02000420744BF012283F85120020744BF012276
:10D0300083F85520820648BF01224FF0000048BF08
:10D0400083F8572083F8581008BD6FF01500FBE7F0
:10D05000FCA9002070B50E4686B005460EF0DFF93B
:10D06000184B02AC0FCB84E80F00214601AB3046D1
:10D07000154A04F0D3FC154B08351C6868B10CB197
:10D08000043C0CB906B070BD23689B680BB1284600
:10D090009847221DF6D06468F1E71CB9019804F0A6
:10D0A000FFFAEFE7019E043C002CF7D02368DB6811
:10D0B00013B1314628469847231DEFD06468002CF1
:10D0C000F1D1EBE7C4E9010070AA002078AA0020A2
:10D0D0002DE9F04F544C99B05C2206460D4601A84C
:10D0E00000210EF056FF94F8583062798DF8073021
:10D0F00000238DF8043012B101238DF804306378D9
:10D1000023B19DF8043001338DF80430E37823B166
:10D110009DF8043001338DF8043094F8513023B178
:10D120009DF8043001338DF8043094F8553023B164
:10D130009DF8043001338DF8043094F8573023B152
:10D140009DF8043001338DF80430337A03F0010385
:10D150008DF80830EAB14FF00008D6F800A094F836
:10D160000490324FC84514D23946072250460EF07B
:10D17000D4FEBB46073700283AD19DF80530CDF8DC
:10D1800034B001338DF8053001238DF830308DF83F
:10D190000630284610F004FA07462549284601AA19
:10D1A000B5F8048002F036FD224BA868CDE90435BD
:10D1B0009DF8073010FA87F72F60A5F804800396D2
:10D1C0003568C3B19DF805209DF804309A4216D108
:10D1D0009DF8082006A903A8FFF740FE94F85C30EC
:10D1E0001BB1294601A8FFF735FF19B0BDE8F08F44
:10D1F00008F10108B6E79DF80630002BE8D10E4B88
:10D200001C68002CF1D09DF80850043C002CECD098
:10D2100023685B6813B1294603A89847231DE4D00F
:10D220006468002CF1D1E0E7FCA9002000AA0020EE
:10D23000E1CC000070AA002078AA002070B5064654
:10D24000144C154803F012FF5C22002120460EF01A
:10D25000A0FEBEB13379356884F85C305DB10FCD86
:10D2600060340FC42B682360B2683AB10B4B10686E
:10D27000516803C370BDFFF7BBFCF5E7BDE8704024
:10D28000FFF7C8BCFFF7B4FCFFF7C4FC84F85C6090
:10D29000F0E700BFFCA900208C82002070AA0020CB
:10D2A00008B1012806D1054B002183F8600004482D
:10D2B00003F062BE6FF01500704700BFFCA90020AC
:10D2C0005CAA002070B50D461C460E1F02B153B972
:10D2D00049210E480DF0EEFB6B6F13B1FF21304674
:10D2E0009847002070BD012B02D045210848F1E786
:10D2F0001178642902D945210648EBE76B6F85F860
:10D3000080100BB1304698472046EBE71B0902001E
:10D310003809020061090200F8B5176E0D4614467F
:10D32000A2F11C0637B9452114480DF0C3FB0020BB
:10D330002066F8BD51B10A46114845210DF0BAFBEF
:10D340002A46FF213046236E9847F0E71BB1BDF80F
:10D350001820012A05D06FF02302FF213046B8477C
:10D36000E5E71978642904D9452106480DF0A2FBA8
:10D37000E6E72A4684F86810F0E700BF8509020056
:10D38000A3090200BD090200014650F8300C08B59F
:10D3900028B9BDE8084045210B480DF08BBB0B4B6D
:10D3A00030310B6001234B600B8C0B8100234B81D0
:10D3B00007F074FD024628B1BDE808404521044845
:10D3C0000DF078BB08BD00BFD9090200D5D300001D
:10D3D000F409020038B51446926922B9452126485D
:10D3E0000DF068FB05E059B30A46244845210DF0CD
:10D3F00061FB04F11403D3E8AF3F9B071ED5A4F1F2
:10D4000030051034D4E8AF3F002B31DDD4E8AF0F46
:10D41000C11740F2E733C90341EA5041C003C018C5
:10D420004FF47A724FF0000341F10001FBF77EFBED
:10D4300002460B46124829460CF0C6FB002038BDB8
:10D440001BB1BDF81010012902D045210D48C7E7D6
:10D450001978642902D945210B48C1E794F8243092
:10D460008B42C6D084F82410A4F160009047C0E736
:10D4700000200146CDE700BF2E0A0200A3090200EA
:10D4800040A50020540A0200BD09020010B5882200
:10D49000002104460EF07DFDFF23302284F8843005
:10D4A0000021A0180EF075FD014B636310BD00BF95
:10D4B00089D300002DE9FF410C4606460DF038FFE8
:10D4C0000DF000FF002300688DF80C3041F60F03CB
:10D4D00003A9ADF80E300EF0A6FD054628B16FF099
:10D4E0002205284604B0BDE8F08104F130000CF0BC
:10D4F000DBFBFF2384F8843042F619233046C4E96D
:10D500001E552560C4F8805084F8865001A98DF816
:10D510000450ADF80630FFF7EDFA074630B9452163
:10D5200024480DF0C7FA6FF01505DAE70DF0EAFEB2
:10D53000804650B9204921484FF485720DF0BAFA5F
:10D540004FF485711C480DF05BFD98F806304FF0E4
:10D55000000884F8853042F619233946304602AA7D
:10D560008DF80880ADF80A300DF02FFF10B9452175
:10D570001348D6E783883946A4F8803042F6021370
:10D58000304603AA8DF80C80ADF80E300DF01DFF6B
:10D5900040B949210B480DF08DFA30460DF0C6FE1A
:10D5A00020609EE7012384F886308388A4F88230C7
:10D5B000F3E700BF750A0200A10A0200450002005D
:10D5C000D80A02000A0B020070B5044640B339B312
:10D5D00003682BB390F88530DB0624D5866F2EBB0D
:10D5E000144B8167436001230382D0F88030C3600D
:10D5F00000F11403D3E8EF2F42F00102C3E8E12F5A
:10D600000029F7D12068211D07F05CFD054628B1EF
:10D610000246452108480DF04DFAA667284670BD20
:10D620006FF01505FAE76FF02205F7E76FF0440594
:10D63000F4E700BFC5D200005F0B020038B5044616
:10D64000A0B199B1006888B1E56F95B90A4BE1675F
:10D65000E36101232362B4F88030E584A38404F1FC
:10D660001C0107F01BFC00B1E56738BD6FF0150029
:10D67000FBE76FF00F00F8E719D30000F8B5054697
:10D6800080B37AB390F8860078BBAA6705F170037F
:10D69000D3E8EF2FC3E8E41F002CF9D105F17403A0
:10D6A000D3E8EF4F44F00202C3E8E62F002EF7D193
:10D6B00014F002041CD121EAE1764FF4004740F255
:10D6C000E73021464FF47A720023C6FB0701FBF7CF
:10D6D0002DFA02460B46074805F130010CF074FAAA
:10D6E0002046F8BD6FF01504FAE76FF02204F7E763
:10D6F0000446F5E740A500204B1E59425941014B15
:10D7000019707047E6F4002010B51C46034B1B68E7
:10D710000BB110789847204610BD00BF80AA0020AA
:10D720002DE9FF411F460D4B054658680C4616462D
:10D7300080B1D1F80C808047094B32461870012324
:10D74000CDE90183BDF828302146009328463B46A9
:10D750000FF084FD04B0BDE8F08100BF80AA002076
:10D76000E5F4002020B1034B02681A6042685A6059
:10D770000020704780AA002000B50E4B89B01B78AE
:10D780008DF807009BB10021182202A80EF001FCC1
:10D79000094B002003930DF107030493012302A911
:10D7A000ADF8143006F084FD09B05DF804FB6FF0AD
:10D7B0000C00F9E7E6F400206CEC0100032310B53F
:10D7C000104C114AC4E90433104BA261E3614FF4D9
:10D7D000806322660E4A23626266002310220D498E
:10D7E000E01DA3626362E3622367E3666367A26688
:10D7F0000EF04AFB204608490EF046FB2023A37199
:10D8000010BD00BF88AA0020F40B0200F7F400202E
:10D81000E7F40020FD0B0200010C020070B5182493
:10D8200000FB0445144B16461D4404FB0033DC6A20
:10D83000012C0ED0022C18D0E4B928460DF0F3FDCF
:10D84000864204D8324628460DF0F6FD344620467E
:10D8500070BD28460DF0E7FD8642344628BF0446D9
:10D86000284622460DF0E8FDF1E72846BDE8704065
:10D870000DF0FEBD0024EAE788AA00200449431EFB
:10D880000F3013F8012F8A5C83421A70F9D1704768
:10D89000080C0200F0B50746264E8DB001AD0C46CF
:10D8A0000FCE0FC50FCE0FC596E8070085E807001D
:10D8B0003846002F39D0002C39D0381F0246214677
:10D8C00010344B780D781B0443EA0563CD7804319E
:10D8D0002B4311F8025C8C4243EA052342F8043FD3
:10D8E000EFD10421144C8A07036916D1C3F3074210
:10D8F000A55C1A0EA25C42EA0562C3F30725655DCA
:10D90000DBB2E35C42EA054242EA03220CAD21F0BD
:10D9100003032B4453F82C3C534050F8042F01319F
:10D9200053402C290361DED101200DB0F0BD20460B
:10D93000FBE700BFD4E90100080C02002DE9F04F1D
:10D94000002703689DB002934368DFF8B8A10393F2
:10D950008368DDE902460493C3680593036906936F
:10D960004369DDE905E2079383690893C369DDE94B
:10D9700007CB98460993049B0093CD590CAB2DBA65
:10D98000DD515AF8043B043705EB03094FEAF22551
:10D9900085EAB21585EA72654D442BEA020302EA74
:10D9A0000C0983EA09032B44009DDDF800904344F1
:10D9B00075404FEA743888EAB408254006EA090938
:10D9C00085EA090588EAB458A844402F03EB0E0500
:10D9D0004344DDF800E0D84640F085804FF0100A5F
:10D9E00049490A9151460AF1010A0DF1700E0AF0F7
:10D9F0000F070EEB870757F8407C01F00F094FEA3D
:10DA0000B748019788EAF71801F10E0707F00F07EA
:10DA10000EEB870757F8407C09314FEAF74E8EEA44
:10DA2000774ECDF82CE001F00F010DF1700E0EEBEA
:10DA300089090EEB810151F8401C59F840ECBAF10C
:10DA4000400F7144DDF804E088EADE08DDF82CE0E0
:10DA500041448EEA972E0A9F714457F804EB49F827
:10DA6000401C4FEAF52905EA02080A9789EAB51928
:10DA70002CEA050787EA080789EA75694F44774465
:10DA8000394459444FEA733784EA060B0BEA030B17
:10DA900087EAB30704EA060EDDF800808BEA0E0E73
:10DAA00087EAB35777448844E3463944009621D146
:10DAB000029F0F44039907601944049B416023446B
:10DAC0008360059B3344C360069B43440361079B0B
:10DAD0002B444361089B13448361099B6344C361E6
