:108000003825012021DD000035BC010051DD0000D4
:1080100051DD000051DD000051DD000051DD0000A8
:10802000000000000000000000000000E9DA00008D
:1080300051DD0000000000008DDA000025C50000C1
:10804000E1DC0000E1DC0000E1DC0000E1DC00003C
:10805000E1DC0000E1DC0000E1DC0000E1DC00002C
:10806000E1DC0000E1DC0000E1DC0000E1DC00001C
:10807000E1DC0000E1DC0000E1DC0000E1DC00000C
:10808000E1DC0000E1DC0000E1DC0000E1DC0000FC
:10809000E1DC0000E1DC0000E1DC0000E1DC0000EC
:1080A000E1DC0000E1DC0000E1DC0000E1DC0000DC
:1080B000E1DC0000E1DC0000E1DC0000E1DC0000CC
:1080C000E1DC0000E1DC0000E1DC0000E1DC0000BC
:1080D000E1DC0000E1DC0000E1DC0000E1DC0000AC
:1080E000E1DC0000E1DC0000E1DC0000E1DC00009C
:1080F000E1DC0000E1DC0000E1DC0000E1DC00008C
:10810000E1DC0000E1DC0000E1DC0000E1DC00007B
:10811000E1DC0000E1DC0000E1DC0000E1DC00006B
:10812000E1DC0000E1DC0000E1DC0000E1DC00005B
:10813000E1DC0000E1DC0000E1DC0000E1DC00004B
:10814000E1DC0000E1DC0000E1DC0000E1DC00003B
:10815000E1DC000000000000000000000000000062
:10816000000000000000000000000000000000000F
:1081700000000000000000000000000000000000FF
:1081800000000000000000000000000000000000EF
:1081900000000000000000000000000000000000DF
:1081A00000000000000000000000000000000000CF
:1081B00000000000000000000000000000000000BF
:1081C00000000000000000000000000000000000AF
:1081D000000000000000000000000000000000009F
:1081E000000000000000000000000000000000008F
:1081F000000000000000000000000000000000007F
:10820000DEE61E284CBBCE8F023500003C0000008D
:1082100014B0010001000000008000000080000098
:10822000FFFF0291000000000000000000000000BD
:0C82300000000000000000000000000042
:04823C00FFFFFFFF42
:1082400081F0004102E000BF83F0004330B54FEA07
:1082500041044FEA430594EA050F08BF90EA020F74
:108260001FBF54EA000C55EA020C7FEA645C7FEA07
:10827000655C00F0E2804FEA5454D4EB5555B8BF2A
:108280006D420CDD2C4480EA020281EA030382EA9B
:10829000000083EA010180EA020281EA0303362D2D
:1082A00088BF30BD11F0004F4FEA01314FF4801C00
:1082B0004CEA113102D0404261EB410113F0004F12
:1082C0004FEA03334CEA133302D0524263EB4303C9
:1082D00094EA050F00F0A780A4F10104D5F1200E67
:1082E0000DDB02FA0EFC22FA05F2801841F10001C2
:1082F00003FA0EF2801843FA05F359410EE0A5F196
:1083000020050EF1200E012A03FA0EFC28BF4CF0C6
:10831000020C43FA05F3C01851EBE37101F000457C
:1083200007D54FF0000EDCF1000C7EEB00006EEB89
:108330000101B1F5801F1BD3B1F5001F0CD3490813
:108340005FEA30004FEA3C0C04F101044FEA44526A
:1083500012F5800F80F09A80BCF1004F08BF5FEAF1
:10836000500C50F1000041EB045141EA050130BDD1
:108370005FEA4C0C404141EB0101013C28BFB1F5E3
:10838000801FE9D291F0000F04BF01460020B1FA2E
:1083900081F308BF2033A3F10B03B3F120020CDA01
:1083A0000C3208DD02F1140CC2F10C0201FA0CF0DF
:1083B00021FA02F10CE002F11402D8BFC2F1200C44
:1083C00001FA02F120FA0CFCDCBF41EA0C019040FA
:1083D000E41AA2BF01EB0451294330BD6FEA040443
:1083E0001F3C1CDA0C340EDC04F11404C4F120022E
:1083F00020FA04F001FA02F340EA030021FA04F340
:1084000045EA030130BDC4F10C04C4F1200220FA96
:1084100002F001FA04F340EA0300294630BD21FAD4
:1084200004F0294630BD94F0000F83F4801306BF9A
:1084300081F480110134013D4EE77FEA645C18BF8E
:108440007FEA655C29D094EA050F08BF90EA020F25
:1084500005D054EA000C04BF1946104630BD91EA1D
:10846000030F1EBF0021002030BD5FEA545C05D120
:108470004000494128BF41F0004130BD14F580045F
:108480003CBF01F5801130BD01F0004545F0FE41D3
:1084900041F470014FF0000030BD7FEA645C1ABF08
:1084A000194610467FEA655C1CBF0B46024650EA3F
:1084B000013406BF52EA033591EA030F41F400216B
:1084C00030BD00BF90F0000F04BF0021704730B5F1
:1084D0004FF4806404F132044FF000054FF00001C6
:1084E00050E700BF90F0000F04BF0021704730B587
:1084F0004FF4806404F1320410F0004548BF40425C
:108500004FF000013EE700BF42004FEAE2014FEAB0
:1085100031014FEA02701FBF12F07F4393F07F4F8B
:1085200081F06051704732F07F4208BF704793F08E
:108530007F4F04BF41F40021704730B54FF46074A1
:1085400001F0004521F000411CE700BF50EA0102A4
:1085500008BF704730B54FF000050AE050EA01024D
:1085600008BF704730B511F0004502D5404261EBBD
:1085700041014FF4806404F132045FEA915C3FF4FE
:10858000D8AE4FF003025FEADC0C18BF03325FEA9B
:10859000DC0C18BF033202EBDC02C2F1200300FA4C
:1085A00003FC20FA02F001FA03FE40EA0E0021FA71
:1085B00002F11444BDE600BF70B54FF0FF0C4CF45F
:1085C000E06C1CEA11541DBF1CEA135594EA0C0F11
:1085D00095EA0C0F00F0DEF82C4481EA030621EA4C
:1085E0004C5123EA4C5350EA013518BF52EA033587
:1085F00041F4801143F4801338D0A0FB02CE4FF039
:108600000005E1FB02E506F00042E0FB03E54FF068
:108610000006E1FB03569CF0000F18BF4EF0010E60
:10862000A4F1FF04B6F5007F64F5407404D25FEA5C
:108630004E0E6D4146EB060642EAC62141EA55510F
:108640004FEAC52040EA5E504FEACE2EB4F1FD0C51
:1086500088BFBCF5E06F1ED8BEF1004F08BF5FEACF
:10866000500E50F1000041EB045170BD06F0004681
:1086700046EA010140EA020081EA0301B4EB5C042E
:10868000C2BFD4EB0C0541EA045170BD41F4801126
:108690004FF0000E013C00F3AB8014F1360FDEBF4B
:1086A000002001F0004170BDC4F10004203C35DA27
:1086B0000C341BDC04F11404C4F1200500FA05F3AA
:1086C00020FA04F001FA05F240EA020001F000424B
:1086D00021F0004110EBD37021FA04F642EB0601C1
:1086E0005EEA430E08BF20EAD37070BDC4F10C04EB
:1086F000C4F1200500FA04F320FA05F001FA04F2AF
:1087000040EA020001F0004110EBD37041F100019A
:108710005EEA430E08BF20EAD37070BDC4F12005A5
:1087200000FA05F24EEA020E20FA04F301FA05F20D
:1087300043EA020321FA04F001F0004121FA04F2B5
:1087400020EA020000EBD3705EEA430E08BF20EA85
:10875000D37070BD94F0000F0FD101F000464000BF
:1087600041EB010111F4801F08BF013CF7D041EA41
:10877000060195F0000F18BF704703F00046520045
:1087800043EB030313F4801F08BF013DF7D043EA16
:108790000603704794EA0C0F0CEA135518BF95EACC
:1087A0000C0F0CD050EA410618BF52EA4306D1D153
:1087B00081EA030101F000414FF0000070BD50EA72
:1087C000410606BF1046194652EA430619D094EAFC
:1087D0000C0F02D150EA013613D195EA0C0F05D1E6
:1087E00052EA03361CBF104619460AD181EA03013A
:1087F00001F0004141F0FE4141F470014FF00000F2
:1088000070BD41F0FE4141F4780170BD70B54FF08C
:10881000FF0C4CF4E06C1CEA11541DBF1CEA13550C
:1088200094EA0C0F95EA0C0F00F0A7F8A4EB0504EE
:1088300081EA030E52EA03354FEA013100F08880E5
:108840004FEA03334FF0805545EA131343EA1263AE
:108850004FEA022245EA111545EA10654FEA002663
:108860000EF000419D4208BF964244F1FD0404F51C
:10887000407402D25B084FEA3202B61A65EB030578
:108880005B084FEA32024FF480104FF4002CB6EB35
:10889000020E75EB030E22BFB61A754640EA0C00B5
:1088A0005B084FEA3202B6EB020E75EB030E22BFF5
:1088B000B61A754640EA5C005B084FEA3202B6EB36
:1088C000020E75EB030E22BFB61A754640EA9C00F5
:1088D0005B084FEA3202B6EB020E75EB030E22BFC5
:1088E000B61A754640EADC0055EA060E18D04FEA83
:1088F000051545EA16754FEA06164FEAC30343EA23
:1089000052734FEAC2025FEA1C1CC0D111F4801FEF
:108910000BD141EA00014FF000004FF0004CB6E7E8
:1089200011F4801F04BF01430020B4F1FD0C88BF87
:10893000BCF5E06F3FF6AFAEB5EB030C04BFB6EB92
:10894000020C5FEA500C50F1000041EB045170BD85
:108950000EF0004E4EEA113114EB5C04C2BFD4EBB2
:108960000C0541EA045170BD41F480114FF0000E36
:10897000013C90E645EA060E8DE60CEA135594EAB2
:108980000C0F08BF95EA0C0F3FF43BAF94EA0C0FB5
:108990000AD150EA01347FF434AF95EA0C0F7FF42A
:1089A00025AF104619462CE795EA0C0F06D152EA7E
:1089B00003353FF4FDAE1046194622E750EA410662
:1089C00018BF52EA43067FF4C5AE50EA41047FF473
:1089D0000DAF52EA43057FF4EBAE12E74FF0FF3CD8
:1089E00006E000BF4FF0010C02E000BF4FF0010CA9
:1089F0004DF804CD4FEA410C7FEA6C5C4FEA430C22
:108A000018BF7FEA6C5C1BD001B050EA410C0CBF70
:108A100052EA430C91EA030F02BF90EA020F0020D2
:108A2000704710F1000F91EA030F58BF994208BF39
:108A300090422CBFD8176FEAE37040F001007047F6
:108A40004FEA410C7FEA6C5C02D150EA013C07D14D
:108A50004FEA430C7FEA6C5CD6D152EA033CD3D098
:108A60005DF8040B704700BF8446104662468C4692
:108A70001946634600E000BF01B5FFF7B7FF0028C5
:108A800048BF10F1000F01BD4DF808EDFFF7F4FFEE
:108A90000CBF012000205DF808FB00BF4DF808ED79
:108AA000FFF7EAFF34BF012000205DF808FB00BF9C
:108AB0004DF808EDFFF7E0FF94BF012000205DF8BE
:108AC00008FB00BF4DF808EDFFF7CEFF94BF012073
:108AD00000205DF808FB00BF4DF808EDFFF7C4FF6C
:108AE00034BF012000205DF808FB00BF4A0011D20E
:108AF00012F5001211D20DD56FF47873B3EB6252F8
:108B00000ED44FEAC12343F0004343EA505323FA03
:108B100002F070474FF00000704750EA013002D178
:108B20004FF0FF3070474FF00000704753B94AB91B
:108B3000002908BF00281CBF4FF0FF314FF0FF3065
:108B400000F080B9ADF1080C6DE904CE00F006F834
:108B5000DDF804E0DDE9022304B070472DE9F04FB1
:108B6000099E0D4604460F46002B47D18A42944683
:108B70005FD9B2FA82F343B1C3F120019F4002FAF8
:108B800003FC9C4020FA01F10F434FEA1C451FFAF9
:108B90008CFE220CB7FBF5F105FB117701FB0EF003
:108BA00042EA0742904208D91CEB020201F1FF376A
:108BB00002D2904200F234813946121AA4B2B2FBBA
:108BC000F5F005FB102200FB0EFE44EA0244A64528
:108BD00008D91CEB040400F1FF3202D2A64500F2D2
:108BE0001981104640EA0140A4EB0E0400211EB199
:108BF000DC400023C6E90043BDE8F08F8B4208D972
:108C0000002E00F0FB800021C6E900050846BDE803
:108C1000F08FB3FA83F100294BD1AB42C0F0F18061
:108C2000824240F2EE800846002EE5D0C6E90047B9
:108C3000E2E702B9FFDEB2FA82F3002B40F09D803A
:108C40008D1A4FEA124E97B20121B5FBFEF20EFBD0
:108C50001250250C45EA004507FB02F0A8420FD947
:108C60001CEB050502F1FF382CBF4FF001094FF056
:108C70000009A84203D9B9F1000F00F0CE804246A6
:108C80002D1AA4B2B5FBFEF00EFB105500FB07F742
:108C900044EA0544A74208D91CEB040400F1FF355F
:108CA00002D2A74200F2B3802846E41B40EA024009
:108CB0009DE7C1F120078B4005FA01F422FA07FC79
:108CC000FD408A404CEA030C20FA07F34FEA1C49A6
:108CD0001C431FFA8CFE00FA01F3200CB5FBF9F8D7
:108CE00009FB185540EA054508FB0EF0A8420FD9CC
:108CF0001CEB050508F1FF3A2CBF4FF0010B4FF0BC
:108D0000000BA84203D9BBF1000F00F08C80D046C5
:108D10002D1AA4B2B5FBF9F009FB105500FB0EFEAD
:108D200044EA0545AE4507D91CEB050500F1FF34C3
:108D300001D2AE457ED8204640EA0840A5EB0E059C
:108D4000A0FB029845454C46C64602D306D14B458A
:108D500004D20138B9EB020468EB0C0E002E6FD080
:108D60001A1B65EB0E0522FA01F305FA07F7CD4051
:108D700000211F43C6E900753EE702FA03FCC3F178
:108D8000200001FA03F24FEA1C4EC14024FA00F51C
:108D90001FFA8CF79C401543B1FBFEF02A0C0EFB2A
:108DA000101142EA014200FB07F191420ED91CEB7F
:108DB000020200F1FF382CBF4FF001094FF000090B
:108DC000914202D9B9F1000F31D04046521AADB2EA
:108DD000B2FBFEF10EFB112245EA024501FB07F250
:108DE000AA4207D91CEB050501F1FF3801D2AA42BE
:108DF00023D84146AD1A41EA004126E731463046C4
:108E0000FAE6841A65EB030301201F460CE764446D
:108E100002384AE764440238E4E6023A65442FE740
:108E200002396244C9E6A8F10208654470E70238D5
:108E30006244CBE7023865447EE702396544D9E7EE
:108E40003146D9E6704700BF2DE9F3470446008953
:108E50006389984203D1002002B0BDE8F0872588DD
:108E60006288AD1AADB2002DF5D0D4E90612C01A51
:108E7000CDE90012FFF736FB0022354BFFF79CFBD4
:108E800006460F46DFF8CCA0DFF8CC909AF80080B9
:108E9000B9F8000008F101085FFA88F88AF8008044
:108EA000FFF720FB32463B46FFF7D0F9FFF71EFEE7
:108EB000B8F11E0F81B2A9F8001008D14FF00008D8
:108EC00026488AF8008011F069FDA9F80080002288
:108ED000002330463946FFF7E1FD50B12089638910
:108EE00000F57F40FF30C01A8012FFF7FBFA0646FC
:108EF0000F46228863889A42ADD03C206843FFF732
:108F0000F1FA32463B46FFF781FC0FA3D3E9002379
:108F100006460F46DDE90001FFF74EFB02460B4611
:108F200030463946FFF748FB00220D4BFFF744FB64
:108F300000220C4BFFF76AFC02460B46C4E90A23E9
:108F4000FFF7D4FD80B287E74AD8124DFB210940D4
:108F50000000503F62E30020D8E20020CDF601007F
:108F600000004E4000408F40012B2DE9F0410746A4
:108F7000884614461E4625D115784B4B28461D7051
:108F8000FFF7B0FA2B0603D50022484BFFF75EF936
:108F900043A3D3E90023FFF70FFB454BC3E90001CF
:108FA0003A46B8F81010434811F0F8FC0023424F3D
:108FB0005D1CDBB2B3426CDAE15C384611F0EEFCCA
:108FC0002B46F5E7132BEBD1537C3C4AA17C137065
:108FD0003B4A022B11700ED0032B2ED0012BDFD178
:108FE000384A631E04F1100113F8010F994202F888
:108FF000010BF9D1D4E7344B1D780135EDB2012DC9
:109000001D700AD12F4A631E04F1100113F8010FDD
:109010008B4202F8010BF9D1C2E7022DC0D12B4AD5
:10902000631E04F1100113F8010F8B4202F8010BCB
:10903000F9D10022244B1A70B2E7234B1D78013579
:10904000EDB2012D1D700AD11E4A631E04F11001FC
:1090500013F8010F8B4202F8010BF9D1A0E7022DA2
:109060000AD11A4A631E04F1100113F8010F8B4252
:1090700002F8010BF9D193E7032D91D1144A631E35
:1090800004F1100113F8010F8B4202F8010BF9D122
:10909000CFE7104811F082FC3046BDE8F08100BFF8
:1090A00052B81E85EB51044077E500200000E03FF8
:1090B000F0860020E0F601000CF7010079E50020C1
:1090C00078E5002063E3002096E3002074E30020AD
:1090D00085E30020F726020000B5074891B011F0A3
:1090E0005DFC684600F046FB01226846114600F030
:1090F000CBFD11B05DF804FB60F00100014B187866
:10910000704700BF1EE30020014811F047BC00BFBC
:1091100073F001002DE9F743044612F061F80746A9
:109120004C4811F03BFC20464B4903F007FD054637
:1091300028B94A4803B0BDE8F04311F02FBC0146FE
:10914000474A204612F09BF808B94648F2E74FF02C
:109150001809454EDFF8148132788388013A09FBFB
:109160000282294613812046414A12F088F808B944
:109170004048DFE73378404A013B09FB03F308EB43
:10918000030148F8032001238B81838838464B81F3
:109190000BF00CFF10F0FF0121D0384811F0FEFB5E
:1091A000204612F07EF810F0FF0102D0344811F092
:1091B000F5FB0122334B1A703278022A13D0032AAE
:1091C00036D0012A26D115238DF804302E4B01A963
:1091D000186801F0B5F82D4811F0E0FB1AE02C48B2
:1091E00011F0DCFBDCE72B4811F0D8FB2A4B1B7895
:1091F000052B15D1294B1A781AB100221A701523A4
:1092000000E011238DF804301F4B0122186801A9DA
:1092100001F096F8012014F02BFA03B0BDE8F083BA
:10922000062BF7D11D4B1A78002AE6D11223E9E765
:109230001A4B1A7862B100221A7016238DF8043086
:10924000114B0122186801A901F07AF81448C3E70C
:109250001423F3E79BF00100D8EF0100BEF00100FA
:10926000DCEF0100EEF0010022E300209C990020D9
:10927000E0EF010023F10100D59200007CF1010034
:10928000A5F101001FE3002098990020D4F101000E
:1092900097F10100E9F1010019E3002021E300202A
:1092A00005F2010013B50446084811F077FB0A23C4
:1092B0008DF80430064B0122186801A901F040F82E
:1092C000FB21204608F020FC02B010BD20F2010076
:1092D000989900202DE9F3411E46032314460422E9
:1092E0008DF800308DF80530414B88461B78414D94
:1092F000072B414F8DF8042019D1404A404913787B
:1093000023B90B789BB13F4B1B7883B10023072017
:1093100013702B800B7001F08FF93B4B1A783B4B8D
:1093200053F8220001F05AF908B901233B70384A7A
:10933000137813B1002313702B803B78002B54D08B
:109340002A88344F022A3B8802D0B3F5967F10D189
:109350000132013303202A803B8001F06DFA5CBBAF
:109360002D4811F01BFB2046A8F8084002B0BDE8CC
:10937000F081032001F088FAB8B1032001F098FAD7
:1093800000233B802B88032001332B8001F09EF9C2
:109390000422224B8DF8060083F82300204B0DEBAE
:1093A0000201186800F0CCFFD9E72B8801332B802D
:1093B0003B8801333B80D2E7022E10D16178174BF6
:1093C000184883F820108DF8011011F0E7FA144BBB
:1093D00032466946186800F0B3FF0120C6E73246FE
:1093E0002146114811F0DAFAF7E72B80F5E700BFC4
:1093F00019E30020D6E2002024E30020418400206D
:1094000023E3002020E3002025E30020149A00201D
:109410001CE30020D4E2002034F20100B8860020D2
:109420009899002044F2010066F20100CB0710B5C4
:1094300007D5041E18BF0124204604F015F9014B7E
:109440001C7010BD1EE3002073B51C46954B1546DD
:109450001878002800F02181934E33785BBB934C41
:10946000934B22781B789A4202D1012333702AE071
:1094700001F0DCF938B38F4D2A780E2A17D844F260
:109480008103D340DB0712D58B4B187801F0D4F859
:1094900022788A4B53F8220001F0A0F80646217882
:1094A000874811F07BFA16B92378013323702B78A3
:1094B00001332B7007E001F00FFA38B97B4A3070A6
:1094C0001378013B1370012002B070BD002CFAD05C
:1094D0007C4A13782BB1002313707B4A13707B4AAC
:1094E00013707B4A137843B17A4B1B782BB100235E
:1094F0001370754A1370754A137000F091FF20B90C
:10950000754B0121186808F0FFFA744C2946204673
:1095100000F080FE00F03EFF00220023FFF7B4FAC7
:1095200038BB6F4B1A7822BB01221A7000F032FF51
:10953000C4E90601237C012B63D1694B1B7853B12D
:109540006648FFF781FC674A10BB13780133DBB232
:10955000022B13701ED85C4D634E2B78012B02D06A
:109560003378322B2ED100230120337001F064F9BF
:109570009DE700F00FFF00220023FFF785FA002887
:10958000D8D0574B1A78002AD4D000221A70D1E7CD
:109590000023137064210123B0FBF1F14E4D8DF8CF
:1095A00000302B6889B28DF801108DF80200002B75
:1095B000D1D04E4811F0F2F903226946286800F034
:1095C000BFFEC8E7012001F05FF9B0B1012001F052
:1095D0006FF9012001F07AF80422012384F82100B8
:1095E0008DF804208DF805303B4B8DF806000DEB0F
:1095F0000201186800F0A4FE65E733780133337088
:1096000055E7022B7FF45FAF344800F025FE384A5F
:109610000146E8B913780133DBB2022B13700AD983
:1096200002232D4D8DF800300B0A8DF802302B6887
:109630008DF8011093B9254D02202B782D4E052B66
:1096400002D03378642B12D101F0F6F80023D6E76C
:109650000023B0F5FA7F1370EDD2E1E7264811F050
:109660009DF903226946286800F06AFEE3E701F0ED
:109670000BF960B1022001F01BF9022001F026F87D
:109680000422022384F822008DF80420AAE72B7814
:1096900001332B7033780133E8E60B4B18700B4B1A
:1096A000187010E71FE3002024E3002025E30020CA
:1096B00022E300205CE3002019E30020149A00203C
:1096C00088F201001DE300205AE300205DE3002042
:1096D00023E3002020E3002098990020B886002092
:1096E00018E300205BE300205EE300209CF2010011
:1096F00060E300205FE30020A7F20100F0B50378EB
:109700008BB004460E46174607AD032B20D8DFE882
:1097100003F002191B1D1149284612F00FFB637854
:1097200039460493A37830460393E3780C4A0293B6
:1097300023790595019363790093A37911F03BF99F
:109740000BB0F0BD0749E7E70749E5E70749E3E75D
:109750000A212846064A11F02EF9E0E7B8F2010086
:10976000E1F20100BFF20100C6F20100D0F20100F7
:10977000DAF2010010B504461422002112F063FB56
:109780000E4B0F4A23600F4B92E8030063600E4BB1
:109790002422A3600D4BE36004F1140383E803006B
:1097A000002104F11C0012F04EFB0022084B204661
:1097B000C3E90022C3E902221A6110BDB59D000071
:1097C00070E6010019A000002DA8010031A80100D9
:1097D000149A0020074A084B12781B7822B1002BFC
:1097E00014BF032001207047002B14BF022000206B
:1097F000704700BF59E300201AE3002010B5064867
:109800000DF044F910F0FF0403D02146034811F095
:10981000C5F8204610BD00BF2D94000004F30100E0
:10982000012307B50C49009302220C4B0C4807F0AA
:109830007DF910F0FF0105D00A4803B05DF804EB94
:1098400011F0ACB8084811F0A9F8084803B05DF869
:1098500004EB11F0A3B800BF88E7010098E701000E
:1098600008E7010023F3010049F301006BF3010055
:1098700010B50446FFF7AEFF831EDBB2012B30D8D4
:109880000DF09EF810F0FF0104D01648BDE810401E
:1098900011F084B8FFF7B2FF014608B11248F5E7AE
:1098A00006F0AAFE10F0FF0101D01048EEE71048C4
:1098B00011F074F8204607F0FDFC11F04AFB04F1AA
:1098C000140003F0C7FE10F0FF0101D00948DDE7E6
:1098D00000F024FD01460028F8D1BDE81040FFF754
:1098E0009FBF10BD86F30100A1F30100BEF301008C
:1098F000DEF30100F5F30100012008B503F0EAFCF6
:1099000010F0FF0102D0044811F048F8BDE808400B
:10991000024811F043B800BF12F4010034F4010012
:1099200030B589B000F076FD354D03AB142200212F
:1099300028700446184612F086FA01228DF80C2091
:109940000492304A3049059200220291019200901F
:10995000002C50D02D4B197841B11A7007F0E8FA5D
:10996000684603F085FC2A4803F0B2FA03F032FBA4
:109970002B78013B062B32D8DFE803F0040F1113DC
:109980001D262F002349032003F0B2FAC0B230B3E2
:10999000214811F003F809B030BD2049F3E7204910
:1099A000F1E7204B1B78012B01D81F49EBE7022B75
:1099B00015D11E49E7E71B4B1B780BB91C49E2E7A1
:1099C000012B0CD11B49DEE7164B1B780BB91A494A
:1099D000D9E7012B03D11949D5E71949D3E700216C
:1099E000042003F023FBC0B210B1164810F0D6FFDC
:1099F000FFF782FFCFE7144907F036FACBE700BF45
:109A000019E300206000300088EF0100408400204E
:109A10005881002090EF010041F4010094EF010013
:109A200098EF010022E300209CEF0100A0EF01006D
:109A3000A4EF0100A8EF0100ACEF0100B0EF0100BE
:109A4000B4EF010061F401003BA801002DE9F743E8
:109A5000554F04463B78554D002B4CD14FF018081C
:109A600001212B78524E013B08FB03F3F218918140
:109A7000504A5149F25003F061F8814670B94F489D
:109A800010F08CFF204611F00CFC10F0FF0137D0D5
:109A90004B4803B0BDE8F04310F080BF0146494A8F
:109AA000204611F0ECFB08B94748E9E72B7882889B
:109AB000013B08FB036349461A812046434A11F0E3
:109AC000DEFB0028F0D02B788288013B08FB036383
:109AD00020465A8111F084FB2978013908FB016185
:109AE0000BF064FA10F0FF0102D0394810F056FF75
:109AF000204611F0D6FB2D78012D04D0022D35D053
:109B000003B0BDE8F083334B1C78012C1CD1324BE1
:109B10001D78012D0DD1314810F040FF0E232A464B
:109B20003D708DF804302E4B01A9186800F008FC38
:109B3000E6E7022DE4D1294810F030FF0F2322463A
:109B40003C708DF80430EEE7023C012CD8D8254853
:109B500010F024FF10238DF80430214B01221868E7
:109B600001A900F0EDFBFFF7DBFEC9E7194B1B78FD
:109B7000022B11D11C4810F011FF11238DF8043075
:109B8000174B0122186801A900F0DAFB012013F03D
:109B90006FFD01233B70B3E7032BB1D1124810F0E6
:109BA000FDFE1323D7E700BF1FE3002022E30020C0
:109BB0009C99002049940000CCEF01007EF4010044
:109BC000A6F40100D0EF0100D1F40100D4EF0100B0
:109BD000FEF401001BE3002019E30020D4F1010092
:109BE000989900201CF50100E9F1010010B5044628
:109BF0001E4810F0D3FEFFF7EDFD012807D0032823
:109C000032D1FFF78DFEBDE81040FFF775BE002092
:109C100006F0F2FC10F0FF0104D01548BDE810403A
:109C200010F0BCBE134810F0B9FE0CF0C9FE10F0E5
:109C3000FF0101D01048F1E7FFF7E0FD014608B150
:109C40000E48EBE704F1140003F004FD10F0FF01EF
:109C500001D00B48E2E711F07CF90A4810F09EFEB3
:109C6000204607F027FBCCE710BD00BF37F5010009
:109C7000BEF3010045F5010086F30100A1F30100E8
:109C8000F5F3010056F5010010B4094C03462270AB
:109C9000084C217039B11AB1184610BCFFF7E8BD65
:109CA00010BCFFF7A3BF002AF6D110BC704700BF5D
:109CB0001AE3002059E3002008B5034810F06EFEB7
:109CC000BDE80840FFF718BE67F5010010B504466F
:109CD00003F080F9022C19D0032C19D0012C08D1E3
:109CE0000C49032003F004F9C0B210B10A4810F087
:109CF00055FE0021042003F099F9C0B210B10748C5
:109D000010F04CFEBDE81040FFF7F6BD0449E8E74F
:109D10000449E6E7B8EF010041F4010061F40100F5
:109D2000BCEF0100C0EF010010B50C4C0C482178CD
:109D300010F034FE20780B4C01380B4900230B4AFD
:109D400054F8200002F026FF10F0FF0104D0BDE817
:109D50001040074810F022BE10BD00BF22E30020D3
:109D60007AF50100149A0020C4EF01004C81002014
:109D700088F5010010B50A4B0A4C18780A490138D9
:109D800000230A4A54F8200002F004FF10F0FF01FB
:109D900004D0BDE81040064810F000BE10BD00BF62
:109DA00022E30020149A0020C8EF01004081002027
:109DB00088F5010070B590B00C4601A9054607F082
:109DC00079FDC0B220B1374810F0E8FD10B070BD89
:109DD0009DF80530002B41D1284612F0BDFA1E2215
:109DE00008A9FFF78BFC3CB122462F4808A910F0C8
:109DF000D5FDFFF781FDE9E72C4808A910F0CEFD5D
:109E00002B4B1E4653F8042BC2B9284612F06BFAAE
:109E100046F82400274C284607F0BAFB2378013384
:109E2000237006F071FC244B1B78013B062BCDD828
:109E3000DFE803F00B0B0B080E0E11000134052CAC
:109E4000E0D1E7E72378022B05D8FFF76DFFBDE7E8
:109E50002378012BF9D0FFF78DFFB7E7012BB5D1A0
:109E600024B12146154810F099FDAFE7144A154872
:109E7000137010F093FD284612F035FA124B18605B
:109E8000284607F085FB204613F0F2FBFFF7A2FC03
:109E900003289BD1074B1B78002B97D1FFF740FD80
:109EA00094E700BFB3F50100D9F50100F7F5010013
:109EB000149A002022E3002019E3002006F6010096
:109EC00020E3002022F601009899002070B58EB0A2
:109ED000054600F06FFA424B0446424E18700028C7
:109EE00045D001210228317031D0032835D0884275
:109EF00003D101463C4800F063FA2B681E22186823
:109F000006A9FFF7FBFB2B681222186801A9FFF7CF
:109F1000F5FB3378002B40D011F0DBF9324901A872
:109F200010F08DFC38B3314C237823B3304810F057
:109F300035FD002323702F4B28681A782E4B2F49AC
:109F400003EB82036A68006807F0E0FC25E026481E
:109F500000F036FA21462A48CDE7234800F030FACF
:109F60000221274800F02CFA21462648C3E7FFF7D4
:109F7000D7FC3470C1E7224901A810F060FC28B179
:109F8000214C237813B1194B1E7846B11D4901A805
:109F900010F055FC80B9FFF7AFFC0EB070BD14484F
:109FA00010F0FCFC134B28681A78134B174903EB8D
:109FB000820326706A68C6E7154C2378002BEAD026
:109FC0000B4810F0EBFC0023237011F082F9094BD1
:109FD00028681A78084B0F4903EB82036A68B2E7D6
:109FE0001BE3002061E3002026E300203D840020E5
:109FF0003EF6010022E30020149A00201CE7010035
:10A0000037E3002048E300203E8400202CE70100D5
:10A010003F8400203CE701002DE9F04196B00E4658
:10A0200007A9074607F046FC10F0FF0505D0664873
:10A0300010F0B4FC16B0BDE8F0819DF81D40012C75
:10A0400010D1624B28461C70614B1D7000F0A8F9BE
:10A050003146604810F0A2FC284613F00CFBFFF7D5
:10A06000DFFBE7E7002CE5D15B4D38462C7012F0A2
:10A0700073F91E220EA9FFF741FB3246574E58488E
:10A080000EA910F08BFC33784BB90D238DF80430FA
:10A09000544B0122186801A900F052F92C70524962
:10A0A0000EA810F0CCFBC8B10124504B20461C7008
:10A0B00000232B7013F0DFFA4D4B1B78072B494B15
:10A0C00065D14C4A186814704B4A01A914700C22CF
:10A0D0008DF80420224600F033F9032447490EA8E6
:10A0E00010F0ADFBB8B10124454B20461C70002395
:10A0F0002B7013F0C0FA3E4B1B78033BA342394B45
:10A1000050D8404A186814700B2201A98DF8042019
:10A11000224600F015F93C490EA810F090FBA8B1BA
:10A120000124344B20461C70334B1C7000232B70D1
:10A13000364B1C7013F09FFA0C238DF80430294B1A
:10A140002246186801A900F0FBF803240027DFF875
:10A15000C0803378FDB2013B9D4231DC58F82500C8
:10A1600012F0FAF802A91222FFF7C8FA02A90EA803
:10A1700010F065FB48B158F8250007F009FA0023F4
:10A1800048F825303378013B33700137E1E71D4A49
:10A19000186814700B2201A98DF80420224600F0E3
:10A1A000CFF89BE7134A18681470134A01A914707A
:10A1B0000C228DF80420224600F0C2F80324AAE7FE
:10A1C0002046FFF783FD35E7B3F5010023E30020C8
:10A1D00020E3002054F601001FE3002022E30020CA
:10A1E0007FF601009899002026E300203D8400209E
:10A1F00019E300201CE3002021E3002037E30020C6
:10A200003E8400201DE3002048E300203F8400201E
:10A21000149A00200B78012B037404D0022B0DD06C
:10A220000C4810F0BBBB0388438003894381B1F81D
:10A2300001300380B1F80530038170478388C38003
:10A240008389C381B1F801308380B1F80330838101
:10A25000704700BFBFF601002DE9F8438589C38927
:10A2600004469D422FD0B0F80480B0F80690C8454F
:10A2700029D0ED1A2846FEF735F90022134BFEF7D8
:10A280009BF90022002306460F46FEF707FC30B17B
:10A2900005F57F40FF30FEF725F906460F463C20C6
:10A2A000A8EB090800FB08F0FEF71CF932463B4614
:10A2B000FEF7ACFA02460B46C4E90C23FEF716FC87
:10A2C00080B2BDE8F8830020FBE700BF0000503FEC
:10A2D000012910B50C4604D0022908D071B90A48EA
:10A2E00000E00A4810F05AFB094B1C7005E00948D1
:10A2F00010F054FB0122064B1A7010BD0648BDE851
:10A30000104010F04BBB00BF46F7010011F70100F1
:10A310007AE5002023F7010059F7010008B5F02283
:10A320000021054811F08FFDF0220021034811F0B3
:10A330008AFD002008BD00BF97E3002087E40020CD
:10A34000002310B586B0039305930D4BADF80C2098
:10A3500000930C4B012204930B4B0446CDE90131D1
:10A3600019460AF0FBF848B16946204609F014FF87
:10A3700010B1064810F012FB06B010BD0448F9E712
:10A380003DF8010065A80100ECE7010087F7010036
:10A39000ABF70100014BD3E900017047F0860020C4
:10A3A00008B5FEF78FF8024BC3E9000108BD00BFF6
:10A3B000F0860020014B1878704700BF79E5002037
:10A3C00002290DD0032915D001291CD10E4A431EA4
:10A3D000103012F8011B03F8011F8342F9D17047B6
:10A3E0000A4A431E103012F8011B03F8011F834272
:10A3F000F9D17047064A431E103012F8011B03F8CA
:10A40000011F8342F9D1704763E3002074E3002009
:10A4100085E30020014B1878704700BF78E50020E5
:10A42000014B1878704700BF7AE5002008B507484F
:10A4300010F0B4FA0022064B1A70064A1378013B5A
:10A4400013700122044B1A7008BD00BF4EF80100C2
:10A450004384002080E500204284002008B50548A0
:10A4600010F09CFA044A1378013B13700122034B4D
:10A470001A7008BD83F8010080E5002042840020A6
:10A4800070B503788AB004460E4607AD032B20D87A
:10A49000DFE803F002191B1D1149284611F04EFC9C
:10A4A00063781E210493A37830460393E3780D4A22
:10A4B000029323790595019363790093A37910F0B2
:10A4C0007AFA0AB070BD0849E7E70849E5E70849A4
:10A4D000E3E70A212846074A10F06DFAE0E700BFDB
:10A4E000B8F20100E1F20100BFF20100C6F2010082
:10A4F000D0F20100DAF2010030B5154601220D4B11
:10A5000089B01A700C4610F0E6FE11F025FF69467E
:10A51000FFF7B6FF35B12A466946074810F03EFA04
:10A5200009B030BD22466946044810F037FA044BA2
:10A530001C70F5E782E50020ABF80100C8F80100C7
:10A540007BE5002030B5154601220D4B89B05A70CD
:10A550000C4610F0C0FE11F0FFFE6946FFF790FFB9
:10A5600035B12A466946074810F018FA09B030BDDF
:10A5700022466946044810F011FA044B5C70F5E776
:10A5800082E50020ABF80100C8F801007BE500205F
:10A5900030B5154601220D4B89B09A700C4610F06B
:10A5A0009AFE11F0D9FE6946FFF76AFF35B12A46D7
:10A5B0006946074810F0F2F909B030BD22466946F5
:10A5C000044810F0EBF9044B9C70F5E782E500209D
:10A5D000ABF80100C8F801007BE50020002337B587
:10A5E000104A114D13702A7801A901322A7041F6E0
:10A5F0000F02ADF806200D4A8DF8043002F0CAFAB9
:10A6000010F0FF040AD02146094810F0C7F92B7852
:10A61000084A013B2B701378013B1370204603B0AE
:10A6200030BD00BF428400207FE50020B0810020C3
:10A63000E1F8010080E5002038B5002304461A4AFD
:10A640001A491B4D1370537093701A4A0B704B705C
:10A650008B7029781370184B01311870C9B21748E4
:10A66000013C297010F09AF9062C1CD8DFE804F0A0
:10A670000711040C131816002B78012B09D1104870
:10A68000BDE8384002F0F2BE2B78012BF7D0022B48
:10A6900004D10C48F4E72B78012BF0D00A48EFE7FF
:10A6A0002B78012BF4E738BD7BE5002082E5002004
:10A6B00080E500204284002081E500201AF9010095
:10A6C000F886002080870020088800200228074B99
:10A6D00005D0032805D0012805D11878704758788F
:10A6E0007047987870470020D87070477BE500204D
:10A6F00010B50B49044602F0CDFE10F0FF0102D068
:10A70000084810F04BF9204610F0CBFD10F0FF0187
:10A7100002D0054810F042F90122044B1A7010BD16
:10A72000F88600203CF901007BF9010042840020FA
:10A7300010B50B49044602F0ADFE10F0FF0102D047
:10A74000084810F02BF9204610F0ABFD10F0FF0187
:10A7500002D0054810F022F90122044B1A7010BDF6
:10A7600080870020B1F901007BF9010042840020BC
:10A7700010B50B49044602F08DFE10F0FF0102D027
:10A78000084810F00BF9204610F08BFD10F0FF0187
:10A7900002D0054810F002F90122044B1A7010BDD6
:10A7A00008880020F2F901007BF9010042840020B2
:10A7B00010B50446194810F0F1F80122184B1A7030
:10A7C000184B1B78013B062B26D8DFE803F0081353
:10A7D000040D18211C00144B1B78012B0AD12046B4
:10A7E000BDE81040FFF784BF0F4B1B78012BF6D05C
:10A7F000022B08D12046BDE81040FFF799BF0A4B55
:10A800001B78012BEBD02046BDE81040FFF7B0BF0E
:10A81000054B1B78012BECE710BD00BF9BF001003E
:10A820004384002081E5002080E50020014B18785A
:10A83000704700BF4284002002280AD003280ED0AF
:10A84000012812D10022094B09490A481A7002F066
:10A85000ABBE0022054B084908485A70F7E70022B2
:10A86000024B074907489A70F1E7704782E50020DC
:10A87000F9A40000F886002045A50000808700208C
:10A8800091A5000008880020022806D0032807D0E0
:10A89000012808D1054B18787047044B5878704749
:10A8A000024B987870470020704700BF82E5002077
:10A8B000022807D0032809D001280AD10022054B1D
:10A8C0001A7070470022034B5A7070470022014BE8
:10A8D0009A70704782E50020014B1878704700BFDE
:10A8E00043840020436870B503F00303022B044641
:10A8F0000E46816010D0032B04D0012B0FD1002510
:10A90000284601E0056800200023636010B131464D
:10A910000FF0FEFE284670BD00250068F4E74522D2
:10A920000449054810F03AF84521024810F0DCFAD5
:10A930000025E8E736FA010059FA01000B680133F7
:10A940000B60014B1B681847BC810020014B18604D
:10A95000704700BFBC81002007B50B4600210246AE
:10A960000191034801A900F0E9FB03B05DF804FB85
:10A970003DA9000030B5002585B0CDE901010446B0
:10A9800001A90548039500F0D9FBDDE902309842A2
:10A99000B8BF255405B030BD77A901002DE9F74FA8
:10A9A000B0F81CA004461AF0080F93461CD00129E9
:10A9B0000CBF4AF0100A4AF0200AA0F81CA004F1CB
:10A9C00014000FF00DF840B992499348A7220FF0F8
:10A9D000E5FFA7218F4810F087FA8BF31188BFF3AA
:10A9E0006F8F03B0BDE8F08F8C4FDFF82C820AF038
:10A9F000070A022906D120460FF0EAFF0028DED020
:10AA0000012863D1D4F81890A38BB9F1000F19DA9B
:10AA10000026256823F00703C4E9006643F001031C
:10AA2000A383A38B03F007025245009203D0A268D0
:10AA3000002A40F0F58015B9002E00F02F814FF06C
:10AA4000000AEFE003F00702511F012920D800217E
:10AA500023F00703062A25689BB2C4E900110AD136
:10AA60003DB12946E28B0968013292B20029FAD140
:10AA7000E28343F002032046A3830FF0A9FF0646BA
:10AA80000028CED0A38B43F02003A3830026C8E781
:10AA9000042A0DD123F007039AB22046A2830FF0B7
:10AAA00097FF054680B142F020020025A283EDE722
:10AAB00040F21912394640460FF070FF40F219116A
:10AAC000384610F011FA00252E46AAE7032831D1A6
:10AAD000BAF1000F0AD0394640464FF4AA720FF07F
:10AAE0005DFF4FF4AA71384610F0FEF9236853B9A0
:10AAF0003946404640F255120FF050FF40F25511D2
:10AB0000384610F0F1F923691E6856B939464046B7
:10AB10004FF4AC720FF042FF4FF4AC71384610F0B6
:10AB2000E3F9A38B23F0070343F006030025A38377
:10AB3000A94676E704282ED1BAF1020F0AD0394689
:10AB4000404640F25B120FF029FF40F25B1138469D
:10AB500010F0CAF9E38B53B1394640464FF4AE7258
:10AB60000FF01CFF4FF4AE71384610F0BDF92369A9
:10AB70005E6856B93946404640F25F120FF00EFF4C
:10AB800040F25F11384610F0AFF9A38B23F00703B2
:10AB900043F00403CAE705282ED1BAF1010F0AD009
:10ABA000394640464FF4B1720FF0F8FE4FF4B171E0
:10ABB000384610F099F9236853B93946404640F2B7
:10ABC00063120FF0EBFE40F26311384610F08CF97F
:10ABD00023699E6856B9394640464FF4B3720FF068
:10ABE000DDFE4FF4B371384610F07EF9A38B23F0ED
:10ABF000070343F0050399E7002540F2691239463F
:10AC000040460FF0CBFE40F26911384610F06CF967
:10AC10002E468DE793FA010059FA010071FA0100FE
:10AC20004FF0010A43F00803A38304F1140318460C
:10AC300001930EF0D5FE40B940463149A7220FF0EE
:10AC4000ADFEA7212E4810F04FF98BF31188BFF30A
:10AC50006F8FBAF1000F30D1002D40D116B12046D0
:10AC60002849B0474FF02003EFF3118B83F311888D
:10AC7000BFF36F8F01980EF0A5FE40B94046204902
:10AC80007C220FF08BFE7C211D4810F02DF90198DD
:10AC90000EF0B4FEA38B23F00803A383A38BDA0684
:10ACA00025D5012123F01003A383B4F81CA00AF0DA
:10ACB000070A00297FF49DAE81E6A1680029CBD068
:10ACC000D1F800A04B462046D1F804B0009AD847EE
:10ACD000BAF1000FC0D05146DAF800A0F2E72946D9
:10ACE0004B462046009A2D680FF08EFEB4E713F015
:10ACF00020011EBF23F020030221A383D5E700BF5C
:10AD000093FA010009AD0000F8B504460D4600F1C4
:10AD100014064FF02003EFF3118783F31188BFF37C
:10AD20006F8F30460EF04EFE40B90A490A487C2229
:10AD30000FF034FE7C21074810F0D6F830460EF0B4
:10AD40005DFE3A462046A5610121BDE8F840FFF7C7
:10AD500025BE00BF93FA010059FA01002DE9F04722
:10AD600004460F460FF066FE051E54DB04F114097D
:10AD70004FF02003EFF3118A83F31188BFF36F8F35
:10AD800048460EF01FFE40B9334934487C220FF08C
:10AD900005FE7C21304810F0A7F848460EF02EFE44
:10ADA0004FF6FF71E38BA28B8B4202F007064AD06D
:10ADB000022E1FD135464FF001080133E383484688
:10ADC0000EF00EFE40B924492448A7220FF0E6FDFC
:10ADD000A721214810F088F88AF31188BFF36F8FFC
:10ADE000B8F1000F17D000233246394620460FF045
:10ADF0000BFE10E0930701D0062E0FD100233B601D
:10AE00006368EBB9C4E900773546F6B952460221CA
:10AE10002046FFF7C3FD2846BDE8F087052E17D072
:10AE2000012E0AD00E490D4840F2C5120FF0B6FDB2
:10AE300040F2C5110A4810F057F86FF0040504E01D
:10AE40001F606760E0E76FF00A054FF00008B6E7A3
:10AE50006FF02205F9E700BF93FA010059FA0100EB
:10AE600071FA01002DE9F0410546144EDFF85080DB
:10AE70004FF0FF324FF0FF3328460DF04BFB0446F6
:10AE80000028F5D0476847B9314640461C220FF0EC
:10AE900085FD1C21304610F027F804F10803D3E8A3
:10AEA000EF2F22F00101C3E8E01F0028F7D1D307FC
:10AEB00001D52046B8470EF057FAD9E7B9FA010094
:10AEC00059FA010070B5002939D005680122AB6834
:10AED0002846B3F5004F2CBF082404240C1B641B28
:10AEE000E40821460FF0D2FDC30708D414491548E1
:10AEF0009A220FF053FD9A2111480FF0F5FF2146D9
:10AF000028460FF0D9FD26183146002228460FF0BA
:10AF1000BDFD361AB44208D009490A48A2220FF0F2
:10AF20003DFDA22106480FF0DFFF21462846002202
:10AF30000FF0C8FD2146BDE870400FF005BF70BDA1
:10AF4000DCFA010059FA01002DE9F84301F1FF395B
:10AF500019EA010F80460F461446056808D03149AA
:10AF60003148FC220FF01AFDFC212E480FF0BCFFE7
:10AF7000A868B0F5004F2CBF082304239F4205D8D2
:10AF800021464046BDE8F8430FF020BF1CB900261B
:10AF90003046BDE8F883B0EBD40FF8D93919C91A97
:10AFA0000FF0ACFD014628460FF003FE8046002856
:10AFB000EDD0AB687F42B3F5004F2CBF08230423CC
:10AFC00003EBC0062E444E443E403444F31A07348B
:10AFD0005B1B24F00704641BB0EBD30F4FEAD307CD
:10AFE0004FEAE40408D201463A4628460FF024FE10
:10AFF000414628460FF065FE394628460FF05CFDB5
:10B000003844844208D23946284622460FF014FEBE
:10B01000214628460FF055FE0122394628460FF0FA
:10B0200051FDB5E7DCFA010059FA0100B2F5802FB5
:10B03000F8B507460C4616460ED2042A0AD83D49F2
:10B040003D484FF4B6720FF0A9FC4FF4B671394881
:10B050000FF04AFF042200E00822B61AE51D34442E
:10B0600025F0070524F00704641B172C4FEAD406CB
:10B070000AD83049304840F275120FF08FFC40F288
:10B0800075112C480FF030FF002300223D60C5E908
:10B090000023002331463046AE60EB600FF037FDF1
:10B0A00001218400471C30460FF028FD1B34E408C2
:10B0B0002044B0420AD31F491F4840F281120FF0CA
:10B0C0006DFC40F281111B480FF00EFF0023194662
:10B0D00005F11002BB4228DB2246284600210FF072
:10B0E00009FD371B2846012200210FF0EBFC3A46F0
:10B0F00021460FF0FFFC23460022214628460FF090
:10B10000D0FC314628460FF0F5FC3B463146284638
:10B1100000220FF0C6FC3146284601220FF0D2FC77
:10B120002146BDE8F8400FF0CCBD42F8041B0133C6
:10B13000D0E700BFDCFA010059FA01002DE9F04F19
:10B140008B4692461C46002591B002909AF800006A
:10B1500008B928465FE325280AF1010707D05946B8
:10B16000029B98470028C0F25683013512E218224C
:10B1700000210AA810F067FE9AF80130252B78D03C
:10B1800000229446964616461046394617F8013B6B
:10B190002B2B00F09D8000F29480202B00F09A80F1
:10B1A000232B00F09A8028B19DF8300040F0040075
:10B1B0008DF830002EB19DF8300040F008008DF879
:10B1C0003000BEF1000F05D09DF8300040F01000B7
:10B1D0008DF83000BCF1000F05D09DF8300040F034
:10B1E00020008DF830002AB19DF8302042F0400256
:10B1F0008DF830209DF8302002F04400442803D11F
:10B200006FF386128DF830209DF830202A2B42F003
:10B2100080028DF830207BD19DF831204B1C42F00C
:10B2200001028DF831201A782E2A0CBF012100214D
:10B230009DF8312061F341028DF8312074D15A78A4
:10B240002A2A6AD000210A260133184610F8012B59
:10B25000A2F13007092F40F28E809DF830200E9128
:10B26000C2F3400040EAD17161F341028DF8302011
:10B270005AE00AF102078DF833309DF83130D907D2
:10B2800040F1498154F8049BB9F1000F07DA9DF8A9
:10B290003020C9F1000942F004028DF830205A072D
:10B2A00040F1428154F8048BB8F1000F80F24181E3
:10B2B0009DF831306FF341038DF831304FF0FF3896
:10B2C00037E12D2B0CD0302B7FF46DAF01225CE7E2
:10B2D00001265AE74FF0010E57E74FF0010C54E7F3
:10B2E000012052E733460CFB0202303A1E4616F8A4
:10B2F000010BA0F13007092FF4D9994293D09DF8A2
:10B3000030100D92D20F62F341018DF830108AE7B0
:10B310000B4600224FF00A0CE8E79DF8312002337B
:10B3200042F004028DF831201F4617F8012B6C2AD9
:10B3300041D025D8682A2BD06A2A46D04C2A4CD036
:10B340001F4617F8012B9DF83130782A8DF83320ED
:10B3500000F2D980572A4DD8412A03D0453A022A13
:10B3600000F2D18004229DF8323062F302038DF89E
:10B37000323001239EE006FB01210346303964E7A9
:10B38000742A26D07A2ADBD106229DF831300DE0CE
:10B390005A78682A9DF8312006D1012161F3C6024E
:10B3A0008DF831209F1CCCE71346022262F3C603BE
:10B3B0008DF83130C5E75A786C2A9DF8312001D1DB
:10B3C0000421EBE713460322F0E705229DF8313014
:10B3D000ECE707229DF83130E8E7BDF8303023F480
:10B3E000F04323F0020343F4804343F00203ADF83B
:10B3F0003030A6E7A2F15801202900F2848001A094
:10B4000050F821F0C9B4000007B5000007B50000EE
:10B4100007B5000007B5000007B5000007B500003C
:10B4200007B5000007B5000065B3000007B50000D0
:10B43000C9B4000089B4000065B3000065B3000022
:10B4400065B3000007B5000089B4000007B500002F
:10B4500007B5000007B5000007B50000D1B4000033
:10B46000C9B40000EDB4000007B5000007B5000046
:10B47000EDB4000007B50000C9B4000007B5000036
:10B4800007B50000C9B4000001209DF8321003F098
:10B49000780360F30201402B8DF8321002BF9DF853
:10B4A000301041F001018DF83010632A31D1003B9A
:10B4B00018BF01239DF83020C2F340010B4363F312
:10B4C00041028DF83020D8E602209DF83210DEE7E8
:10B4D00003219DF8322003F07803A3F1400061F3CB
:10B4E000020243428DF832204341E3E703219DF8F5
:10B4F000322013F0780F61F3020214BF01230023FE
:10B500008DF83220D6E79DF8303043F001038DF8F6
:10B5100030300023CEE79DF93020002AACBF4FF039
:10B52000FF39DDF83490BAE69B077FF5C7AEDDF84A
:10B5300038800023CDE90D339DF832309DF831106D
:10B5400003F00703012BC1F3C30138D1CB1E042B39
:10B5500022D8DFE803F003090921210054F8043B55
:10B56000DA17CDE90A3206E0073424F00704F4E8DC
:10B570000223CDE90A239DF8303013F0030656D09C
:10B580003B465246594602980FF098FC0028C0F2FC
:10B5900042810544BA46D9E554F8043B01294FEAF3
:10B5A000E372CDE90A3205D19DF828300A930023D1
:10B5B0000B93E0E70229DED1BDF92830D0E7022B5A
:10B5C00023D1CB1E042B13D8DFE803F0030A0A12A1
:10B5D000120000232268201D0A920B930446CAE73A
:10B5E000E01D20F00700F0E80223CDE90A23F5E78B
:10B5F00054F8043B01290A934FF000030B93D3D076
:10B600000229B8D1BDF82830D0E7042B09D1E31DB9
:10B6100023F0070303F10804D3E90023CDE90A234B
:10B62000A9E7032B04BF54F8043B0A93A3E79DF852
:10B6300033007828AED8622822D825283FF48FAD71
:10B640005828A7D1DDE90A010DF1260300930CAAC1
:10B6500004AB0FF0EDFB8246B8F1000F0DF12600B0
:10B660000CDB9DF83020A0EB0A036FF3861298459F
:10B670008DF8302002D9A8EB03030D9380463DE0FE
:10B680006338152886D801A252F820F00DB70000C3
:10B6900071B7000095B5000095B5000095B50000A4
:10B6A00095B5000071B7000095B5000095B5000094
:10B6B00095B5000095B50000CBB7000099B7000024
:10B6C0009DB7000095B5000095B50000E5B60000F7
:10B6D00095B5000099B7000095B5000095B500003C
:10B6E00099B70000B8F1000FDDF828A00ADB414649
:10B6F000504610F046FB00260AEB0008BAF1000F96
:10B700000CD147E7504610F035FBF4E700260A9BC2
:10B710000DF1100A8DF810300DF11108A8EB0A0395
:10B7200006B101339DF83220D00668D502335206A7
:10B730000D9948BF0E9A0B4448BF9B18B9F1000FF2
:10B7400076DD9DF83020A9EB0309C2F38003039353
:10B7500053076DD4500661D546B159463046029B19
:10B760009847002857DB039B01351E46302356E0DF
:10B770001E070FD413F0100618BF2026DDE90A2398
:10B78000002BBFF65FAF524263EB43032D26CDE99A
:10B790000A2357E72B26F1E7002653E70A9840B320
:10B7A0000DF126030093002104AB0CAA0FF040FB1F
:10B7B000BDF83230824603F0EF0343F4F04343F028
:10B7C00010030026ADF8323046E70A9B07293FF602
:10B7D000E1AEDFE801F00C04060C08080C0C1D704B
:10B7E000D8E61D80D6E6EA17C3E90052D2E61D600E
:10B7F000D0E6DFF8C8A006460AF105088EE7110773
:10B8000048BF013393E7184603935946029B984774
:10B810000028039B04DA11B0BDE8F08F20234D44CB
:10B820004A46002AA5EB090109F1FF39EBDC0D4678
:10B8300036B159463046029B98470028EBDB01356C
:10B840009DF83230D90601D41A0706D55946302062
:10B85000029B98470028DEDB01359DF83230DB067D
:10B8600007D559469DF83300029B98470028D2DB44
:10B8700001350D9E2E44731B002B16DC43465246A9
:10B88000594602980FF01AFB0028C4DB0544A9446E
:10B89000A9EB0503002B7FF77DAE59462020029BC4
:10B8A00098470028B7DB0135F2E759463020029B64
:10B8B00098470028AFDB0135DDE700BFFDFA010046
:10B8C00048B1054B1A68054BB2FBF3F2044B5043E9
:10B8D00043F0010318477047F483002040420F00F3
:10B8E00000E70100014B1970704700BF00000720FE
:10B8F0000020014B1870704700000720014B1868AA
:10B9000012F041B9389A00200A4B13B51868002389
:10B9100082680093146819461A46A047024630B15F
:10B920004521054802B0BDE810400FF037B802B01D
:10B9300010BD00BF289A002007FB01000749D1E88D
:10B94000EF3F43F00102C1E8E02F0028F7D1DB0709
:10B9500003D40348083912F0D7BA7047349A00204C
:10B9600090880020F0B5474B85B002AC06460D46E6
:10B9700093E803004FF4006284E803004FF0FF33C4
:10B98000414942480EF06EF84149424812F02EFB00
:10B990000022414B41492046C3E901121A600BF0D5
:10B9A00037FD044638B1452102463D480EF0F6FF0A
:10B9B000204605B0F0BD3B480BF00AFD044618B127
:10B9C000024645213848F1E73849394801AA11F0C3
:10B9D0005AFE044618B1024645213648E6E7019B67
:10B9E0009A682AB93060452133480EF0D7FFDFE767
:10B9F0000C333360002BF6D030480CF021F8304F78
:10BA0000386030480CF01CF83A6832B945212E48AD
:10BA10000EF0C4FF6FF01204CAE710B945212B489D
:10BA2000F6E7836822465B68294998470FF082FA57
:10BA3000284F386030B9452127480EF0AFFF6FF02E
:10BA40000B04B5E70FF076FA786010B9452123486A
:10BA5000F3E73268224B10215A61224A3F685A604C
:10BA6000042236689A601A620222DE621E4EAA62C0
:10BA70001E4A9984DE61986199811F60AC612A62D7
:10BA8000EB6295E778E6010060EA002090880020EC
:10BA90002AFB0100B08800202C9A0020FDB800008D
:10BAA00035FB0100F08100205DFB01008DFB0100F2
:10BAB00097FB01009FFB0100C1FB0100F2FB0100AD
:10BAC000289A0020F8FB0100FEFB010026FC010083
:10BAD0003DB90000389A00204EFC01007CFC0100BA
:10BAE000C081002000FC072000F8072028E80100A2
:10BAF0002DE9FF410D461B4E07463168284690460A
:10BB000010F048F968B12846F16C10F043F938B1EB
:10BB10002A464521144804B0BDE8F0410EF03EBF6E
:10BB200001204C244443114B04F108000293344497
:10BB300063682A46CDE9008339464FF0FF3330442D
:10BB40000BF032FD034638B12A464521084804B0BF
:10BB5000BDE8F0410EF022BF012384F8483004B064
:10BB6000BDE8F081409A0020B8FC01004FAF010011
:10BB7000E7FC010037B5134D13492846FFF7F2FEE5
:10BB8000044638B14521024610480EF007FF204612
:10BB900003B030BD0E4C4FF47C4220460D4912F0EC
:10BBA0007CF900942B680C4A07490C480BF028FEDE
:10BBB000044618B1024645210948E6E70122094B2F
:10BBC0001A70E4E7D89A0020408900201DFD01008A
:10BBD0006C9B002000040720F1BA0000DC9A0020D2
:10BBE0004AFD010085E5002038B50D4B02461B7863
:10BBF00093B90C4C206848B1E36C33B10A48452135
:10BC00000EF0CCFE6FF00B0038BD01204C234343F7
:10BC1000E518E2506960F7E76FF04300F4E700BF12
:10BC200085E50020409A002069FD01004C22034B6D
:10BC300002FB003393F84800704700BF409A002091
:10BC400037B54C240B4601214443CDE90021054D75
:10BC500028190834D0E90B1228190BF093FC03B013
:10BC600030BD00BF409A0020104B2DE9F0411C6808
:10BC700005460E461746ACB14FF0FF324FF0FF338A
:10BC80000B480CF0FFF963683246D3F80880294668
:10BC90003B462046C047044605480CF0BFFA204604
:10BCA000BDE8F0816FF00104F9E700BF809B002040
:10BCB00050850020002330B585B00546CDE902331C
:10BCC00001904FF0FF334FF0FF320B480CF0DAF9E0
:10BCD0000A4B1C6834B1636820461B6801A9984769
:10BCE0002468F7E7284600F03BF8044602480CF0C9
:10BCF00095FA204605B030BD50850020789B002085
:10BD00001FB5CDE9010103924FF0FF334FF0FF3231
:10BD100009480CF0B7F9094B1C6834B16368204638
:10BD20001B6801A998472468F7E703480CF076FAE6
:10BD3000002004B010BD00BF50850020789B00207B
:10BD40000022024BC3E90022704700BF789B00200D
:10BD50000022024BC3E90022FFF7F2BF849B0020C0
:10BD60002DE9F041064600251F4C204FDFF880806A
:10BD7000BC4208D941461F48F4220EF00FFEF421C0
:10BD800040460FF0B1F8BC4207D31B4B1C680CB106
:10BD9000143CA4B92846BDE8F0811EB9E3684BB94C
:10BDA0001434E5E70022314620680FF0D9F8002866
:10BDB000F4D1F5E79847002D08BF0546F0E736B9FE
:10BDC000E36863B914F1140FE4D06469DFE700227B
:10BDD000314620680FF0C4F80028F1D1F2E7984707
:10BDE000002D08BF0546EDE718E501007CE50100E0
:10BDF000A2FD010059FA0100849B002010B5064CF9
:10BE000023783BB9FFF7A4FF0FF0E3F808B901234B
:10BE1000237010BD0020FCE786E5002010B5044C1F
:10BE20002046FEF793FD204602F0D2FB002010BD15
:10BE300035BE00002DE9F34104460325DFF85880A4
:10BE4000164E8DF807004FF0FF334FF0FF3240469B
:10BE50000CF018F901220DF10701002001F056FC49
:10BE6000074640460CF0DAF92FB101233370204623
:10BE700002B0BDE8F0813378002BF8D0013D08D046
:10BE800012F0AAF80028DED1002142200DF078FB44
:10BE9000D9E73570EBE700BF2885002087E5002053
:10BEA00037B540230C460A490093411A491105460B
:10BEB0002346084A08480FF0A1F8011E05DA284673
:10BEC000234603B0BDE83040184703B030BD00BF83
:10BED0009C9B00206FB001004884002038B5CCB294
:10BEE000032C054608D9094909487E220EF056FD63
:10BEF0007E2106480EF0F8FF0C23E96804FB0314CA
:10BF0000D4F8880000F0070038BD00BFDAFD01005A
:10BF100059FA0100F8B5CCB2032C05461746C6689D
:10BF20000AD91949194840F253120EF037FD40F270
:10BF3000531115480EF0D8FF4FF02003EFF3118195
:10BF400083F31188BFF36F8F0C2202FB0463D3F8D5
:10BF5000883013F0C00301D09F4212D1012300208A
:10BF600002FB0466C6F8883081F31188BFF36F8F37
:10BF700030B90C23696803FB0414636898470020F8
:10BF8000F8BD4FF0FF30EFE7DAFD010059FA01008C
:10BF900070B50D4606490446411A4911402205482C
:10BFA000FFF7B8FF2B4601462046BDE87040184712
:10BFB0009C9B0020488400202DE9F84300220121A9
:10BFC0000646052001F0BEFD052001F09DFD11484B
:10BFD0000AF0AEFE104B984219D10AF0C9FE0024B7
:10BFE0004FF00C080127DFF83490F568494605EB5F
:10BFF00044100EF02EFD002807DB08FB0455013429
:10C00000042CC5F88870F0D10020BDE8F8836FF0EB
:10C010000400FAE759C000000000AD0B90E80100F1
:10C0200001460C2300224B43094870B5C4188833DD
:10C03000D4E920561844C4F880200EF0CCFF2DB16E
:10C0400032462B46BDE870400248184770BD00BF1D
:10C050009C9B00204884002008B5052821D8DFE8F3
:10C0600000F0031120130F0D134BD3F8880010F0CC
:10C0700007001FD1BDE80840FFF7D2BF0220F9E753
:10C080000320F7E70120F5E70C4940F266220C484F
:10C090000EF084FC40F26621BDE8084007480EF02F
:10C0A00023BF064940F26A2205480EF077FC40F2B1
:10C0B0006A21F1E708BD00BF9C9B0020DAFD01006A
:10C0C00059FA010008B54FF02003EFF3118183F313
:10C0D0001188BFF36F8F114A136843F0020013F009
:10C0E000010310600BD00E4AD2F80C34D2F80C24A5
:10C0F00013F0010303D00B480EF06DFF012381F311
:10C100001188BFF36F8F23B1BDE808400020FFF70F
:10C1100087BF0120BDE808400AF04EBE4C9C0020BD
:10C1200000500040249C00207FB500220123CDE96F
:10C13000022304ABCDE90433094A6B46CDF800D0A5
:10C14000CDF804D00EF08CFF002805DB4FF48042C0
:10C15000002368460DF086FA07B05DF804FB00BFC7
:10C16000A5B00100074BD3E8EF2F22F00201C3E88E
:10C17000E01F0028F7D1D30702D401200AF086BEC1
:10C18000704700BF4C9C00202DE9F041012206467B
:10C190004249D1E8EF3FC1E8E02F0028F9D19BB92F
:10C1A0003F4940484B60CB608A60FEF7D7FD0028CE
:10C1B0000ADA3D493D4840F226220EF0EFFB40F2FC
:10C1C000262139480EF090FE86B3731E012B52D8FB
:10C1D000012E06D1364BD3F81C3403F00303022B97
:10C1E00024D011F0F9FE044618B9324B1B78002B0D
:10C1F0004ED14FF02003EFF3118783F31188BFF383
:10C200006F8F01242A4DDFF8B080D5F81834D5F8A7
:10C210001824D2030CD503F00303022B01D0012E06
:10C2200006D124B387F31188BFF36F8FBDE8F08187
:10C23000C4B1384601F0F6FCD5F81835DBB2012B55
:10C24000E3D1D5F80421002ADFD00022C5F804216B
:10C25000D5F804210222C5F818252022C8F880212B
:10C26000AB60D2E7002121200DF08AF9E4E7022338
:10C27000C5F80433DAE70C490C484FF40E720EF09F
:10C280008DFBBDE8F0414FF40E7107480EF02CBE57
:10C290000222074B0746C3F80823B3E7509C00204F
:10C2A0008C9B0020BC9B0020DAFD010059FA0100A4
:10C2B000005000405DEA002000E100E010B500F011
:10C2C00005F9041E06DA2246452107480EF066FBF2
:10C2D000204610BD054803F029FF041EF8DA224667
:10C2E00045210348F2E700BF4CFE01009CE8010035
:10C2F00078FE010010B5027D0446022A0CD0042A03
:10C3000009D0B2B145210C480EF048FB204609F097
:10C31000CFFA002010BD0522114604F1080011F0EB
:10C3200083F8204600F0EEF8021EEFDA45210348BC
:10C33000EAE70122F0E700BFA7FE0100BCFE010012
:10C340002DE9F3418046064618F8010B0D460428F6
:10C3500001F1FF3309D0052874D0022840F09980FC
:10C36000032B4AD845214F4803E0012B06D845212D
:10C370004D4802B0BDE8F0410EF010BB73783E2B83
:10C3800017D1F778022F16D0A7F10D035F425F4156
:10C390000222414601A80FF02BFD9DF80530033D18
:10C3A0009D420AD0452141480EF0F8FA02B0BDE89E
:10C3B000F0810027ECE70127EAE700220023394655
:10C3C0009DF8040002F0DCFA044620B9002FEDD1FC
:10C3D00045213748E8E700F10807022201A938465D
:10C3E00011F045F82A46F11C384611F040F8204675
:10C3F00002B0BDE8F04103F06FBE0022002303202D
:10C4000002F06CFA0446D0B1042241460DEB020062
:10C410000FF0EEFC042204F1080738460DEB020190
:10C4200011F025F8BDF80630053D9D422ED045217E
:10C4300020480EF0B3FA204609F03AFAB6E7452153
:10C440001D4896E7032B02D845211C4891E700229E
:10C45000002302F043FA0446A8B1042241460DEB42
:10C4600002000FF0C5FC042204F1080738460DEB6A
:10C47000020110F0FCFFBDF80630053D9D4205D0DD
:10C4800045210F48D5E745210E4872E72A46711D20
:10C49000AAE7024645210C4802B0BDE8F0410EF083
:10C4A0007DBA00BF49FF0100D9FE0100FFFE010077
:10C4B00028FF01008CFF01006DFF0100B3FF0100A8
:10C4C000F6FF0100D7FF01001D00020008B5084972
:10C4D0000848FFF789FB021E05DA074845210EF0E0
:10C4E0005DFA064808BD064B00201A60FAE700BF57
:10C4F000C1B001004A000200550002002AF8FFFF07
:10C50000549C0020024B828981681868FFF798BB11
:10C51000549C002008B5024B1868FFF787FB08BD44
:10C52000549C002010B5064C0648214617220EF0F8
:10C5300035FA2046BDE8104017210EF0D5BC00BFEB
:10C540009200020059FA0100044A1368C81A20F048
:10C550007F40034413600DF029BD00BF649C0020A0
:10C560002DE9F0474FF480374FF00009860000F1C5
:10C57000500406F18046A40006F5A836A4B204F1E2
:10C580008044D6F84035DFF86C8021F07F4504F513
:10C59000A8348740D8F804A5A3EB0A0323F07F430F
:10C5A0002AF07F42012BC6F8402502D1132011F05A
:10C5B00019FD0AF10202AB1A23F07F43B3F5000F15
:10C5C00088BF1546C4F80090236825F07F43C8F85B
:10C5D0004473C6F84035D8F804359A4506D0EB1AAE
:10C5E000023B23F07F43B3F5000F01D8BDE8F0878D
:10C5F0002B46CFE700500140F8B500252F46104CE0
:10C600002668104B05B1F8BDD3F80423D203FAD540
:10C61000D3F84021002AF6D0C3F84051D3F8402186
:10C620004FF48032C3F848230125D3F8401526B1D2
:10C63000002062682760B047E2E72660E3E700BFBA
:10C64000589C00200050014038B500254FF480333D
:10C650004FF400120C4C0121C4F80855C4F80433FF
:10C660000A4B1520C3F880212A4601F06BFA1520E9
:10C6700001F04AFA0123064AA360022023601360F6
:10C68000FFF782FD284638BD0050014000E100E080
:10C69000609C0020134AB0F1FF3F14BF03461346CD
:10C6A000013B002B1CDD9342A8BF13460E4AD2F873
:10C6B00004050E4A1168401A10F4000F18BF002339
:10C6C00020F07F4201320A4813440A4A10600020D9
:10C6D0005060044A934294BFC9188918FFF740BFBD
:10C6E0000023E3E7FFFF7F0000500140649C00202F
:10C6F00049C50000589C002038B54FF02003EFF3E7
:10C70000118583F31188BFF36F8F15480DF05AF927
:10C7100040B9144914487C220EF040F97C2111489C
:10C720000EF0E2FB0E480DF069F9104B0C48D3F8FF
:10C7300004450F4B1B68E41A24F07F440DF050F9B8
:10C7400040B908490848A7220EF028F9A721054852
:10C750000EF0CAFB85F31188BFF36F8F204638BDFA
:10C76000689C002093FA010059FA01000050014032
:10C77000649C002038B5C51C25F00305742D08D92C
:10C780001749184850220EF009F9502114480EF0AC
:10C79000ABFB154CD4F83C3123B1D4F844312B44D5
:10C7A000742B19D9782104200DF0FCFF78B10023F7
:10C7B000D4F8402103605AB9C4E94F00C4F84431A9
:10C7C000D4F844311A1D1D441044C4F8445138BDF6
:10C7D0001060C4F84001F1E7D4F84001F0E700BF71
:10C7E000FF00020059FA01006C9C0020084800F587
:10C7F0009C73D3E8EF2F42F00202C3E8E12F002937
:10C80000F7D1D0F848311B680BB141681847704721
:10C810006C9C002070B50B4C054620460EF076FC53
:10C820006FF0010104F59C700EF087FCD4F84831DC
:10C830009B682BB1294662682068BDE870401847A4
:10C8400070BD00BF6C9C00202DE9F8431F4C0746CB
:10C85000D4F834310E46222B07D945211C480EF05E
:10C860009DF800252846BDE8F88303681B78022B55
:10C870000DD8184A12F8039006EB0900FFF77AFF6B
:10C88000054658B9452114480EF088F8EAE74521D5
:10C8900012480EF083F84FF00009EDE7D4F8343178
:10C8A00030445A1C0333DB0003F10408C4F834217C
:10C8B000A0441C443B8A4A462381BB7C3968A3724E
:10C8C00060600FF095FA4546CCE700BF6C9C0020F5
:10C8D0002A010200F5020200670102004B0102007A
:10C8E00070B5044630B945210C480EF057F825467E
:10C8F000284670BD0378022B0AD8094AD65C304618
:10C90000FFF738FF3246214605460FF071FAEFE790
:10C91000452104480EF042F80026F0E789010200A4
:10C92000F50202004B0102002DE9F341794E0D465C
:10C930003368834208D0784845210EF02FF86FF015
:10C940000D00FFF767FF31E0137C032B00F0AE8092
:10C950000DD8022B26D140F2B312704970480EF068
:10C960001DF840F2B3116D480EF0BEFA1EE0052B23
:10C97000F1D1002940F08180D6F83431012B79D9EA
:10C98000338C06F10801013333820323337607F039
:10C990004FFE044650B10246452162480DF0FEFFAD
:10C9A0002046CEE721B930460EF0D2FB00244AE003
:10C9B000D1F80C8028460821FFF746FF00244FF4E9
:10C9C00020530746694628688DF80040ADF80230CC
:10C9D0000FF083FAA8B142F60103286801A98DF887
:10C9E0000440ADF806300FF078FA50B14B494C488E
:10C9F00040F217120DF0D2FF40F2171147480EF027
:10CA000073FA37B9484845210DF0C8FF6FF00B00A5
:10CA100097E738460EF0B0FB0546082241460FF076
:10CA2000E7F92868FFF75CFF0446286030B9452124
:10CA30003E480DF0B3FF6FF00B0058E0BB88AA88AA
:10CA4000934204D10124204602B0BDE8F0810521C3
:10CA500000243176013336493068F282B460338283
:10CA600007F0E6FD02460028A0D0452131480DF030
:10CA700095FFE0E7FFF7BAFE98E7002442F60303CC
:10CA8000286801A98DF80440ADF806300FF025FAAA
:10CA900050B908212846FFF7D7FE04460028D1D117
:10CAA00045212A8A2448E2E72146F3E70029E1D01C
:10CAB00000238DF8043042F60303286801A9ADF87D
:10CAC00006300FF00AFA50B1144915484FF4C072FD
:10CAD0000DF064FF4FF4C07110480EF005FA298A7A
:10CAE0000C480EF0F5FA044620B96FF00200FFF78B
:10CAF00091FEA8E7EC680EF05FFB05462146082290
:10CB00000FF076F92868FFF7EBFE0446286000284E
:10CB100098D190E76C9C0020A2010200FF00020067
:10CB200059FA010056020200C9010200F701020091
:10CB3000749C00202A020200860202002DE9F843BC
:10CB400006460F460024DFF84480DFF84490214673
:10CB500030460EF049FB0446A0B10EF02DFB054611
:10CB600050B94146484640F2FB120DF017FF40F223
:10CB7000FB1140460EF0B8F9384629680FF0ADF9C0
:10CB80000028E4D12046BDE8F88300BFFF00020082
:10CB900059FA010070B50546084619B1097811F037
:10CBA000FD0F39D1002A37D01E4C04F59C76D6E80B
:10CBB000EF1F41F0010CC6E8EECFBEF1000FF6D139
:10CBC00011F001012BD1C4E90053C4E94F11C4F89D
:10CBD0004821C4F83411C4F8441108B1FFF780FEAD
:10CBE000114BA060E360012323824FF6FF73E382C1
:10CBF000002328460D49237607F01AFD044648B164
:10CC0000024645210A480DF0C9FE6FF001010948AE
:10CC10000EF093FA204670BD6FF01504FAE76FF03E
:10CC20004404F7E76C9C002029C90000749C002094
:10CC3000C9020200A49D002070B5064C86B001AD6B
:10CC40000FCC0FC52668044C01AD0FCD0FC4266074
:10CC500006B070BD80E60100009E00204FF0C87253
:10CC6000024B0349C3E91712704700BFB89D00206B
:10CC7000180028002DE9F04F294C8BB094F839307A
:10CC8000064600910392002B3CD000273D464B788E
:10CC900094F840B094F838A0019357450ED386F825
:10CCA0004050BBF1000F2BD0AA452BD17378013334
:10CCB0007370012386F83430B37023E04FF000091D
:10CCC000009B039A5B680293164B13F80280019B4A
:10CCD000994505D3BBF1000FE1D101371834DCE7EA
:10CCE000029B424603EB090105A80FF024F9002836
:10CCF000F0D0A16805A80FF0F0F830B1C144E6E724
:10CD0000002DD3D10BB0BDE8F08FA16806EB8502F2
:10CD100001359163EDB2BBF1000FDED1BFE700BF7B
:10CD2000B89D0020040302002DE9F0470378054672
:10CD3000192B0C4612D8012B12D9023B172B0FD8F6
:10CD4000DFE803F079797F7F818131110E0E0E0EBD
:10CD50000E0E0E0E0E0E0E0E0E0E0E56FF2B74D075
:10CD60000120BDE8F0874D4F7B78002BF8D00026DE
:10CD700097F800A090F801805645F1D207EB4619CC
:10CD80004246484669680FF011F850B96378C4F814
:10CD9000189001336370012384F81C802375A370FD
:10CDA000DEE70136E8E73D4EF378002BD8D0B378C4
:10CDB00090F8018003EB4313F718BE42D0D096F8E9
:10CDC0002230434512D806F10209424648466968B6
:10CDD0000EF0ECFF50B96378C4F82490013363700F
:10CDE000012384F8288084F82030D8E72136E4E74E
:10CDF0002A4890F83D30002BB2D0002390F83C60D8
:10CE00006F78B342ACD2022F13D16A6800EB4301B2
:10CE10001288898F52BA92B291420AD11E3300EB26
:10CE20004303A364637801336370012384F84430BF
:10CE3000B5E70133E5E7002229462046FFF71AFF50
:10CE40008EE70122F8E70222F6E7DFF8508098F833
:10CE50003F30002B84D04746002617F83E9F4E45B2
:10CE6000BFF47EAF97F820206B78934213D33846F7
:10CE700069680EF0ACFF70B906EB461627654644AC
:10CE800096F85E3084F85430637801336370012380
:10CE900084F84C3083E701362137E0E7B89D002065
:10CEA000F8B505460E461746084B1C680CB1043C05
:10CEB00004B9F8BD23681B681BB13A4631462846C1
:10CEC0009847231DF5D06468F0E700BF1C9E002042
:10CED00050B100234360054B021D596811B9C3E9E5
:10CEE000002270470A605A60704700BF1C9E0020F5
:10CEF000F8B504460D46002963D04FF0FF324FF0DD
:10CF0000FF3331480BF0BEF8032C06D002D9043CA5
:10CF1000012C53D86FF00B0627E02C4F97F83840C0
:10CF2000012CF7D800239C4217D82B78012B21D055
:10CF3000022B2CD0002B41D1254B04EB4404286854
:10CF400003EBC402111D506043F8341097F83830D9
:10CF50000026013387F8383007E02946B8680EF01C
:10CF6000BCFF012306460028DDD117480BF056F917
:10CF70003046F8BD164A04EB440402EBC403043304
:10CF800095E8030083E8030042F83430DEE7104AF6
:10CF900004EB4404E60002EBC4040434A44605F1A7
:10CFA000100E234628686968083503C375451C467A
:10CFB000F7D12B78237042F806C0C7E76FF015064B
:10CFC000D3E76FF01506D3E73C850020B89D00201D
:10CFD000C09D002010B50C4C4FF0FF324FF0FF33D6
:10CFE00020460BF04FF80022084B1A709A701A7105
:10CFF00083F8382083F83C2083F83E202046BDE8A3
:10D0000010400BF00BB900BF3C850020B89D0020FC
:10D010000022054B5A70DA705A7183F8392083F870
:10D020003D2083F83F207047B89D002008B5830657
:10D0300025D0FFF7EDFF10F0020F18BF0122114BB2
:10D0400018BF5A71C20744BF01225A70C20644BFBA
:10D050000122DA70420744BF012283F83920020717
:10D0600044BF012283F83D20820648BF01224FF0D1
:10D07000000048BF83F83F2083F8401008BD6FF0E0
:10D080001500FBE7B89D002070B50E4686B005463A
:10D090000EF01FF9184B02AC0FCB84E80F002146AD
:10D0A00001AB3046154A04F031FC154B08351C68BD
:10D0B00068B10CB1043C0CB906B070BD23689B6824
:10D0C0000BB128469847221DF6D06468F1E71CB9D9
:10D0D000019804F05DFAEFE7019E043C002CF7D0C4
:10D0E0002368DB6813B1314628469847231DEFD0EB
:10D0F0006468002CF1D1EBE794E60100149E002057
:10D100001C9E00202DE9F04F544C97B05822064643
:10D110000D46684600210EF096FE94F84030627984
:10D120008DF8033000238DF8003012B101238DF803
:10D130000030637823B19DF8003001338DF8003062
:10D14000E37823B19DF8003001338DF8003094F876
:10D15000393023B19DF8003001338DF8003094F858
:10D160003D3023B19DF8003001338DF8003094F844
:10D170003F3023B19DF8003001338DF80030337A11
:10D1800003F001038DF80430EAB14FF00008D6F83F
:10D1900000A094F80490324FC84514D239460722B3
:10D1A00050460EF014FEBB46073700283AD19DF8D2
:10D1B0000130CDF830B001338DF8013001238DF806
:10D1C0002C308DF80230284610F045F907466A46A3
:10D1D00028462449B5F8048002F094FC224BA86844
:10D1E000CDE903359DF8033010FA87F72F60A5F8D5
:10D1F000048002963568C3B19DF801209DF8003087
:10D200009A4216D19DF8042005A902A8FFF748FE0E
:10D2100094F844301BB129466846FFF735FF17B034
:10D22000BDE8F08F08F10108B6E79DF80230002B49
:10D23000E8D10E4B1C68002CF1D09DF80450043C42
:10D24000002CECD023685B6813B1294602A89847EC
:10D25000231DE4D06468002CF1D1E0E7B89D0020E4
:10D26000BC9D002029CD0000149E00201C9E0020A3
:10D2700070B50646144C154803F070FE4422002198
:10D2800020460EF0E0FDBEB13379356884F84430B5
:10D290005DB10FCD48340FC42B682360B2683AB13A
:10D2A0000B4B1068516803C370BDFFF7C5FCF5E771
:10D2B000BDE87040FFF7D2BCFFF7BEFCFFF7CEFC25
:10D2C00084F84460F0E700BFB89D00204882002049
:10D2D000149E002008B1012806D1054B002183F8D7
:10D2E0004800044803F0C0BD6FF01500704700BF50
:10D2F000B89D0020009E0020F8B5176E0D4614461C
:10D30000A2F11C0637B9452114480DF047FB002057
:10D310002066F8BD51B10A46114845210DF03EFB8B
:10D320002A46FF213046236E9847F0E71BB1BDF82F
:10D330001820012A05D06FF02302FF213046B8479C
:10D34000E5E71978642904D9452106480DF026FB44
:10D35000E6E72A4684F86810F0E700BF07030200FA
:10D36000250302003F030200014650F8300C08B5C7
:10D3700028B9BDE8084045210B480DF00FBB0B4B09
:10D3800030310B6001234B600B8C0B8100234B81F0
:10D3900007F0F8FC024628B1BDE8084045210448E2
:10D3A0000DF0FCBA08BD00BF5B030200B5D300005E
:10D3B0007603020038B51446926922B94521264801
:10D3C0000DF0ECFA05E059B30A46244845210DF06A
:10D3D000E5FA04F11403D3E8AF3F9B071ED5A4F18F
:10D3E00030051034D4E8AF3F002B31DDD4E8AF0F67
:10D3F000C11740F2E733C90341EA5041C003C018E6
:10D400004FF47A724FF0000341F10001FBF78EFBFD
:10D4100002460B46124829460CF04AFB002038BD54
:10D420001BB1BDF81010012902D045210D48C7E7F6
:10D430001978642902D945210B48C1E794F82430B2
:10D440008B42C6D084F82410A4F160009047C0E756
:10D4500000200146CDE700BFB00302002503020013
:10D46000E0980020D60302003F03020010B5882296
:10D47000002104460EF0E7FCFF23302284F88430BC
:10D480000021A0180EF0DFFC014B636310BD00BF4C
:10D4900069D300002DE9FF410C4606460DF0A2FEBF
:10D4A0000DF06AFE002300688DF80C3041F60F0382
:10D4B00003A9ADF80E300EF010FD054628B16FF04F
:10D4C0002205284604B0BDE8F08104F130000CF0DC
:10D4D0005FFBFF2384F8843042F619233046C4E909
:10D4E0001E552560C4F8805084F8865001A98DF837
:10D4F0000450ADF80630FFF721FB074630B945214F
:10D5000024480DF04BFA6FF01505DAE70DF054FEE4
:10D51000804650B9204921484FF485720DF03EFAFB
:10D520004FF485711C480DF0DFFC98F806304FF081
:10D53000000884F8853042F619233946304602AA9D
:10D540008DF80880ADF80A300DF099FE10B945212C
:10D550001348D6E783883946A4F8803042F6021390
:10D56000304603AA8DF80C80ADF80E300DF087FE22
:10D5700040B949210B480DF011FA30460DF030FE4C
:10D5800020609EE7012384F886308388A4F88230E7
:10D59000F3E700BFF70302002304020059FA010079
:10D5A0005A0402008C04020038B50446A0B199B1B7
:10D5B000006888B1E56F95B90A4BE167E361012323
:10D5C0002362B4F88030E584A38404F11C0107F0E1
:10D5D000D9FB00B1E56738BD6FF01500FBE76FF0D0
:10D5E0000F00F8E7F9D200004B1E59425941014B98
:10D5F0001970704789E5002010B51C46034B1B6865
:10D600000BB110789847204610BD00BF249E002023
:10D610002DE9FF411F460D4B054658680C4616463E
:10D6200080B1D1F80C808047094B32461870012335
:10D63000CDE90183BDF828302146009328463B46BA
:10D640000FF067FD04B0BDE8F08100BF249E00200C
:10D6500088E5002020B1034B02681A6042685A60D6
:10D6600000207047249E002000B50E4B89B01B7827
:10D670008DF807009BB10021182202A80EF0E3FBF1
:10D68000094B002003930DF107030493012302A922
:10D69000ADF8143006F080FD09B05DF804FB6FF0C2
:10D6A0000C00F9E789E50020D8E80100032310B554
:10D6B000104C114AC4E90433104BA261E3614FF4EA
:10D6C000806322660E4A23626266002310220D499F
:10D6D000E01DA3626362E3622367E3666367A26699
:10D6E0000EF02CFB204608490EF028FB2023A371E6
:10D6F00010BD00BF2C9E0020480502009AE50020C6
:10D700008AE50020510502005505020070B5182475
:10D7100000FB0445144B16461D4404FB0033DC6A31
:10D72000012C0ED0022C18D0E4B928460DF0D5FDFE
:10D73000864204D8324628460DF0D8FD34462046AD
:10D7400070BD28460DF0C9FD8642344628BF044608
:10D75000284622460DF0CAFDF1E72846BDE8704094
:10D760000DF0E0BD0024EAE72C9E00200449431E92
:10D770000F3013F8012F8A5C83421A70F9D1704779
:10D780005C050200F0B50746264E8DB001AD0C4693
:10D790000FCE0FC50FCE0FC596E8070085E807002E
:10D7A0003846002F39D0002C39D0381F0246214688
:10D7B00010344B780D781B0443EA0563CD780431AF
:10D7C0002B4311F8025C8C4243EA052342F8043FE4
:10D7D000EFD10421144C8A07036916D1C3F3074221
:10D7E000A55C1A0EA25C42EA0562C3F30725655DDB
:10D7F000DBB2E35C42EA054242EA03220CAD21F0CF
:10D8000003032B4453F82C3C534050F8042F0131B0
:10D8100053402C290361DED101200DB0F0BD20461C
:10D82000FBE700BFA4E601005C0502002DE9F04F14
:10D83000002703689DB002934368DFF8B8A1039303
:10D840008368DDE902460493C36805930369069380
:10D850004369DDE905E2079383690893C369DDE95C
:10D8600007CB98460993049B0093CD590CAB2DBA76
:10D87000DD515AF8043B043705EB03094FEAF22562
:10D8800085EAB21585EA72654D442BEA020302EA85
:10D890000C0983EA09032B44009DDDF80090434402
:10D8A00075404FEA743888EAB408254006EA090949
:10D8B00085EA090588EAB458A844402F03EB0E0511
:10D8C0004344DDF800E0D84640F085804FF0100A70
:10D8D00049490A9151460AF1010A0DF1700E0AF008
:10D8E0000F070EEB870757F8407C01F00F094FEA4E
:10D8F000B748019788EAF71801F10E0707F00F07FC
:10D900000EEB870757F8407C09314FEAF74E8EEA55
:10D91000774ECDF82CE001F00F010DF1700E0EEBFB
:10D9200089090EEB810151F8401C59F840ECBAF11D
:10D93000400F7144DDF804E088EADE08DDF82CE0F1
:10D9400041448EEA972E0A9F714457F804EB49F838
:10D95000401C4FEAF52905EA02080A9789EAB51939
:10D960002CEA050787EA080789EA75694F44774476
:10D97000394459444FEA733784EA060B0BEA030B28
:10D9800087EAB30704EA060EDDF800808BEA0E0E84
:10D9900087EAB35777448844E3463944009621D157
:10D9A000029F0F44039907601944049B416023447C
:10D9B0008360059B3344C360069B43440361079B1C
:10D9C0002B444361089B13448361099B6344C361F7
:10D9D0001DB0BDE8F08FE3460096944626462A46E1
:10D9E0001C4642E7944626462A461C4645460B46B8
:10D9F00070E700BF28E9010068E9010010B504469E
:10DA0000C8B1702200210DF0CAFC0B4B0B4A0C4927
:10DA1000C4E900230B4B0C48C4E902130B4BC4E9C7
:10DA2000040301200A4BA36103F17453A3F52303FC
:10DA3000A3F69243E36110BD85AE67BB67E6096A52
:10DA400072F36E3C3AF54FA57F520E518C68059BE0
:10DA5000ABD9831F0A4A0B4993680968C3F884004D
:10DA6000C3F8881008494B6843F080534B6000238B
:10DA700083F31188BFF36F8F9368D3F888007047E2
:10DA80007CA200205CEF010000ED00E014498A68F0
:10DA90004FF040001044EFF3098C80E8F01F202085
:10DAA00080F31188BFF36F8F0E4F4FF000668A6AC4
:10DAB0008A603E60D2F884000023C2F8843080F38C
:10DAC000118802F1400090E8F01F8CF3098802F100
:10DAD000000004B50EF0A6F8BDE804407047000051
