:1080000010ED0020BDD8000009B80100EDD8000037
:10801000EDD80000EDD80000EDD80000EDD800004C
:1080200000000000000000000000000085D60000F5
:10803000EDD800000000000029D6000019C00000A3
:108040007DD800007DD800007DD800007DD80000DC
:108050007DD800007DD800007DD800007DD80000CC
:108060007DD800007DD800007DD800007DD80000BC
:108070007DD800007DD800007DD800007DD80000AC
:108080007DD800007DD800007DD800007DD800009C
:108090007DD800007DD800007DD800007DD800008C
:1080A0007DD800007DD800007DD800007DD800007C
:1080B0007DD800007DD800007DD800007DD800006C
:1080C0007DD800007DD800007DD800007DD800005C
:1080D0007DD800007DD800007DD800007DD800004C
:1080E0007DD800007DD800007DD800007DD800003C
:1080F0007DD800007DD800007DD800007DD800002C
:108100007DD800007DD800007DD800007DD800001B
:108110007DD800007DD800007DD800007DD800000B
:108120007DD800007DD800007DD800007DD80000FB
:108130007DD800007DD800007DD800007DD80000EB
:108140007DD800007DD800007DD800007DD80000DB
:108150007DD80000000000000000000000000000CA
:10816000000000000000000000000000000000000F
:1081700000000000000000000000000000000000FF
:1081800000000000000000000000000000000000EF
:1081900000000000000000000000000000000000DF
:1081A00000000000000000000000000000000000CF
:1081B00000000000000000000000000000000000BF
:1081C00000000000000000000000000000000000AF
:1081D000000000000000000000000000000000009F
:1081E000000000000000000000000000000000008F
:1081F000000000000000000000000000000000007F
:10820000DEE61E284CBBCE8F023500003C0000008D
:1082100024B2010001000000008000000080000086
:10822000FFFF0291000000000000000000000000BD
:0C82300000000000000000000000000042
:04823C00FFFFFFFF42
:1082400081F0004102E000BF83F0004330B54FEA07
:1082500041044FEA430594EA050F08BF90EA020F74
:108260001FBF54EA000C55EA020C7FEA645C7FEA07
:10827000655C00F0E2804FEA5454D4EB5555B8BF2A
:108280006D420CDD2C4480EA020281EA030382EA9B
:10829000000083EA010180EA020281EA0303362D2D
:1082A00088BF30BD11F0004F4FEA01314FF4801C00
:1082B0004CEA113102D0404261EB410113F0004F12
:1082C0004FEA03334CEA133302D0524263EB4303C9
:1082D00094EA050F00F0A780A4F10104D5F1200E67
:1082E0000DDB02FA0EFC22FA05F2801841F10001C2
:1082F00003FA0EF2801843FA05F359410EE0A5F196
:1083000020050EF1200E012A03FA0EFC28BF4CF0C6
:10831000020C43FA05F3C01851EBE37101F000457C
:1083200007D54FF0000EDCF1000C7EEB00006EEB89
:108330000101B1F5801F1BD3B1F5001F0CD3490813
:108340005FEA30004FEA3C0C04F101044FEA44526A
:1083500012F5800F80F09A80BCF1004F08BF5FEAF1
:10836000500C50F1000041EB045141EA050130BDD1
:108370005FEA4C0C404141EB0101013C28BFB1F5E3
:10838000801FE9D291F0000F04BF01460020B1FA2E
:1083900081F308BF2033A3F10B03B3F120020CDA01
:1083A0000C3208DD02F1140CC2F10C0201FA0CF0DF
:1083B00021FA02F10CE002F11402D8BFC2F1200C44
:1083C00001FA02F120FA0CFCDCBF41EA0C019040FA
:1083D000E41AA2BF01EB0451294330BD6FEA040443
:1083E0001F3C1CDA0C340EDC04F11404C4F120022E
:1083F00020FA04F001FA02F340EA030021FA04F340
:1084000045EA030130BDC4F10C04C4F1200220FA96
:1084100002F001FA04F340EA0300294630BD21FAD4
:1084200004F0294630BD94F0000F83F4801306BF9A
:1084300081F480110134013D4EE77FEA645C18BF8E
:108440007FEA655C29D094EA050F08BF90EA020F25
:1084500005D054EA000C04BF1946104630BD91EA1D
:10846000030F1EBF0021002030BD5FEA545C05D120
:108470004000494128BF41F0004130BD14F580045F
:108480003CBF01F5801130BD01F0004545F0FE41D3
:1084900041F470014FF0000030BD7FEA645C1ABF08
:1084A000194610467FEA655C1CBF0B46024650EA3F
:1084B000013406BF52EA033591EA030F41F400216B
:1084C00030BD00BF90F0000F04BF0021704730B5F1
:1084D0004FF4806404F132044FF000054FF00001C6
:1084E00050E700BF90F0000F04BF0021704730B587
:1084F0004FF4806404F1320410F0004548BF40425C
:108500004FF000013EE700BF42004FEAE2014FEAB0
:1085100031014FEA02701FBF12F07F4393F07F4F8B
:1085200081F06051704732F07F4208BF704793F08E
:108530007F4F04BF41F40021704730B54FF46074A1
:1085400001F0004521F000411CE700BF50EA0102A4
:1085500008BF704730B54FF000050AE050EA01024D
:1085600008BF704730B511F0004502D5404261EBBD
:1085700041014FF4806404F132045FEA915C3FF4FE
:10858000D8AE4FF003025FEADC0C18BF03325FEA9B
:10859000DC0C18BF033202EBDC02C2F1200300FA4C
:1085A00003FC20FA02F001FA03FE40EA0E0021FA71
:1085B00002F11444BDE600BF70B54FF0FF0C4CF45F
:1085C000E06C1CEA11541DBF1CEA135594EA0C0F11
:1085D00095EA0C0F00F0DEF82C4481EA030621EA4C
:1085E0004C5123EA4C5350EA013518BF52EA033587
:1085F00041F4801143F4801338D0A0FB02CE4FF039
:108600000005E1FB02E506F00042E0FB03E54FF068
:108610000006E1FB03569CF0000F18BF4EF0010E60
:10862000A4F1FF04B6F5007F64F5407404D25FEA5C
:108630004E0E6D4146EB060642EAC62141EA55510F
:108640004FEAC52040EA5E504FEACE2EB4F1FD0C51
:1086500088BFBCF5E06F1ED8BEF1004F08BF5FEACF
:10866000500E50F1000041EB045170BD06F0004681
:1086700046EA010140EA020081EA0301B4EB5C042E
:10868000C2BFD4EB0C0541EA045170BD41F4801126
:108690004FF0000E013C00F3AB8014F1360FDEBF4B
:1086A000002001F0004170BDC4F10004203C35DA27
:1086B0000C341BDC04F11404C4F1200500FA05F3AA
:1086C00020FA04F001FA05F240EA020001F000424B
:1086D00021F0004110EBD37021FA04F642EB0601C1
:1086E0005EEA430E08BF20EAD37070BDC4F10C04EB
:1086F000C4F1200500FA04F320FA05F001FA04F2AF
:1087000040EA020001F0004110EBD37041F100019A
:108710005EEA430E08BF20EAD37070BDC4F12005A5
:1087200000FA05F24EEA020E20FA04F301FA05F20D
:1087300043EA020321FA04F001F0004121FA04F2B5
:1087400020EA020000EBD3705EEA430E08BF20EA85
:10875000D37070BD94F0000F0FD101F000464000BF
:1087600041EB010111F4801F08BF013CF7D041EA41
:10877000060195F0000F18BF704703F00046520045
:1087800043EB030313F4801F08BF013DF7D043EA16
:108790000603704794EA0C0F0CEA135518BF95EACC
:1087A0000C0F0CD050EA410618BF52EA4306D1D153
:1087B00081EA030101F000414FF0000070BD50EA72
:1087C000410606BF1046194652EA430619D094EAFC
:1087D0000C0F02D150EA013613D195EA0C0F05D1E6
:1087E00052EA03361CBF104619460AD181EA03013A
:1087F00001F0004141F0FE4141F470014FF00000F2
:1088000070BD41F0FE4141F4780170BD70B54FF08C
:10881000FF0C4CF4E06C1CEA11541DBF1CEA13550C
:1088200094EA0C0F95EA0C0F00F0A7F8A4EB0504EE
:1088300081EA030E52EA03354FEA013100F08880E5
:108840004FEA03334FF0805545EA131343EA1263AE
:108850004FEA022245EA111545EA10654FEA002663
:108860000EF000419D4208BF964244F1FD0404F51C
:10887000407402D25B084FEA3202B61A65EB030578
:108880005B084FEA32024FF480104FF4002CB6EB35
:10889000020E75EB030E22BFB61A754640EA0C00B5
:1088A0005B084FEA3202B6EB020E75EB030E22BFF5
:1088B000B61A754640EA5C005B084FEA3202B6EB36
:1088C000020E75EB030E22BFB61A754640EA9C00F5
:1088D0005B084FEA3202B6EB020E75EB030E22BFC5
:1088E000B61A754640EADC0055EA060E18D04FEA83
:1088F000051545EA16754FEA06164FEAC30343EA23
:1089000052734FEAC2025FEA1C1CC0D111F4801FEF
:108910000BD141EA00014FF000004FF0004CB6E7E8
:1089200011F4801F04BF01430020B4F1FD0C88BF87
:10893000BCF5E06F3FF6AFAEB5EB030C04BFB6EB92
:10894000020C5FEA500C50F1000041EB045170BD85
:108950000EF0004E4EEA113114EB5C04C2BFD4EBB2
:108960000C0541EA045170BD41F480114FF0000E36
:10897000013C90E645EA060E8DE60CEA135594EAB2
:108980000C0F08BF95EA0C0F3FF43BAF94EA0C0FB5
:108990000AD150EA01347FF434AF95EA0C0F7FF42A
:1089A00025AF104619462CE795EA0C0F06D152EA7E
:1089B00003353FF4FDAE1046194622E750EA410662
:1089C00018BF52EA43067FF4C5AE50EA41047FF473
:1089D0000DAF52EA43057FF4EBAE12E74FF0FF3CD8
:1089E00006E000BF4FF0010C02E000BF4FF0010CA9
:1089F0004DF804CD4FEA410C7FEA6C5C4FEA430C22
:108A000018BF7FEA6C5C1BD001B050EA410C0CBF70
:108A100052EA430C91EA030F02BF90EA020F0020D2
:108A2000704710F1000F91EA030F58BF994208BF39
:108A300090422CBFD8176FEAE37040F001007047F6
:108A40004FEA410C7FEA6C5C02D150EA013C07D14D
:108A50004FEA430C7FEA6C5CD6D152EA033CD3D098
:108A60005DF8040B704700BF8446104662468C4692
:108A70001946634600E000BF01B5FFF7B7FF0028C5
:108A800048BF10F1000F01BD4DF808EDFFF7F4FFEE
:108A90000CBF012000205DF808FB00BF4DF808ED79
:108AA000FFF7EAFF34BF012000205DF808FB00BF9C
:108AB0004DF808EDFFF7E0FF94BF012000205DF8BE
:108AC00008FB00BF4DF808EDFFF7CEFF94BF012073
:108AD00000205DF808FB00BF4DF808EDFFF7C4FF6C
:108AE00034BF012000205DF808FB00BF4A0011D20E
:108AF00012F5001211D20DD56FF47873B3EB6252F8
:108B00000ED44FEAC12343F0004343EA505323FA03
:108B100002F070474FF00000704750EA013002D178
:108B20004FF0FF3070474FF00000704753B94AB91B
:108B3000002908BF00281CBF4FF0FF314FF0FF3065
:108B400000F080B9ADF1080C6DE904CE00F006F834
:108B5000DDF804E0DDE9022304B070472DE9F04FB1
:108B6000099E0D4604460F46002B47D18A42944683
:108B70005FD9B2FA82F343B1C3F120019F4002FAF8
:108B800003FC9C4020FA01F10F434FEA1C451FFAF9
:108B90008CFE220CB7FBF5F105FB117701FB0EF003
:108BA00042EA0742904208D91CEB020201F1FF376A
:108BB00002D2904200F234813946121AA4B2B2FBBA
:108BC000F5F005FB102200FB0EFE44EA0244A64528
:108BD00008D91CEB040400F1FF3202D2A64500F2D2
:108BE0001981104640EA0140A4EB0E0400211EB199
:108BF000DC400023C6E90043BDE8F08F8B4208D972
:108C0000002E00F0FB800021C6E900050846BDE803
:108C1000F08FB3FA83F100294BD1AB42C0F0F18061
:108C2000824240F2EE800846002EE5D0C6E90047B9
:108C3000E2E702B9FFDEB2FA82F3002B40F09D803A
:108C40008D1A4FEA124E97B20121B5FBFEF20EFBD0
:108C50001250250C45EA004507FB02F0A8420FD947
:108C60001CEB050502F1FF382CBF4FF001094FF056
:108C70000009A84203D9B9F1000F00F0CE804246A6
:108C80002D1AA4B2B5FBFEF00EFB105500FB07F742
:108C900044EA0544A74208D91CEB040400F1FF355F
:108CA00002D2A74200F2B3802846E41B40EA024009
:108CB0009DE7C1F120078B4005FA01F422FA07FC79
:108CC000FD408A404CEA030C20FA07F34FEA1C49A6
:108CD0001C431FFA8CFE00FA01F3200CB5FBF9F8D7
:108CE00009FB185540EA054508FB0EF0A8420FD9CC
:108CF0001CEB050508F1FF3A2CBF4FF0010B4FF0BC
:108D0000000BA84203D9BBF1000F00F08C80D046C5
:108D10002D1AA4B2B5FBF9F009FB105500FB0EFEAD
:108D200044EA0545AE4507D91CEB050500F1FF34C3
:108D300001D2AE457ED8204640EA0840A5EB0E059C
:108D4000A0FB029845454C46C64602D306D14B458A
:108D500004D20138B9EB020468EB0C0E002E6FD080
:108D60001A1B65EB0E0522FA01F305FA07F7CD4051
:108D700000211F43C6E900753EE702FA03FCC3F178
:108D8000200001FA03F24FEA1C4EC14024FA00F51C
:108D90001FFA8CF79C401543B1FBFEF02A0C0EFB2A
:108DA000101142EA014200FB07F191420ED91CEB7F
:108DB000020200F1FF382CBF4FF001094FF000090B
:108DC000914202D9B9F1000F31D04046521AADB2EA
:108DD000B2FBFEF10EFB112245EA024501FB07F250
:108DE000AA4207D91CEB050501F1FF3801D2AA42BE
:108DF00023D84146AD1A41EA004126E731463046C4
:108E0000FAE6841A65EB030301201F460CE764446D
:108E100002384AE764440238E4E6023A65442FE740
:108E200002396244C9E6A8F10208654470E70238D5
:108E30006244CBE7023865447EE702396544D9E7EE
:108E40003146D9E6704700BF2DE9F0470546008955
:108E50006B89984247D0B5F800A0B5F80290AAEB0C
:108E60000904A4B2F4B1A0EB03084046FFF73AFBB3
:108E70000022214BFFF7A0FB0022002306460F46ED
:108E8000FFF70CFE38B108F57F40FF308012FFF786
:108E900029FB06460F46CA4507D1D5E90A01FFF767
:108EA00025FE84B22046BDE8F0873C20D5E906893E
:108EB0006043FFF717FB32463B46FFF7A7FC0CA3C6
:108EC000D3E9002306460F4640464946FFF774FBA8
:108ED00002460B4630463946FFF76EFB02460B460C
:108EE000C5E90A23DBE70024DCE700BFAFF300801D
:108EF0006F1283C0CA2109400000503F00000000EB
:108F0000012B2DE9F0410746884614461E4625D11F
:108F100015784B4B28461D70FFF7E4FA2B0603D556
:108F20000022484BFFF792F943A3D3E90023FFF750
:108F300043FB454BC3E900013A46B8F810104348DB
:108F400011F0FCFA0023424F5D1CDBB2B3426CDA35
:108F5000E15C384611F0F2FA2B46F5E7132BEBD122
:108F6000537C3C4AA17C13703B4A022B11700ED0FB
:108F7000032B2ED0012BDFD1384A631E04F11001E0
:108F800013F8010F994202F8010BF9D1D4E7344BE1
:108F90001D780135EDB2012D1D700AD12F4A631ED7
:108FA00004F1100113F8010F8B4202F8010BF9D103
:108FB000C2E7022DC0D12B4A631E04F1100113F841
:108FC000010F8B4202F8010BF9D10022244B1A70D9
:108FD000B2E7234B1D780135EDB2012D1D700AD18A
:108FE0001E4A631E04F1100113F8010F8B4202F8B0
:108FF000010BF9D1A0E7022D0AD11A4A631E04F130
:10900000100113F8010F8B4202F8010BF9D193E71D
:10901000032D91D1144A631E04F1100113F8010FBE
:109020008B4202F8010BF9D1CFE7104811F086FA14
:109030003046BDE8F08100BF52B81E85EB510440B8
:10904000F2C200200000E03F28880020BCF50100AB
:10905000E8F50100F4C20020F3C20020DEC00020C9
:1090600011C10020EFC0002000C10020CB2702006A
:1090700000B5074891B011F061FA684600F020FA97
:1090800001226846114600F0A1FC11B05DF804FB16
:10909000C4EE0100014B1878704700BFD1C000201A
:1090A000014811F04BBA00BFD7EE0100F8B50446F5
:1090B00011F080FE0746214811F040FA2046204971
:1090C00003F0B6FA064620B91E48BDE8F84011F094
:1090D00035BA01461C4A204611F0BBFE08B91B48B0
:1090E000F3E783881A4D314620461A4A2B8111F046
:1090F000B0FE08B91848E8E7184B29462B60012351
:10910000AB81838838466B810BF020FD014688B126
:1091100010F1450F0ED0124811F010FA204611F050
:10912000AAFE014610B10F4811F008FA01220E4BB9
:109130001A70F8BD0D4811F001FAEFE7FFEE0100DB
:109140001CEE010022EF010020EE010052EF0100B1
:1091500028A6002024EE010087EF0100A191000065
:10916000E0EF010009F00100D2C00020FBEF010098
:1091700013B50446084811F0E1F90A238DF80430CC
:10918000064B0122186801A900F024FFFB212046AC
:1091900008F088FA02B010BD38F0010010A60020D7
:1091A00073B51D4603230E4614468DF8003032B9C0
:1091B0001F4811F0C3F92046348102B070BD022D62
:1091C0002DD11C4B1B786BB151781B4B1B4859742C
:1091D0008DF8011011F0B2F9194B2A46694618684A
:1091E00000F0F8FE174A1388B3F5967F1DD10023CF
:1091F0000320138001F0DAF80F4B042283F82200D9
:1092000003238DF805300E4B8DF806000DEB02019F
:1092100018688DF8042000F0DDFE0120CDE72A4615
:109220002146094811F08AF9DCE701331380F4E79D
:109230004CF00100D4C00020F08700205CF0010059
:1092400010A600201CC000207EF00100CB0710B546
:1092500007D5041E18BF0124204603F0D3FF014B9D
:109260001C7010BDD1C0002037B51146664A127877
:109270001AB3664A107818BB654C664B21781B7888
:10928000994202D10123137017E0634D2A780E2A08
:1092900010D844F28103D340DB070BD501F062F80C
:1092A00022785E4B53F8220001F03CF810B9237885
:1092B000013323702B7801332B70012003B030BDB4
:1092C000002BFAD0564C204600F0FEFD00F0ACFE1C
:1092D00000220023FFF7D8FB002846D1514B1A7813
:1092E000002A42D101221A7000F09EFEC4E9060154
:1092F000257C012D56D14B4B1B78C3B14848FFF755
:10930000A3FDA0B16421B0FBF1F18DF80050464DF2
:1093100089B22B688DF801108DF802003BB14348EB
:1093200011F00CF903226946286800F053FE404909
:1093300040480B7813B90278322A25D100230370F4
:1093400001200B7001F032F80422012384F8200080
:109350008DF804208DF80530334B8DF806000DEBA9
:109360000201186800F036FEA7E700F05DFE00225B
:109370000023FFF789FB0028BAD02A4B1A78002A6D
:10938000B6D000221A70B3E72B490B78052B05BF26
:1093900001222A4B01321A700EBF062301330270DC
:1093A0000B708AE7022D88D11E4B1B78B3B11C4885
:1093B00000F0ACFD014688B18DF800501A4D030A4B
:1093C0008DF802302B688DF801003BB11C4811F07C
:1093D000B5F803226946286800F0FCFD1749194AD0
:1093E0000B7813B91378642B0CD10023022013706F
:1093F0000B7000F0DBFF0422022384F821008DF8BB
:109400000420A7E701333EE7D2C00020D4C00020EB
:10941000D9C00020D3C00020DAC0002014A600204C
:10942000F0870020CDC0002010A60020A0F0010091
:1094300080850020D7C00020DBC00020D6C00020DF
:10944000ABF00100D8C00020F0B503788BB0044623
:109450000E46174607AD032B20D8DFE803F00219AC
:109460001B1D1149284612F053FA637839460493BC
:10947000A37830460393E3780C4A02932379059549
:10948000019363790093A37911F065F80BB0F0BDF7
:109490000749E7E70749E5E70749E3E70A212846DF
:1094A000064A11F058F8E0E7BCF00100E5F00100D1
:1094B000C3F00100CAF00100D4F00100DEF00100A9
:1094C00010B504461422002112F0A7FA104B114ADD
:1094D0002360114B92E803006360104B2422A360C9
:1094E0000F4BE36004F1140383E80300002104F14F
:1094F0001C0012F092FA00230A4A2046C2E9003307
:10950000C2E90233084A1370084A137010BD00BF45
:10951000919A000030E40100299D0000CDA30100D4
:10952000D1A3010014A60020CCC00020CBC0002095
:10953000074A084B12781B7822B1002B14BF032076
:1095400001207047002B14BF02200020704700BF8D
:10955000D5C00020CFC0002010B505480DF066F83A
:10956000044618B10146034810F0E8FF204610BD3C
:109570004D92000008F10100012307B50B4900934B
:1095800002220B4B0B4807F09FF8014628B10A480E
:1095900003B05DF804EB10F0D1BF084810F0CEFF27
:1095A000074803B05DF804EB10F0C8BF48E50100C0
:1095B00058E50100C8E4010027F101004DF1010068
:1095C0006FF1010010B50446FFF7B2FF831EDBB256
:1095D000012B2DD80CF0C4FF014620B11548BDE881
:1095E000104010F0ABBFFFF7B7FF014608B11248BB
:1095F000F5E706F0CFFD014608B11048EFE7104847
:1096000010F09CFF204607F023FC11F08CFA04F1C7
:10961000140003F0EDFD014608B10A48DFE700F051
:10962000C7FC01460028F8D1BDE81040FFF7A4BFF1
:1096300010BD00BF8AF10100A5F10100C2F10100D7
:10964000E2F10100F9F10100012008B503F0C6FBC9
:10965000014610B1034810F071FFBDE80840024810
:1096600010F06CBF16F2010038F2010030B589B07D
:1096700000F010FD2E4D03AB14220021287004468B
:10968000184612F0CAF901228DF80C200492294ADA
:10969000294905920022029101920090002C42D0AB
:1096A000264B197841B11A7007F010FA684603F09A
:1096B00063FB234803F088F903F010FA2B78013B91
:1096C000042B25D8DFE803F0030D0F1922001D49F4
:1096D000032003F089F9D8B11B4810F02FFF09B01F
:1096E00030BD1A49F4E71A4B1B78012B01D81949F0
:1096F000EEE7022B0CD11849EAE7154B1B780BB9A2
:109700001649E5E7012B03D11549E1E71549DFE7E4
:109710000021042003F00EFA10B1134810F00EFFE0
:10972000FFF792FFDBE7114907F06CF9D7E700BFBD
:10973000CEC0002060003000E4ED010081850020F3
:1097400070810020ECED010045F20100F0ED010018
:10975000D3C00020F4ED0100F8ED0100FCED0100A4
:1097600000EE010004EE010065F20100DBA3010040
:1097700000B5036889B018681E226946FFF764FEC9
:109780006946044810F0DAFEFFF770FF09B05DF893
:1097900004FB00BF82F20100F7B5554E0446337852
:1097A000002B38D1534902F043FF054670B95248A7
:1097B00010F0C4FE204611F05EFB0146002847D0A1
:1097C0004E4803B0BDE8F04010F0B8BE01464C4A28
:1097D000204611F03EFB08B94A48E9E783884A4F22
:1097E00029462046494A3B8111F033FB0028F3D03B
:1097F000838820467B8111F0DDFA204611F0DAFAE9
:1098000039460BF0A3F9014610B1414810F096FE1D
:10981000204611F030FB3F4C3F48217810F08EFE7F
:109820002278022A30D0032A57D0012A10D13B4B8C
:109830001C78012C0ED10E238DF80430384B2246B3
:10984000186801A900F0C6FB364810F077FE3470A6
:1098500003B0F0BD022C0DD10F238DF80430304B36
:1098600001A9186800F0B6FBFFF700FF2E4810F0C2
:1098700065FEEDE7032CEBD1FFF7F8FE2A4803B0B5
:10988000BDE8F04010F05ABE244B1B78022B13D1D8
:1098900010238DF80430224B0122186801A900F032
:1098A00099FB224810F04AFE012013F0B8FD012375
:1098B0001F4A33701370CBE7032BC9D111238DF8E6
:1098C0000430174B0122186801A900F083FB1748E8
:1098D00010F034FEFFF7CAFEBAE712238DF8043009
:1098E0000F4B0122186801A900F074FB1148D9E759
:1098F000D2C0002010EE0100A5F20100CDF201005F
:1099000014EE0100F8F201005881002018EE010069
:1099100025F30100D3C0002043F30100D0C0002094
:1099200010A6002057F301006CF3010087F301003B
:10993000CBC00020A3F3010010B504461C4810F072
:10994000FDFDFFF7F5FD01280AD003282FD12046A1
:1099500007F07EFAFFF78AFEBDE81040FFF774BEFD
:10996000002006F017FC014620B11248BDE8104067
:1099700010F0E4BD104810F0E1FD0CF0F1FD0146DF
:1099800008B10E48F2E7FFF7E7FD014608B10C48C1
:10999000ECE704F1140003F02BFC014608B1094880
:1099A000E4E711F0C0F8084810F0C8FDCFE710BD9B
:1099B000BEF30100C2F10100CCF301008AF1010005
:1099C000A5F10100F9F10100DDF3010010B4094C2B
:1099D00003462270084C217039B11AB1184610BCE8
:1099E000FFF7F0BD10BCFFF7A7BF002AF6D110BCEF
:1099F000704700BFCFC00020D5C0002008B5034885
:109A000010F09CFDBDE80840FFF71EBEEEF301001C
:109A100010B50A4B0A4C18780A49013800230A4A43
:109A200054F8200002F030FE10F0FF0104D0BDE831
:109A30001040064810F082BD10BD00BFD3C000200A
:109A400014A6002008EE01004081002001F401006E
:109A500010B50A4B0A4C18780A49013800230A4A03
:109A600054F8200002F010FE10F0FF0104D0BDE811
:109A70001040064810F062BD10BD00BFD3C00020EA
:109A800014A600200CEE01004C81002001F401001E
:109A900070B590B00C4601A9054607F0D9FC20B17D
:109AA000314810F04BFD10B070BD9DF80560002EE0
:109AB00036D1284612F03AFA1E2208A9FFF7C4FC54
:109AC0003CB12246294808A910F038FDFFF7BCFD3B
:109AD000E9E7274C08A9274810F030FD28462678EA
:109AE00012F0EBF9244B43F82600284607F01EFB42
:109AF000224A237812780133DBB2013A2370042A18
:109B0000D1D8DFE802F0050503080A00022B04D8CB
:109B1000FFF77EFFC7E7012BFAD0FFF799FFC2E7F7
:109B2000012EC0D124B12146154810F007FDBAE737
:109B3000144810F003FD144B28461E7012F0BDF9B6
:109B4000124B1860284607F0F1FA204613F067FC24
:109B5000FFF7EEFC0328A6D1054B1B78002BA2D102
:109B6000FFF784FD9FE700BF2CF4010052F40100D1
:109B7000D3C0002070F4010014A60020CEC0002045
:109B80007FF401009BF40100CCC0002010A600204F
:109B90002DE9F0418EB0054600F04CFA524B0446D8
:109BA000524E1870002852D00121022831703ED048
:109BB000032842D0884203D101464D4800F040FAC4
:109BC0002B681E22186806A9FFF73EFC2B6812229C
:109BD000186801A9FFF738FC3378002B55D0454CA5
:109BE00011F061F92778444E012F337833D1042BDB
:109BF00035D10122414B1A703D4901A810F0EFFB0D
:109C000090B3DFF8FC8098F800306BB33D4810F05B
:109C100095FC0023227888F800303B4B286803EB42
:109C200082033A496A68006807F03EFC2DE030483C
:109C300000F006FA21463648C0E72D4800F000FA49
:109C40000221334800F0FCF921463248B6E7FFF71D
:109C50000DFD3470B4E7022F01D1032BC8E7337830
:109C6000013B012BC8D8C4E7294901A810F0B7FB74
:109C700020B1DFF8A48098F800304BB9254901A83D
:109C800010F0ADFBC0B9FFF7DFFC0EB0BDE8F0810E
:109C9000012FFAD13378033B012BF6D8194810F085
:109CA0004DFC0023227888F80030174B286803EB1E
:109CB00082031A496A68B6E7194E3378002BE2D05E
:109CC0000E4B1B78002BDED00E4810F037FC002323
:109CD000337011F0E8F822780B4B286803EB82030D
:109CE00010496A689FE700BFD0C00020DCC0002098
:109CF00098C00020D3C00020CEC00020DDC00020CE
:109D00007D850020B7F4010014A60020DCE40100EA
:109D1000A9C00020BAC000207E850020ECE401002C
:109D20007F850020FCE401002DE9F04196B00E464D
:109D300007A9074607F08CFB054628B1524810F0EA
:109D4000FDFB16B0BDE8F0819DF81D40012C0BD144
:109D500031464E4810F0F2FB4D4B28461D7013F073
:109D600061FBFFF709FCECE7002CEAD1384612F062
:109D7000DDF81E220EA9FFF767FB324645480EA903
:109D800010F0DCFB444FDFF814813D78E6B26B1E27
:109D90009E4218DC58F8260012F0C8F802A91222D8
:109DA000FFF752FB02A90EA810F019FB48B158F8B2
:109DB000260007F0BBF9002348F826303B78013B2A
:109DC0003B700134E1E765B9354B01221D700D236D
:109DD0008DF80430334B01A9186800F0FBF8324BC2
:109DE0001D7032490EA810F0FAFAB0B10124002219
:109DF0002F4B20461C702C4B1A7013F013FB2D4B6D
:109E000001A91B78052B0CBF0C220B22254B8DF8CA
:109E100004201868224600F0DDF827490EA810F04B
:109E2000DEFAB8B101240022244B20461C701E4BE0
:109E30001A7013F0F7FA1F4B01A91B78023BA342DB
:109E400094BF0B220C22174B8DF804201868224671
:109E500000F0C0F81A490EA810F0C1FA88B100222B
:109E60000124114B20461A70164B1C7013F0DAFABD
:109E70000C238DF804300B4B2246186801A900F022
:109E8000A9F8FFF7E1FB5CE72CF40100CDF4010039
:109E9000CCC00020F8F40100D3C0002014A600209C
:109EA000CBC0002010A60020D2C0002098C0002007
:109EB0007D850020CEC00020A9C000207E85002026
:109EC000BAC000207F8500200B78012B037404D0DA
:109ED000022B0DD00C4810F031BB0388438003895E
:109EE0004381B1F801300380B1F805300381704738
:109EF0008388C3808389C381B1F801308380B1F83E
:109F000003308381704700BF38F501002DE9F84325
:109F10008589C38904469D422FD0B0F80480B0F8EB
:109F20000690C84529D0ED1A2846FEF7DBFA002234
:109F3000134BFEF741FB0022002306460F46FEF7B7
:109F4000ADFD30B105F57F40FF30FEF7CBFA064698
:109F50000F463C20A8EB090800FB08F0FEF7C2FA08
:109F600032463B46FEF752FC02460B46C4E90C2340
:109F7000FEF7BCFD80B2BDE8F8830020FBE700BF20
:109F80000000503F012904D0022905D031B904480E
:109F900000E0044810F0D2BA0348FBE70348F9E7B1
:109FA0007BF5010046F5010058F501008EF5010032
:109FB00008B5F0220021054811F02FFDF022002104
:109FC000034811F02AFD002008BD00BF12C1002087
:109FD00002C20020002310B586B0039305930D4BF9
:109FE000ADF80C2000930C4B012204930B4B04465C
:109FF000CDE9013119460AF081F848B16946204699
:10A0000009F09AFE10B1064810F098FA06B010BD9B
:10A010000448F9E7A3F6010005A40100ACE501003E
:10A02000EDF5010011F60100014BD3E90001704785
:10A0300028880020014B1878704700BFF4C2002028
:10A0400002290DD0032915D001291CD10E4A431E27
:10A05000103012F8011B03F8011F8342F9D1704739
:10A060000A4A431E103012F8011B03F8011F8342F5
:10A07000F9D17047064A431E103012F8011B03F84D
:10A08000011F8342F9D17047DEC00020EFC00020DD
:10A0900000C10020014B1878704700BFF3C20020B8
:10A0A000014810F04BBA00BFB4F60100014810F0AF
:10A0B00045BA00BFDCF6010010B50446394810F07F
:10A0C0003DFA394B1B78022B2ED0032B4AD0012BA3
:10A0D00014D13649204602F053FF014610B13448EE
:10A0E00010F02CFA314890F8863093B1314902F0E3
:10A0F000D1FF014610B1304810F020FA204610F090
:10A10000BAFE014600284BD0BDE810402B4810F0A5
:10A1100015BA42F21071274A02F0F6FF0028EDD07E
:10A12000274810F00BFAE9E72649204602F028FFFD
:10A13000014610B1244810F001FA224890F8863008
:10A140003BB1224902F0A6FF01460028D6D02048A4
:10A15000D2E742F210711D4A02F0D6FF0028CDD09E
:10A160001C48DEE71C49204602F00AFF014610B1F8
:10A170001A4810F0E3F9184890F886303BB11849B6
:10A1800002F088FF01460028B8D01648B4E742F232
:10A190001071134A02F0B8FF0028AFD01248C0E790
:10A1A00010BD00BFFFEE0100F9C200204089002071
:10A1B00011F70100E5A2000050F7010075F9010058
:10A1C00099F7010030880020D6F70100A5A2000011
:10A1D00017F8010062F80100B8880020A1F801001A
:10A1E00065A20000E5F8010033F9010070B50378BD
:10A1F0008AB004460E4607AD032B20D8DFE803F0F3
:10A2000002191B1D1149284611F082FB63781E219B
:10A210000493A37830460393E3780D4A029323799D
:10A220000595019363790093A37910F094F90AB02E
:10A2300070BD0849E7E70849E5E70849E3E70A216F
:10A240002846074A10F087F9E0E700BFBCF001009C
:10A25000E5F00100C3F00100CAF00100D4F00100F4
:10A26000DEF0010010B50C4688B010F01EFE11F0B3
:10A270005DFE6946FFF7BAFFFF2C07D16946064825
:10A2800010F05CF9054B1C7008B010BD2246694601
:10A29000034810F053F9F5E7ABF90100F6C20020CE
:10A2A000CEF9010010B50C4688B010F0FEFD11F09B
:10A2B0003DFE6946FFF79AFFFF2C07D16946064825
:10A2C00010F03CF9054B1C7008B010BD22466946E1
:10A2D000034810F033F9F5E7ABF90100F5C20020AF
:10A2E000CEF9010010B50C4688B010F0DEFD11F07B
:10A2F0001DFE6946FFF77AFFFF2C07D16946064825
:10A3000010F01CF9054B1C7008B010BD22466946C0
:10A31000034810F013F9F5E7ABF90100F7C200208C
:10A32000CEF9010013B50C4A01A91378013313705B
:10A3300041F60F020023ADF80620084A8DF80430DC
:10A3400002F0A2F9044618B10146054810F0F6F8EB
:10A35000E0B202B010BD00BFF8C20020FC810020B6
:10A36000EFF9010010B50C4C0C4821780131C9B24D
:10A37000217010F0E3F82378022B08D0032B08D0CB
:10A38000012B08D10648BDE8104002F0E5BD0548A4
:10A39000F9E70548F7E710BDF9C2002028FA0100E7
:10A3A0004089002030880020B8880020022806D08C
:10A3B000032806D0012806D1044B18787047044BB7
:10A3C000FBE7044BF9E70020704700BFF7C200200D
:10A3D000F5C20020F6C20020436870B503F0030305
:10A3E000022B04460E46816010D0032B04D0012BB3
:10A3F0000FD10025284601E0056800200023636096
:10A4000010B131460FF054FF284670BD002500689A
:10A41000F4E745220449054810F090F84521024828
:10A4200010F032FB0025E8E74AFA01006DFA01005E
:10A430000B6801330B60014B1B6818470882002032
:10A44000014B1860704700BF0882002007B50B461B
:10A45000002102460191034801A900F0E9FB03B085
:10A460005DF804FB31A4000030B5002585B0CDE9CE
:10A470000101044601A90548039500F0D9FBDDE977
:10A4800002309842B8BF255405B030BD17A5010071
:10A490002DE9F74FB0F81CA004461AF0080F9346B8
:10A4A0001CD001290CBF4AF0100A4AF0200AA0F87B
:10A4B0001CA004F114000FF063F840B992499348CE
:10A4C000A72210F03BF8A7218F4810F0DDFA8BF39C
:10A4D0001188BFF36F8F03B0BDE8F08F8C4FDFF8AA
:10A4E0002C820AF0070A022906D1204610F040F813
:10A4F0000028DED0012863D1D4F81890A38BB9F1DD
:10A50000000F19DA0026256823F00703C4E9006666
:10A5100043F00103A383A38B03F00702524500928B
:10A5200003D0A268002A40F0F58015B9002E00F093
:10A530002F814FF0000AEFE003F00702511F0129BD
:10A5400020D8002123F00703062A25689BB2C4E91E
:10A5500000110AD13DB12946E28B0968013292B25D
:10A560000029FAD1E28343F002032046A3830FF0CF
:10A57000FFFF06460028CED0A38B43F02003A38321
:10A580000026C8E7042A0DD123F007039AB220461B
:10A59000A2830FF0EDFF054680B142F020020025B6
:10A5A000A283EDE740F21912394640460FF0C6FF8C
:10A5B00040F21911384610F067FA00252E46AAE736
:10A5C000032831D1BAF1000F0AD0394640464FF482
:10A5D000AA720FF0B3FF4FF4AA71384610F054FA84
:10A5E000236853B93946404640F255120FF0A6FF92
:10A5F00040F25511384610F047FA23691E6856B9E3
:10A60000394640464FF4AC720FF098FF4FF4AC71EE
:10A61000384610F039FAA38B23F0070343F0060302
:10A620000025A383A94676E704282ED1BAF1020FAC
:10A630000AD03946404640F25B120FF07FFF40F2ED
:10A640005B11384610F020FAE38B53B1394640468F
:10A650004FF4AE720FF072FF4FF4AE71384610F047
:10A6600013FA23695E6856B93946404640F25F12D4
:10A670000FF064FF40F25F11384610F005FAA38B2B
:10A6800023F0070343F00403CAE705282ED1BAF1EB
:10A69000010F0AD0394640464FF4B1720FF04EFF19
:10A6A0004FF4B171384610F0EFF9236853B93946C9
:10A6B000404640F263120FF041FF40F2631138460A
:10A6C00010F0E2F923699E6856B9394640464FF4C6
:10A6D000B3720FF033FF4FF4B371384610F0D4F972
:10A6E000A38B23F0070343F0050399E7002540F20D
:10A6F0006912394640460FF021FF40F26911384691
:10A7000010F0C2F92E468DE7A7FA01006DFA01009C
:10A7100085FA01004FF0010A43F00803A38304F116
:10A720001403184601930EF02BFF40B940463149FF
:10A73000A7220FF003FFA7212E4810F0A5F98BF3F5
:10A740001188BFF36F8FBAF1000F30D1002D40D1C7
:10A7500016B120462849B0474FF02003EFF3118B84
:10A7600083F31188BFF36F8F01980EF0FBFE40B9A1
:10A77000404620497C220FF0E1FE7C211D4810F06C
:10A7800083F901980EF00AFFA38B23F00803A3833B
:10A79000A38BDA0625D5012123F01003A383B4F897
:10A7A0001CA00AF0070A00297FF49DAE81E6A1688B
:10A7B0000029CBD0D1F800A04B462046D1F804B0F8
:10A7C000009AD847BAF1000FC0D05146DAF800A07D
:10A7D000F2E729464B462046009A2D680FF0E4FE2A
:10A7E000B4E713F020011EBF23F020030221A3834E
:10A7F000D5E700BFA7FA0100FDA70000F8B50446A1
:10A800000D4600F114064FF02003EFF3118783F398
:10A810001188BFF36F8F30460EF0A4FE40B90A498D
:10A820000A487C220FF08AFE7C21074810F02CF9A0
:10A8300030460EF0B3FE3A462046A5610121BDE840
:10A84000F840FFF725BE00BFA7FA01006DFA01002E
:10A850002DE9F04704460F460FF0BCFE051E54DB01
:10A8600004F114094FF02003EFF3118A83F31188E8
:10A87000BFF36F8F48460EF075FE40B93349344838
:10A880007C220FF05BFE7C21304810F0FDF848463A
:10A890000EF084FE4FF6FF71E38BA28B8B4202F029
:10A8A00007064AD0022E1FD135464FF0010801336A
:10A8B000E38348460EF064FE40B924492448A722A9
:10A8C0000FF03CFEA721214810F0DEF88AF3118832
:10A8D000BFF36F8FB8F1000F17D00023324639460F
:10A8E00020460FF061FE10E0930701D0062E0FD135
:10A8F00000233B606368EBB9C4E900773546F6B9DD
:10A90000524602212046FFF7C3FD2846BDE8F087E6
:10A91000052E17D0012E0AD00E490D4840F2C5125F
:10A920000FF00CFE40F2C5110A4810F0ADF86FF0C0
:10A93000040504E01F606760E0E76FF00A054FF070
:10A940000008B6E76FF02205F9E700BFA7FA01009B
:10A950006DFA010085FA01002DE9F0410546144E1B
:10A96000DFF850804FF0FF324FF0FF3328460DF0F4
:10A97000A1FB04460028F5D0476847B93146404658
:10A980001C220FF0DBFD1C21304610F07DF804F195
:10A990000803D3E8EF2F22F00101C3E8E01F0028ED
:10A9A000F7D1D30701D52046B8470EF0ADFAD9E765
:10A9B000CDFA01006DFA010070B5002939D00568A3
:10A9C0000122AB682846B3F5004F2CBF08240424AD
:10A9D0000C1B641BE40821460FF028FEC30708D4B3
:10A9E000144915489A220FF0A9FD9A21114810F038
:10A9F0004BF8214628460FF02FFE2618314600223C
:10AA000028460FF013FE361AB44208D009490A4806
:10AA1000A2220FF093FDA221064810F035F821463E
:10AA2000284600220FF01EFE2146BDE870400FF0C0
:10AA30005BBF70BDF0FA01006DFA01002DE9F8432B
:10AA400001F1FF3919EA010F80460F4614460568E7
:10AA500008D031493148FC220FF070FDFC212E480E
:10AA600010F012F8A868B0F5004F2CBF082304239B
:10AA70009F4205D821464046BDE8F8430FF076BF17
:10AA80001CB900263046BDE8F883B0EBD40FF8D9E6
:10AA90003919C91A0FF002FE014628460FF059FE77
:10AAA00080460028EDD0AB687F42B3F5004F2CBF45
:10AAB0000823042303EBC0062E444E443E40344496
:10AAC000F31A07345B1B24F00704641BB0EBD30FAD
:10AAD0004FEAD3074FEAE40408D201463A46284633
:10AAE0000FF07AFE414628460FF0BBFE3946284655
:10AAF0000FF0B2FD3844844208D239462846224637
:10AB00000FF06AFE214628460FF0ABFE01223946BF
:10AB100028460FF0A7FDB5E7F0FA01006DFA010035
:10AB2000B2F5802FF8B507460C4616460ED2042A19
:10AB30000AD83D493D484FF4B6720FF0FFFC4FF480
:10AB4000B67139480FF0A0FF042200E00822B61ABF
:10AB5000E51D344425F0070524F00704641B172C79
:10AB60004FEAD4060AD83049304840F275120FF047
:10AB7000E5FC40F275112C480FF086FF00230022FF
:10AB80003D60C5E90023002331463046AE60EB60EE
:10AB90000FF08DFD01218400471C30460FF07EFD33
:10ABA0001B34E4082044B0420AD31F491F4840F236
:10ABB00081120FF0C3FC40F281111B480FF064FFBB
:10ABC0000023194605F11002BB4228DB2246284625
:10ABD00000210FF05FFD371B2846012200210FF0F6
:10ABE00041FD3A4621460FF055FD234600222146FD
:10ABF00028460FF026FD314628460FF04BFD3B4618
:10AC00003146284600220FF01CFD3146284601221D
:10AC10000FF028FD2146BDE8F8400FF022BE42F8B3
:10AC2000041B0133D0E700BFF0FA01006DFA010008
:10AC30002DE9F04F8B4692461C46002591B00290BC
:10AC40009AF8000008B928465FE325280AF10107B1
:10AC500007D05946029B98470028C0F25683013519
:10AC600012E2182200210AA810F0D7FE9AF801304B
:10AC7000252B78D000229446964616461046394633
:10AC800017F8013B2B2B00F09D8000F29480202BC5
:10AC900000F09A80232B00F09A8028B19DF83000B4
:10ACA00040F004008DF830002EB19DF8300040F0E7
:10ACB00008008DF83000BEF1000F05D09DF830007F
:10ACC00040F010008DF83000BCF1000F05D09DF869
:10ACD000300040F020008DF830002AB19DF830207F
:10ACE00042F040028DF830209DF8302002F0440000
:10ACF000442803D16FF386128DF830209DF8302060
:10AD00002A2B42F080028DF830207BD19DF8312033
:10AD10004B1C42F001028DF831201A782E2A0CBF0C
:10AD2000012100219DF8312061F341028DF831208D
:10AD300074D15A782A2A6AD000210A26013318468B
:10AD400010F8012BA2F13007092F40F28E809DF8F8
:10AD500030200E91C2F3400040EAD17161F341020C
:10AD60008DF830205AE00AF102078DF833309DF853
:10AD70003130D90740F1498154F8049BB9F1000FF3
:10AD800007DA9DF83020C9F1000942F004028DF87D
:10AD900030205A0740F1428154F8048BB8F1000F7B
:10ADA00080F241819DF831306FF341038DF83130ED
:10ADB0004FF0FF3837E12D2B0CD0302B7FF46DAFE7
:10ADC00001225CE701265AE74FF0010E57E74FF0EA
:10ADD000010C54E7012052E733460CFB0202303AE3
:10ADE0001E4616F8010BA0F13007092FF4D999423D
:10ADF00093D09DF830100D92D20F62F341018DF87F
:10AE000030108AE70B4600224FF00A0CE8E79DF865
:10AE10003120023342F004028DF831201F4617F82A
:10AE2000012B6C2A41D025D8682A2BD06A2A46D01B
:10AE30004C2A4CD01F4617F8012B9DF83130782A48
:10AE40008DF8332000F2D980572A4DD8412A03D0FB
:10AE5000453A022A00F2D18004229DF8323062F392
:10AE600002038DF8323001239EE006FB01210346E8
:10AE7000303964E7742A26D07A2ADBD106229DF87D
:10AE800031300DE05A78682A9DF8312006D1012131
:10AE900061F3C6028DF831209F1CCCE713460222D5
:10AEA00062F3C6038DF83130C5E75A786C2A9DF8F5
:10AEB000312001D10421EBE713460322F0E70522FC
:10AEC0009DF83130ECE707229DF83130E8E7BDF816
:10AED000303023F4F04323F0020343F4804343F083
:10AEE0000203ADF83030A6E7A2F15801202900F2A4
:10AEF000848001A050F821F0BDAF0000FBAF00003E
:10AF0000FBAF0000FBAF0000FBAF0000FBAF000099
:10AF1000FBAF0000FBAF0000FBAF000059AE00002C
:10AF2000FBAF0000BDAF00007DAF000059AE0000D8
:10AF300059AE000059AE0000FBAF00007DAF00002D
:10AF4000FBAF0000FBAF0000FBAF0000FBAF000059
:10AF5000C5AF0000BDAF0000E1AF0000FBAF0000D7
:10AF6000FBAF0000E1AF0000FBAF0000BDAF000091
:10AF7000FBAF0000FBAF0000BDAF000001209DF85B
:10AF8000321003F0780360F30201402B8DF8321089
:10AF900002BF9DF8301041F001018DF83010632A96
:10AFA00031D1003B18BF01239DF83020C2F340018E
:10AFB0000B4363F341028DF83020D8E602209DF860
:10AFC0003210DEE703219DF8322003F07803A3F16D
:10AFD000400061F3020243428DF832204341E3E72F
:10AFE00003219DF8322013F0780F61F3020214BFA1
:10AFF000012300238DF83220D6E79DF8303043F04E
:10B0000001038DF830300023CEE79DF93020002A6F
:10B01000ACBF4FF0FF39DDF83490BAE69B077FF5FF
:10B02000C7AEDDF838800023CDE90D339DF832300E
:10B030009DF8311003F00703012BC1F3C30138D190
:10B04000CB1E042B22D8DFE803F0030909212100DD
:10B0500054F8043BDA17CDE90A3206E0073424F04D
:10B060000704F4E80223CDE90A239DF8303013F0F9
:10B07000030656D03B465246594602980FF0EEFC66
:10B080000028C0F242810544BA46D9E554F8043B91
:10B0900001294FEAE372CDE90A3205D19DF8283043
:10B0A0000A9300230B93E0E70229DED1BDF9283093
:10B0B000D0E7022B23D1CB1E042B13D8DFE803F0FB
:10B0C000030A0A12120000232268201D0A920B9321
:10B0D0000446CAE7E01D20F00700F0E80223CDE9AE
:10B0E0000A23F5E754F8043B01290A934FF00003C3
:10B0F0000B93D3D00229B8D1BDF82830D0E7042B68
:10B1000009D1E31D23F0070303F10804D3E9002369
:10B11000CDE90A23A9E7032B04BF54F8043B0A93A3
:10B12000A3E79DF833007828AED8622822D82528D6
:10B130003FF48FAD5828A7D1DDE90A010DF12603B0
:10B1400000930CAA04AB0FF043FC8246B8F1000F49
:10B150000DF126000CDB9DF83020A0EB0A036FF305
:10B16000861298458DF8302002D9A8EB03030D9381
:10B1700080463DE06338152886D801A252F820F0B9
:10B1800001B2000065B2000089B0000089B0000083
:10B1900089B0000089B0000065B2000089B00000ED
:10B1A00089B0000089B0000089B00000BFB2000083
:10B1B0008DB2000091B2000089B0000089B000009B
:10B1C000D9B1000089B000008DB2000089B0000044
:10B1D00089B000008DB20000B8F1000FDDF828A0A2
:10B1E0000ADB4146504610F0B6FB00260AEB000889
:10B1F000BAF1000F0CD147E7504610F0A5FBF4E779
:10B2000000260A9B0DF1100A8DF810300DF111087F
:10B21000A8EB0A0306B101339DF83220D00668D5A9
:10B22000023352060D9948BF0E9A0B4448BF9B1833
:10B23000B9F1000F76DD9DF83020A9EB0309C2F3C8
:10B240008003039353076DD4500661D546B1594628
:10B250003046029B9847002857DB039B01351E466A
:10B26000302356E01E070FD413F0100618BF202617
:10B27000DDE90A23002BBFF65FAF524263EB4303C5
:10B280002D26CDE90A2357E72B26F1E7002653E7C1
:10B290000A9840B30DF126030093002104AB0CAAD9
:10B2A0000FF096FBBDF83230824603F0EF0343F413
:10B2B000F04343F010030026ADF8323046E70A9B16
:10B2C00007293FF6E1AEDFE801F00C04060C0808A0
:10B2D0000C0C1D70D8E61D80D6E6EA17C3E90052B3
:10B2E000D2E61D60D0E6DFF8C8A006460AF10508E0
:10B2F0008EE7110748BF013393E718460393594679
:10B30000029B98470028039B04DA11B0BDE8F08F38
:10B3100020234D444A46002AA5EB090109F1FF39D3
:10B32000EBDC0D4636B159463046029B9847002863
:10B33000EBDB01359DF83230D90601D41A0706D56A
:10B3400059463020029B98470028DEDB01359DF8E6
:10B350003230DB0607D559469DF83300029B9847EB
:10B360000028D2DB01350D9E2E44731B002B16DC0A
:10B3700043465246594602980FF070FB0028C4DB42
:10B380000544A944A9EB0503002B7FF77DAE594680
:10B390002020029B98470028B7DB0135F2E7594689
:10B3A0003020029B98470028AFDB0135DDE700BF66
:10B3B00011FB010048B1054B1A68054BB2FBF3F2D3
:10B3C000044B504343F00103184770473485002075
:10B3D00040420F00C0E40100014B1970704700BFEC
:10B3E000000007200020014B187070470000072064
:10B3F000014B186812F09EBA50A600200A4B13B5F4
:10B400001868002382680093146819461A46A047FA
:10B41000024630B14521054802B0BDE810400FF0AA
:10B420008DB802B010BD00BF40A6002043FB010054
:10B430000749D1E8EF3F43F00102C1E8E02F0028BF
:10B44000F7D1DB0703D40348083912F034BC704746
:10B450004CA60020C8890020F0B5474B85B002AC4F
:10B4600006460D4693E803004FF4006284E80300AB
:10B470004FF0FF33414942480EF0C4F84149424879
:10B4800012F08BFC0022414B41492046C3E90112D6
:10B490001A600BF08DFD044638B1452102463D4847
:10B4A0000FF04CF8204605B0F0BD3B480BF060FDB6
:10B4B000044618B1024645213848F1E73849394871
:10B4C00001AA11F0B7FF044618B1024645213648DB
:10B4D000E6E7019B9A682AB93060452133480FF0AE
:10B4E0002DF8DFE70C333360002BF6D030480CF03A
:10B4F00077F8304F386030480CF072F83A6832B95B
:10B5000045212E480FF01AF86FF01204CAE710B95F
:10B5100045212B48F6E7836822465B68294998470E
:10B520000FF0F2FA284F386030B9452127480FF064
:10B5300005F86FF00B04B5E70FF0E6FA786010B984
:10B5400045212348F3E73268224B10215A61224AF1
:10B550003F685A60042236689A601A620222DE62EC
:10B560001E4EAA621E4A9984DE61986199811F600D
:10B57000AC612A62EB6295E738E40100F8C700206D
:10B58000C889002066FB0100E889002044A600204D
:10B59000F1B3000071FB01004C82002099FB010017
:10B5A000C9FB0100D3FB0100DBFB0100FDFB010037
:10B5B0002EFC010040A6002034FC01003AFC0100F2
:10B5C00062FC010031B4000050A600208AFC01009A
:10B5D000B8FC01001C82002000FC072000F80720B6
:10B5E0004CE601002DE9FF410D461B4E0746316830
:10B5F0002846904610F0B8F968B12846F16C10F072
:10B60000B3F938B12A464521144804B0BDE8F041E9
:10B610000EF094BF01204C244443114B04F1080068
:10B620000293344463682A46CDE9008339464FF0DB
:10B63000FF3330440BF088FD034638B12A464521DC
:10B64000084804B0BDE8F0410EF078BF012384F84B
:10B65000483004B0BDE8F08158A60020F4FC010099
:10B6600023AB010023FD010037B5134D13492846D4
:10B67000FFF7F2FE044638B14521024610480EF0AD
:10B680005DFF204603B030BD0E4C4FF47C42204697
:10B690000D4912F0D9FA00942B680C4A07490C485E
:10B6A0000BF07EFE044618B1024645210948E6E744
:10B6B0000122094B1A70E4E7F0A60020788A0020E6
:10B6C00059FD010084A7002000040720E5B5000013
:10B6D000F4A6002086FD0100FAC2002038B50D4B0B
:10B6E00002461B7893B90C4C206848B1E36C33B127
:10B6F0000A4845210EF022FF6FF00B0038BD0120F3
:10B700004C234343E518E2506960F7E76FF04300CC
:10B71000F4E700BFFAC2002058A60020A5FD0100F2
:10B720004C22034B02FB003393F84800704700BFE4
:10B7300058A6002037B54C240B4601214443CDE9DF
:10B740000021054D28190834D0E90B1228190BF0F7
:10B75000E9FC03B030BD00BF58A60020104B2DE916
:10B76000F0411C6805460E461746ACB14FF0FF325B
:10B770004FF0FF330B480CF055FA63683246D3F8AC
:10B78000088029463B462046C047044605480CF041
:10B7900015FB2046BDE8F0816FF00104F9E700BF1A
:10B7A00098A700208C860020002330B585B0054680
:10B7B000CDE9023301904FF0FF334FF0FF320B48D9
:10B7C0000CF030FA0A4B1C6834B1636820461B68E1
:10B7D00001A998472468F7E7284600F03BF804469B
:10B7E00002480CF0EBFA204605B030BD8C860020F4
:10B7F00090A700201FB5CDE9010103924FF0FF3360
:10B800004FF0FF3209480CF00DFA094B1C6834B1B7
:10B81000636820461B6801A998472468F7E7034836
:10B820000CF0CCFA002004B010BD00BF8C860020C4
:10B8300090A700200022024BC3E90022704700BFFE
:10B8400090A700200022024BC3E90022FFF7F2BFBD
:10B850009CA700202DE9F041064600251F4C204FF3
:10B86000DFF88080BC4208D941461F48F4220EF020
:10B8700065FEF42140460FF007F9BC4207D31B4B8D
:10B880001C680CB1143CA4B92846BDE8F0811EB96F
:10B89000E3684BB91434E5E70022314620680FF025
:10B8A00049F90028F4D1F5E79847002D08BF05466F
:10B8B000F0E736B9E36863B914F1140FE4D06469B2
:10B8C000DFE70022314620680FF034F90028F1D17B
:10B8D000F2E79847002D08BF0546EDE7D0E20100EA
:10B8E00034E30100DEFD01006DFA01009CA7002099
:10B8F00010B5064C23783BB9FFF7A4FF0FF053F9BE
:10B9000008B90123237010BD0020FCE7FBC2002012
:10B9100010B5044C2046FEF793FD204602F026FCAD
:10B92000002010BD29B900002DE9F341044603258C
:10B93000DFF85880164E8DF807004FF0FF334FF0B8
:10B94000FF3240460CF06EF901220DF10701002094
:10B9500001F0AAFC074640460CF030FA2FB1012353
:10B960003370204602B0BDE8F0813378002BF8D068
:10B97000013D08D012F007FA0028DED10021422054
:10B980000DF0CEFBD9E73570EBE700BF64860020F1
:10B99000FCC2002037B540230C460A490093411AE7
:10B9A000491105462346084A08480FF011F9011EBF
:10B9B00005DA2846234603B0BDE83040184703B0F7
:10B9C00030BD00BFB4A7002043AC01008485002037
:10B9D00038B5CCB2032C054608D9094909487E225E
:10B9E0000EF0ACFD7E2106480FF04EF80C23E968FE
:10B9F00004FB0314D4F8880000F0070038BD00BF32
:10BA000016FE01006DFA0100F8B5CCB2032C054614
:10BA10001746C6680AD91949194840F253120EF060
:10BA20008DFD40F2531115480FF02EF84FF0200312
:10BA3000EFF3118183F31188BFF36F8F0C2202FBA8
:10BA40000463D3F8883013F0C00301D09F4212D1B1
:10BA50000123002002FB0466C6F8883081F31188B8
:10BA6000BFF36F8F30B90C23696803FB041463685C
:10BA700098470020F8BD4FF0FF30EFE716FE0100B9
:10BA80006DFA010070B50D4606490446411A491188
:10BA900040220548FFF7B8FF2B4601462046BDE887
:10BAA00070401847B4A70020848500202DE9F84392
:10BAB000002201210646052001F012FE052001F0BA
:10BAC000F1FD11480AF004FF104B984219D10AF019
:10BAD0001FFF00244FF00C080127DFF83490F568B1
:10BAE000494605EB44100EF084FD002807DB08FBF7
:10BAF00004550134042CC5F88870F0D10020BDE84D
:10BB0000F8836FF00400FAE74DBB00000000AD0BB6
:10BB1000B4E6010001460C2300224B43094870B5EE
:10BB2000C4188833D4E920561844C4F880200FF094
:10BB30003CF82DB132462B46BDE87040024818470C
:10BB400070BD00BFB4A700208485002008B505287B
:10BB500021D8DFE800F0031120130F0D134BD3F8A9
:10BB6000880010F007001FD1BDE80840FFF7D2BFE2
:10BB70000220F9E70320F7E70120F5E70C4940F23E
:10BB800066220C480EF0DAFC40F26621BDE808405F
:10BB900007480EF079BF064940F26A2205480EF0C8
:10BBA000CDFC40F26A21F1E708BD00BFB4A7002038
:10BBB00016FE01006DFA010008B54FF02003EFF307
:10BBC000118183F31188BFF36F8F114A136843F01B
:10BBD000020013F0010310600BD00E4AD2F80C34AF
:10BBE000D2F80C2413F0010303D00B480EF0DDFF54
:10BBF000012381F31188BFF36F8F23B1BDE80840A3
:10BC00000020FFF787BF0120BDE808400AF0A4BE6E
:10BC100064A80020005000403CA800207FB500220E
:10BC20000123CDE9022304ABCDE90433094A6B4675
:10BC3000CDF800D0CDF804D00EF0FCFF002805DBD5
:10BC40004FF48042002368460DF0DCFA07B05DF83F
:10BC500004FB00BF79AC0100074BD3E8EF2F22F0C3
:10BC60000201C3E8E01F0028F7D1D30702D4012066
:10BC70000AF0DCBE704700BF64A800202DE9F04147
:10BC8000012206464249D1E8EF3FC1E8E02F0028F3
:10BC9000F9D19BB93F4940484B60CB608A60FEF7C1
:10BCA000D7FD00280ADA3D493D4840F226220EF031
:10BCB00045FC40F2262139480EF0E6FE86B3731E9D
:10BCC000012B52D8012E06D1364BD3F81C3403F089
:10BCD0000303022B24D012F056F8044618B9324B55
:10BCE0001B78002B4ED14FF02003EFF3118783F325
:10BCF0001188BFF36F8F01242A4DDFF8B080D5F88B
:10BD00001834D5F81824D2030CD503F00303022B02
:10BD100001D0012E06D124B387F31188BFF36F8FB2
:10BD2000BDE8F081C4B1384601F04AFDD5F81835B8
:10BD3000DBB2012BE3D1D5F80421002ADFD00022A9
:10BD4000C5F80421D5F804210222C5F818252022BF
:10BD5000C8F88021AB60D2E7002121200DF0E0F986
:10BD6000E4E70223C5F80433DAE70C490C484FF442
:10BD70000E720EF0E3FBBDE8F0414FF40E71074880
:10BD80000EF082BE0222074B0746C3F80823B3E732
:10BD900068A80020A4A70020D4A7002016FE010058
:10BDA0006DFA010000500040F2C7002000E100E001
:10BDB00010B500F005F9041E06DA224645210748B1
:10BDC0000EF0BCFB204610BD054803F07DFF041EAD
:10BDD000F8DA224645210348F2E700BF88FE010059
:10BDE000C0E60100B4FE010010B5027D0446022A3F
:10BDF0000CD0042A09D0B2B145210C480EF09EFBAC
:10BE0000204609F025FB002010BD0522114604F153
:10BE1000080011F0F2F8204600F0EEF8021EEFDA0A
:10BE200045210348EAE70122F0E700BFE3FE0100F5
:10BE3000F8FE01002DE9F3418046064618F8010B93
:10BE40000D46042801F1FF3309D0052874D00228DB
:10BE500040F09980032B4AD845214F4803E0012B3D
:10BE600006D845214D4802B0BDE8F0410EF066BB52
:10BE700073783E2B17D1F778022F16D0A7F10D0358
:10BE80005F425F410222414601A80FF09BFD9DF8F1
:10BE90000530033D9D420AD0452141480EF04EFB3E
:10BEA00002B0BDE8F0810027ECE70127EAE70022B5
:10BEB000002339469DF8040002F030FB044620B907
:10BEC000002FEDD145213748E8E700F108070222AD
:10BED00001A9384611F0B4F82A46F11C384611F091
:10BEE000AFF8204602B0BDE8F04103F0C3BE002227
:10BEF0000023032002F0C0FA0446D0B104224146D8
:10BF00000DEB02000FF05EFD042204F10807384635
:10BF10000DEB020111F094F8BDF80630053D9D428D
:10BF20002ED0452120480EF009FB204609F090FA5A
:10BF3000B6E745211D4896E7032B02D845211C484A
:10BF400091E70022002302F097FA0446A8B10422E8
:10BF500041460DEB02000FF035FD042204F1080705
:10BF600038460DEB020111F06BF8BDF80630053DC7
:10BF70009D4205D045210F48D5E745210E4872E77F
:10BF80002A46711DAAE7024645210C4802B0BDE8C9
:10BF9000F0410EF0D3BA00BF85FF010015FF01008C
:10BFA0003BFF010064FF0100C8FF0100A9FF010081
:10BFB000EFFF0100320002001300020059000200EE
:10BFC00008B508490848FFF789FB021E05DA07484B
:10BFD00045210EF0B3FA064808BD064B00201A6052
:10BFE000FAE700BF95AC0100860002009100020054
:10BFF0002AF8FFFF6CA80020024B8289816818682C
:10C00000FFF798BB6CA8002008B5024B1868FFF733
:10C0100087FB08BD6CA8002010B5064C06482146D9
:10C0200017220EF08BFA2046BDE8104017210EF0C3
:10C030002BBD00BFCE0002006DFA0100044A136858
:10C04000C81A20F07F40034413600DF07FBD00BF8D
:10C050007CA800202DE9F0474FF480374FF000090D
:10C06000860000F1500406F18046A40006F5A836CB
:10C07000A4B204F18044D6F84035DFF86C8021F09A
:10C080007F4504F5A8348740D8F804A5A3EB0A033C
:10C0900023F07F432AF07F42012BC6F8402502D1CE
:10C0A000132011F076FE0AF10202AB1A23F07F434F
:10C0B000B3F5000F88BF1546C4F80090236825F03B
:10C0C0007F43C8F84473C6F84035D8F804359A451C
:10C0D00006D0EB1A023B23F07F43B3F5000F01D8E3
:10C0E000BDE8F0872B46CFE700500140F8B50025AA
:10C0F0002F46104C2668104B05B1F8BDD3F8042329
:10C10000D203FAD5D3F84021002AF6D0C3F8405123
:10C11000D3F840214FF48032C3F848230125D3F8E7
:10C12000401526B1002062682760B047E2E726602C
:10C13000E3E700BF70A800200050014038B500259B
:10C140004FF480334FF400120C4C0121C4F8085511
:10C15000C4F804330A4B1520C3F880212A4601F0A5
:10C16000BFFA152001F09EFA0123064AA3600220BF
:10C1700023601360FFF782FD284638BD0050014060
:10C1800000E100E078A80020134AB0F1FF3F14BF9F
:10C1900003461346013B002B1CDD9342A8BF134608
:10C1A0000E4AD2F804050E4A1168401A10F4000F26
:10C1B00018BF002320F07F4201320A4813440A4A84
:10C1C000106000205060044A934294BFC918891837
:10C1D000FFF740BF0023E3E7FFFF7F00005001406F
:10C1E0007CA800203DC0000070A8002038B54FF0AA
:10C1F0002003EFF3118583F31188BFF36F8F154888
:10C200000DF0B0F940B9144914487C220EF096F9AB
:10C210007C2111480EF038FC0E480DF0BFF9104B90
:10C220000C48D3F804450F4B1B68E41A24F07F44F4
:10C230000DF0A6F940B908490848A7220EF07EF98A
:10C24000A72105480EF020FC85F31188BFF36F8FFE
:10C25000204638BD80A80020A7FA01006DFA010031
:10C26000005001407CA8002038B5C51C25F003050E
:10C27000742D08D91749184850220EF05FF9502143
:10C2800014480EF001FC154CD4F83C3123B1D4F81D
:10C2900044312B44742B19D9782104200EF052F824
:10C2A00078B10023D4F8402103605AB9C4E94F00A3
:10C2B000C4F84431D4F844311A1D1D441044C4F864
:10C2C000445138BD1060C4F84001F1E7D4F8400192
:10C2D000F0E700BF3B0102006DFA010084A80020D6
:10C2E000084800F59C73D3E8EF2F42F00202C3E840
:10C2F000E12F0029F7D1D0F848311B680BB1416814
:10C300001847704784A8002070B50B4C054620469E
:10C310000EF0E6FC6FF0010104F59C700EF0F7FCE6
:10C32000D4F848319B682BB1294662682068BDE883
:10C330007040184770BD00BF84A800202DE9F84365
:10C340001F4C0746D4F834310E46222B07D945211D
:10C350001C480EF0F3F800252846BDE8F883036872
:10C360001B78022B0DD8184A12F8039006EB09002F
:10C37000FFF77AFF054658B9452114480EF0DEF85C
:10C38000EAE7452112480EF0D9F84FF00009EDE731
:10C39000D4F8343130445A1C0333DB0003F1040871
:10C3A000C4F83421A0441C443B8A4A462381BB7C08
:10C3B0003968A37260600FF005FB4546CCE700BF0B
:10C3C00084A800206601020031030200A3010200DC
:10C3D0008701020070B5044630B945210C480EF0C3
:10C3E000ADF82546284670BD0378022B0AD8094AC5
:10C3F000D65C3046FFF738FF3246214605460FF03F
:10C40000E1FAEFE7452104480EF098F80026F0E73E
:10C41000C501020031030200870102002DE9F3414A
:10C42000794E0D463368834208D0784845210EF096
:10C4300085F86FF00D00FFF767FF31E0137C032BE9
:10C4400000F0AE800DD8022B26D140F2B312704915
:10C4500070480EF073F840F2B3116D480EF014FB03
:10C460001EE0052BF1D1002940F08180D6F834314F
:10C47000012B79D9338C06F1080101333382032370
:10C48000337607F0A5FE044650B1024645216248C6
:10C490000EF054F82046CEE721B930460EF042FCAB
:10C4A00000244AE0D1F80C8028460821FFF746FF17
:10C4B00000244FF420530746694628688DF8004051
:10C4C000ADF802300FF0F3FAA8B142F60103286884
:10C4D00001A98DF80440ADF806300FF0E8FA50B12C
:10C4E0004B494C4840F217120EF028F840F2171151
:10C4F00047480EF0C9FA37B9484845210EF01EF8F2
:10C500006FF00B0097E738460EF020FC0546082236
:10C5100041460FF057FA2868FFF75CFF0446286091
:10C5200030B945213E480EF009F86FF00B0058E095
:10C53000BB88AA88934204D10124204602B0BDE8FA
:10C54000F081052100243176013336493068F282CA
:10C55000B460338207F03CFE02460028A0D045219B
:10C5600031480DF0EBFFE0E7FFF7BAFE98E7002453
:10C5700042F60303286801A98DF80440ADF806309F
:10C580000FF095FA50B908212846FFF7D7FE044668
:10C590000028D1D145212A8A2448E2E72146F3E741
:10C5A0000029E1D000238DF8043042F60303286807
:10C5B00001A9ADF806300FF07AFA50B114491548C8
:10C5C0004FF4C0720DF0BAFF4FF4C07110480EF076
:10C5D0005BFA298A0C480EF065FB044620B96FF01F
:10C5E0000200FFF791FEA8E7EC680EF0CFFB0546CE
:10C5F000214608220FF0E6F92868FFF7EBFE044613
:10C600002860002898D190E784A80020DE0102006D
:10C610003B0102006DFA01009202020005020200D5
:10C62000330202008CA8002066020200C20202004F
:10C630002DE9F84306460F460024DFF84480DFF872
:10C640004490214630460EF0B9FB0446A0B10EF0EE
:10C650009DFB054650B94146484640F2FB120DF09D
:10C660006DFF40F2FB1140460EF00EFA3846296885
:10C670000FF01DFA0028E4D12046BDE8F88300BF82
:10C680003B0102006DFA010070B50546084619B17C
:10C69000097811F0FD0F39D1002A37D01E4C04F56E
:10C6A0009C76D6E8EF1F41F0010CC6E8EECFBEF154
:10C6B000000FF6D111F001012BD1C4E90053C4E9F8
:10C6C0004F11C4F84821C4F83411C4F8441108B11A
:10C6D000FFF780FE114BA060E360012323824FF639
:10C6E000FF73E382002328460D49237607F070FD8F
:10C6F000044648B1024645210A480DF01FFF6FF07D
:10C70000010109480EF003FB204670BD6FF01504CF
:10C71000FAE76FF04404F7E784A800201DC4000086
:10C720008CA8002005030200BCA9002070B5064CAF
:10C7300086B001AD0FCC0FC52668044C01AD0FCDFE
:10C740000FC4266006B070BD40E4010030AA00208E
:10C750004FF0C872024B0349C3E91D12704700BF76
:10C76000D0A90020180028002DE9F04F294C8BB0EB
:10C7700094F85130064600910392002B3CD00027DC
:10C780003D464B7894F858B094F850A00193574523
:10C790000ED386F84450BBF1000F2BD0AA452BD105
:10C7A000737801337370012386F83430B37023E05B
:10C7B0004FF00009009B039A5B680293164B13F835
:10C7C0000280019B994505D3BBF1000FE1D10137F0
:10C7D0001834DCE7029B424603EB090105A80FF081
:10C7E00094F90028F0D0A16805A80FF060F930B1E5
:10C7F000C144E6E7002DD3D10BB0BDE8F08FA168AE
:10C8000006EB850201359163EDB2BBF1000FDED17D
:10C81000BFE700BFD0A90020400302002DE9F04788
:10C8200003780546192B0C4612D8012B12D9023B6E
:10C83000172B0FD8DFE803F07A7A808082823111DB
:10C840000E0E0E0E0E0E0E0E0E0E0E0E0E0E0E56C0
:10C85000FF2B75D00120BDE8F0874E4F7B78002B71
:10C86000F8D0002697F800A090F801805645F1D244
:10C8700007EB46194246484669680FF081F850B9FF
:10C880006378C4F8189001336370012384F81C8026
:10C890002375A370DEE70136E8E73E4EF378002B00
:10C8A000D8D0B37890F8018003EB4313F718BE4259
:10C8B000D0D096F82230434512D806F102094246FC
:10C8C000484669680FF05CF850B96378C4F8249062
:10C8D00001336370012384F8288084F82030D8E77E
:10C8E0002136E4E72B4890F85530002BB2D00023D6
:10C8F00090F854606F78B342ACD2022F14D16A68BA
:10C9000000EB43011288B1F8541052BA92B291422E
:10C910000AD12A3300EB4303E36463780133637085
:10C92000012384F84830B4E70133E4E700222946C4
:10C930002046FFF719FF8DE70122F8E70222F6E70C
:10C94000DFF8508098F85730002B83D047460026F8
:10C9500017F8569F4E45BFF47DAF97F820206B78AF
:10C96000934213D3384669680FF01BF870B906EB91
:10C9700046166765464496F8763084F858306378F2
:10C9800001336370012384F8503082E70136213788
:10C99000E0E700BFD0A90020F8B505460E461746CF
:10C9A000084B1C680CB1043C04B9F8BD23681B6833
:10C9B0001BB13A46314628469847231DF5D0646896
:10C9C000F0E700BF4CAA002050B100234360054BA4
:10C9D000021D596811B9C3E9002270470A605A6004
:10C9E000704700BF4CAA00202DE9F84304460D46CD
:10C9F00000296AD04FF0FF324FF0FF3334480BF07C
:10CA000011F9032C06D002D9043C012C5AD86FF03E
:10CA10000B0620E02F4F97F85040022CF7D8B9466C
:10CA20004FF00008A0451CD32B78012B26D0022BF9
:10CA300031D0002B46D1284B04EB4404286803EB8B
:10CA4000C402111D506043F83410002697F850308E
:10CA5000013387F850301E480BF0B0F93046BDE87E
:10CA6000F883D9F8080029460FF021F809F11809D0
:10CA700006460028EFD008F10108D3E7164A04EB78
:10CA8000440402EBC403043395E8030083E8030085
:10CA900042F83430D9E7104A04EB4404E60002EBD4
:10CAA000C4040434A44605F1100E234628686968BE
:10CAB000083503C375451C46F7D12B78237042F81F
:10CAC00006C0C2E76FF01506C5E76FF01506C5E7AB
:10CAD00078860020D0A90020D8A9002010B50C4CE1
:10CAE0004FF0FF324FF0FF3320460BF09BF800224F
:10CAF000084B1A709A701A7183F8502083F85420EA
:10CB000083F856202046BDE810400BF057B900BF0F
:10CB100078860020D0A900200022054B5A70DA70D8
:10CB20005A7183F8512083F8552083F857207047B5
:10CB3000D0A9002008B5830625D0FFF7EDFF10F03F
:10CB4000020F18BF0122114B18BF5A71C20744BF10
:10CB500001225A70C20644BF0122DA70420744BF64
:10CB6000012283F85120020744BF012283F8552097
:10CB7000820648BF01224FF0000048BF83F85720CB
:10CB800083F8581008BD6FF01500FBE7D0A900200E
:10CB900070B50E4686B005460EF085F9184B02AC0E
:10CBA0000FCB84E80F00214601AB3046154A04F054
:10CBB0007BFC154B08351C6868B10CB1043C0CB902
:10CBC00006B070BD23689B680BB128469847221DAC
:10CBD000F6D06468F1E71CB9019804F0A7FAEFE712
:10CBE000019E043C002CF7D02368DB6813B131466A
:10CBF00028469847231DEFD06468002CF1D1EBE75D
:10CC000054E4010044AA00204CAA00202DE9F04F72
:10CC1000544C99B05C2206460D4601A800210EF046
:10CC2000FCFE94F8583062798DF8073000238DF8B7
:10CC3000043012B101238DF80430637823B19DF8DC
:10CC4000043001338DF80430E37823B19DF80430CB
:10CC500001338DF8043094F8513023B19DF804303D
:10CC600001338DF8043094F8553023B19DF8043029
:10CC700001338DF8043094F8573023B19DF8043017
:10CC800001338DF80430337A03F001038DF8083056
:10CC9000EAB14FF00008D6F800A094F80490324FA3
:10CCA000C84514D23946072250460EF07AFEBB46DC
:10CCB000073700283AD19DF80530CDF834B001335C
:10CCC0008DF8053001238DF830308DF80630284678
:10CCD00010F0AAF907462549284601AAB5F80480AC
:10CCE00002F0DEFC224BA868CDE904359DF8073040
:10CCF00010FA87F72F60A5F8048003963568C3B152
:10CD00009DF805209DF804309A4216D19DF8082020
:10CD100006A903A8FFF740FE94F85C301BB1294632
:10CD200001A8FFF735FF19B0BDE8F08F08F1010841
:10CD3000B6E79DF80630002BE8D10E4B1C68002C9E
:10CD4000F1D09DF80850043C002CECD023685B68BF
:10CD500013B1294603A89847231DE4D06468002C2A
:10CD6000F1D1E0E7D0A90020D4A900201DC800001F
:10CD700044AA00204CAA002070B50646144C154861
:10CD800003F0BAFE5C22002120460EF046FEBEB142
:10CD90003379356884F85C305DB10FCD60340FC4F1
:10CDA0002B682360B2683AB10B4B1068516803C31B
:10CDB00070BDFFF7BBFCF5E7BDE87040FFF7C8BCEE
:10CDC000FFF7B4FCFFF7C4FC84F85C60F0E700BF39
:10CDD000D0A90020A482002044AA002008B1012884
:10CDE00006D1054B002183F86000044803F00ABE19
:10CDF0006FF01500704700BFD0A9002030AA0020B6
:10CE000070B50D461C460E1F02B153B949210E489C
:10CE10000DF094FB6B6F13B1FF2130469847002053
:10CE200070BD012B02D045210848F1E71178642933
:10CE300002D945210648EBE76B6F85F880100BB1EE
:10CE4000304698472046EBE74303020060030200A8
:10CE500089030200014650F8300C08B528B9BDE836
:10CE6000084045210B480DF069BB0B4B30310B607E
:10CE700001234B600B8C0B8100234B8107F052FD8B
:10CE8000024628B1BDE80840452104480DF056BBD4
:10CE900008BD00BF01040200A1CE00001C04020076
:10CEA00038B51446926922B9452126480DF046FB53
:10CEB00005E059B30A46244845210DF03FFB04F133
:10CEC0001403D3E8AF3F9B071ED5A4F130051034FF
:10CED000D4E8AF3F002B31DDD4E8AF0FC11740F2EB
:10CEE000E733C90341EA5041C003C0184FF47A72D6
:10CEF0004FF0000341F10001FBF718FE02460B461C
:10CF0000124829460CF0A4FB002038BD1BB1BDF827
:10CF10001010012902D045210D48C7E7197864296E
:10CF200002D945210B48C1E794F824308B42C6D082
:10CF300084F82410A4F160009047C0E70020014667
:10CF4000CDE700BF56040200CB03020058A5002025
:10CF50007C040200E503020010B58822002104468B
:10CF60000EF05BFDFF23302284F884300021A018EE
:10CF70000EF053FD014B636310BD00BF55CE0000A2
:10CF80002DE9FF410C4606460DF016FF0DF0DEFEC2
:10CF9000002300688DF80C3041F60F0303A9ADF8AB
:10CFA0000E300EF084FD054628B16FF022052846AC
:10CFB00004B0BDE8F08104F130000CF0B9FBFF23B0
:10CFC00084F8843042F619233046C4E91E552560A2
:10CFD000C4F8805084F8865001A98DF80450ADF84B
:10CFE0000630FFF725FB074630B9452124480DF0F0
:10CFF000A5FA6FF01505DAE70DF0C8FE804650B9C6
:10D00000204921484FF485720DF098FA4FF485714C
:10D010001C480DF039FD98F806304FF0000884F8F0
:10D02000853042F619233946304602AA8DF8088029
:10D03000ADF80A300DF00DFF10B945211348D6E7C1
:10D0400083883946A4F8803042F60213304603AA9A
:10D050008DF80C80ADF80E300DF0FBFE40B9492183
:10D060000B480DF06BFA30460DF0A4FE20609EE7F1
:10D07000012384F886308388A4F88230F3E700BF68
:10D080009D040200C90402006DFA010000050200BF
:10D090003205020070B5044640B339B303682BB3C0
:10D0A00090F88530DB0624D5866F2EBB144B816744
:10D0B000436001230382D0F88030C36000F1140381
:10D0C000D3E8EF2F42F00102C3E8E12F0029F7D1A6
:10D0D0002068211D07F03AFD054628B1024645218A
:10D0E00008480DF02BFAA667284670BD6FF01505AD
:10D0F000FAE76FF02205F7E76FF04405F4E700BFA9
:10D1000001CE000087050200F8B5054680B37AB36A
:10D1100090F8860078BBAA6705F17003D3E8EF2F7B
:10D12000C3E8E41F002CF9D105F17403D3E8EF4FF5
:10D1300044F00202C3E8E62F002EF7D114F00204F7
:10D140001CD121EAE1764FF4004740F2E730214656
:10D150004FF47A720023C6FB0701FBF7E7FC024697
:10D160000B46074805F130010CF072FA2046F8BD75
:10D170006FF01504FAE76FF02204F7E70446F5E7CD
:10D1800058A500204B1E59425941014B1970704758
:10D19000FEC2002010B51C46034B1B680BB1107873
:10D1A0009847204610BD00BF54AA00202DE9FF413A
:10D1B0001F460D4B054658680C46164680B1D1F8FF
:10D1C0000C808047094B324618700123CDE901835A
:10D1D000BDF828302146009328463B460FF082FDDB
:10D1E00004B0BDE8F08100BF54AA0020FDC20020B9
:10D1F00020B1034B02681A6042685A6000207047F1
:10D2000054AA002000B50E4B89B01B788DF807009A
:10D210009BB10021182202A80EF0FFFB094B002051
:10D2200003930DF107030493012302A9ADF8143011
:10D2300006F082FD09B05DF804FB6FF00C00F9E721
:10D24000FEC20020FCE60100032310B5104C114A79
:10D25000C4E90433104BA261E3614FF4806322669A
:10D260000E4A23626266002310220D49E01DA3626C
:10D270006362E3622367E3666367A2660EF048FBBE
:10D28000204608490EF044FB2023A37110BD00BFC7
:10D290005CAA00201C0602000FC30020FFC2002071
:10D2A000250602002906020070B5182400FB04457B
:10D2B000144B16461D4404FB0033DC6A012C0ED0CF
:10D2C000022C18D0E4B928460DF0F1FD864204D8AE
:10D2D000324628460DF0F4FD3446204670BD2846FF
:10D2E0000DF0E5FD8642344628BF04462846224616
:10D2F0000DF0E6FDF1E72846BDE870400DF0FCBDFD
:10D300000024EAE75CAA00200449431E0F3013F80A
:10D31000012F8A5C83421A70F9D1704730060200EF
:10D32000F0B50746264E8DB001AD0C460FCE0FC5A9
:10D330000FCE0FC596E8070085E807003846002F96
:10D3400039D0002C39D0381F0246214610344B7892
:10D350000D781B0443EA0563CD7804312B4311F8A3
:10D36000025C8C4243EA052342F8043FEFD10421DA
:10D37000144C8A07036916D1C3F30742A55C1A0E41
:10D38000A25C42EA0562C3F30725655DDBB2E35C9C
:10D3900042EA054242EA03220CAD21F003032B448A
:10D3A00053F82C3C534050F8042F013153402C29A2
:10D3B0000361DED101200DB0F0BD2046FBE700BFC8
:10D3C00064E40100300602002DE9F04F00270368F5
:10D3D0009DB002934368DFF8B8A103938368DDE949
:10D3E00002460493C3680593036906934369DDE924
:10D3F00005E2079383690893C369DDE907CB984683
:10D400000993049B0093CD590CAB2DBADD515AF80A
:10D41000043B043705EB03094FEAF22585EAB21510
:10D4200085EA72654D442BEA020302EA0C0983EA9D
:10D4300009032B44009DDDF80090434475404FEAFA
:10D44000743888EAB408254006EA090985EA09051E
:10D4500088EAB458A844402F03EB0E054344DDF896
:10D4600000E0D84640F085804FF0100A49490A9103
:10D4700051460AF1010A0DF1700E0AF00F070EEB8A
:10D48000870757F8407C01F00F094FEAB74801972A
:10D4900088EAF71801F10E0707F00F070EEB870770
:10D4A00057F8407C09314FEAF74E8EEA774ECDF8B7
:10D4B0002CE001F00F010DF1700E0EEB89090EEB5F
:10D4C000810151F8401C59F840ECBAF1400F714409
:10D4D000DDF804E088EADE08DDF82CE041448EEA5D
:10D4E000972E0A9F714457F804EB49F8401C4FEA05
:10D4F000F52905EA02080A9789EAB5192CEA050711
:10D5000087EA080789EA75694F44774439445944E2
:10D510004FEA733784EA060B0BEA030B87EAB3077B
:10D5200004EA060EDDF800808BEA0E0E87EAB35798
:10D5300077448844E3463944009621D1029F0F4442
:10D54000039907601944049B416023448360059B51
:10D550003344C360069B43440361079B2B444361F0
:10D56000089B13448361099B6344C3611DB0BDE8FC
:10D57000F08FE3460096944626462A461C4642E72C
:10D58000944626462A461C4645460B4670E700BF91
:10D590004CE701008CE7010010B50446C8B17022C9
:10D5A00000210DF0E6FC0B4B0B4A0C49C4E90023AB
:10D5B0000B4B0C48C4E902130B4BC4E904030120D4
:10D5C0000A4BA36103F17453A3F52303A3F692431B
:10D5D000E36110BD85AE67BB67E6096A72F36E3C16
:10D5E0003AF54FA57F520E518C68059BABD9831F2E
:10D5F0000A4A0B4993680968C3F88400C3F8881085
:10D6000008494B6843F080534B60002383F3118833
:10D61000BFF36F8F9368D3F888007047C4AF0020C2
:10D62000B8ED010000ED00E014498A684FF04000B9
:10D630001044EFF3098C80E8F01F202080F311885C
:10D64000BFF36F8F0E4F4FF000668A6A8A603E60AC
:10D65000D2F884000023C2F8843080F3118802F1EC
:10D66000400090E8F01F8CF3098802F1000004B537
:10D670000EF0C2F8BDE8044070470000C4AF0020BF
:10D6800004ED00E01EF0040F0CBFEFF30880EFF391
:10D690000980816911F8021C0229FFD001B50EF042
:10D6A000AFF801BD43B2002B08DB012200F01F00E0
:10D6B00002FA00F0024A5B0942F82300704700BFFB
:10D6C00000E100E0054B420953F82220012300F05D
:10D6D0001F0003FA00F01040704700BF00E100E0B7
:10D6E00038B54C1C072C054608D90D490D485C225D
:10D6F0000CF024FF5C210A480DF0C6F96BB2002B38
:10D70000ACBF03F16043084B4FEA4414E4B2ABBF33
:10D7100003F5614305F00F0583F800435C5538BD00
:10D72000300702006DFA010014ED00E042F8203CE1
:10D73000009B0B4942F81C3C019B21F0010142F87F
:10D74000183C029B42F8081C42F8143C4FF08073CE
:10D7500042F8043C0023203A0266C0F88430704747
:10D7600019A60100044608B50E46154600F0F6FA63
:10D77000084B9C60636F83F30B88284686F3098807
:10D78000002163B681F31188BFF36F8F002200235D
:10D790000CF042FFC4AF0020014910220A6070471C
:10D7A00010ED00E072B6404080F31188BFF36F8F38
:10D7B000BFF34F8F30BF62B6BFF36F8F704700BFAC
:10D7C00072B6494081F3118820BF80F3118862B698
:10D7D000704700BF37B505460C46C9B18B68104885
:10D7E0000093D1E9002345210CF0A8FE636945218F
:10D7F0000093D4E903230B480CF0A0FE4521E26915
:10D8000009480CF09BFE4521A26908480CF096FEE1
:10D810002146284603B0BDE8304009F00DBF00BFE7
:10D82000660702009A070200CE070200E207020024
:10D8300030BFFFF7FDBF00BF0E4A08B50E4B22F008
:10D840007F029A60BFF34F8FBFF36F8FD3F88820AA
:10D8500022F47002C3F88820EFF3148323F004034A
:10D8600083F3148809F074FF0BF0AAFF00F048FA64
:10D8700009F092FF0080000000ED00E001B572B6F3
:10D880000B4A506A00281EBF0021516210F0E1F9D6
:10D8900062B6EFF30580A0F110004FEAC000054921
:10D8A000014409C99847BDE8014003490847000001
:10D8B000C4AF002054E00100C1DC00000DF003F90A
:10D8C000202080F3118808484FF40061401880F34D
:10D8D0000988EFF314800221084380F31488BFF312
:10D8E0006F8FFFF7A9FF000050EE0020EFF30880D4
:10D8F000EFF3098101B5724600F01AF901BD00BFCE
:10D9000038B5214C452121480CF018FEA36A9D0131
:10D9100003D545211E480CF011FEA36ADC0103D596
:10D9200045211C480CF00AFE174DAC6A14F4801413
:10D9300004D0452118480CF001FE0224AB6A1803FC
:10D9400003D5452115480CF0F9FD0F4DAB6A59037D
:10D9500003D5452112480CF0F1FDAB6A9A0303D5BB
:10D96000452110480CF0EAFD074DAB6ADB0303D5F7
:10D9700045210D480CF0E2FDAB6A20466FEA0343F7
:10D980006FEA1343AB6238BD00ED00E015080200FA
:10D99000320802004A0802006908020098080200E2
:10D9A000BB080200E50802000409020070B5234C20
:10D9B00006460D46224845210CF0C0FDA36AD90455
:10D9C00003D545211F480CF0B9FDA36A1A0503D5FC
:10D9D00045211D480CF0B2FD184CA36A9B0510D5DB
:10D9E0001A4845210CF0AAFDA26BA36A180408D5B9
:10D9F000452117480CF0A2FD1EB1A36A23F4004391
:10DA0000A3620E4CA36A590503D5452111480CF0B9
:10DA100095FDA36ADA050BD545210F480CF08EFD64
:10DA20000020064A936A43F47F439362287070BDD6
:10DA3000A36A9B04F4D545210848EFE700ED00E018
:10DA4000340902004F090200650902007D09020045
:10DA50009B090200B5090200D5090200F209020083
:10DA600070B5294C06460D46284845210CF066FD48
:10DA7000A36AD80603D5452125480CF05FFDA36AAB
:10DA8000190703D5452123480CF058FD1E4CA36A05
:10DA90009A0710D5452120480CF050FD626BA36A0F
:10DAA0001B0608D545211D480CF048FD1EB1A36A90
:10DAB00023F08003A362144CA36AD80703D5452141
:10DAC00017480CF03BFDA36A990603D5452115487C
:10DAD0000CF034FD0C4B9A6AD20602D49B6A9B0769
