:1080000028EB00209DCF0000B3AC0100CDCF0000D5
:10801000CDCF0000CDCF0000CDCF0000CDCF0000F0
:1080200000000000000000000000000065CD00001E
:10803000CDCF00000000000009CD0000C9BA00004B
:108040005DCF00005DCF00005DCF00005DCF000080
:108050005DCF00005DCF00005DCF00005DCF000070
:108060005DCF00005DCF00005DCF00005DCF000060
:108070005DCF00005DCF00005DCF00005DCF000050
:108080005DCF00005DCF00005DCF00005DCF000040
:108090005DCF00005DCF00005DCF00005DCF000030
:1080A0005DCF00005DCF00005DCF00005DCF000020
:1080B0005DCF00005DCF00005DCF00005DCF000010
:1080C0005DCF00005DCF00005DCF00005DCF000000
:1080D0005DCF00005DCF00005DCF00005DCF0000F0
:1080E0005DCF00005DCF00005DCF00005DCF0000E0
:1080F0005DCF00005DCF00005DCF00005DCF0000D0
:108100005DCF00005DCF00005DCF00005DCF0000BF
:108110005DCF00005DCF00005DCF00005DCF0000AF
:108120005DCF00005DCF00005DCF00005DCF00009F
:108130005DCF00005DCF00005DCF00005DCF00008F
:108140005DCF00005DCF00005DCF00005DCF00007F
:108150005DCF0000000000000000000000000000F3
:10816000000000000000000000000000000000000F
:1081700000000000000000000000000000000000FF
:1081800000000000000000000000000000000000EF
:1081900000000000000000000000000000000000DF
:1081A00000000000000000000000000000000000CF
:1081B00000000000000000000000000000000000BF
:1081C00000000000000000000000000000000000AF
:1081D000000000000000000000000000000000009F
:1081E000000000000000000000000000000000008F
:1081F000000000000000000000000000000000007F
:10820000DEE61E284CBBCE8F023500003C0000008D
:10821000FC9F0100010000000080000000800000C1
:10822000FFFF0291000000000000000000000000BD
:0C82300000000000000000000000000042
:04823C00FFFFFFFF42
:1082400081F0004102E000BF83F0004330B54FEA07
:1082500041044FEA430594EA050F08BF90EA020F74
:108260001FBF54EA000C55EA020C7FEA645C7FEA07
:10827000655C00F0E2804FEA5454D4EB5555B8BF2A
:108280006D420CDD2C4480EA020281EA030382EA9B
:10829000000083EA010180EA020281EA0303362D2D
:1082A00088BF30BD11F0004F4FEA01314FF4801C00
:1082B0004CEA113102D0404261EB410113F0004F12
:1082C0004FEA03334CEA133302D0524263EB4303C9
:1082D00094EA050F00F0A780A4F10104D5F1200E67
:1082E0000DDB02FA0EFC22FA05F2801841F10001C2
:1082F00003FA0EF2801843FA05F359410EE0A5F196
:1083000020050EF1200E012A03FA0EFC28BF4CF0C6
:10831000020C43FA05F3C01851EBE37101F000457C
:1083200007D54FF0000EDCF1000C7EEB00006EEB89
:108330000101B1F5801F1BD3B1F5001F0CD3490813
:108340005FEA30004FEA3C0C04F101044FEA44526A
:1083500012F5800F80F09A80BCF1004F08BF5FEAF1
:10836000500C50F1000041EB045141EA050130BDD1
:108370005FEA4C0C404141EB0101013C28BFB1F5E3
:10838000801FE9D291F0000F04BF01460020B1FA2E
:1083900081F308BF2033A3F10B03B3F120020CDA01
:1083A0000C3208DD02F1140CC2F10C0201FA0CF0DF
:1083B00021FA02F10CE002F11402D8BFC2F1200C44
:1083C00001FA02F120FA0CFCDCBF41EA0C019040FA
:1083D000E41AA2BF01EB0451294330BD6FEA040443
:1083E0001F3C1CDA0C340EDC04F11404C4F120022E
:1083F00020FA04F001FA02F340EA030021FA04F340
:1084000045EA030130BDC4F10C04C4F1200220FA96
:1084100002F001FA04F340EA0300294630BD21FAD4
:1084200004F0294630BD94F0000F83F4801306BF9A
:1084300081F480110134013D4EE77FEA645C18BF8E
:108440007FEA655C29D094EA050F08BF90EA020F25
:1084500005D054EA000C04BF1946104630BD91EA1D
:10846000030F1EBF0021002030BD5FEA545C05D120
:108470004000494128BF41F0004130BD14F580045F
:108480003CBF01F5801130BD01F0004545F0FE41D3
:1084900041F470014FF0000030BD7FEA645C1ABF08
:1084A000194610467FEA655C1CBF0B46024650EA3F
:1084B000013406BF52EA033591EA030F41F400216B
:1084C00030BD00BF90F0000F04BF0021704730B5F1
:1084D0004FF4806404F132044FF000054FF00001C6
:1084E00050E700BF90F0000F04BF0021704730B587
:1084F0004FF4806404F1320410F0004548BF40425C
:108500004FF000013EE700BF42004FEAE2014FEAB0
:1085100031014FEA02701FBF12F07F4393F07F4F8B
:1085200081F06051704732F07F4208BF704793F08E
:108530007F4F04BF41F40021704730B54FF46074A1
:1085400001F0004521F000411CE700BF50EA0102A4
:1085500008BF704730B54FF000050AE050EA01024D
:1085600008BF704730B511F0004502D5404261EBBD
:1085700041014FF4806404F132045FEA915C3FF4FE
:10858000D8AE4FF003025FEADC0C18BF03325FEA9B
:10859000DC0C18BF033202EBDC02C2F1200300FA4C
:1085A00003FC20FA02F001FA03FE40EA0E0021FA71
:1085B00002F11444BDE600BF70B54FF0FF0C4CF45F
:1085C000E06C1CEA11541DBF1CEA135594EA0C0F11
:1085D00095EA0C0F00F0DEF82C4481EA030621EA4C
:1085E0004C5123EA4C5350EA013518BF52EA033587
:1085F00041F4801143F4801338D0A0FB02CE4FF039
:108600000005E1FB02E506F00042E0FB03E54FF068
:108610000006E1FB03569CF0000F18BF4EF0010E60
:10862000A4F1FF04B6F5007F64F5407404D25FEA5C
:108630004E0E6D4146EB060642EAC62141EA55510F
:108640004FEAC52040EA5E504FEACE2EB4F1FD0C51
:1086500088BFBCF5E06F1ED8BEF1004F08BF5FEACF
:10866000500E50F1000041EB045170BD06F0004681
:1086700046EA010140EA020081EA0301B4EB5C042E
:10868000C2BFD4EB0C0541EA045170BD41F4801126
:108690004FF0000E013C00F3AB8014F1360FDEBF4B
:1086A000002001F0004170BDC4F10004203C35DA27
:1086B0000C341BDC04F11404C4F1200500FA05F3AA
:1086C00020FA04F001FA05F240EA020001F000424B
:1086D00021F0004110EBD37021FA04F642EB0601C1
:1086E0005EEA430E08BF20EAD37070BDC4F10C04EB
:1086F000C4F1200500FA04F320FA05F001FA04F2AF
:1087000040EA020001F0004110EBD37041F100019A
:108710005EEA430E08BF20EAD37070BDC4F12005A5
:1087200000FA05F24EEA020E20FA04F301FA05F20D
:1087300043EA020321FA04F001F0004121FA04F2B5
:1087400020EA020000EBD3705EEA430E08BF20EA85
:10875000D37070BD94F0000F0FD101F000464000BF
:1087600041EB010111F4801F08BF013CF7D041EA41
:10877000060195F0000F18BF704703F00046520045
:1087800043EB030313F4801F08BF013DF7D043EA16
:108790000603704794EA0C0F0CEA135518BF95EACC
:1087A0000C0F0CD050EA410618BF52EA4306D1D153
:1087B00081EA030101F000414FF0000070BD50EA72
:1087C000410606BF1046194652EA430619D094EAFC
:1087D0000C0F02D150EA013613D195EA0C0F05D1E6
:1087E00052EA03361CBF104619460AD181EA03013A
:1087F00001F0004141F0FE4141F470014FF00000F2
:1088000070BD41F0FE4141F4780170BD70B54FF08C
:10881000FF0C4CF4E06C1CEA11541DBF1CEA13550C
:1088200094EA0C0F95EA0C0F00F0A7F8A4EB0504EE
:1088300081EA030E52EA03354FEA013100F08880E5
:108840004FEA03334FF0805545EA131343EA1263AE
:108850004FEA022245EA111545EA10654FEA002663
:108860000EF000419D4208BF964244F1FD0404F51C
:10887000407402D25B084FEA3202B61A65EB030578
:108880005B084FEA32024FF480104FF4002CB6EB35
:10889000020E75EB030E22BFB61A754640EA0C00B5
:1088A0005B084FEA3202B6EB020E75EB030E22BFF5
:1088B000B61A754640EA5C005B084FEA3202B6EB36
:1088C000020E75EB030E22BFB61A754640EA9C00F5
:1088D0005B084FEA3202B6EB020E75EB030E22BFC5
:1088E000B61A754640EADC0055EA060E18D04FEA83
:1088F000051545EA16754FEA06164FEAC30343EA23
:1089000052734FEAC2025FEA1C1CC0D111F4801FEF
:108910000BD141EA00014FF000004FF0004CB6E7E8
:1089200011F4801F04BF01430020B4F1FD0C88BF87
:10893000BCF5E06F3FF6AFAEB5EB030C04BFB6EB92
:10894000020C5FEA500C50F1000041EB045170BD85
:108950000EF0004E4EEA113114EB5C04C2BFD4EBB2
:108960000C0541EA045170BD41F480114FF0000E36
:10897000013C90E645EA060E8DE60CEA135594EAB2
:108980000C0F08BF95EA0C0F3FF43BAF94EA0C0FB5
:108990000AD150EA01347FF434AF95EA0C0F7FF42A
:1089A00025AF104619462CE795EA0C0F06D152EA7E
:1089B00003353FF4FDAE1046194622E750EA410662
:1089C00018BF52EA43067FF4C5AE50EA41047FF473
:1089D0000DAF52EA43057FF4EBAE12E74FF0FF3CD8
:1089E00006E000BF4FF0010C02E000BF4FF0010CA9
:1089F0004DF804CD4FEA410C7FEA6C5C4FEA430C22
:108A000018BF7FEA6C5C1BD001B050EA410C0CBF70
:108A100052EA430C91EA030F02BF90EA020F0020D2
:108A2000704710F1000F91EA030F58BF994208BF39
:108A300090422CBFD8176FEAE37040F001007047F6
:108A40004FEA410C7FEA6C5C02D150EA013C07D14D
:108A50004FEA430C7FEA6C5CD6D152EA033CD3D098
:108A60005DF8040B704700BF8446104662468C4692
:108A70001946634600E000BF01B5FFF7B7FF0028C5
:108A800048BF10F1000F01BD4DF808EDFFF7F4FFEE
:108A90000CBF012000205DF808FB00BF4DF808ED79
:108AA000FFF7EAFF34BF012000205DF808FB00BF9C
:108AB0004DF808EDFFF7E0FF94BF012000205DF8BE
:108AC00008FB00BF4DF808EDFFF7CEFF94BF012073
:108AD00000205DF808FB00BF4DF808EDFFF7C4FF6C
:108AE00034BF012000205DF808FB00BF4A0011D20E
:108AF00012F5001211D20DD56FF47873B3EB6252F8
:108B00000ED44FEAC12343F0004343EA505323FA03
:108B100002F070474FF00000704750EA013002D178
:108B20004FF0FF3070474FF00000704753B94AB91B
:108B3000002908BF00281CBF4FF0FF314FF0FF3065
:108B400000F080B9ADF1080C6DE904CE00F006F834
:108B5000DDF804E0DDE9022304B070472DE9F04FB1
:108B6000099E0D4604460F46002B47D18A42944683
:108B70005FD9B2FA82F343B1C3F120019F4002FAF8
:108B800003FC9C4020FA01F10F434FEA1C451FFAF9
:108B90008CFE220CB7FBF5F105FB117701FB0EF003
:108BA00042EA0742904208D91CEB020201F1FF376A
:108BB00002D2904200F234813946121AA4B2B2FBBA
:108BC000F5F005FB102200FB0EFE44EA0244A64528
:108BD00008D91CEB040400F1FF3202D2A64500F2D2
:108BE0001981104640EA0140A4EB0E0400211EB199
:108BF000DC400023C6E90043BDE8F08F8B4208D972
:108C0000002E00F0FB800021C6E900050846BDE803
:108C1000F08FB3FA83F100294BD1AB42C0F0F18061
:108C2000824240F2EE800846002EE5D0C6E90047B9
:108C3000E2E702B9FFDEB2FA82F3002B40F09D803A
:108C40008D1A4FEA124E97B20121B5FBFEF20EFBD0
:108C50001250250C45EA004507FB02F0A8420FD947
:108C60001CEB050502F1FF382CBF4FF001094FF056
:108C70000009A84203D9B9F1000F00F0CE804246A6
:108C80002D1AA4B2B5FBFEF00EFB105500FB07F742
:108C900044EA0544A74208D91CEB040400F1FF355F
:108CA00002D2A74200F2B3802846E41B40EA024009
:108CB0009DE7C1F120078B4005FA01F422FA07FC79
:108CC000FD408A404CEA030C20FA07F34FEA1C49A6
:108CD0001C431FFA8CFE00FA01F3200CB5FBF9F8D7
:108CE00009FB185540EA054508FB0EF0A8420FD9CC
:108CF0001CEB050508F1FF3A2CBF4FF0010B4FF0BC
:108D0000000BA84203D9BBF1000F00F08C80D046C5
:108D10002D1AA4B2B5FBF9F009FB105500FB0EFEAD
:108D200044EA0545AE4507D91CEB050500F1FF34C3
:108D300001D2AE457ED8204640EA0840A5EB0E059C
:108D4000A0FB029845454C46C64602D306D14B458A
:108D500004D20138B9EB020468EB0C0E002E6FD080
:108D60001A1B65EB0E0522FA01F305FA07F7CD4051
:108D700000211F43C6E900753EE702FA03FCC3F178
:108D8000200001FA03F24FEA1C4EC14024FA00F51C
:108D90001FFA8CF79C401543B1FBFEF02A0C0EFB2A
:108DA000101142EA014200FB07F191420ED91CEB7F
:108DB000020200F1FF382CBF4FF001094FF000090B
:108DC000914202D9B9F1000F31D04046521AADB2EA
:108DD000B2FBFEF10EFB112245EA024501FB07F250
:108DE000AA4207D91CEB050501F1FF3801D2AA42BE
:108DF00023D84146AD1A41EA004126E731463046C4
:108E0000FAE6841A65EB030301201F460CE764446D
:108E100002384AE764440238E4E6023A65442FE740
:108E200002396244C9E6A8F10208654470E70238D5
:108E30006244CBE7023865447EE702396544D9E7EE
:108E40003146D9E6704700BF2DE9F0470546008955
:108E50006B89984247D0B5F800A0B5F80290AAEB0C
:108E60000904A4B2F4B1A0EB03084046FFF73AFBB3
:108E70000022214BFFF7A0FB0022002306460F46ED
:108E8000FFF70CFE38B108F57F40FF308012FFF786
:108E900029FB06460F46CA4507D1D5E90801FFF769
:108EA00025FE84B22046BDE8F0873C20D5E906893E
:108EB0006043FFF717FB32463B46FFF7A7FC0CA3C6
:108EC000D3E9002306460F4640464946FFF774FBA8
:108ED00002460B4630463946FFF76EFB02460B460C
:108EE000C5E90823DBE70024DCE700BFAFF300801F
:108EF0006F1283C0CA2109400000503F00000000EB
:108F0000012B2DE9F0410746884614461E4625D11F
:108F100015784B4B28461D70FFF7E4FA2B0603D556
:108F20000022484BFFF792F943A3D3E90023FFF750
:108F300043FB454BC3E900013A46B8F810104348DB
:108F400010F055FD0023424F5D1CDBB2B3426CDADA
:108F5000E15C384610F04BFD2B46F5E7132BEBD1C7
:108F6000537C3C4AA17C13703B4A022B11700ED0FB
:108F7000032B2ED0012BDFD1384A631E04F11001E0
:108F800013F8010F994202F8010BF9D1D4E7344BE1
:108F90001D780135EDB2012D1D700AD12F4A631ED7
:108FA00004F1100113F8010F8B4202F8010BF9D103
:108FB000C2E7022DC0D12B4A631E04F1100113F841
:108FC000010F8B4202F8010BF9D10022244B1A70D9
:108FD000B2E7234B1D780135EDB2012D1D700AD18A
:108FE0001E4A631E04F1100113F8010F8B4202F8B0
:108FF000010BF9D1A0E7022D0AD11A4A631E04F130
:10900000100113F8010F8B4202F8010BF9D193E71D
:10901000032D91D1144A631E04F1100113F8010FBE
:109020008B4202F8010BF9D1CFE7104810F0DFFCBA
:109030003046BDE8F08100BF52B81E85EB510440B8
:1090400010C100200000E03F18880020BCE90100AA
:10905000E8E9010012C1002011C10020FCBE00207F
:109060002FBF00200DBF00201EBF0020AF15020043
:1090700000B5074891B010F0BAFC684600F07CF9E2
:1090800001226846114600F0CFFB11B05DF804FBE9
:10909000F4E20100014B1878704700BFF7BE0020D2
:1090A000014810F0A4BC00BF07E3010073B51D46E2
:1090B00003230E4614468DF8043032B90F4810F0E1
:1090C00096FC2046348102B070BD022D0FD151783C
:1090D0000B4B0C4859748DF8051010F088FC0A4BA6
:1090E0002A46186801A900F069FE0120EBE72A462C
:1090F0002146064810F07BFCF7E700BF2FE3010094
:10910000E88700203FE3010068A4002061E301003C
:10911000F8B5044611F0A7F80746214810F067FC9F
:109120002046204902F0DCFF064620B91E48BDE873
:10913000F84010F05CBC01461C4A204611F0E0F8F3
:1091400008B91B48F3E783881A4D314620461A4A6E
:109150002B8111F0D5F808B91848E8E7184B2946D3
:109160002B600123AB81838838466B810AF04AFF6C
:10917000014678B110F1450F0CD0124810F037FCC1
:10918000204611F0CFF8014640B1BDE8F8400E4846
:1091900010F02DBC0D4810F02AFCF1E7F8BD00BF1F
:1091A00083E301004CE20100A6E3010050E201006C
:1091B000D5E3010080A4002054E2010009E401008D
:1091C000AD90000060E4010089E401007BE401004F
:1091D00013B50446084810F00AFC0A238DF8043041
:1091E000064B0122186801A900F0E8FDFB2120468A
:1091F00007F0C8FD02B010BDB8E4010068A400206B
:10920000CB0710B507D5041E18BF0124204603F074
:1092100069FB014B1C7010BDF7BE002013B5114651
:10922000314A1278002A34D0002B32D02F4C2046FD
:1092300000F03EFD00F0ECFD00220023FFF724FCCF
:1092400050BB2B4B1A783ABB01221A7000F0E0FD9C
:10925000C4E90601247C012C2DD1254B1B78C3B118
:109260002248FFF7F1FDA0B16421B0FBF1F18DF8C8
:109270000440204C89B223688DF805108DF8060053
:109280003BB11D4810F0B3FB0322206801A900F098
:1092900095FD012002B010BD00F0BAFD00220023B0
:1092A000FFF7F2FB0028D5D0114B1A78002AD1D055
:1092B00000221A70CEE7022CEBD10D4B1B78002B4D
:1092C000E7D00A4800F016FD01460028E1D08DF8ED
:1092D0000440084C030A8DF8063023688DF8050019
:1092E000002BD6D00548CDE7F8BE0020E887002047
:1092F000F3BE002068A40020CCE40100D7E4010004
:10930000F0B503788BB004460E46174607AD032B25
:1093100020D8DFE803F002191B1D1149284611F07F
:109320004CFD637839460493A37830460393E37881
:109330000C4A029323790595019363790093A379ED
:1093400010F062FB0BB0F0BD0749E7E70749E5E71E
:109350000749E3E70A212846064A10F055FBE0E7F3
:10936000E8E4010011E50100EFE40100F6E401008A
:1093700000E501000AE5010010B5044614220021B1
:1093800011F0A0FD0E4B0F4A23600F4B92E8030033
:10939000636004F1140383E803002422002104F134
:1093A0001C0011F08FFD0023084A2046C2E900335B
:1093B000C2E90233064A1370064A137010BD00BF9B
:1093C000ED98000060D80100299B00006CA40020EB
:1093D000F2BE0020F1BE0020074A084B12781B782D
:1093E00022B1002B14BF032001207047002B14BFB3
:1093F00002200020704700BFFABE0020F5BE00200A
:1094000010B505480CF06EFB044618B10146034840
:1094100010F0EDFA204610BD0192000034E5010085
:10942000012307B50B49009302220B4B0B4806F0B2
:10943000BBFC014628B10A4803B05DF804EB10F00C
:10944000D6BA084810F0D3FA074803B05DF804EB29
:1094500010F0CDBA78D9010088D90100F8D8010000
:1094600053E5010079E501009BE5010010B50446D4
:10947000FFF7B2FF831EDBB2012B2DD80CF0CCFA24
:10948000014620B11548BDE8104010F0B0BAFFF712
:10949000B7FF014608B11248F5E706F0EBF90146BF
:1094A00008B11048EFE7104810F0A1FA204607F085
:1094B0003FF810F091FD04F1140003F009FA0146A1
:1094C00008B10A48DFE700F067FC01460028F8D140
:1094D000BDE81040FFF7A4BF10BD00BFB6E5010016
:1094E000D1E50100EEE501000EE6010025E60100F0
:1094F000012008B503F0A4F9014610B1034810F0AB
:1095000076FABDE80840024810F071BA42E6010060
:1095100064E6010030B589B000F0B0FC2E4D03AB1D
:109520001422002128700446184611F0CBFC0122B9
:109530008DF80C200492294A2949059200220291B3
:1095400001920090002C42D0264B197841B11A703C
:1095500006F02CFE684603F041F9234802F08AFF2A
:1095600002F0EEFF2B78013B042B25D8DFE803F057
:10957000030D0F1922001D49032002F08BFFD8B103
:109580001B4810F034FA09B030BD1A49F4E71A4B01
:109590001B78012B01D81949EEE7022B0CD1184991
:1095A000EAE7154B1B780BB91649E5E7012B03D108
:1095B0001549E1E71549DFE70021042002F0ECFF3F
:1095C00010B1134810F013FAFFF792FFDBE71149CF
:1095D00006F088FDD7E700BFF4BE00206000300031
:1095E00014E2010074850020708100201CE201005B
:1095F00071E6010020E20100F9BE002024E2010032
:1096000028E201002CE2010030E2010034E2010016
:1096100091E601008D980100F7B54D4E0446337870
:10962000002B35D14B4902F05BFD054670B94A4825
:1096300010F0DDF9204610F075FE0146002840D0FC
:10964000464803B0BDE8F04010F0D1B90146444AA5
:10965000204610F055FE08B94248E9E78388424F9A
:1096600029462046414A3B8110F04AFE0028F3D0AB
:10967000838820467B8110F0F6FD39460AF0C2FC53
:10968000014610B13A4810F0B2F9204610F04AFEF7
:10969000384B1A78022A26D0032A4DD0012A10D13D
:1096A000354B1C78012C0ED10E238DF80430334B32
:1096B0002246186801A900F081FB314810F097F9A3
:1096C000347003B0F0BD022CFBD10F238DF80430B1
:1096D0002A4B01A9186800F071FBFFF71BFF29480E
:1096E00010F085F9EDE7244B1B78022B13D11023E2
:1096F0008DF80430214B0122186801A900F05EFBAF
:10970000214810F074F9012013F0A2F801231F4A38
:1097100033701370D5E7032BD3D111238DF80430A8
:10972000164B0122186801A900F048FB164810F0FA
:109730005EF9FFF7EFFEC4E712238DF804300F4BFC
:109740000122186801A900F039FB1148D9E700BFD0
:10975000F8BE002040E20100AEE60100D6E60100BE
:1097600044E2010001E701005881002048E20100C5
:109770002EE70100F9BE0020F6BE002068A40020FC
:109780004CE7010061E701007CE70100F1BE002029
:1097900098E7010010B504461C4810F028F9FFF7BF
:1097A0001BFE01280AD003282FD1204606F0C0FE58
:1097B000FFF7B0FEBDE81040FFF79ABE002006F0AC
:1097C00059F8014620B11248BDE8104010F00FB919
:1097D000104810F00CF90CF01FF9014608B10E48C2
:1097E000F2E7FFF70DFE014608B10C48ECE704F183
:1097F000140003F06DF8014608B10948E4E710F0E1
:10980000EBFB084810F0F3F8CFE710BDB3E7010019
:10981000EEE50100C1E70100B6E50100D1E5010078
:1098200025E60100D2E7010010B4094C034622707E
:10983000084C217039B11AB1184610BCFFF716BE9A
:1098400010BCFFF7A7BF002AF6D110BC704700BFBD
:10985000F5BE0020FABE002008B5034810F0C7F896
:10986000BDE80840FFF744BEE3E7010010B50A4B2E
:109870000A4C18780A49013800230A4A54F8200093
:1098800002F05AFC10F0FF0104D0BDE81040064879
:1098900010F0ADB810BD00BFF9BE00206CA40020D0
:1098A00038E2010040810020F6E7010010B50A4BC4
:1098B0000A4C18780A49013800230A4A54F8200053
:1098C00002F03AFC10F0FF0104D0BDE81040064859
:1098D00010F08DB810BD00BFF9BE00206CA40020B0
:1098E0003CE201004C810020F6E7010070B590B029
:1098F0000C4601A9054607F01BF920B12E4810F0CF
:1099000076F810B070BD9DF80560002E36D128465F
:1099100011F061FD1E2208A9FFF7F2FC3CB12246BE
:10992000264808A910F063F8FFF7E2FDE9E7244CA8
:1099300008A9244810F05BF82846267811F012FD9B
:10994000214B43F82600284606F060FF1F4A237883
:1099500012780133DBB2013A2370042AD1D8DFE850
:1099600002F0050503080A00022B04D8FFF77EFF6A
:10997000C7E7012BFAD0FFF799FFC2E7012EC0D14C
:1099800024B12146124810F032F8BAE7114810F01D
:109990002EF8114B20461E70104B1D6012F058FF20
:1099A000FFF71AFD0328ACD1054B1B78002BA8D17B
:1099B000FFF7B0FDA5E700BF21E8010047E801007F
:1099C000F9BE002065E801006CA40020F4BE002070
:1099D00074E8010090E80100F2BE002068A40020B5
:1099E00070B58EB0054600F019FA414B0446414E61
:1099F0001870002845D001210228317031D0032889
:109A000035D0884203D101463B4800F00DFA2B685F
:109A10001E22186806A9FFF773FC2B68122218682B
:109A200001A9FFF76DFC3378002B3DD010F092FCBC
:109A3000314901A80FF02CFF38B3304C237823B301
:109A40002F480FF0D4FF002323702E4B28681A787C
:109A50002D4B2E4903EB82036A68006807F094F8E7
:109A600022E0254800F0E0F921462948CDE72248C8
:109A700000F0DAF90221264800F0D6F921462548FF
:109A8000C3E7FFF747FD3470C1E7214901A80FF094
:109A9000FFFE10B1204C237843B91E4901A80FF0F6
:109AA000F7FE88B9FFF724FD0EB070BD14480FF023
:109AB0009EFF00232370134B28681A78124B174916
:109AC00003EB82036A68C8E7154C2378002BE9D0C2
:109AD0000B480FF08CFF0023237010F03BFC094B68
:109AE00028681A78084B0F4903EB82036A68B4E7C9
:109AF000F6BE0020FBBE0020BEBE00207185002007
:109B00009BE80100F9BE00206CA400200CD90100E4
:109B1000CFBE0020E0BE0020728500201CD90100CD
:109B2000738500202CD901002DE9F04196B00E4636
:109B300007A9074606F0FCFF054628B14C480FF080
:109B400056FF16B0BDE8F0819DF81D40012C0BD1E9
:109B5000314648480FF04BFF474B28461D7012F026
:109B60007AFEFFF75DFCECE7002CEAD1384611F0F5
:109B700032FC1E220EA9FFF7C3FB32463F480EA956
:109B80000FF035FF3E4D3F4F3F4E29785FFA84F886
:109B90004B1E98451FDC38460FF029FF56F8280069
:109BA00011F019FC02A91222FFF7AAFB02A90EA8C4
:109BB0000FF06EFE68B156F8280006F027FE00236D
:109BC000297838460139C9B246F8283029700FF093
:109BD0000EFF0134D9E769B92C4B012219700D230E
:109BE0008DF804302A4B01A9186800F0E7F801202D
:109BF00012F031FE27490EA80FF04AFE78B101227B
:109C0000254B01A91A70224B1868244B1B78052B91
:109C10000CBF0C230B238DF8043000F0CFF8204943
:109C20000EA80FF035FE80B101221E4B01A91A705B
:109C3000174B1868194B1B78023B934294BF0B23B8
:109C40000C238DF8043000F0B9F817490EA80FF076
:109C50001FFE50B10122154B01A91A700C238DF87B
:109C600004300B4B186800F0A9F8FFF741FC68E7D7
:109C700021E80100B1E80100F2BE0020DCE80100AB
:109C8000F9BE00200AE901006CA40020F1BE00200A
:109C900068A40020BEBE002071850020F4BE002014
:109CA000CFBE002072850020E0BE0020738500201A
:109CB0000B78012B037404D0022B0DD00C480FF04D
:109CC00096BE0388438003894381B1F80130038045
:109CD000B1F80530038170478388C3808389C381CD
:109CE000B1F801308380B1F803308381704700BF41
:109CF00038E901002DE9F8438589C38904469D426E
:109D00002FD0B0F80480B0F80690C84529D0ED1ADD
:109D10002846FEF7E7FB0022134BFEF74DFC00221E
:109D2000002306460F46FEF7B9FE30B105F57F4029
:109D3000FF30FEF7D7FB06460F463C20A8EB09088C
:109D400000FB08F0FEF7CEFB32463B46FEF75EFD19
:109D500002460B46C4E90A23FEF7C8FE80B2BDE8FE
:109D6000F8830020FBE700BF0000503F012904D02A
:109D7000022905D031B9044800E004480FF037BE8D
:109D80000348FBE70348F9E77BE9010046E90100E6
:109D900058E901008EE9010008B5F02200210548CC
:109DA00011F090F8F0220021034811F08BF8002008
:109DB00008BD00BF30BF002020C00020002310B528
:109DC00086B0039305930D4BADF80C2000930C4B1C
:109DD000012204930B4B0446CDE90131194609F0E9
:109DE000FDFC48B16946204609F016FB10B1064853
:109DF0000FF0FDFD06B010BD0448F9E7A3EA01002D
:109E0000B7980100DCD90100EDE9010011EA010079
:109E1000014BD3E90001704718880020014B1878E6
:109E2000704700BF12C1002002290DD0032915D0B0
:109E300001291CD10E4A431E103012F8011B03F8F1
:109E4000011F8342F9D170470A4A431E103012F8AD
:109E5000011B03F8011F8342F9D17047064A431ED4
:109E6000103012F8011B03F8011F8342F9D170472B
:109E7000FCBE00200DBF00201EBF0020014B187843
:109E8000704700BF11C10020436870B503F00303A1
:109E9000022B04460E46816010D0032B04D0012B08
:109EA0000FD10025284601E00568002000236360EB
:109EB00010B131460FF058FC284670BD00250068EF
:109EC000F4E74522044905480FF091FD4521024879
:109ED00010F033F80025E8E7B4EA0100D7EA010002
:109EE0000B6801330B60014B1B681847FC81002095
:109EF000014B1860704700BFFC81002007B50B467E
:109F0000002102460191034801A900F0E9FB03B0DA
:109F10005DF804FBE19E000030B5002585B0CDE979
:109F20000101044601A90548039500F0D9FBDDE9CC
:109F300002309842B8BF255405B030BDC999010020
:109F40002DE9F74FB0F81CA004461AF0080F93460D
:109F50001CD001290CBF4AF0100A4AF0200AA0F8D0
:109F60001CA004F114000EF067FD40B9924993481B
:109F7000A7220FF03CFDA7218F480FF0DEFF8BF3E7
:109F80001188BFF36F8F03B0BDE8F08F8C4FDFF8FF
:109F90002C820AF0070A022906D120460FF041FD63
:109FA0000028DED0012863D1D4F81890A38BB9F132
:109FB000000F19DA0026256823F00703C4E90066BC
:109FC00043F00103A383A38B03F0070252450092E1
:109FD00003D0A268002A40F0F58015B9002E00F0E9
:109FE0002F814FF0000AEFE003F00702511F012913
:109FF00020D8002123F00703062A25689BB2C4E974
:10A0000000110AD13DB12946E28B0968013292B2B2
:10A010000029FAD1E28343F002032046A3830FF024
:10A0200000FD06460028CED0A38B43F02003A38377
:10A030000026C8E7042A0DD123F007039AB2204670
:10A04000A2830FF0EEFC054680B142F0200200250D
:10A05000A283EDE740F21912394640460FF0C7FCE3
:10A0600040F2191138460FF068FF00252E46AAE786
:10A07000032831D1BAF1000F0AD0394640464FF4D7
:10A08000AA720FF0B4FC4FF4AA7138460FF055FFD6
:10A09000236853B93946404640F255120FF0A7FCE9
:10A0A00040F2551138460FF048FF23691E6856B933
:10A0B000394640464FF4AC720FF099FC4FF4AC7146
:10A0C00038460FF03AFFA38B23F0070343F0060353
:10A0D0000025A383A94676E704282ED1BAF1020F02
:10A0E0000AD03946404640F25B120FF080FC40F245
:10A0F0005B1138460FF021FFE38B53B139464046E0
:10A100004FF4AE720FF073FC4FF4AE7138460FF09F
:10A1100014FF23695E6856B93946404640F25F1223
:10A120000FF065FC40F25F1138460FF006FFA38B7D
:10A1300023F0070343F00403CAE705282ED1BAF140
:10A14000010F0AD0394640464FF4B1720FF04FFC70
:10A150004FF4B17138460FF0F0FE236853B9394619
:10A16000404640F263120FF042FC40F26311384661
:10A170000FF0E3FE23699E6856B9394640464FF416
:10A18000B3720FF034FC4FF4B37138460FF0D5FEC4
:10A19000A38B23F0070343F0050399E7002540F262
:10A1A0006912394640460FF022FC40F269113846E8
:10A1B0000FF0C3FE2E468DE711EB0100D7EA010038
:10A1C000EFEA01004FF0010A43F00803A38304F112
:10A1D0001403184601930EF02FFC40B94046314954
:10A1E000A7220FF004FCA7212E480FF0A6FE8BF348
:10A1F0001188BFF36F8FBAF1000F30D1002D40D11D
:10A2000016B120462849B0474FF02003EFF3118BD9
:10A2100083F31188BFF36F8F01980EF0FFFB40B9F5
:10A22000404620497C220FF0E2FB7C211D480FF0C4
:10A2300084FE01980EF00EFCA38B23F00803A38389
:10A24000A38BDA0625D5012123F01003A383B4F8EC
:10A250001CA00AF0070A00297FF49DAE81E6A168E0
:10A260000029CBD0D1F800A04B462046D1F804B04D
:10A27000009AD847BAF1000FC0D05146DAF800A0D2
:10A28000F2E729464B462046009A2D680FF0E5FB81
:10A29000B4E713F020011EBF23F020030221A383A3
:10A2A000D5E700BF11EB0100ADA20000F8B50446F0
:10A2B0000D4600F114064FF02003EFF3118783F3EE
:10A2C0001188BFF36F8F30460EF0A8FB40B90A49E2
:10A2D0000A487C220FF08BFB7C2107480FF02DFEF3
:10A2E00030460EF0B7FB3A462046A5610121BDE895
:10A2F000F840FFF725BE00BF11EB0100D7EA0100CF
:10A300002DE9F04704460F460FF0BDFB051E54DB58
:10A3100004F114094FF02003EFF3118A83F311883D
:10A32000BFF36F8F48460EF079FB40B9334934488C
:10A330007C220FF05CFB7C2130480FF0FEFD48468C
:10A340000EF088FB4FF6FF71E38BA28B8B4202F07D
:10A3500007064AD0022E1FD135464FF001080133BF
:10A36000E38348460EF068FB40B924492448A722FD
:10A370000FF03DFBA72121480FF0DFFD8AF3118884
:10A38000BFF36F8FB8F1000F17D000233246394664
:10A3900020460FF062FB10E0930701D0062E0FD18C
:10A3A00000233B606368EBB9C4E900773546F6B932
:10A3B000524602212046FFF7C3FD2846BDE8F0873C
:10A3C000052E17D0012E0AD00E490D4840F2C512B5
:10A3D0000FF00DFB40F2C5110A480FF0AEFD6FF013
:10A3E000040504E01F606760E0E76FF00A054FF0C6
:10A3F0000008B6E76FF02205F9E700BF11EB010096
:10A40000D7EA0100EFEA01002DE9F0410546144EBC
:10A41000DFF850804FF0FF324FF0FF3328460DF049
:10A42000A5F804460028F5D0476847B931464046AC
:10A430001C220FF0DCFA1C2130460FF07EFD04F1E7
:10A440000803D3E8EF2F22F00101C3E8E01F002842
:10A45000F7D1D30701D52046B8470DF0B1FFD9E7B2
:10A4600037EB0100D7EA010070B5002939D0056843
:10A470000122AB682846B3F5004F2CBF0824042402
:10A480000C1B641BE40821460FF029FBC30708D40A
:10A49000144915489A220FF0AAFA9A2111480FF090
:10A4A0004CFD214628460FF030FB2618314600228D
:10A4B00028460FF014FB361AB44208D009490A485E
:10A4C000A2220FF094FAA22106480FF036FD214691
:10A4D000284600220FF01FFB2146BDE870400FF018
:10A4E0005CBC70BD5AEB0100D7EA01002DE9F843CE
:10A4F00001F1FF3919EA010F80460F46144605683D
:10A5000008D031493148FC220FF071FAFC212E4865
:10A510000FF013FDA868B0F5004F2CBF08230423EB
:10A520009F4205D821464046BDE8F8430FF077BC6E
:10A530001CB900263046BDE8F883B0EBD40FF8D93B
:10A540003919C91A0FF003FB014628460FF05AFBD0
:10A5500080460028EDD0AB687F42B3F5004F2CBF9A
:10A560000823042303EBC0062E444E443E403444EB
:10A57000F31A07345B1B24F00704641BB0EBD30F02
:10A580004FEAD3074FEAE40408D201463A46284688
:10A590000FF07BFB414628460FF0BCFB39462846AE
:10A5A0000FF0B3FA3844844208D23946284622468E
:10A5B0000FF06BFB214628460FF0ACFB0122394619
:10A5C00028460FF0A8FAB5E75AEB0100D7EA0100D8
:10A5D000B2F5802FF8B507460C4616460ED2042A6F
:10A5E0000AD83D493D484FF4B6720FF000FA4FF4D7
:10A5F000B67139480FF0A1FC042200E00822B61A17
:10A60000E51D344425F0070524F00704641B172CCE
:10A610004FEAD4060AD83049304840F275120FF09C
:10A62000E6F940F275112C480FF087FC0023002258
:10A630003D60C5E90023002331463046AE60EB6043
:10A640000FF08EFA01218400471C30460FF07FFA8C
:10A650001B34E4082044B0420AD31F491F4840F28B
:10A6600081120FF0C4F940F281111B480FF065FC14
:10A670000023194605F11002BB4228DB224628467A
:10A6800000210FF060FA371B2846012200210FF04D
:10A6900042FA3A4621460FF056FA23460022214656
:10A6A00028460FF027FA314628460FF04CFA3B4671
:10A6B0003146284600220FF01DFA31462846012275
:10A6C0000FF029FA2146BDE8F8400FF023BB42F80D
:10A6D000041B0133D0E700BF5AEB0100D7EA0100A9
:10A6E0002DE9F04F8B4692461C46002591B0029012
:10A6F0009AF8000008B928465FE325280AF1010707
:10A7000007D05946029B98470028C0F2568301356E
:10A7100012E2182200210AA810F0D4FB9AF80130A6
:10A72000252B78D000229446964616461046394688
:10A7300017F8013B2B2B00F09D8000F29480202B1A
:10A7400000F09A80232B00F09A8028B19DF8300009
:10A7500040F004008DF830002EB19DF8300040F03C
:10A7600008008DF83000BEF1000F05D09DF83000D4
:10A7700040F010008DF83000BCF1000F05D09DF8BE
:10A78000300040F020008DF830002AB19DF83020D4
:10A7900042F040028DF830209DF8302002F0440055
:10A7A000442803D16FF386128DF830209DF83020B5
:10A7B0002A2B42F080028DF830207BD19DF8312089
:10A7C0004B1C42F001028DF831201A782E2A0CBF62
:10A7D000012100219DF8312061F341028DF83120E3
:10A7E00074D15A782A2A6AD000210A2601331846E1
:10A7F00010F8012BA2F13007092F40F28E809DF84E
:10A8000030200E91C2F3400040EAD17161F3410261
:10A810008DF830205AE00AF102078DF833309DF8A8
:10A820003130D90740F1498154F8049BB9F1000F48
:10A8300007DA9DF83020C9F1000942F004028DF8D2
:10A8400030205A0740F1428154F8048BB8F1000FD0
:10A8500080F241819DF831306FF341038DF8313042
:10A860004FF0FF3837E12D2B0CD0302B7FF46DAF3C
:10A8700001225CE701265AE74FF0010E57E74FF03F
:10A88000010C54E7012052E733460CFB0202303A38
:10A890001E4616F8010BA0F13007092FF4D9994292
:10A8A00093D09DF830100D92D20F62F341018DF8D4
:10A8B00030108AE70B4600224FF00A0CE8E79DF8BB
:10A8C0003120023342F004028DF831201F4617F880
:10A8D000012B6C2A41D025D8682A2BD06A2A46D071
:10A8E0004C2A4CD01F4617F8012B9DF83130782A9E
:10A8F0008DF8332000F2D980572A4DD8412A03D051
:10A90000453A022A00F2D18004229DF8323062F3E7
:10A9100002038DF8323001239EE006FB012103463D
:10A92000303964E7742A26D07A2ADBD106229DF8D2
:10A9300031300DE05A78682A9DF8312006D1012186
:10A9400061F3C6028DF831209F1CCCE7134602222A
:10A9500062F3C6038DF83130C5E75A786C2A9DF84A
:10A96000312001D10421EBE713460322F0E7052251
:10A970009DF83130ECE707229DF83130E8E7BDF86B
:10A98000303023F4F04323F0020343F4804343F0D8
:10A990000203ADF83030A6E7A2F15801202900F2F9
:10A9A000848001A050F821F06DAA0000ABAA00003D
:10A9B000ABAA0000ABAA0000ABAA0000ABAA000043
:10A9C000ABAA0000ABAA0000ABAA000009A90000D6
:10A9D000ABAA00006DAA00002DAA000009A9000082
:10A9E00009A9000009A90000ABAA00002DAA0000D7
:10A9F000ABAA0000ABAA0000ABAA0000ABAA000003
:10AA000075AA00006DAA000091AA0000ABAA000080
:10AA1000ABAA000091AA0000ABAA00006DAA00003A
:10AA2000ABAA0000ABAA00006DAA000001209DF8AF
:10AA3000321003F0780360F30201402B8DF83210DE
:10AA400002BF9DF8301041F001018DF83010632AEB
:10AA500031D1003B18BF01239DF83020C2F34001E3
:10AA60000B4363F341028DF83020D8E602209DF8B5
:10AA70003210DEE703219DF8322003F07803A3F1C2
:10AA8000400061F3020243428DF832204341E3E784
:10AA900003219DF8322013F0780F61F3020214BFF6
:10AAA000012300238DF83220D6E79DF8303043F0A3
:10AAB00001038DF830300023CEE79DF93020002AC5
:10AAC000ACBF4FF0FF39DDF83490BAE69B077FF555
:10AAD000C7AEDDF838800023CDE90D339DF8323064
:10AAE0009DF8311003F00703012BC1F3C30138D1E6
:10AAF000CB1E042B22D8DFE803F003090921210033
:10AB000054F8043BDA17CDE90A3206E0073424F0A2
:10AB10000704F4E80223CDE90A239DF8303013F04E
:10AB2000030656D03B465246594602980FF0EFF9BD
:10AB30000028C0F242810544BA46D9E554F8043BE6
:10AB400001294FEAE372CDE90A3205D19DF8283098
:10AB50000A9300230B93E0E70229DED1BDF92830E8
:10AB6000D0E7022B23D1CB1E042B13D8DFE803F050
:10AB7000030A0A12120000232268201D0A920B9376
:10AB80000446CAE7E01D20F00700F0E80223CDE903
:10AB90000A23F5E754F8043B01290A934FF0000318
:10ABA0000B93D3D00229B8D1BDF82830D0E7042BBD
:10ABB00009D1E31D23F0070303F10804D3E90023BF
:10ABC000CDE90A23A9E7032B04BF54F8043B0A93F9
:10ABD000A3E79DF833007828AED8622822D825282C
:10ABE0003FF48FAD5828A7D1DDE90A010DF1260306
:10ABF00000930CAA04AB0FF044F98246B8F1000FA1
:10AC00000DF126000CDB9DF83020A0EB0A036FF35A
:10AC1000861298458DF8302002D9A8EB03030D93D6
:10AC200080463DE06338152886D801A252F820F00E
:10AC3000B1AC000015AD000039AB000039AB00002D
:10AC400039AB000039AB000015AD000039AB000096
:10AC500039AB000039AB000039AB00006FAD00002C
:10AC60003DAD000041AD000039AB000039AB000044
:10AC700089AC000039AB00003DAD000039AB0000ED
:10AC800039AB00003DAD0000B8F1000FDDF828A0A1
:10AC90000ADB4146504610F0B3F800260AEB0008E4
:10ACA000BAF1000F0CD147E7504610F0A2F8F4E7D4
:10ACB00000260A9B0DF1100A8DF810300DF11108D5
:10ACC000A8EB0A0306B101339DF83220D00668D5FF
:10ACD000023352060D9948BF0E9A0B4448BF9B1889
:10ACE000B9F1000F76DD9DF83020A9EB0309C2F31E
:10ACF0008003039353076DD4500661D546B159467E
:10AD00003046029B9847002857DB039B01351E46BF
:10AD1000302356E01E070FD413F0100618BF20266C
:10AD2000DDE90A23002BBFF65FAF524263EB43031A
:10AD30002D26CDE90A2357E72B26F1E7002653E716
:10AD40000A9840B30DF126030093002104AB0CAA2E
:10AD50000FF097F8BDF83230824603F0EF0343F46A
:10AD6000F04343F010030026ADF8323046E70A9B6B
:10AD700007293FF6E1AEDFE801F00C04060C0808F5
:10AD80000C0C1D70D8E61D80D6E6EA17C3E9005208
:10AD9000D2E61D60D0E6DFF8C8A006460AF1050835
:10ADA0008EE7110748BF013393E7184603935946CE
:10ADB000029B98470028039B04DA11B0BDE8F08F8E
:10ADC00020234D444A46002AA5EB090109F1FF3929
:10ADD000EBDC0D4636B159463046029B98470028B9
:10ADE000EBDB01359DF83230D90601D41A0706D5C0
:10ADF00059463020029B98470028DEDB01359DF83C
:10AE00003230DB0607D559469DF83300029B984740
:10AE10000028D2DB01350D9E2E44731B002B16DC5F
:10AE200043465246594602980FF071F80028C4DB99
:10AE30000544A944A9EB0503002B7FF77DAE5946D5
:10AE40002020029B98470028B7DB0135F2E75946DE
:10AE50003020029B98470028AFDB0135DDE700BFBB
:10AE60007BEB010048B1054B1A68054BB2FBF3F2CE
:10AE7000044B504343F001031847704728850020D6
:10AE800040420F00F0D80100014B1970704700BF1D
:10AE9000000007200020014B1870704700000720B9
:10AEA000014B186811F05FBFA8A400200A4B13B52E
:10AEB0001868002382680093146819461A46A04750
:10AEC000024630B14521054802B0BDE810400EF001
:10AED0008EBD02B010BD00BF98A40020ADEB0100F4
:10AEE0000749D1E8EF3F43F00102C1E8E02F002815
:10AEF000F7D1DB0703D40348083912F0F5B87047DF
:10AF0000A4A4002020880020F0B5474B85B002ACF7
:10AF100006460D4693E803004FF4006284E8030000
:10AF20004FF0FF33414942480DF0C8FD41494248C6
:10AF300012F04CF90022414B41492046C3E901126D
:10AF40001A600BF091FA044638B1452102463D489B
:10AF50000EF04DFD204605B0F0BD3B480BF064FA05
:10AF6000044618B1024645213848F1E738493948C6
:10AF700001AA11F078FC044618B102464521364872
:10AF8000E6E7019B9A682AB93060452133480EF004
:10AF90002EFDDFE70C333360002BF6D030480BF08A
:10AFA0007BFD304F386030480BF076FD3A6832B99F
:10AFB00045212E480EF01BFD6FF01204CAE710B9B0
:10AFC00045212B48F6E7836822465B682949984764
:10AFD0000EF0F3FF284F386030B9452127480EF0B6
:10AFE00006FD6FF00B04B5E70EF0E7FF786010B9CF
:10AFF00045212348F3E73268224B10215A61224A47
:10B000003F685A60042236689A601A620222DE6241
:10B010001E4EAA621E4A9984DE61986199811F6062
:10B02000AC612A62EB6295E768D8010010C6002087
:10B0300020880020D0EB0100408800209CA4002044
:10B04000A1AE0000DBEB01004082002003EC010018
:10B0500033EC01003DEC010045EC010067EC010020
:10B0600098EC010098A400209EEC0100A4EC0100E3
:10B07000CCEC0100E1AE0000A8A40020F4EC01003B
:10B0800022ED01001082002000FC072000F80720BC
:10B090007CDA01002DE9FF410D461B4E0746316861
:10B0A000284690460FF0B5FE68B12846F16C0FF0C7
:10B0B000B0FE38B12A464521144804B0BDE8F0413D
:10B0C0000EF095BC01204C244443114B04F10800C0
:10B0D0000293344463682A46CDE9008339464FF031
:10B0E000FF3330440BF08CFA034638B12A46452131
:10B0F000084804B0BDE8F0410EF079BC012384F8A3
:10B10000483004B0BDE8F081B0A400205EED01003D
:10B11000D59F01008DED010037B5134D1349284629
:10B12000FFF7F2FE044638B14521024610480EF002
:10B130005EFC204603B030BD0E4C4FF47C422046EE
:10B140000D4911F09AFF00942B680C4A07490C48EE
:10B150000BF082FB044618B1024645210948E6E798
:10B160000122094B1A70E4E748A50020D08800208E
:10B17000C3ED0100DCA500200004072095B000000D
:10B180004CA50020F0ED010013C1002038B50D4B97
:10B1900002461B7893B90C4C206848B1E36C33B17C
:10B1A0000A4845210EF023FC6FF00B0038BD01204A
:10B1B0004C234343E518E2506960F7E76FF0430022
:10B1C000F4E700BF13C10020B0A400200FEE01007F
:10B1D0004C22034B02FB003393F84800704700BF3A
:10B1E000B0A4002037B54C240B4601214443CDE9DF
:10B1F0000021054D28190834D0E90B1228190BF04D
:10B20000EDF903B030BD00BFB0A40020104B2DE914
:10B21000F0411C6805460E461746ACB14FF0FF32B0
:10B220004FF0FF330B480BF059FF63683246D3F8F9
:10B23000088029463B462046C047044605480CF096
:10B2400019F82046BDE8F0816FF00104F9E700BF6E
:10B25000F0A5002080860020002330B585B005468B
:10B26000CDE9023301904FF0FF334FF0FF320B482E
:10B270000BF034FF0A4B1C6834B1636820461B682E
:10B2800001A998472468F7E7284600F03BF80446F0
:10B2900002480BF0EFFF204605B030BD808600204D
:10B2A000E8A500201FB5CDE9010103924FF0FF335F
:10B2B0004FF0FF3209480BF011FF094B1C6834B105
:10B2C000636820461B6801A998472468F7E703488C
:10B2D0000BF0D0FF002004B010BD00BF808600201E
:10B2E000E8A500200022024BC3E90022704700BFFE
:10B2F000E8A500200022024BC3E90022FFF7F2BFBD
:10B30000F4A500202DE9F041064600251F4C204FF2
:10B31000DFF88080BC4208D941461F48F4220EF075
:10B3200066FBF42140460EF008FEBC4207D31B4BDF
:10B330001C680CB1143CA4B92846BDE8F0811EB9C4
:10B34000E3684BB91434E5E70022314620680EF07B
:10B350004AFE0028F4D1F5E79847002D08BF0546BE
:10B36000F0E736B9E36863B914F1140FE4D0646907
:10B37000DFE70022314620680EF035FE0028F1D1CB
:10B38000F2E79847002D08BF0546EDE700D701001A
:10B3900064D7010048EE0100D7EA0100F4A50020BF
:10B3A00010B5064C23783BB9FFF7A4FF0EF054FE0E
:10B3B00008B90123237010BD0020FCE714C1002050
:10B3C00010B5044C2046FEF793FD204602F03EFAED
:10B3D000002010BDD9B300002DE9F3410446032538
:10B3E000DFF85880164E8DF807004FF0FF334FF00E
:10B3F000FF3240460BF072FE01220DF107010020E2
:10B4000001F0C2FA074640460BF034FF2FB101238A
:10B410003370204602B0BDE8F0813378002BF8D0BD
:10B42000013D08D011F0C8FE0028DED100214220E5
:10B430000DF0D2F8D9E73570EBE700BF5886002051
:10B4400015C1002037B540230C460A490093411A24
:10B45000491105462346084A08480EF012FE011E0F
:10B4600005DA2846234603B0BDE83040184703B04C
:10B4700030BD00BF0CA60020F5A00100788500209B
:10B4800038B5CCB2032C054608D9094909487E22B3
:10B490000EF0ADFA7E2106480EF04FFD0C23E96850
:10B4A00004FB0314D4F8880000F0070038BD00BF87
:10B4B00080EE0100D7EA0100F8B5CCB2032C0546B6
:10B4C0001746C6680AD91949194840F253120EF0B6
:10B4D0008EFA40F2531115480EF02FFD4FF0200365
:10B4E000EFF3118183F31188BFF36F8F0C2202FBFE
:10B4F0000463D3F8883013F0C00301D09F4212D107
:10B500000123002002FB0466C6F8883081F311880D
:10B51000BFF36F8F30B90C23696803FB04146368B1
:10B5200098470020F8BD4FF0FF30EFE780EE0100B4
:10B53000D7EA010070B50D4606490446411A491183
:10B5400040220548FFF7B8FF2B4601462046BDE8DC
:10B55000704018470CA60020788500202DE9F8439C
:10B56000002201210646052001F02AFC052001F0F9
:10B5700009FC11480AF008FC104B984219D10AF056
:10B5800023FC00244FF00C080127DFF83490F56805
:10B59000494605EB44100EF085FA002807DB08FB4E
:10B5A00004550134042CC5F88870F0D10020BDE8A2
:10B5B000F8836FF00400FAE7FDB500000000AD0B62
:10B5C000E4DA010001460C2300224B43094870B520
:10B5D000C4188833D4E920561844C4F880200EF0EB
:10B5E0003DFD2DB132462B46BDE87040024818475C
:10B5F00070BD00BF0CA600207885002008B5052886
:10B6000021D8DFE800F0031120130F0D134BD3F8FE
:10B61000880010F007001FD1BDE80840FFF7D2BF37
:10B620000220F9E70320F7E70120F5E70C4940F293
:10B6300066220C480EF0DBF940F26621BDE80840B6
:10B6400007480EF07ABC064940F26A2205480EF01F
:10B65000CEF940F26A21F1E708BD00BF0CA6002038
:10B6600080EE0100D7EA010008B54FF02003EFF3A8
:10B67000118183F31188BFF36F8F114A136843F070
:10B68000020013F0010310600BD00E4AD2F80C3404
:10B69000D2F80C2413F0010303D00B480EF0DEFCAB
:10B6A000012381F31188BFF36F8F23B1BDE80840F8
:10B6B0000020FFF787BF0120BDE808400AF0A8BBC3
:10B6C000BCA600200050004094A600207FB50022B8
:10B6D0000123CDE9022304ABCDE90433094A6B46CB
:10B6E000CDF800D0CDF804D00EF0FDFC002805DB2D
:10B6F0004FF48042002368460CF0E0FF07B05DF88D
:10B7000004FB00BF2BA10100074BD3E8EF2F22F071
:10B710000201C3E8E01F0028F7D1D30702D40120BB
:10B720000AF0E0BB704700BFBCA600202DE9F04145
:10B73000012206464249D1E8EF3FC1E8E02F002848
:10B74000F9D19BB93F4940484B60CB608A60FEF716
:10B75000D7FD00280ADA3D493D4840F226220EF086
:10B7600046F940F2262139480EF0E7FB86B3731EF6
:10B77000012B52D8012E06D1364BD3F81C3403F0DE
:10B780000303022B24D011F017FD044618B9324BE5
:10B790001B78002B4ED14FF02003EFF3118783F37A
:10B7A0001188BFF36F8F01242A4DDFF8B080D5F8E0
:10B7B0001834D5F81824D2030CD503F00303022B58
:10B7C00001D0012E06D124B387F31188BFF36F8F08
:10B7D000BDE8F081C4B1384601F062FBD5F81835F8
:10B7E000DBB2012BE3D1D5F80421002ADFD00022FF
:10B7F000C5F80421D5F804210222C5F81825202215
:10B80000C8F88021AB60D2E7002121200CF0E4FED3
:10B81000E4E70223C5F80433DAE70C490C484FF497
:10B820000E720EF0E4F8BDE8F0414FF40E710748D7
:10B830000EF083BB0222074B0746C3F80823B3E789
:10B84000C0A60020FCA500202CA6002080EE010050
:10B85000D7EA0100005000400BC6002000E100E0E4
:10B8600010B500F005F9041E06DA22464521074806
:10B870000EF0BDF8204610BD054803F095FD041EEE
:10B88000F8DA224645210348F2E700BFF2EE010054
:10B89000F0DA01001EEF010010B5027D0446022A15
:10B8A0000CD0042A09D0B2B145210C480EF09FF803
:10B8B000204609F029F8002010BD0522114604F1A8
:10B8C000080010F0B3FD204600F0EEF8021EEFDA9B
:10B8D00045210348EAE70122F0E700BF4DEF0100F0
:10B8E00062EF01002DE9F3418046064618F8010B8E
:10B8F0000D46042801F1FF3309D0052874D0022831
:10B9000040F09980032B4AD845214F4803E0012B92
:10B9100006D845214D4802B0BDE8F0410EF067B8A9
:10B9200073783E2B17D1F778022F16D0A7F10D03AD
:10B930005F425F410222414601A80FF098FA9DF84C
:10B940000530033D9D420AD0452141480EF04FF895
:10B9500002B0BDE8F0810027ECE70127EAE700220A
:10B96000002339469DF8040002F048F9044620B946
:10B97000002FEDD145213748E8E700F10807022202
:10B9800001A9384610F075FD2A46F11C384610F022
:10B9900070FD204602B0BDE8F04103F0DBBC0022A0
:10B9A0000023032002F0D8F80446D0B10422414617
:10B9B0000DEB02000FF05BFA042204F10807384691
:10B9C0000DEB020110F055FDBDF80630053D9D421E
:10B9D0002ED0452120480EF00AF8204608F094FFAA
:10B9E000B6E745211D4896E7032B02D845211C48A0
:10B9F00091E70022002302F0AFF80446A8B1042228
:10BA000041460DEB02000FF032FA042204F1080760
:10BA100038460DEB020110F02CFDBDF80630053D57
:10BA20009D4205D045210F48D5E745210E4872E7D4
:10BA30002A46711DAAE7024645210C4802B0BDE81E
:10BA4000F0410DF0D4BF00BFEFEF01007FEF010028
:10BA5000A5EF0100CEEF010032F0010013F001006C
:10BA600059F001009CF001007DF00100C3F00100DD
:10BA700008B508490848FFF789FB021E05DA0748A0
:10BA800045210DF0B4FF064808BD064B00201A60A2
:10BA9000FAE700BF47A10100F0F00100FBF0010050
:10BAA0002AF8FFFFC4A60020024B8289816818682B
:10BAB000FFF798BBC4A6002008B5024B1868FFF733
:10BAC00087FB08BDC4A6002010B5064C06482146D9
:10BAD00017220DF08CFF2046BDE8104017210EF014
:10BAE0002CBA00BF38F10100D7EA0100044A1368FC
:10BAF000C81A20F07F40034413600DF083BA00BFE2
:10BB0000D4A600202DE9F0474FF480374FF000090C
:10BB1000860000F1500406F18046A40006F5A83620
:10BB2000A4B204F18044D6F84035DFF86C8021F0EF
:10BB30007F4504F5A8348740D8F804A5A3EB0A0391
:10BB400023F07F432AF07F42012BC6F8402502D123
:10BB5000132011F037FB0AF10202AB1A23F07F43E6
:10BB6000B3F5000F88BF1546C4F80090236825F090
:10BB70007F43C8F84473C6F84035D8F804359A4571
:10BB800006D0EB1A023B23F07F43B3F5000F01D838
:10BB9000BDE8F0872B46CFE700500140F8B50025FF
:10BBA0002F46104C2668104B05B1F8BDD3F804237E
:10BBB000D203FAD5D3F84021002AF6D0C3F8405179
:10BBC000D3F840214FF48032C3F848230125D3F83D
:10BBD000401526B1002062682760B047E2E7266082
:10BBE000E3E700BFC8A600200050014038B500259B
:10BBF0004FF480334FF400120C4C0121C4F8085567
:10BC0000C4F804330A4B1520C3F880212A4601F0FA
:10BC1000D7F8152001F0B6F80123064AA3600220E8
:10BC200023601360FFF782FD284638BD00500140B5
:10BC300000E100E0D0A60020134AB0F1FF3F14BF9E
:10BC400003461346013B002B1CDD9342A8BF13465D
:10BC50000E4AD2F804050E4A1168401A10F4000F7B
:10BC600018BF002320F07F4201320A4813440A4AD9
:10BC7000106000205060044A934294BFC91889188C
:10BC8000FFF740BF0023E3E7FFFF7F0000500140C4
:10BC9000D4A60020EDBA0000C8A6002038B54FF0A9
:10BCA0002003EFF3118583F31188BFF36F8F1548DD
:10BCB0000CF0B4FE40B9144914487C220DF097FEF4
:10BCC0007C2111480EF039F90E480CF0C3FE104BE0
:10BCD0000C48D3F804450F4B1B68E41A24F07F444A
:10BCE0000CF0AAFE40B908490848A7220DF07FFED3
:10BCF000A72105480EF021F985F31188BFF36F8F56
:10BD0000204638BDD8A6002011EB0100D7EA01007B
:10BD100000500140D4A6002038B5C51C25F003050D
:10BD2000742D08D91749184850220DF060FE502193
:10BD300014480EF002F9154CD4F83C3123B1D4F874
:10BD400044312B44742B19D9782104200DF056FD71
:10BD500078B10023D4F8402103605AB9C4E94F00F8
:10BD6000C4F84431D4F844311A1D1D441044C4F8B9
:10BD7000445138BD1060C4F84001F1E7D4F84001E7
:10BD8000F0E700BFA5F10100D7EA0100DCA6002022
:10BD9000084800F59C73D3E8EF2F42F00202C3E895
:10BDA000E12F0029F7D1D0F848311B680BB1416869
:10BDB00018477047DCA6002070B50B4C054620469E
:10BDC0000EF0E7F96FF0010104F59C700EF0F8F940
:10BDD000D4F848319B682BB1294662682068BDE8D9
:10BDE0007040184770BD00BFDCA600202DE9F84365
:10BDF0001F4C0746D4F834310E46222B07D9452173
:10BE00001C480DF0F4FD00252846BDE8F8830368C2
:10BE10001B78022B0DD8184A12F8039006EB090084
:10BE2000FFF77AFF054658B9452114480DF0DFFDAC
:10BE3000EAE7452112480DF0DAFD4FF00009EDE781
:10BE4000D4F8343130445A1C0333DB0003F10408C6
:10BE5000C4F83421A0441C443B8A4A462381BB7C5D
:10BE60003968A37260600FF002F84546CCE700BF66
:10BE7000DCA60020D0F101009BF301000DF20100CF
:10BE8000F1F1010070B5044630B945210C480DF0C0
:10BE9000AEFD2546284670BD0378022B0AD8094A14
:10BEA000D65C3046FFF738FF3246214605460EF095
:10BEB000DEFFEFE7452104480DF099FD0026F0E78D
:10BEC0002FF201009BF30100F1F101002DE9F34194
:10BED000794E0D463368834208D0784845210DF0ED
:10BEE00086FD6FF00D00FFF767FF31E0137C032B39
:10BEF00000F0AE800DD8022B26D140F2B31270496B
:10BF000070480DF074FD40F2B3116D480EF015F855
:10BF10001EE0052BF1D1002940F08180D6F83431A4
:10BF2000012B79D9338C06F10801013333820323C5
:10BF3000337607F0BDFC044650B102464521624805
:10BF40000DF055FD2046CEE721B930460EF043F9FD
:10BF500000244AE0D1F80C8028460821FFF746FF6C
:10BF600000244FF420530746694628688DF80040A6
:10BF7000ADF802300EF0F0FFA8B142F601032868D8
:10BF800001A98DF80440ADF806300EF0E5FF50B180
:10BF90004B494C4840F217120DF029FD40F21711A1
:10BFA00047480DF0CAFF37B9484845210DF01FFD3D
:10BFB0006FF00B0097E738460EF021F9054608228E
:10BFC00041460EF054FF2868FFF75CFF04462860E6
:10BFD00030B945213E480DF00AFD6FF00B0058E0E6
:10BFE000BB88AA88934204D10124204602B0BDE850
:10BFF000F081052100243176013336493068F28220
:10C00000B460338207F054FC02460028A0D04521DA
:10C0100031480DF0ECFCE0E7FFF7BAFE98E70024AA
:10C0200042F60303286801A98DF80440ADF80630F4
:10C030000EF092FF50B908212846FFF7D7FE0446BC
:10C040000028D1D145212A8A2448E2E72146F3E796
:10C050000029E1D000238DF8043042F6030328685C
:10C0600001A9ADF806300EF077FF50B1144915481C
:10C070004FF4C0720DF0BBFC4FF4C07110480DF0CE
:10C080005CFF298A0C480EF066F8044620B96FF070
:10C090000200FFF791FEA8E7EC680EF0D0F8054625
:10C0A000214608220EF0E3FE2868FFF7EBFE044667
:10C0B0002860002898D190E7DCA6002048F2010013
:10C0C000A5F10100D7EA0100FCF201006FF20100C6
:10C0D0009DF20100E4A60020D0F201002CF3010043
:10C0E0002DE9F84306460F460024DFF84480DFF8C8
:10C0F0004490214630460EF0B8F80446A0B10EF048
:10C100009EF8054650B94146484640F2FB120DF0F4
:10C110006EFC40F2FB1140460DF00FFF38462968D7
:10C120000EF01AFF0028E4D12046BDE8F88300BFD6
:10C13000A5F10100D7EA010070B50546084619B11E
:10C14000097811F0FD0F39D1002A37D01E4C04F5C3
:10C150009C76D6E8EF1F41F0010CC6E8EECFBEF1A9
:10C16000000FF6D111F001012BD1C4E90053C4E94D
:10C170004F11C4F84821C4F83411C4F8441108B16F
:10C18000FFF780FE114BA060E360012323824FF68E
:10C19000FF73E382002328460D49237607F088FBCE
:10C1A000044648B1024645210A480DF020FC6FF0D4
:10C1B000010109480EF004F8204670BD6FF0150427
:10C1C000FAE76FF04404F7E7DCA60020CDBE0000DC
:10C1D000E4A600206FF3010014A8002070B5064CFF
:10C1E00086B001AD0FCC0FC52668044C01AD0FCD54
:10C1F0000FC4266006B070BD70D8010058A800209A
:10C200004FF0C872024B0349C3E91112704700BFD7
:10C2100028A80020180028002DE9F04F294C8BB0E9
:10C2200094F82130064600910392002B3CD0002761
:10C230003D464B7894F828B094F820A001935745D8
:10C240000ED386F83C50BBF1000F2BD0AA452BD162
:10C25000737801337370012386F83430B37023E0B0
:10C260004FF00009009B039A5B680293164B13F88A
:10C270000280019B994505D3BBF1000FE1D1013745
:10C280001834DCE7029B424603EB090105A80EF0D7
:10C2900091FE0028F0D0A16805A80EF05DFE30B137
:10C2A000C144E6E7002DD3D10BB0BDE8F08FA16803
:10C2B00006EB850201359163EDB2BBF1000FDED1D3
:10C2C000BFE700BF28A80020AAF301002DE9F0472E
:10C2D00003780546192B0C4612D8012B12D9023BC4
:10C2E000172B0FD8DFE803F079797F7F8181311137
:10C2F0000E0E0E0E0E0E0E0E0E0E0E0E0E0E0E5616
:10C30000FF2B74D00120BDE8F0874D4F7B78002BC8
:10C31000F8D0002697F800A090F801805645F1D299
:10C3200007EB46194246484669680EF07EFD50B953
:10C330006378C4F8189001336370012384F81C807B
:10C340002375A370DEE70136E8E73D4EF378002B56
:10C35000D8D0B37890F8018003EB4313F718BE42AE
:10C36000D0D096F82230434512D806F10209424651
:10C37000484669680EF059FD50B96378C4F82490B6
:10C3800001336370012384F8288084F82030D8E7D3
:10C390002136E4E72A4890F82530002BB2D000235C
:10C3A00090F824606F78B342ACD2022F13D16A6840
:10C3B00000EB43011288898C52BA92B291420AD1A1
:10C3C000123300EB4303636463780133637001232A
:10C3D00084F84030B5E70133E5E7002229462046DE
:10C3E000FFF71AFF8EE70122F8E70222F6E7DFF8EF
:10C3F000508098F82730002B84D04746002617F845
:10C40000269F4E45BFF47EAF97F820206B7893426D
:10C4100013D3384669680EF019FD70B906EB46165D
:10C42000E764464496F8463084F850306378013328
:10C430006370012384F8483083E701362137E0E751
:10C4400028A80020F8B505460E461746084B1C687C
:10C450000CB1043C04B9F8BD23681B681BB13A4613
:10C46000314628469847231DF5D06468F0E700BFA1
:10C4700074A8002050B100234360054B021D596889
:10C4800011B9C3E9002270470A605A60704700BFC3
:10C4900074A80020F8B505460C46002948D04FF096
:10C4A000FF324FF0FF3324480AF018FE032D0CD062
:10C4B00038D9043D012D94BF6FF00B046FF01504C3
:10C4C0001D480AF0D7FE2046F8BD1C4A92F82030DD
:10C4D00043BB2378012B0CD0022B11D02BBB20683F
:10C4E00002F10C03D06093600123002482F8203015
:10C4F000E6E702F10C0394E8030083E80300F2E7A7
:10C50000234602F10C04264603F11007254618685D
:10C510005968083303C5BB422C46F7D11B782B70F2
:10C520009660E1E76FF00B04CAE76FF01504C7E708
:10C530006FF01504C7E700BF6C86002028A8002014
:10C5400010B50C4C4FF0FF324FF0FF3320460AF08D
:10C55000C5FD0022084B1A709A701A7183F82020CA
:10C5600083F8242083F826202046BDE810400AF0F6
:10C5700081BE00BF6C86002028A800200022054B49
:10C580005A70DA705A7183F8212083F8252083F8D5
:10C590002720704728A8002008B5830625D0FFF77C
:10C5A000EDFF10F0020F18BF0122114B18BF5A7196
:10C5B000C20744BF01225A70C20644BF0122DA708A
:10C5C000420744BF012283F82120020744BF012211
:10C5D00083F82520820648BF01224FF0000048BFA3
:10C5E00083F8272083F8281008BD6FF01500FBE7BB
:10C5F00028A8002070B50E4686B005460DF0AAFEAC
:10C60000184B02AC0FCB84E80F00214601AB30463B
:10C61000154A04F0B9FA154B08351C6868B10CB11D
:10C62000043C0CB906B070BD23689B680BB128466A
:10C630009847221DF6D06468F1E71CB9019804F010
:10C64000E5F8EFE7019E043C002CF7D02368DB6897
:10C6500013B1314628469847231DEFD06468002C5B
:10C66000F1D1EBE784D801006CA8002074A8002069
:10C670002DE9F04F544C97B0542206460D4601A8C0
:10C6800000210EF01FFC94F8283062798DF80730F5
:10C6900000238DF8043012B101238DF80430637843
:10C6A00023B19DF8043001338DF80430E37823B1D1
:10C6B0009DF8043001338DF8043094F8213023B113
:10C6C0009DF8043001338DF8043094F8253023B1FF
:10C6D0009DF8043001338DF8043094F8273023B1ED
:10C6E0009DF8043001338DF80430337A03F00103F0
:10C6F0008DF80830EAB14FF00008D6F800A094F8A1
:10C700000490324FC84514D23946072250460EF0E5
:10C710009DFBBB46073700283AD19DF80530CDF880
:10C7200034B001338DF8053001238DF830308DF8A9
:10C73000063028460FF091FE07462549284601AAF3
:10C74000B5F8048002F01CFB224BA868CDE9043543
:10C750009DF8073010FA87F72F60A5F8048003963C
:10C760003568C3B19DF805209DF804309A4216D172
:10C770009DF8082006A903A8FFF764FE94F82C3062
:10C780001BB1294601A8FFF735FF17B0BDE8F08FB0
:10C7900008F10108B6E79DF80630002BE8D10E4BF2
:10C7A0001C68002CF1D09DF80850043C002CECD003
:10C7B00023685B6813B1294603A89847231DE4D07A
:10C7C0006468002CF1D1E0E728A800202CA8002004
:10C7D000CDC200006CA8002074A8002070B50646E9
:10C7E000144C154803F0F8FC2C22002120460EF0D2
:10C7F00069FBBEB13379356884F82C305DB10FCD5B
:10C8000030340FC42B682360B2683AB10B4B106808
:10C81000516803C370BDFFF7E1FCF5E7BDE8704068
:10C82000FFF7EEBCFFF7DAFCFFF7EAFC84F82C60B8
:10C83000F0E700BF28A80020988200206CA8002004
:10C8400008B1012806D1054B002183F830000448C7
:10C8500003F048BC6FF01500704700BF28A8002007
:10C8600058A800204B1E59425941014B197070477E
:10C8700017C1002010B51C46034B1B680BB1107884
:10C880009847204610BD00BF7CA800202DE9FF413D
:10C890001F460D4B054658680C46164680B1D1F828
:10C8A0000C808047094B324618700123CDE9018383
:10C8B000BDF828302146009328463B460FF02BFC5C
:10C8C00004B0BDE8F08100BF7CA8002016C10020A4
:10C8D00020B1034B02681A6042685A60002070471A
:10C8E0007CA8002000B50E4B89B01B788DF807009E
:10C8F0009BB10021182202A80EF0E4FA094B002097
:10C9000003930DF107030493012302A9ADF814303A
:10C9100006F082FD09B05DF804FB6FF00C00F9E74A
:10C9200017C100202CDB0100032310B5104C114A65
:10C93000C4E90433104BA261E3614FF480632266C3
:10C940000E4A23626266002310220D49E01DA36295
:10C950006362E3622367E3666367A2660EF02DFA03
:10C96000204608490EF029FA2023A37110BD00BF0C
:10C9700084A8002014F4010028C1002018C1002060
:10C980001DF4010021F4010070B5182400FB0445DA
:10C99000144B16461D4404FB0033DC6A012C0ED0F8
:10C9A000022C18D0E4B928460DF0D6FC864204D8F3
:10C9B000324628460DF0D9FC3446204670BD284644
:10C9C0000DF0CAFC8642344628BF0446284622465B
:10C9D0000DF0CBFCF1E72846BDE870400DF0E1BC5E
:10C9E0000024EAE784A800200449431E0F3013F80E
:10C9F000012F8A5C83421A70F9D1704728F4010034
:10CA0000F0B50746264E8DB001AD0C460FCE0FC5D2
:10CA10000FCE0FC596E8070085E807003846002FBF
:10CA200039D0002C39D0381F0246214610344B78BB
:10CA30000D781B0443EA0563CD7804312B4311F8CC
:10CA4000025C8C4243EA052342F8043FEFD1042103
:10CA5000144C8A07036916D1C3F30742A55C1A0E6A
:10CA6000A25C42EA0562C3F30725655DDBB2E35CC5
:10CA700042EA054242EA03220CAD21F003032B44B3
:10CA800053F82C3C534050F8042F013153402C29CB
:10CA90000361DED101200DB0F0BD2046FBE700BFF1
:10CAA00094D8010028F401002DE9F04F0027036815
:10CAB0009DB002934368DFF8B8A103938368DDE972
:10CAC00002460493C3680593036906934369DDE94D
:10CAD00005E2079383690893C369DDE907CB9846AC
:10CAE0000993049B0093CD590CAB2DBADD515AF834
:10CAF000043B043705EB03094FEAF22585EAB2153A
:10CB000085EA72654D442BEA020302EA0C0983EAC6
:10CB100009032B44009DDDF80090434475404FEA23
:10CB2000743888EAB408254006EA090985EA090547
:10CB300088EAB458A844402F03EB0E054344DDF8BF
:10CB400000E0D84640F085804FF0100A49490A912C
:10CB500051460AF1010A0DF1700E0AF00F070EEBB3
:10CB6000870757F8407C01F00F094FEAB748019753
:10CB700088EAF71801F10E0707F00F070EEB870799
:10CB800057F8407C09314FEAF74E8EEA774ECDF8E0
:10CB90002CE001F00F010DF1700E0EEB89090EEB88
:10CBA000810151F8401C59F840ECBAF1400F714432
:10CBB000DDF804E088EADE08DDF82CE041448EEA86
:10CBC000972E0A9F714457F804EB49F8401C4FEA2E
:10CBD000F52905EA02080A9789EAB5192CEA05073A
:10CBE00087EA080789EA75694F447744394459440C
:10CBF0004FEA733784EA060B0BEA030B87EAB307A5
:10CC000004EA060EDDF800808BEA0E0E87EAB357C1
:10CC100077448844E3463944009621D1029F0F446B
:10CC2000039907601944049B416023448360059B7A
:10CC30003344C360069B43440361079B2B44436119
:10CC4000089B13448361099B6344C3611DB0BDE825
:10CC5000F08FE3460096944626462A461C4642E755
:10CC6000944626462A461C4645460B4670E700BFBA
:10CC70007CDB0100BCDB010010B50446C8B17022AA
:10CC800000210DF0CBFB0B4B0B4A0C49C4E90023F0
:10CC90000B4B0C48C4E902130B4BC4E904030120FD
:10CCA0000A4BA36103F17453A3F52303A3F6924344
:10CCB000E36110BD85AE67BB67E6096A72F36E3C3F
:10CCC0003AF54FA57F520E518C68059BABD9831F57
:10CCD0000A4A0B4993680968C3F88400C3F88810AE
:10CCE00008494B6843F080534B60002383F311885D
:10CCF000BFF36F8F9368D3F888007047ECAD0020C6
:10CD0000E8E1010000ED00E014498A684FF04000BE
:10CD10001044EFF3098C80E8F01F202080F3118885
:10CD2000BFF36F8F0E4F4FF000668A6A8A603E60D5
:10CD3000D2F884000023C2F8843080F3118802F115
:10CD4000400090E8F01F8CF3098802F1000004B560
:10CD50000DF0A7FFBDE8044070470000ECAD0020D7
:10CD600004ED00E01EF0040F0CBFEFF30880EFF3BA
:10CD70000980816911F8021C0229FFD001B50DF06C
:10CD800094FF01BD43B2002B08DB012200F01F001D
:10CD900002FA00F0024A5B0942F82300704700BF24
:10CDA00000E100E0054B420953F82220012300F086
:10CDB0001F0003FA00F01040704700BF00E100E0E0
:10CDC00038B54C1C072C054608D90D490D485C2286
:10CDD0000CF00DFE5C210A480DF0AFF86BB2002B91
:10CDE000ACBF03F16043084B4FEA4414E4B2ABBF5D
:10CDF00003F5614305F00F0583F800435C5538BD2A
:10CE000028F50100D7EA010014ED00E042F8203CCB
:10CE1000009B0B4942F81C3C019B21F0010142F8A8
:10CE2000183C029B42F8081C42F8143C4FF08073F7
:10CE300042F8043C0023203A0266C0F88430704770
:10CE4000CB9A0100044608B50E46154600F0F6FAE6
:10CE5000084B9C60636F83F30B88284686F3098830
:10CE6000002163B681F31188BFF36F8F0022002386
:10CE70000CF02BFEECAD0020014910220A60704737
:10CE800010ED00E072B6404080F31188BFF36F8F61
:10CE9000BFF34F8F30BF62B6BFF36F8F704700BFD5
:10CEA00072B6494081F3118820BF80F3118862B6C1
:10CEB000704700BF37B505460C46C9B18B681048AE
:10CEC0000093D1E9002345210CF091FD63694521D0
:10CED0000093D4E903230B480CF089FD4521E26956
:10CEE00009480CF084FD4521A26908480CF07FFD3B
:10CEF0002146284603B0BDE8304009F0F9BD00BF27
:10CF00005EF5010092F50100C6F50100DAF50100B9
:10CF100030BFFFF7FDBF00BF0E4A08B50E4B22F031
:10CF20007F029A60BFF34F8FBFF36F8FD3F88820D3
:10CF300022F47002C3F88820EFF3148323F0040373
:10CF400083F3148809F060FE0BF096FE00F048FAB7
:10CF500009F07EFE0080000000ED00E001B572B631
:10CF60000B4A506A00281EBF0021516210F08AF857
:10CF700062B6EFF30580A0F110004FEAC00005494A
:10CF8000014409C99847BDE801400349084700002A
:10CF9000ECAD002084D40100A1D300000CF0ECFF24
:10CFA000202080F3118808484FF40061401880F376
:10CFB0000988EFF314800221084380F31488BFF33B
:10CFC0006F8FFFF7A9FF000068EC0020EFF30880E7
:10CFD000EFF3098101B5724600F01AF901BD00BFF7
:10CFE00038B5214C452121480CF001FDA36A9D0173
:10CFF00003D545211E480CF0FAFCA36ADC0103D5D9
:10D0000045211C480CF0F3FC174DAC6A14F4801455
:10D0100004D0452118480CF0EAFC0224AB6A18033E
:10D0200003D5452115480CF0E2FC0F4DAB6A5903BE
:10D0300003D5452112480CF0DAFCAB6A9A0303D5FC
:10D04000452110480CF0D3FC074DAB6ADB0303D538
:10D0500045210D480CF0CBFCAB6A20466FEA034338
:10D060006FEA1343AB6238BD00ED00E00DF601003E
:10D070002AF6010042F6010061F6010090F6010077
:10D08000B3F60100DDF60100FCF6010070B5234C9B
:10D0900006460D46224845210CF0A9FCA36AD90496
:10D0A00003D545211F480CF0A2FCA36A1A0503D53D
:10D0B00045211D480CF09BFC184CA36A9B0510D51C
:10D0C0001A4845210CF093FCA26BA36A180408D5FA
:10D0D000452117480CF08BFC1EB1A36A23F40043D2
:10D0E000A3620E4CA36A590503D5452111480CF0E3
:10D0F0007EFCA36ADA050BD545210F480CF077FCBE
:10D100000020064A936A43F47F439362287070BDFF
:10D11000A36A9B04F4D545210848EFE700ED00E041
:10D120002CF7010047F701005DF7010075F70100DA
:10D1300093F70100ADF70100CDF70100EAF7010018
:10D1400070B5294C06460D46284845210CF04FFC89
:10D15000A36AD80603D5452125480CF048FCA36AEC
:10D16000190703D5452123480CF041FC1E4CA36A46
:10D170009A0710D5452120480CF039FC626BA36A50
:10D180001B0608D545211D480CF031FC1EB1A36AD1
:10D1900023F08003A362144CA36AD80703D545216A
:10D1A00017480CF024FCA36A990603D545211548BD
:10D1B0000CF01DFC0C4B9A6AD20602D49B6A9B07AA
:10D1C0000AD51149114840F247120CF010FC40F208
:10D1D00047110D480CF0B1FE0020034A936A43F05A
:10D1E000FF039362287070BD00ED00E01EF801009F
:10D1F00039F801005DF7010071F801008EF80100B7
:10D20000A9F80100EAF70100CDF80100D7EA010012
:10D210002DE9F043514B0546D3F804808946144666
:10D2200000268BB0C8F3080786F31188BFF36F8F11
:10D2300002F07F43B3F17F4F11D1D0070FD45106D5
:10D2400003D4220708D4012608E0452144480CF005
:10D25000CEFB14F0040400D04D4600265DB94FF417
:10D260007172404940480CF0C2FB4FF471713D4867
:10D270000CF063FE00250024FB1E8DF80740092BEF
:10D280005AD8DFE803F0054E5232595959595956C8
:10D29000324F452135480CF0AAFB8DF80740FC6A57
:10D2A00014F0020405D0452131480CF0A0FB002405
:10D2B0001EE0FB6A5B001BD545212E480CF097FB56
:10D2C00097F828302BB101200DF10701FFF738FF47
:10D2D0000DE097F829302BB101200DF10701FFF780
:10D2E000D5FE04E07B8D9BB213B1FFF779FE0446B7
:10D2F0009DF8073093B92022294602A80DF0B7FD0A
:10D30000099B36B3C3F3080222B96FEA53236FEACD
:10D3100043230993204602A9FFF7CCFD0BB0BDE8DB
:10D32000F08300200DF10701D0E700200DF1070187
:10D33000D5E745211048B8E7104918F4F87F104A9E
:10D34000104808BF0A46A7F1100345210CF04FFB17
:10D35000ADE723F4FF7323F00103DAE700ED00E00B
:10D3600035F90100CDF80100D7EA01005DF90100AF
:10D3700079F901009FF90100C3F9010007F90100E3
:10D380001CF90100FEF90100044B5A6942F0100239
:10D390005A615A6942F480625A61704700ED00E0B8
:10D3A000044B9968986A884203D003494FF0805231
:10D3B0000A607047ECAD002004ED00E0BFF34F8F32
:10D3C0000549064BCA6802F4E0621343CB60BFF321
:10D3D0004F8F00BFFDE700BF00ED00E00400FA053D
:10D3E000002320210348C2180133452B82F8001383
:10D3F000F9D1704700E100E008B50E4B9B6883420D
:10D4000007D1EFF3058393B10B4A536843F0805380
:10D4100053600AF019FD4FF02003EFF3118083F3FE
:10D420001188BFF36F8FBDE808400FF07BBE0BF093
:10D4300019FB00BFECAD002000ED00E01FB5094C6A
:10D44000094A23460121094800F076F90023039395
:10D45000074B0121E41A01A80193029400F088F916
:10D4600004B010BD00000720008000207CDC01001B
:10D47000E887002010B50B680C7A23F01F0204F037
:10D480001F031A43CB68640923F01F03054943EACD
:10D49000440343F00103C1F89800C1F89C20C1F88F
:10D4A000A03010BD00ED00E030B54B680C6885B0D1
:10D4B0000A894D890094013B24F01F04234402F0A3
:10D4C0001F0242EA451223F01F03072804468DF885
:10D4D0000820039309D90246452106480CF087FA33
:10D4E0006FF01504204605B030BD6946FFF7C2FF56
:10D4F000F8E700BF1AFA01002DE9F04F89461446FB
:10D5000006464FF00008594D85B0C84527DAD6F8D1
:10D5100004A0BAF1000F45D0BAF11F0F18D91AF0C4
:10D520001F0F15D1D6F800B01BF01F0F10D15846B1
:10D530000DF0C6FB07460AEB0B0001380DF0C0FBEF
:10D54000874210D06FF015073A464521484802E05F
:10D550004246452147480CF04AFA6FF01504204630
:10D5600005B0BDE8F08F17F1160FEDD0631EBB427A
:10D57000EADBC5F89870D5F89C10C5F89870D5F816
:10D58000A03021F01F0143F01F0BD6E900321A44EE
:10D59000994202F1FF3A1DD1D34507D13146F8B285
:10D5A000FFF782FF08F101080C36AEE73146C5F8F7
:10D5B0009870D5F89C3022F01F0203F01F031A4325
:10D5C000C5F89C20E0B2FFF76FFF10F1160FC4D032
:10D5D000441CE7E7013BD345E0B223F01F03C5F845
:10D5E000987008D1D5F8A020314602F01F021343ED
:10D5F000C5F8A030E7E7D5F8A01001F01F010B43F4
:10D60000C5F8A0303146FFF74FFF10F1160FA4D038
:10D61000C5F89870D5F89C209DF808300BF1FF3BB9
:10D6200062F304038DF80830D5F8A0309DF8082087
:10D630005B0863F34712D6E900310B44009323F0F3
:10D640001F0301305B44A3EB0A03C0B223F01F03A6
:10D6500007288DF80820039303D902464521064880
:10D6600079E76946FFF706FFB2E700BF00ED00E08B
:10D670006DFA010045FA01001AFA01000522044B77
:10D68000C3F89420BFF34F8FBFF36F8F704700BF75
:10D6900000ED00E0BFF35F8F0022024BC3F894203F
:10D6A000704700BF00ED00E038B51D4D2C68082C18
:10D6B0000DD940F23B121B491B480CF098F9194850
:10D6C00040F23B110CF039FC4FF0FF3038BD002028
:10D6D000FFF7E0FF154B164AC3F8C020844217D16C
:10D6E000144B1C70FFF7CAFF104BD3F89030C3F3F4
:10D6F0000723082B0AD00B490B484FF4B3720CF0E8
:10D7000076F94FF4B37107480CF017FC0020DDE701
:10D71000696801EB0011FFF7ADFE0130DEE700BFE5
:10D7200088DC010095FA0100D7EA010000ED00E075
:10D73000AAFF440028C5002010B50A4C2278FFF744
:10D74000DBFE207016300CD1074908484FF4827276
:10D750000CF04DF9BDE810404FF4827102480CF016
:10D76000ECBB10BD28C5002095FA0100D7EA0100E6
:10D770002DE9F74F304D8A4606464FF00008AB467C
:10D780002E4FD04502DB03B0BDE8F08FD6F80490F1
:10D79000B9F1000F4AD03168084601910DF090FAB6
:10D7A0000199044609EB010001380DF089FA844221
:10D7B0004FF01402224B13D06FF0150302FB08F850
:10D7C0004BF808304FF48A721E491F480CF00FF9CD
:10D7D0004FF48A711B4803B0BDE8F04F0CF0ADBBAD
:10D7E00014F1160F2C60EDD01978A142EADD02FB8E
:10D7F00008B0C7F89840C7F89840D7F89C4000F1A7
:10D800000801007B64F304000871D7F8A0000C79CC
:10D81000400860F347140C71D7F89C1021F01F01E9
:10D820006960D7F8A01021F01F01296108F10108F3
:10D8300014350C36A5E700BF2CA9002000ED00E050
:10D8400028C5002095FA0100D7EA0100014B1860B5
:10D85000704700BF288300200020024BC3F8140645
:10D86000704700BF005000400E4B402928BF4021A8
:10D8700070B51D460C4C4618B04203F1020304D1AA
:10D88000002305F81130074870BD02781209A25C28
:10D8900003F8022C10F8012B02F00F02A25C03F82F
:10D8A000012CE9E747C50020FEFA010030B50378F6
:10D8B0008BB0044607AD032B21D8DFE803F0021A32
:10D8C0001C1E124928460DF078FA63781E21049335
:10D8D000A3780F4A0393E3780595029323790D48C3
:10D8E000019363790093A3790CF08EF809480BB08B
:10D8F00030BD0949E6E70949E4E70949E2E70A21B9
:10D900002846084A0CF080F8DFE700BFE8E4010091
:10D9100011E5010029C50020EFE40100F6E4010053
:10D9200000E501000AE50100492108B509480CF0AD
:10D930005EF809490948CA79C2EBC202FDF766FCE4
:10D94000024628B1BDE80840452105480CF04FB813
:10D9500008BD00BF0FFB0100008000201EFB01007E
:10D9600024FB0100F7B516461F46044630B9452191
:10D9700019480CF03CF86FF0010413E001A90CF019
:10D9800055FB1649024620460DF04FFA0446002882
:10D99000F1D1134DD5E8AF3F5B0706D557211148AC
:10D9A0000CF025F8204603B0F0BD943D072229462F
:10D9B0003846B04706280AD845210B480CF017F81E
:10D9C0000722214628460DF07DFAEC71EAE707238D
:10D9D000B0FBF3F0E871E5E744FB0100FDE4010072
:10D9E000948000206AFB010093FB01002DE9F041C7
:10D9F00088B0DDF838809C795D791E79DF7893F8FE
:10DA000002C093F801E01B78B8F1000F0ED0CDE909
:10DA10000638CDE904CE1346CDE90267CDE90045CD
:10DA2000084A0BF0F1FF08B0BDE8F081CDE905E34D
:10DA3000CDE9037C1346CDE90156034A00940BF06F
:10DA4000E3FFF0E7BDFB0100E1FB01000749D1E87E
:10DA5000EF3F43F00102C1E8E02F0028F7D1DB07D8
:10DA600003D4034808390FF03FBB704734830020CC
:10DA7000B0A3002038B5134CE3796BB901F0C0FFB7
:10DA8000E3794BB902F04AF8044628B145210E4823
:10DA90000BF0ADFF204638BD0C4DD5E8AF3F9B07DE
:10DAA00001D401F095FCD5E8EF4F24F40043C5E81C
:10DAB000E23F002AF7D114F40044EBD0FFF7C6FF91
:10DAC0000024E7E70080002002FC01009480002091
:10DAD00010B5FDF765FC044620B102464521024819
